:020000040800F2
:10000000C8BF0420ED020008496E0008FB4E00083E
:10001000DD6D0008950A00088DD70008000000007B
:1000200000000000000000000000000079720008DD
:100030004D0E000800000000957100088173000853
:100040000703000807030008070300080703000868
:1000500007030008070300084F0E00080703000805
:100060005D0E0008630E0008070300080703000880
:100070000703000807030008070300080703000838
:100080000703000807030008070300080703000828
:100090000703000807030008070300080703000818
:1000A000070300088DBE00080703000807030008C7
:1000B00007030008070300080703000807030008F8
:1000C00007030008070300080703000807030008E8
:1000D00007030008D5D6000831D700080703000839
:1000E000550E00080703000807030008070300086F
:1000F00007030008070300080703000807030008B8
:1001000007030008070300080703000807030008A7
:100110000703000807030008C9BF0008D5BF00088F
:100120000703000807030008070300080703000887
:100130000703000807030008070300080703000877
:100140000703000807030008070300080703000867
:100150000703000807030008070300080703000857
:100160000703000807030008070300080703000847
:100170000703000807030008070300080000000049
:100180000703000807030008070300080703000827
:100190000703000807030008070300080703000817
:1001A0000703000807030008070300080703000807
:1001B00007030008070300080703000807030008F7
:1001C00007030008070300080000000007030008F9
:1001D00007030008070300080703000807030008D7
:1001E00007030008070300080703000807030008C7
:1001F000070300080703000800F002F800F067F8A2
:100200000AA090E8000C82448344AAF10107DA4571
:1002100001D100F05CF8AFF2090EBAE80F0013F05C
:10022000010F18BFFB1A43F001031847C0810100FA
:10023000E08101000A444FF0000C10F8013B13F07C
:10024000070408BF10F8014B1D1108BF10F8015B2F
:10025000641E05D010F8016B641E01F8016BF9D122
:1002600013F0080F1EBF10F8014BAD1C0C1B09D179
:100270006D1E58BF01F801CBFAD505E014F8016BEB
:1002800001F8016B6D1EF9D59142D6D3704700007D
:100290000023002400250026103A28BF78C1FBD88F
:1002A000520728BF30C148BF0B607047642900F077
:1002B000A980782900F0E280732900F0B78200203D
:1002C00070471FB511F0DEFC1FBD10B510BD00F06A
:1002D0000DFB1146FFF7F5FF11F0B8FA00F02BFB0C
:1002E00003B4FFF7F2FF03BC11F04EFA0948804750
:1002F00009480047FEE7FEE7FEE7FEE7FEE7FEE708
:10030000FEE7FEE7FEE7FEE704480549054A064B1F
:100310007047000085730008F9010008C8B3042085
:10032000C8BF0420C8B50420C8B504207047000029
:100330000FB4044910B503AA029800F07BFA10BC70
:100340005DF814FB100002202DE9F0410E46044632
:10035000002020622046E168884730B3252805D078
:10036000D4E901219047206A401CF2E7E168204669
:1003700000278847050018D0A5F14100192802D8A8
:1003800020354FF400673246294620462760FFF7A4
:100390008DFF40B1012804D0F61D26F0070608366F
:1003A000D8E7361DD6E72846DAE7206ABDE8F081AF
:1003B00070B50C460546012A05D02878800600D580
:1003C000EA69002302E0012305E05B1C934202D2AC
:1003D000E05C0028F9D1A869E618C01AA861286A6B
:1003E000184428622846AFF3008004E0D5E90121D3
:1003F00014F8010B9047B442F8D32846AFF30080BD
:1004000070BD00002DE9F0410646002410687529F2
:10041000314616A510D0AFF30080002802DA404222
:1004200013A507E031688A0701D512A502E0490744
:1004300004D511A5012401E0AFF3008000210A22B8
:1004400006F1240709E0B0FBF2FCB0FBF2F302FB7B
:100450001C00303078541846491C0028F3D123463C
:100460002A463046BDE8F04100F05DB900000000CA
:100470002D0000002B0000002000000070B5044695
:100480000D4621461068AFF300802188090502D58A
:100490000F4A7A4402E00E4A7A440E32002104F1F7
:1004A000240305E000F00F060009965D5E54491C28
:1004B0000028F7D120780023000704D5702D02D042
:1004C00009B1022311322046BDE8704000F02BB97B
:1004D000B27E010040EA010310B59B070FD1042A48
:1004E0000DD310C808C9121F9C42F8D020BA19BAFF
:1004F000884201D9012010BD4FF0FF3010BD1AB164
:10050000D30703D0521C07E0002010BD10F8013BB8
:1005100011F8014B1B1B07D110F8013B11F8014BDF
:100520001B1B01D1921EF1D1184610BD032A40F2C7
:10053000308010F0030C00F0158011F8013BBCF185
:10054000020F624498BF11F801CB00F8013B38BF9D
:1005500011F8013BA2F1040298BF00F801CB38BFAB
:1005600000F8013B11F0030300F06780083AC0F087
:10057000088051F8043B083A51F804CBA0E8081071
:10058000F5E7121D5CBF51F8043B40F8043BAFF3A4
:100590000080D20724BF11F8013B11F801CB48BFFE
:1005A00011F8012B24BF00F8013B00F801CB48BF34
:1005B00000F8012B7047431A28BF9A427FF6B6AF66
:1005C000032A1044114440F2268010F0030F1EBF8E
:1005D00011F8013D521E00F8013D10F0030F7FF4A9
:1005E000F6AF11F0030300F04A81083AC0F00B8027
:1005F00051F8043D083A51F804CD40F8043D40F864
:1006000004CDFFF7F3BF121D5CBF51F8043D40F865
:10061000043DAFF30080D20724BF11F8013D11F86B
:1006200001CD48BF11F8012C24BF00F8013D00F8AE
:1006300001CD48BF00F8012C704710B5203AC0F03A
:100640000B80B1E81850203AA0E81850B1E81850D3
:10065000A0E81850BFF4F5AF5FEA027C24BFB1E810
:100660001850A0E8185044BF18C918C0BDE8104081
:100670005FEA827C24BF51F8043B40F8043B08BF8A
:100680007047D20728BF31F8023B48BF11F8012B51
:1006900028BF20F8023B48BF00F8012B704700003C
:1006A0004FF0013C50F8042B51F8043B9A4215D10D
:1006B000A2EB0C03934313EACC130BD150F8042B99
:1006C00051F8043B9A4209D1A2EB0C03934313EA7D
:1006D000CC13E7D04FF00000704700BFD01A01BA2A
:1006E000B1FA81F101F0180122FA01F0CB40C1F119
:1006F0002001DBB2C0B2C01A2CFA01F3D11A914327
:1007000011EAC311E6D170477047704770477047D0
:1007100010B500F0DFF8006810BD10B5044600F019
:10072000D9F8046010BD2DE9F0470D469946924670
:10073000044600F124080168880604D5E06921F028
:100740001001216000E00120A84201DD471B00E00C
:100750000027A1697A1902EB0900081AA061207824
:10076000C00602D42046AFF30080002608E0D4E99A
:1007700001211AF806009047206A401C761C20626E
:100780004E45F4DB2078C0060AD52046AFF3008042
:1007900006E0D4E9012130209047206A401C206205
:1007A000381EA7F10107F4DC07E0D4E9012118F8AD
:1007B00005009047206A401C2062281EA5F1010513
:1007C000F3DC2046AFF300802078000602D502203B
:1007D000BDE8F0870120FBE701694A1C0261087847
:1007E000704700B58FB0CDE9013100210591054971
:1007F0007944CDE9031011466846FFF7A5FD0FB017
:1008000000BD0000E5FFFFFF10B5436913B1AFF372
:10081000008001E0FFF7CCFD012010BD127800F14F
:1008200024010A7000224A700122EDE711684FF09E
:10083000FF32E9E7074B70B50D467B44FFF7D1FF68
:100840000446284600F04AF810B14FF0FF3070BD62
:10085000204670BDE30F0100431A28BF9A427FF67D
:10086000ECAE104410F0030F11441EBF11F8013D0F
:10087000521E00F8013D10F0030F7FF4F6AF103A5E
:10088000C0F00A8010B531E91850103A20E918502C
:10089000BFF4F9AFBDE81040530724BF31E9081099
:1008A00020E9081044BF51F8043D40F8043D12F01F
:1008B000030F08BF7047D20728BF31F8023D48BF79
:1008C00011F8012C28BF20F8023D48BF00F8012C88
:1008D000704700000048704764B30420007B00F0BC
:1008E000800070470048704764B304207546FFF7E6
:1008F000F9FFAE4605006946534620F007008546DD
:1009000018B020B5FFF700FDBDE820404FF000060D
:100910004FF000074FF000084FF0000B21F00701E7
:10092000AC46ACE8C009ACE8C009ACE8C009ACE82A
:10093000C0098D4670470446AFF300802046FFF79C
:10094000CFFC04F0DBBA2DE9F0470E0001464FF072
:10095000000004461ABF01EB06084FF0A009BDE8ED
:10096000F0870702A8EB0400451E04F09FFB280A4D
:1009700009EB4000C0B204F05DFB04F0E7FBE8B215
:1009800004F058FB04F0E2FB04F090FBA12004F01B
:1009900051FB04F0DBFB002004F0D8FA054604F01C
:1009A000ADFB611CE819CCB2A642DAD8BDE8F087ED
:1009B00010B5044604F07AFB200AA02101EB4000A8
:1009C000C0B204F037FB04F0C1FBE0B204F032FB2C
:1009D00004F0BCFB04F06AFBA12004F02BFB04F044
:1009E000B5FB002004F0B2FA044604F087FB204671
:1009F00010BD2DE9F04716000F4680464FF0000469
:100A000014BF4FF0A00ABDE8F08708EB0405E00032
:100A100027FA00F000F0FF0904F048FB280A0AEB6F
:100A20004000C0B204F006FB04F090FBE8B204F012
:100A300001FB04F08BFB484604F0FCFA04F086FB53
:100A400004F05CFB0A2010F0ABFE601CC4B2A642AE
:100A5000DBD8BDE8F08770B50D46044604F026FBF0
:100A6000200AA02202EB4000C0B204F0E3FA04F036
:100A70006DFBE0B204F0DEFA04F068FB284604F0F7
:100A8000D9FA04F063FB04F039FBBDE870400A209A
:100A900010F086BEFEE7000013484DF804ED87B065
:100AA000016841F080010160016801F08001059159
:100AB000016841F4807101600068694600F480704B
:100AC00005904020009001200190029003200390A7
:100AD000064802F013FD082000900548694602F020
:100AE0000DFD07B05DF804FB30380240001C0240E9
:100AF000002002402DE9F0413C4F80460024386838
:100B000020F0C0003860386838601E2010F06EFE9B
:100B1000374E002500224021304602F00CFE022014
:100B200010F064FE01223046402102F004FE60060F
:100B30000821040E384602F0F9FD00281CBF601C95
:100B4000C4B2681CC5B2082DE4D3B8F1000F4FF051
:100B500000024FF04001304624D002F0ECFD38682E
:100B600020F0C0003860386840F040003860022053
:100B700010F03CFE00223846082102F0DCFD022085
:100B800010F034FE01223046402102F0D4FD022054
:100B900010F02CFE00223046402102F0CCFD204611
:100BA000BDE8F08102F0C7FD386820F0C000386071
:100BB000386840F040003860022010F017FE012233
:100BC0003846082102F0B7FD022010F00FFE012286
:100BD0003046402102F0AFFD022010F007FE002257
:100BE0003046402102F0A7FDD9E700000020024076
:100BF000001C02402DE9F0411C4F0546386820F0EA
:100C0000C0003860386840F040003860184E00225C
:100C10004021304602F08FFD022010F0E7FD002455
:100C200015F0800F05D001223846082102F083FD1F
:100C300004E000223846082102F07DFD680601220A
:100C4000050E3046402102F076FD022010F0CEFD68
:100C500000223046402102F06EFD022010F0C6FD59
:100C6000601CC4B2082CDBD3BDE8F0810020024038
:100C7000001C024070B5134C206820F0C0002060BA
:100C8000206840F04000206001222046082102F048
:100C900052FD0D4D01224021284602F04CFD1E2040
:100CA00010F0A4FD00222046082102F044FD02209D
:100CB00010F09CFD2846BDE870400022402102F063
:100CC0003ABD000000200240001C024010B5104C4C
:100CD000206820F0C0002060206840F040002060C4
:100CE0000C480122402102F026FD1E2010F07EFD5E
:100CF00000222046082102F01EFD022010F076FDA1
:100D000001222046BDE81040082102F014BD000079
:100D100000200240001C024070B5284E00243068BC
:100D200020F0C00030603068306001220821304679
:100D300002F001FD224D01224021284602F0FBFC79
:100D4000022010F053FD0821304602F0EFFC00288D
:100D50002CD0601CC4B2FA2C1FD93068344620F065
:100D6000C0003060306840F040003060012228460A
:100D7000402102F0E0FC1E2010F038FD0022204649
:100D8000082102F0D8FC022010F030FD012220469C
:100D9000082102F0D0FC012070BD022010F026FDD9
:100DA0000821304602F0C2FC0028D2D10022284699
:100DB000402102F0C0FC002070BD00000020024075
:100DC000001C024070B4BFF34F8FBFF36F8F1A49FE
:100DD00000200860194D296841F400312960BFF3F3
:100DE0004F8FBFF36F8F16490860BFF34F8F081FF7
:100DF000006843F6FF76134AC0F34E3CC0F3C904C3
:100E000006EA4C11204641EA80731360401EFAD274
:100E1000BCF1010CF4D2BFF34F8F286840F480304E
:100E20002860BFF34F8FBFF36F8F0748016841F011
:100E30000401016070BC704750EF00E014ED00E069
:100E400084ED00E060EF00E09CEF00E070470120DF
:100E500002F048BB4FF4005002F044BB042002F003
:100E600041BB082002F03EBB2A4810B586B001689D
:100E700041F001010160016801F001010591016883
:100E800041F004010160016801F00401059101686D
:100E900041F08001016000680124694600F0800093
:100EA00005901D48CDE90040022002901B4802F049
:100EB00025FB600300901A486946CDE901041948F2
:100EC00002F01CFB0C2000901748694602F016FB4C
:100ED00000220221062002F09FFC062002F08FFC77
:100EE00001220221082002F097FC082002F087FC72
:100EF00002220920114602F08FFC092002F07FFC3B
:100F000003220221282002F087FC282002F077FC2F
:100F100006B010BD30380240000011100000024041
:100F20000000211000080240001C0240B3F5804F71
:100F300030B418BF6FF0704104D040F8221030BCBC
:100F40000020704750F82230DFF824C08D8903EA72
:100F50000C03D1E900C44CEA041C8C6889692402A2
:100F600044EA05444CEA040C4CEA01011943E4E765
:100F70000000F0CF70B4D1F800C050F82C201B4B0B
:100F8000D1E903561A40D1E9014335431C432C43B0
:100F90004D692C438D692C43CD692C430D6A2C433C
:100FA0004D6A2C438D6A2C43CD6A2C430D6B2C4328
:100FB0008D6B2C434D6B2C432243082B08BF42F012
:100FC000400240F82C200A6BB2F5801F05D10A6858
:100FD0004AB1026842F4801202600A681AB10268DB
:100FE000496B1143016070BC002070478004C0FF52
:100FF00000EB820270B453684FF07E46D1E900C422
:101000008D8903F040434CEA041C8C68240244EAB6
:1010100005440D8A4CEA0404DFF834C00CEB055596
:101020002C430D7D06EB05652C438D692C43234332
:101030005360026812F4801F07D04268098A22F4C4
:1010400070020CEB01511143416070BC00207047ED
:101050000000F0FF4DF8044DD1E901320C68134354
:10106000D1E903C24CEA02021A434B6913438A696D
:10107000012C046843EA020CCB690A6A496A08D069
:101080004CEA03031A4311436FF30E04214301603A
:101090000BE024F4F8441A4321430A4341680260F8
:1010A0006FF30E014CEA010141605DF8044B002032
:1010B0007047426942EA4101416100207047F8B53A
:1010C00014460546D1E900026FF01F0310438A68F9
:1010D000C96803EB421242EA4121084300902861AB
:1010E00002F02EFB0646A86910F0200F0ED0B4F1D6
:1010F000FF3F07D024B102F023FB801BA04201D99F
:101100000320F8BDA86910F0200FF0D10020F8BD31
:101110002DE9F001D1F804C06FF00F050B682C0128
:101120005B1E05EB0C1C43EA0C03D1F808C04FEA28
:101130000428270304EB0C2C43EA0C050B8A260435
:10114000CC68012A826808EB034C8B8A097E07EB86
:10115000035306EB01610DD0361306EB04342C4328
:1011600044EA0C0C4CEA0303194302F070421143A9
:10117000816012E0240322F47042A4F580542343DA
:1011800022F470021A43C36845EA0C0C826003F033
:1011900070434CEA01011943C160BDE8F001002031
:1011A0007047000030B5394887B0016841F08001D0
:1011B0000160016801F080010691016841F48071CD
:1011C000016000680024012500F4807006908020F2
:1011D000CDE90104032001A9CDE903502C4802F018
:1011E0008DF92802CDE901052A4D01A9284602F012
:1011F00085F9FFF751FC00222846A91502F09BFA59
:10120000142010F0CDFA01222846110202F093FAC0
:10121000322010F0C5FA0122694600208DF8004006
:1012200000F040F901226946A42000F03BF91620A5
:10123000694601228DF80000802000F033F90C206F
:10124000694601228DF80000882000F02BF9022267
:101250006946A12000F026F89DF80000302804BF60
:101260009DF80110032907D09DF8011001291FBF27
:101270000229012007B030BDC9B201EB002106A050
:10128000FFF756F807B0002030BD000030380240AC
:10129000001C0240002002404354502049443A259B
:1012A000780D0A002DE9F04115460E460446FFF779
:1012B000E1FC7020FFF79EFCFFF72EFDE0B2FFF788
:1012C00099FCFFF729FDFFF7D5FC7120FFF792FC91
:1012D000FFF722FD0024002D88BF6F1E0AD9BC42F3
:1012E00014BF01200020FFF705FC3055601CC4B27C
:1012F000AC42F4D3BDE8F041FFF7E8BC2DE9F14F73
:10130000DFF88CB10025DFF8909182B02C469BF875
:101310000000401CC1B25F488BF80010A0FB012008
:10132000C008404200EB800011EB400001D00A29C8
:101330007ED20122022002A9FFF7B4FF9DF8080027
:1013400010F00F0F74D000F00F0006287ED2FF219E
:101350004FF0000A01FA00F0C04340F0C00089F8E5
:101360002000012099F82010A84001425CD04B4891
:101370000426E84610F81540FFF77CFC7020FFF7C4
:1013800039FCFFF7C9FCE0B2FFF734FCFFF7C4FCFF
:10139000FFF770FC7120FFF72DFCFFF7BDFC002468
:1013A000771EBC4214BF01200020FFF7A3FB08F802
:1013B0000400601CC4B2B442F3D3FFF787FC99F871
:1013C00030009DF8001010F0010F9DF8010001F0B1
:1013D0000F0100EB01210CD009EB4500C1829DF803
:1013E00002209DF8031002F00F0201EB022181811F
:1013F0000EE02B480088411A09EB450081819DF8D9
:1014000002209DF8031002F00F0201EB0221C182BD
:101410009DF8000000F0F000802805D009EB4500A1
:10142000A0F816A0A0F80CA0681CC5B2052D00E01D
:101430000CE096D3B9F80C100124002902BFB9F8CA
:10144000160000288DF808A08BF800A09DF8080071
:1014500010F01F0F11D199F8200010F0800F18BF65
:1014600020F0800007D14FF6FF71A9F80C1000F0B2
:10147000E000A9F8161089F820009BF80000F02879
:1014800084BF0A208BF80000204603B0BDE8F08F2F
:101490001C000220CDCCCCCC24000220A61C0108CC
:1014A000E40702202DE9F041002716460D460446C8
:1014B000FFF7E0FB7020FFF79DFBFFF72DFCE0B28C
:1014C000FFF798FBFFF728FC0024002E0AD9285DBF
:1014D000FFF790FBFFF720FC070003D1601CC4B2AC
:1014E000B442F4D3FFF7F2FB3846BDE8F0810000C8
:1014F0002DE9F041534888B0016841F08001016056
:10150000016801F080010791016841F48071016078
:10151000006800240326DFF8308100F48070079013
:101520008025694601274046CDE90054CDE9027681
:1015300001F0E4FF68006946CDE90007434F3846F3
:1015400001F0DCFFFFF7A8FA00223846690002F03C
:10155000F2F80A2010F024F901223846110202F0B4
:10156000EAF80A2010F01CF9CDE90054CDE9024652
:101570006946404601F0C2FF642010F011F90422D0
:1015800048F2401005A900F07BF805A98DF8184035
:101590002FA0FEF7CDFE31A105A8FFF781F80028A6
:1015A0001EBF012008B0BDE8F0810220012205A97C
:1015B0008DF8140048F2400000F08EF9012248F244
:1015C000470005A900F05CF89DF8141060292AD2A4
:1015D00024A0FEF7ADFE28488088A0F5AA41103966
:1015E00021D18DF81C4001218DF81D1000202349C8
:1015F0009DF81C200B5C401CC0B2B8281A448DF822
:101600001C20F5D3D0B21D49C043401C8DF81C00EE
:10161000B82248F2470000F05FF9022248F2FF00CA
:1016200007A900F059F90A2010F0BAF8012248F28F
:10163000400005A98DF8144000F04EF908B00020D4
:10164000BDE8F08130380240001C0240002002401A
:101650004354502049443A25730D0A003931343738
:101660000000000044656661756C74205665723A2E
:1016700025640D0A00000000E4070220B01C0108E8
:101680002DE9F04115460E460446FFF7F3FA2820EF
:10169000FFF7B0FAFFF740FB200AFFF7ABFAFFF7BE
:1016A0003BFBE0B2FFF7A6FAFFF736FBFFF7E2FAE3
:1016B0002920FFF79FFAFFF72FFB0024002D88BF9A
:1016C0006F1E0AD9BC4214BF01200020FFF712FA96
:1016D0003055601CC4B2AC42F4D3BDE8F041FFF712
:1016E000F5BA00002DE9F14F764E0024764982B01C
:1016F000764DA2463078401CC0B23070A1FB00216C
:10170000C908494201EB810110EB410101D00A28CF
:101710007BD2012248F24E1002A9FFF7B1FF9DF8DB
:1017200008004FF0000910F0800F0BD000F00F0000
:10173000062807D2012248F24E1001A98DF8049024
:1017400000F0CAF89DF8080010F00F0F5DD000F00F
:101750000F00062859D2FF21DFF874B1DFF8748139
:101760004FF0010A01FA00F08DF80400C04395F82B
:10177000207040F0C00085F82000A889A882E88A7F
:10178000E88395F820000AFA04F1084250D03BF8AB
:10179000140004226946FFF773FFB8F80400A0F5AF
:1017A000AA41103904D0A0F58641423917D03FE054
:1017B00095F8300010F0010F16D09DF801109DF83B
:1017C000000000EB012105EB4400C1829DF80320DD
:1017D0009DF8021001EB0221C1F5487127E095F850
:1017E000300010F0010F11D09DF801109DF800009D
:1017F00000EB012105EB440081819DF803209DF859
:10180000021001EB0221C18212E03BE09DF80110C1
:101810009DF8000000EB012105EB4400C1829DF81A
:1018200003209DF8021001EB0221C1F5887181812E
:10183000601CC4B2052CA4D3A9894FF0010AB8F8E2
:10184000002028468A4207D3C18AB8F802208A427B
:1018500028BF86F8009015D29DF8081001F00F01FE
:10186000012906D9C1898181018BE98286F800901E
:1018700008E0818A8181C18BC18280218DF80810A6
:1018800085F820709DF8080000F08F0080280FD1A7
:1018900095F8200010F0800F18BF20F0800005D1CF
:1018A0004FF6FF71A98100F0E000E98285F8200081
:1018B0003078F02884BF0A203070504603B0BDE86D
:1018C000F08F00001D000220CDCCCCCC24000220E3
:1018D000681D0108E40702202DE9F04100271546A4
:1018E0000E460446FFF7C6F92820FFF783F9FFF7F5
:1018F00013FA200AFFF77EF9FFF70EFAE0B2FFF7BE
:1019000079F9FFF709FA0024002D0AD9305DFFF7B5
:1019100071F9FFF701FA070003D1601CC4B2AC42B1
:10192000F4D3FFF7D3F93846BDE8F0812DE9F04F45
:10193000DFF828B191B04FF0FF35DBF80030B3F994
:1019400022100691DE69B3F92490F469A1898142DD
:1019500006D8E289824203D3471AD4F8008012E005
:10196000D4E9018100296FD00A8882426CD84D8861
:10197000854269D3801A82B2486800EB8200B0F9D0
:101980000070B0F90250781C5ED0307EA17C10FB54
:1019900001FA217CCDE90701B3F92A60304604F051
:1019A0006DFEC0B20E90DBF8000007FB0A81A37C3D
:1019B000826B0127CDE90412CDE90273C069089A50
:1019C000C17E807ECDE90001DDE90603494603F0D2
:1019D000B9FC681C18D046F0020004F04FFEDBF89A
:1019E0000000A37C05FB0A81826BCDE90273CDE97F
:1019F0000412C069089AC17E807ECDE90001DDE94C
:101A00000603494603F09EFCDBF800005D46C06912
:101A1000417E007E814214D9022E12D086F004004D
:101A200004F02CFE2868C069027EC37E12FB03917D
:101A3000437E857E089A06984B4412FB050204F00B
:101A40005FF80E9804F01AFEDBF80000627C418C0F
:101A50001144418411B0BDE8F08F0000A4000220C1
:101A600004480068C069C06909B1027C0A60407C12
:101A700070470000A4000220022008807047C0695F
:101A800082898A4202D8C2898A4210D2806880B193
:101A900002888A420DD843888B420AD3406800EB03
:101AA0008100A0EB8200B0F90000002801DB0120DA
:101AB00070470020704700002DE9F043304C03468A
:101AC00087B020681946B0F92A60C069C06900F083
:101AD00086F8002850D041680088181A01EBC0052C
:101AE0003046AF7804F0CAFD814620686A68012359
:101AF000816BCDE90237CDE90421C169CB7E8A7EB5
:101B0000CDE900230B7EB0F924102A78B0F9220029
:101B100003F018FC2068C069417E027E91421FD903
:101B2000C07E11FB00F812FB00F7022E18D000F067
:101B3000D5FC064600F0A0FC00F00BFF21682A78D7
:101B4000CB69B1F92200DB7E12FB0302B1F924104C
:101B500001EB0803394403F0D3FF304600F0F9FEEF
:101B6000484604F08BFD20686A78C369B0F92210FA
:101B70009B7E12FB0311418407B0BDE8F083000097
:101B8000A400022030B50F4C05460B4620682946BC
:101B9000C069C06900F023F8002812D041680088AD
:101BA00024682A1A0120E46900EBC200085CA47EC4
:101BB00010FB04F0002B04D011F8321011FB04F1DB
:101BC000196030BDA400022001200880704700B5D4
:101BD000C06900F004F8002800D0012000BD06E034
:101BE00002888A4202D842888A4202D2806800284B
:101BF000F6D1704770B50025124C19E020691249E2
:101C0000C5EB051600EBC60070220968001DFEF743
:101C100014FD2069002140F8361000EBC60000F1E9
:101C20000C018161011D0A1DC0E90F126D1C416488
:101C3000A0688542E2DB00F0E5FCBDE8704001F001
:101C4000DDB80000B4010220A400022070B50F49E5
:101C50000D480860084601F035FB0C4C143CA068A8
:101C6000C0EB0010C500284600F06AF82A460021A3
:101C7000206101F02FFB4FF0FF30206001F0E0F811
:101C8000BDE870400EF054B9A9020108C801022055
:101C900010B5040009D000F0B5FC20460CF040FD62
:101CA000044601F0ABF8204610BD002010BD38B549
:101CB000054600F0A7FC2846FFF7EAFF040009D01C
:101CC00000F0B6F82A460021009001F003FB6846B8
:101CD00000F0CAF801F092F8204638BD024A1060C0
:101CE00021F003005060704780B1042010B504005B
:101CF00016D000F087FC0B48406B10F8341059B137
:101D0000022909D2042101EBC401415848680CF0B2
:101D1000BFFC20460EF0FCFABDE8104001F06EB8A2
:101D200010BD0000C0B00420002805D0034AD16BCC
:101D3000016001B14860D06370470000C0B004206A
:101D40002DE9F04104460EF0BBF92848E41C24F0CC
:101D50000305016C2D1DA94200D90D46C46B13E08B
:101D600054F8042CAA420ED184B1216809B16268EA
:101D70004A60616809B122680A60C26BA24231D12F
:101D80002168C1632EE02468002CE9D18046816B74
:101D9000C0680F1857F8040C3E1A306838B100209C
:101DA0000EF0F2FA57F8040C3E1A3068D0B9706899
:101DB000A84217DB3044441B3046241D0EF0CAFAFB
:101DC000D8F80C10491BC8F80C10D8F81410294486
:101DD000C8F814107068401B02D031460CF058FC53
:101DE00044F8045C2046BDE8F0810000C0B0042047
:101DF00010B500240EF064F90C490F2001EBC0026D
:101E0000526C1AB101EBC000406C08E0401EF5D5E1
:101E100008E04168A14200D90C46806810B1806892
:101E20000028F6D1A4F10C0010BD0000C0B00420C1
:101E30000549CA69521CCA61496B01EBC0010A78A5
:101E4000521C0A7000F028B8C0B0042005491028C0
:101E500005D94A68B0EB520F02D3500800E01020B9
:101E60008860704780B104200A4902684B6B52F8C1
:101E7000082C03EBC2021378022B03D3CB690BB1FE
:101E80005B1ECB611178491E11700021016008466C
:101E900070470000C0B00420002806D00349042287
:101EA00002EBC000496B085808307047C0B00420EE
:101EB000F0B52D271C68B0F1004F08D0002600288F
:101EC0000DDA651C1D6027704042012408E0651C86
:101ED00001261D606FF000402770491E01E00024BC
:101EE000091BC9B22AB3491EC9B222E00C46491ED9
:101EF000C9B2944205D1124C27781C68651C1D603C
:101F00002770104C54F8215090FBF5F4E4B20A2CE1
:101F100011D804FB150011B90EB1641CE4B20A2CEF
:101F200002D10124491CC9B21D686F1C30341F60E6
:101F30002C700029DAD1196800200870F0BD00006B
:101F400098000220E481010810B5002807DD0A6826
:101F50002B24531C0B601470096800220A7010BDFA
:101F600070B514460D46064600F04CFB204600F0C6
:101F7000C1FA0300174804EB840109D050F821008E
:101F800041688068711A2A1A184600F003FD1CE0A7
:101F900000EB8104A268B24201D0012200E00022DD
:101FA000E368AB4201D0012300E000231A430CD0C8
:101FB000236943B150F82100816840686A1A311AD8
:101FC000184600F081FCC4E90265BDE8704000F0ED
:101FD00015BF0000FCB1042010B5C2B2CBB2D21ABA
:101FE00000D5524293B25B43C0F30722C1F30724EA
:101FF000121B00D55242000C92B2A0EB114002FB22
:10200000023200B2002801DA404200B280B200FB86
:10201000002010BD10B50021084600F0C5FA43F6B7
:10202000FF725042BDE8104013460146AFF30080F6
:102030002DE9FC411C4615460E46074600F0E2FA23
:10204000042004F01BFB80461248C068C16C006D80
:102050000F4406440D440444ADF80070ADF804503C
:10206000ADF80260ADF8064068460CF0ADF807E048
:1020700023462A463146384603F042FD0CF066F806
:102080000028F5D1404604F0F9FA00F0B7FEBDE8AB
:10209000FC810000980002202DE9F0411C46164604
:1020A0000D460746022B02DB0020BDE8F0811C2014
:1020B000FFF746FE0028F8D00DB105610AE0094A95
:1020C00052F8241009B905E011460A68002AFBD12C
:1020D0000969016184618682002101604160C0E973
:1020E0000217E2E7BC00022070B51D46FFF7D4FFDF
:1020F000040009D000F00EF8E068006820B9034839
:10210000006800EB85008465204670BDA4000220B5
:10211000FFF70ABE70B590B38269022A30DA1E4C0E
:1021200054F8221019B944F8220032E019464B68DD
:10213000002BFBD106E0CB68C5681B682D68AB425D
:1021400003DD09680029F6D11AE0C1B1CB68C66881
:102150001B683668B3420CD1838A012B05D008E096
:102160001946DB681B68AB4203DB0B68002BF7D119
:1021700029B14B6833B118604A68426004E0FFE758
:10218000012070BD44F822004860884200D100213F
:102190000160002070BD0000BC00022010B503E00B
:1021A0000468FFF7B7FF20460028F9D110BD0EF0F4
:1021B000DFBD00002DE9F0410026DFF834800D4F2F
:1021C000354600BF58F8254009E0E0680068385CF3
:1021D00020B120460EF0CCFD266026462468002C57
:1021E000F3D16D1C022DEDDB3046BDE8F08100001F
:1021F000BC00022020650108022801DB0020704796
:10220000054951F8200004E0C16809680029F6D0AA
:1022100000680028F8D17047BC0002201FB503AB4E
:10222000CDF80CD0FFF744FE684600F019F81FBD4A
:102230007FB50C461546CDF80CD003A9FFF784FEF8
:10224000002801DD641EE4B203AB2A462146FFF7F5
:102250002FFE684600F004F87FBD01220CF0CEBBD3
:102260002DE9FC4706005FD000F0CCF900F04CF9F6
:102270003C4C81462068B0F9228000F067F9216863
:1022800007468A8CD01B888441E000BF47F6FF7167
:10229000304600F009FF82460146304600F0DAFE83
:1022A0002168054691F82C0000F00300012841D078
:1022B00002283BD000204A8C101A4884ADF8000058
:1022C0006A1E1044ADF80400888CADF80200A9F134
:1022D00001010844ADF806006A465146304600F058
:1022E00061FE2168BDF8020088845146304600F046
:1022F00047FD064430780A281ED00D281CD0BDF8B2
:102300000000216828444884307818B1761C307861
:102310000028BBD12068818C39448184818D21F0D3
:102320000301818500F06AFDBDE8FC8705EBD570EF
:102330004010C0E72846BEE7206890F82C1001F056
:10234000030101290BD0022909D0018C4184317885
:102350000A29D9D1828C02EB09018184D4E7A0F843
:102360002280F4E7A400022070B514460D4606460C
:1023700000F048F905480068458484843046FFF73A
:102380006FFFBDE8704000F039BD0000A4000220DE
:102390002DE9F04107460A4815460E460068B0F997
:1023A0002C0040F0020000F025FB04462A4631468E
:1023B0003846FFF7D9FF2046BDE8F04100F01ABBD0
:1023C000A400022008B50B46002805D000928188A1
:1023D0008268C08800F001F808BD10B50828029C8A
:1023E00030D008DC04FB01F401280AD0022813D005
:1023F000042804D11CE0102828D020282CD000204C
:1024000010BD04EBD30003F00701105CC1F107011C
:10241000C84000F0010010BD04EB93000621105CE1
:1024200001EA4301C1F10601C84000F0030010BDFC
:1024300004EB5300D907105C02D000F00F0010BD70
:10244000000910BD04FB0130105C10BD481004FBF6
:10245000003032F8100010BD881004FB003052F834
:10246000200010BD034951F82000C1688A6A082184
:1024700010470000BC00022010B500F0C3F803F0C4
:102480006FFB03F0EBFB044600F0B8FC204610BDE8
:1024900010B5044600F0B6F8054800210068C06990
:1024A000426820469047044600F0A8FC204610BD34
:1024B000A400022070B50C46054600F0A3F80648BB
:1024C00021460068C069426828469047044600F0EB
:1024D00095FC204670BD0000A400022010B500F05D
:1024E00091F803F045FB03F0B9FB044600F086FCCD
:1024F000204610BD0021022802D2024951F82010C6
:1025000008467047AC01022010B500F07BF8044883
:102510000068C069447E00F071FC204610BD0000D8
:10252000A400022070B514460D46064600F06AF875
:1025300022462946304603F04FFB10B100202860A8
:102540002060BDE8704000F059BC000010B50024C8
:1025500000F058F80B48006890F82C1001F00C01BE
:10256000042904D0082906D00C2907D103E0C0694A
:10257000047E641E02E0C069007E440800F03EFC58
:10258000204610BDA4000220024951F82000006935
:1025900000687047BC000220024951F82000006921
:1025A00040687047BC00022070B50D46044600F03C
:1025B00029F820460DF0DAFC044628460DF0DEFC32
:1025C000044300F01BFC204670BD000010B500F075
:1025D000CDFC0A492E20087000F031FC08480DF0AF
:1025E00037FD03F05FFB04460021084600F0E2F9E6
:1025F0000BF0E2FBFFF7FEFA204610BD9800022028
:102600008CB1042070B5184CE06820B100F015FCC6
:102610006168884204D000F014FC00F00EFC606099
:10262000E068401CE06001281CD10DF081FC0546EB
:102630002068854216D0002813DBFFF7BBFD01465A
:102640002068C0EB0012206900EBC2025167C5EBA5
:102650000511064A00EBC100011D1160406FFFF734
:102660009DFD256070BD0000B4010220A400022081
:1026700038B504001CD0FFF7C5FF0E480068006E97
:10268000A04201D100F031F92046FFF7D1FB0090C4
:10269000406908B100F09CFB00980068FFF738FD26
:1026A0006846FFF7E1FB2046FFF720FB00F0A6FBA2
:1026B00038BD0000A400022038B505004FF000042A
:1026C00011D0FFF79FFF2846FFF7B2FB009000688C
:1026D00000698068804704F0EDFA04466846FFF719
:1026E000C3FB00F08BFB204638BD38B504000ED08C
:1026F000FFF788FF2046FFF79BFB00F118040090CE
:102700006846FFF7B1FB00F079FB204638BD00209A
:1027100038BD0000F8B50546FFF774FF104E30686D
:10272000046ECDB10CB100F0E0F80BF025F92846AD
:10273000FFF77EFB009031680D660068FFF7EAFC4A
:102740006846FFF791FB04F009F903F019FE00BF9A
:1027500000F054FB2046F8BD00F0C7F8F8E7000091
:10276000A4000220F8B516460F46050012D0FFF768
:102770005FFB009044696846FFF776FB2846FFF749
:102780009BFF0346082800DD2CB132463946284617
:102790000EF00EFBF8BD3246394628460EF0A8FC76
:1027A000F8BD10B5002821D009B30AB3B1F9004033
:1027B000B2F900309C4200DA23460380B1F90240AE
:1027C000B2F902309C4200DA23464380B1F904405A
:1027D000B2F904309C4200DD23468380B1F9061033
:1027E000B2F90620914200DC1146C18010BD1146AD
:1027F0000A6802604968416010BD00280BD0038858
:102800000B440380838819448180418811444180AE
:10281000C1881144C180704770B50E4D0446D5E99A
:102820000001884209D10C49884201D13C3000E0C6
:102830000C3807C884E8070006E090E80E0084E83A
:102840000E000DF0A3FB2860207A002800D00120A4
:1028500070BD0000D800022024B204200448D0E952
:102860000010814201D10120704700207047000014
:10287000D8000220054A10B5034911600EF0B6F9E0
:10288000BDE8104000F0C6B841DA0008C4000220DC
:10289000B0F90220B1F906309A4213DCB1F90220F6
:1028A000B0F906309A420DDCB0F90020B1F90430DD
:1028B0009A4207DCB1F90010B0F90400814201DC52
:1028C000012070470020704770B515460E46040081
:1028D0000AD0FFF797FE2A46314620460DF0F2FE59
:1028E000BDE8704000F08ABA70BD10B5FFF78AFEEF
:1028F00003F0FCFC04F032F80AF04AFFBDE8104097
:1029000000F07CBA70B50B4D04462868467CFFF792
:1029100079FE022C09D22046FFF76EFC28B1286808
:102920004474FFF7E2FF0448046000F067FA3046A1
:1029300070BD0000A40002202801022010B504464A
:10294000FFF760FE204603F0F1FCBDE8104000F008
:1029500055BA10B50446FFF755FE204603F01EFD9C
:10296000BDE8104000F04ABA014988607047000095
:102970009800022070B50446FFF744FE0448006842
:10298000C56904B1C46100F039FA284670BD000081
:10299000A400022070B514460D460646FFF732FE2D
:1029A00022462946304603F085FE044600F026FA0A
:1029B000204670BD70B50C460546FFF723FE09485A
:1029C000224605800848048008480068417C084881
:1029D00050F82100C1680B6A29469847BDE870404D
:1029E00000F00CBAD4000220D6000220A40002207D
:1029F000BC00022070B50446FFF704FE04480068DE
:102A0000B0F92C50848500F0F9F9284670BD00001B
:102A1000A400022002480068002800D00047704748
:102A2000D801022002498A6802B98860FFF7F2BF24
:102A30009C0102202DE9F84FDFF898800546264FCB
:102A400098F818008B46410738680A9E9946407CE2
:102A5000924607D403F0D6F804463868407C03F069
:102A6000D4F806E003F0D1F804463868407C03F05F
:102A7000C9F8002785B1441EB9EB060000D54042D5
:102A8000142806DB5146BBEB0A0000D5404214284F
:102A900004DA0120BDE8F88F641EEDE70A464B46D4
:102AA0005946384600960DF09FFB0C4F4B46524658
:102AB00047F835005946204600960DF095FB07EB88
:102AC000C50148600DF0A6FD01210020C8F81C10CA
:102AD000E0E70000E4000220A400022078B2042015
:102AE0002DE9F0474D4D4E4E0024E86950B9E86895
:102AF000346074604107B4604107F4600DF08AFDF2
:102B00000120E8612878C8B100F0D4F8A8466860D0
:102B100000F0CEF86968286A81420BDBD8F82420DF
:102B20004046914206DC836A82689A4202DBC36AAD
:102B30009A420DDD4FF0FF3001466AE000F0E2F806
:102B4000A86000F0B6F82878401C2870BDE8F0872F
:102B5000326898F81800334F8D1A40073868407C67
:102B600002D403F04FF801E003F04FF8D6E900215A
:102B7000401E4543B146891A95FBF1F6D8F8082066
:102B8000D9F80800151A98F8180040073868407CF2
:102B900002D403F03AF801E003F034F8401E454354
:102BA000D9E90201081A95FBF0F598F818004007DA
:102BB0003868407C17D403F025F881463868407C9B
:102BC00003F023F8D8F818200146D00703D0A9EB6A
:102BD0000600401E00E03046920702D5491B491E00
:102BE00017E0294615E003F010F881463868407C6C
:102BF00003F008F8D8F81820D10703D0A9EB060194
:102C0000491E00E03146920702D5401B401E00E0FD
:102C100028460EF01FF888F8004097E7E4000220ED
:102C200078B20420A40002200149886170470000A6
:102C3000E4000220074A002806DB002904DB012308
:102C40001372C2E9000101E000201072014800F097
:102C500003B8000040B3042010B504460C22084914
:102C6000FDF738FC002809D0054894E80E0080E8FC
:102C70000E002046BDE81040FFF7FCBD10BD00006F
:102C80006CB20420094B30B41A68821A00D5524243
:102C90005C680C1B00D564422244022A04DDC3E9AF
:102CA000000130BCFFF7C6BF30BC7047D001022026
:102CB00070477047114810B58088A0F5AA411039B7
:102CC0001CBFA0F5C851B1F1630111D0A0F5E041DE
:102CD00084391FBFA0F58441B1F5A171A0F5E04191
:102CE000B1F1160104D0BDE81040D0200AF06AB955
:102CF000034C002061688847A08910BDE4070220CA
:102D000024000220114810B58088A0F5AA4110398E
:102D10001CBFA0F5C851B1F1630111D0A0F5E0418D
:102D200084391FBFA0F58441B1F5A171A0F5E04140
:102D3000B1F1160104D0BDE8104090200AF042B96C
:102D4000034C002061688847E08A10BDE407022038
:102D5000240002202DE9F041084E04460568306841
:102D600001682846884707463068416828468847F2
:102D7000284420603846BDE8F0810000A800022009
:102D80002DE9F0410C4606460025064F05E038685F
:102D900041683046884706440544641EF7D22846F9
:102DA000BDE8F081A80002202DE9F0411E46069CF6
:102DB0001746884605463A46A8687F1C3346D0F831
:102DC00004C041462846E047641EF4D1BDE8F081C6
:102DD00038B50546FFF716FC2846FFF729F800909E
:102DE0008189491E0CB284816846FFF73DF814B909
:102DF0002846FEF77BFF00F001F838BD0348C168A4
:102E0000491EC16001D100F01DB87047B401022015
:102E100001204FF4000110B50EF0F8FE4FF4000150
:102E2000FEF75CFF8020FFF711F8BDE81040014875
:102E3000FFF79ABD346C0108704700207047704757
:102E4000704770477047000010B5082A0EDC034633
:102E5000012A18D0022A56D0042A76D010F8042B62
:102E600003F8012B491EF9D1012010BD102A08DCFE
:102E70004FEA000230F8043B22F8023B491EF9D128
:102E8000F2E7002010BD10F8042BD207120E491EE5
:102E900034D010F8044B491E04F0010442EA8412B5
:102EA0002CD010F8044B491E04F0010442EA4412ED
:102EB00024D010F8044B491E04F0010442EA041225
:102EC0001CD010F8044B491E04F0010442EAC4026D
:102ED00014D010F8044B491E04F0010442EA8402A5
:102EE0000CD010F8044B491E04F0010442EA4402DD
:102EF00004D010F8044B04F00104224303F8012B22
:102F00000029C0D1B0E710F8042B9207120E491E19
:102F100015D010F8044B491E04F0030442EA0412D1
:102F20000DD010F8044B491E04F0030442EA840259
:102F300005D010F8044B04F003042243491E03F8A3
:102F4000012B0029DFD18FE7FFE710F8042B1207D0
:102F5000120E491E05D010F8044B04F00F04224352
:102F6000491E03F8012B0029EFD17DE70B4810B56E
:102F70008169002910D101218161FFF749FFFEF726
:102F800065FE03F0FDFC054905481C310860BDE8FD
:102F90001040084600F096B910BD000098000220CD
:102FA000490201087CB5064628480D46006868B10C
:102FB00000200BF009F906E06A46294630460BF07E
:102FC0003DFD0BF0C3F80028F6D17CBD10680090E1
:102FD0001F4C506801902268BDF8000032F84C1F69
:102FE0000844ADF80000BDF8020091880844ADF82F
:102FF0000200BDF8040011880844ADF80400BDF8D3
:10300000060091880844ADF8060068460BF0DCF82D
:103010000EE000BF2068BDF800106A464184BDF88C
:1030200002108184294630460BF008FD0BF08EF823
:103030000028EFD1206830F8221F428D891A0180C4
:103040004188C28D891A41807CBD0000D0000220D9
:10305000A400022073B5124A01A900981268904793
:1030600000240090C8B10F4900250968C969496961
:1030700059B10A684AB1019990477CBD6846FFF78B
:1030800069FE0546FFF704FA04440198401E0190CA
:10309000F4D5284600F024F8044420467CBD000006
:1030A00098010220A400022073B50D460098002468
:1030B00090B10A490968C969496959B14A684AB170
:1030C000294690477CBD6846FFF744FE20B10A2898
:1030D00002D0641CAC42F6DB20467CBDA40002207A
:1030E00038B5002469460094FFF7E4F9009981425D
:1030F00000DD0C1A204638BDB0F90030B1F90020CF
:10310000934200DA0280B0F90230B1F90220934212
:1031100000DA4280B0F90430B1F90420934200DDB6
:103120008280B0F90620B1F906108A4200DDC18024
:10313000704770B5B1F90040B2F900309C4200DD33
:1031400023460380B1F90250B2F90240A54200DDE6
:103150002C464480B1F90460B2F90450AE4200DA62
:1031600035468580B1F90610B2F90620914200DBA0
:103170001146C1809D4201DBA14201DA002070BDF1
:10318000012070BD014602480068407C00F002B892
:10319000A40002202DE9F8430126044689460228AE
:1031A00057DADFF8B480080008F1040530D00128B0
:1031B00002D002294DD116E055F8240088B92046E6
:1031C000FFF71AF8009010B3C0680D21426A6846F4
:1031D000904702003DD049460098904755F824009A
:1031E0000026401C33E02046FFF706F8009070B13F
:1031F000C0680D21426A68469047040029D0D8F87B
:10320000000000B1804749460098A047002620E012
:1032100055F82400012813D12046FEF7EDFF009059
:1032200070B1C0680D21426A68469047070007D018
:10323000D8F8000000B1804749460098B8470026FA
:1032400055F8240008B1012100E00021401A45F89A
:1032500024003046BDE8F8838401022070B5FF23C6
:10326000B3EB116F2CD0C3B213FB02F500F47F4413
:1032700000F47F0354435343000E10FB02F6C2F1E7
:10328000FF00CAB212FB005201F47F4505FB004467
:1032900001F47F0505FB0033090E11FB0065C2F345
:1032A00007204FF47F024FF47F4102EA132201EA24
:1032B00014214FF07F43084303EA054310431843AA
:1032C00070BD000002494A694260486170470000D1
:1032D0009800022010B502E000F8011B521E0AB14E
:1032E0008307F9D1930818D001EB014402F00302DF
:1032F00004EB042406E010C01B1F10C040F8084B6C
:1033000040F8044C042BF6DA01E010C05B1E002BE1
:10331000FBD102E000F8011B521E002AFAD110BDB9
:1033200010B5830702D520F8021B521E530811D096
:1033300001EB0144042B09DB10C01B1F10C0042B40
:1033400040F8084B40F8044CF6DA01E010C05B1E70
:10335000002BFBD1D20700D0018010BD90F83510B2
:10336000022903D08021416501207047052180F8A2
:1033700035100068016821F00101016000207047EC
:103380002DE9F041002604463220B0460EF008FA3E
:10339000454D0027012C21D04448042C444E3CD0FC
:1033A000082C56D0B4F5005F18BFBDE8F0814FF48B
:1033B0000051404800F0BAF9002818BFBDE8F0817C
:1033C0002878002814BF002001202870002861D030
:1033D00001223046022100F0AEF960E036480121BA
:1033E00000F0A4F9012818BFBDE8F081A8780A28E8
:1033F0003ABF401CA870AF70A87800EB800006EBC5
:103400004004204608F0BEFF204608F0CDFF2146CC
:10341000BDE8F04129A0FCF78BBF042100F086F93C
:10342000002818BFBDE8F0816878002814BF00208C
:103430000120687030B13046BDE8F04101221146EC
:1034400000F079B93046BDE8F0410022012100F0DA
:1034500072B9082100F06AF9002818BFBDE8F081B0
:10346000E8780A283ABF401CE870EF70E87800EB73
:10347000800008EB4004204608F0A8FF204608F032
:10348000B7FF204608F0C6FF2146BDE8F04110A076
:10349000FCF74EBF00223046022100F04CF9BDE897
:1034A000F041142003F0EABE18000220001C024084
:1034B00000040240000802400000024076616C20D7
:1034C0006F66206A6F696E7431323A20256400009D
:1034D00076616C206F66206A6F696E743334353A9A
:1034E0002025640004490A68024208BF704710B5ED
:1034F0000860FFF745FF10BD143C01402DE9F84F6F
:10350000DFF81C920022DFF814820F2709F1040A69
:103510004FF0010E0B680EFA02F52B40AB4240F063
:10352000F780D1F804C0BCF1020F18BFBCF1120F34
:1035300012D14FEAD20C00EB8C0CDCF8206054075F
:10354000E40E07FA04FB26EA0B06D1F810B00BFADA
:1035500004F43443CCF8204006684FEA420C91F85A
:1035600004B003240BF0030B04FA0CF4A6430BFA8B
:103570000CFB4BEA060606604E68012E18BF022EB1
:1035800003D0112E18BF122E11D18668D1F80CB0BD
:10359000A6430BFA0CFB4BEA06068660466826EA51
:1035A00005050E79C6F30016964035434560C5689B
:1035B00025EA04048D6805FA0CFC4CEA040CC0F8FA
:1035C0000CC0D1F804C01CF0805F7CD0D8F800C0DB
:1035D0004CF4804CC8F800C0D8F800C00CF4804C03
:1035E000CDF800C022F0030C0CF1804505F59835AC
:1035F000D5F808C89407240F07FA04F62CEA060643
:10360000A0F1804CBCF5003C48D0A0F1804CBCF54A
:10361000013C08BF4FF0010C40D0A0F1804CBCF53C
:10362000023C08BF4FF0020C38D0A0F1804CBCF532
:10363000033C08BF4FF0030C30D0A0F1804CBCF528
:10364000043C08BF4FF0040C28D0A0F1804CBCF51E
:10365000053C08BF4FF0050C20D0A0F1804CBCF514
:10366000063C08BF4FF0060C18D0A0F1804CBCF50A
:10367000073C08BF4FF0070C10D0A0F1804CBCF500
:10368000083C08BF4FF0080C08D0A0F1804CBCF5F6
:10369000093C0CBF4FF0090C4FF00A0C0CFA04FC6B
:1036A0004CEA060CC5F808C8D9F800C04C682CEAEA
:1036B000030C14F4803F18BF4CEA030CC9F800C097
:1036C000DAF800C000E023E04C682CEA030C14F4A4
:1036D000003F18BF4CEA030CCAF800C0114CD4F8E4
:1036E00000C04D682CEA030C15F4801F18BF4CEA8B
:1036F000030CC4F800C00C4CD4F800C04D682CEA90
:10370000030C15F4001F18BF4CEA030CC4F800C0EA
:10371000521C102AFFF4FEAEBDE8F88F4438024078
:10372000003C0140083C01400C3C0140006908405D
:1037300018BF01207047002A08BF09048161704743
:103740000148006870470000040002200248016838
:10375000491C01607047000004000220074810B5B2
:10376000016841F400710160052000F087F80F2026
:1037700000F006F800F042F8002010BD003C0240C6
:1037800010B5044607484FF47A720068B0FBF2F0B7
:1037900000F014FD00222146501E00F03DF80020EC
:1037A00010BD000000000220134A41781160111D75
:1037B00003780A1D002B04BF002008601AD043685C
:1037C0000B60017BC37A090741EA0361837A41EA0E
:1037D000C341437B41EA8341837B41EA4341C37B4D
:1037E00041EA0341437A41EA0321037A007841EA3E
:1037F000430108431060704798ED00E070470122D4
:1038000000F01F0102FA01F14009800000F1E02000
:10381000C0F8001170470000174B4DF8044D1B68AD
:10382000C3F30223C3F1070CBCF1040F88BF4FF0B0
:10383000040C1C1D072C34BF0023DB1E012404FADA
:103840000CFCACF1010C0CEA0101994004FA03F301
:103850005B1E1A40114300284FEA0111B8BF00F067
:103860000F0000F1E020B4BF80F8141D80F80014B0
:103870005DF8044B704700000CED00E0074A00F0D3
:10388000070011684FF6FF03194041EA002040F09D
:10389000FD7040F080601060704700000CED00E0AB
:1038A0001C4838B5016841F08051016000681A4C2D
:1038B00000F080500090206840F480302060FFF7D6
:1038C0003FFF0546606810F4803F09D1FFF738FFDD
:1038D000401BB0F57A7F14D8606810F4803FF5D0B3
:1038E000206840F400302060FFF72AFF054660683A
:1038F00010F4003F0BD1FFF723FF401BB0F57A7F98
:1039000001D9032038BD606810F4003FF3D00020D7
:1039100038BD000040380240007000402DE9F047FB
:10392000DFF8688104460D46D8F8000000F00F006B
:10393000A8420CD2D8F8000020F00F002843C8F8A5
:103940000000D8F8000000F00F00A84270D12078E5
:103950004F4F10F0020F05D03868A16820F0F0003A
:1039600008433860207810F0010F4ED06068494954
:10397000012820D00968022822D011F0020F57D068
:10398000396821F0030108433860FFF7D9FE064685
:10399000606841F28839012816D00228386800F0A2
:1039A0000C0021D0F8B1FFF7CBFE801B484528D989
:1039B0000320BDE8F087096811F4003FE0D137E04B
:1039C00011F0007FDCD133E0386800F00C000428EF
:1039D0001BD0FFF7B5FE801B4845E9D8386800F0DA
:1039E0000C000428F5D110E008280ED0FFF7A8FE3F
:1039F000801B4845DCD8386800F00C000828F5D159
:103A000003E0386810F00C0FCDD1D8F8000000F0BA
:103A10000F00A8420FD9D8F8000020F00F0028436B
:103A2000C8F80000D8F8000000F00F00A84202D04B
:103A30000120BDE8F087207810F0040F05D0386829
:103A4000E16820F4E05008433860207810F0080F57
:103A500006D03868216920F4604040EAC10038602F
:103A600000F04EF83968F02292FAA2F201F0F0016B
:103A7000B2FA82F2D140084A515CC8400749086056
:103A80000F20FFF77DFE0020BDE8F087003C0240DC
:103A900008380240003802408E1C01080000022055
:103AA00008480949006809684FF4E05292FAA2F206
:103AB00001F4E051B2FA82F2D140044A515CC840AC
:103AC0007047000000000220083802409E1C0108D8
:103AD00008480949006809684FF4604292FAA2F266
:103AE00001F46041B2FA82F2D140044A515CC8400C
:103AF0007047000000000220083802409E1C0108A8
:103B00002148006810F00C01204808BF7047DFF81A
:103B100080C0042904BF60467047082918BF704759
:103B20004DF8044D1B4A1168136801F03F0113F46E
:103B3000800F47F6C0730BD0BCFBF1F01168194041
:103B400093FAA3F3B3FA83F3D94000FB01F00AE040
:103B5000B0FBF1F01168194093FAA3F3B3FA83F3C1
:103B6000D94000FB01F011684FF440325DF8044B7E
:103B700092FAA2F201F44031B2FA82F2D140491C29
:103B80004900B0FBF1F07047083802400024F4000F
:103B900040787D01043802402DE9F84FDFF8A88312
:103BA00004460078A8F1040710F0010FA7F10405FE
:103BB0005AD0D8F8000000F00C00042809D0D8F83A
:103BC000000000F00C0008280CD1386810F4800FB9
:103BD00008D0286810F4003F46D06068002800F044
:103BE000AF8141E06068B0F5803F04BF286840F4D1
:103BF00080300AD010B1B0F5A02F11D0286820F481
:103C000080302860286820F4802028606068D0B167
:103C1000FFF796FD0646286810F4003F08D023E021
:103C2000286840F480202860286840F48030ECE761
:103C3000FFF786FD801B642800F22581286810F4B8
:103C4000003FF5D010E0FFF77BFD0646286810F432
:103C5000003F09D0FFF774FD801B642800F2138138
:103C6000286810F4003FF5D1207810F0020F50D0F2
:103C7000D8F800004FF0F80910F00C0F18D0D8F861
:103C8000000000F00C00082804BF386810F4800F12
:103C90000ED0E0680028286828D040F00100286095
:103CA000FFF74EFD0646286810F0020F09D011E01C
:103CB000286810F0020F1CBFE06801280AD000F04D
:103CC0003FB9FFF73DFD801B02287DD8286810F022
:103CD000020FF6D0286899FAA9F22169B2FA82F2A5
:103CE00020F0F80091400843286012E020F0010025
:103CF0002860FFF725FD0646286810F0020F08D05F
:103D0000FFF71EFD801B02285ED8286810F0020F06
:103D1000F6D1207810F0080F33D0DFF830926069C8
:103D20000028D9F8000016D040F00100C9F80000C2
:103D3000FFF706FD0646D9F8000010F0020F20D16B
:103D4000FFF7FEFC801B02283ED8D9F8000010F0D7
:103D5000020FF5D015E020F00100C9F80000FFF7D0
:103D6000EFFC0646D9F8000010F0020F09D0FFF76B
:103D7000E7FC801B022827D8D9F8000010F0020FBA
:103D8000F5D1207810F0040F63D07148016841F03C
:103D90008051016000686F4E00F0805000903068E4
:103DA00040F480703060FFF7CBFC8146306810F43F
:103DB000807F0BD1FFF7C4FCA0EB0900642862D818
:103DC000306810F4807F00E05DE0F3D0A068624EC0
:103DD000012804BF306840F0010009D008B105286F
:103DE00013D0306820F001003060306820F004000B
:103DF0003060A06841F2883AD0B1FFF7A1FC81465B
:103E0000306810F0020F08D023E0306840F0040062
:103E10003060306840F00100EAE7FFF791FCA0EB6A
:103E2000090050452FD8306810F0020FF5D010E08F
:103E3000FFF786FC8146306810F0020F09D0FFF7CB
:103E40007FFCA0EB090050451DD8306810F0020F30
:103E5000F5D1A069E8B3D8F8001001F00C010829E9
:103E60006ED00228286820F0807028600ED0FFF7FE
:103E700067FC0446286810F0007F5ED0FFF760FC06
:103E8000001B022855D90320BDE8F88FFFF758FC26
:103E90000646286810F0007F08D0FFF751FC801B11
:103EA0000228F0D8286810F0007FF6D1D4E9070185
:103EB00047F6C0724FF0FF3392FAA2F20843616AEC
:103EC000B2FA82F29140A26A03EB52024FF44033FD
:103ED00000E032E093FAA3F3B3FA83F39A4011437C
:103EE0004FF070620843E16A92FAA2F2B2FA82F2EB
:103EF00091404FF0E0420843216B92FAA2F2B2FAED
:103F000082F2914008433860286840F08070286051
:103F1000FFF716FC0446286810F0007F0DD1FFF76C
:103F20000FFC001B0228AED8286810F0007FF6D0E6
:103F300003E0286810F0007FA0D10020BDE8F88FD2
:103F40000120BDE8F88F00000838024074380240B4
:103F5000403802400070004070380240002804BF22
:103F60000120704770B5044690F82C000D4628B922
:103F7000002084F82D00204600F012F8022084F87A
:103F80002C002068211DFDF765F8D4E900022946C0
:103F9000FDF7BEF8012084F82C00002070BD000061
:103FA00030484DF804ED87B0016841F0010101602F
:103FB000006800F0010005902B48016841F0040101
:103FC0000160016801F004010591016841F00801F8
:103FD0000160016801F008010591016841F01001DC
:103FE0000160016801F010010591016841F02001B4
:103FF0000160016801F020010591016841F0400174
:1040000001600068694600F0400005900D200090B6
:104010000220019001200290032003900C200490C4
:104020001248FFF76BFA4CF2037000901048694693
:10403000FFF764FA4FF6837000900E486946FFF769
:104040005DFA4FF63F0000900B486946FFF756FABD
:1040500048F23710009009486946FFF74FFA07B059
:104060005DF804FB38380240303802400008024056
:10407000000C0240001002400014024000180240F0
:1040800010B5044690F82C00022808BF10BD02208D
:1040900084F82C002068FDF70CF8012084F82C002F
:1040A000002010BD70B5044690F82C000D46022883
:1040B00008BF70BD022084F82C002068FCF7FFFFC9
:1040C000286802280CBF0520012084F82C0000205D
:1040D00070BD002804BF0120704770B5044690F8F9
:1040E000450015460E4628B9002084F844002046B5
:1040F00000F01AF8206804F10801FCF73BFFA26801
:1041000031462068FCF774FFE36A2946D4E90102CE
:10411000FCF70CFFA168206850F8212042F0010252
:1041200040F82120002070BD1A484DF804ED87B0FA
:10413000016841F001010160006800F00100059094
:104140001548016841F008010160016801F00801AB
:104150000591016841F0100101600068694600F0B6
:10416000100005904EF2B3700090022001900120E3
:104170000290032003900C2004900848FFF7BEF93A
:104180004FF68070009006486946FFF7B7F907B010
:104190005DF804FB3838024030380240000C024021
:1041A000001002404FF0E021042808690CBF40F0E5
:1041B000040020F00400086170470000401EB0F1C8
:1041C000807F24BF012070474FF0E0214861F0203C
:1041D000044A82F8140D002088610720086100203D
:1041E000704700000FE000E070477047002804BFF0
:1041F0000120704770B5044690F839000D4628B983
:10420000002084F83800204600F048F8022084F8A6
:1042100039002068816821F0070121F48031816034
:104220002068211D07F06CFF206883688169026A9D
:10423000D5F800C021F00301AE6921F440714CEAC9
:104240000303D5F808C022F0AA0241EA0621EE696C
:104250004CEA0101D5F80CC021F0FC0121F47C41AD
:1042600041EA06212E6A4CEA0101D5F810C04FEA56
:104270000C1C4CEA063C4CEA0101D5F804C06D69FF
:10428000836042EA05124CEA0202206881612068DC
:104290000262012084F83900002070BD70B5016809
:1042A00002235D4A03245D4DA1F18040B0F58030CA
:1042B0004FF0010C86B02DD05948B1F1804F594EC6
:1042C00060D0B1EBF54540D015F580657DD0B5F5F2
:1042D00000651CBF06B070BD016841F008010160B7
:1042E000006800F008000590106840F08000106041
:1042F00010686946CDF808C000F0800005904FF4C2
:104300004060CDE900034848CDE90343FFF7F6F8E4
:1043100006B070BD4548016841F0010101600068C8
:1043200000F001000590106840F001001060106876
:10433000694600F0010005904FF440700090CDE90F
:10434000013CCDE9034C284645E0016841F00401F9
:104350000160006800F004000590106840F0020061
:10436000106010686946CDF808C000F002000590A2
:10437000C020CDE90003CDE903433046FFF7BEF886
:1043800006B070BD016841F001010160006800F0F5
:1043900001000590106840F001001060106800F006
:1043A00001000590106840F0020010601068694636
:1043B00000F00200059008200090CDE9013CCDE915
:1043C000034C3046FFF79AF800E008E04FF4004055
:1043D000694600902846FFF791F806B070BD016865
:1043E00041F002010160006800F0020005901068D1
:1043F00040F00200106010686946CDF808C000F077
:10440000020005903020CDE90003CDE9034330469A
:10441000FFF774F806B070BD30380240000002406B
:104420004038024000040240001C02404438024070
:1044300010B504460068002908BF012212D00429E3
:104440004FF001020ED0002107F0BCFE20680122CF
:10445000042107F0B7FE2068016841F00101016006
:10446000002010BD07F0AEFEF5E7704770B50446BA
:10447000006801694FF0000511F0020F1CBFC16810
:1044800011F0020F13D06FF00201016101202076BC
:104490002068806910F0030F204602D0FFF7E5FF87
:1044A00004E000F0A6F8204600F02AFA25762068FD
:1044B000016911F0040F1CBFC16811F0040F13D083
:1044C0006FF004010161022020762068806910F4F9
:1044D000407F204602D0FFF7C8FF04E000F089F8D3
:1044E000204600F00DFA25762068016911F0080FCA
:1044F0001CBFC16811F0080F13D06FF008010161F3
:10450000042020762068C06910F0030F204602D0F6
:10451000FFF7ABFF04E000F06CF8204600F0F0F984
:1045200025762068016911F0100F1CBFC16811F0D9
:10453000100F13D06FF01001016108202076206861
:10454000C06910F4407F204602D0FFF78EFF04E0E0
:1045500000F04FF8204600F0D3F925762068016975
:1045600011F0010F1CBFC16811F0010F05D06FF0F1
:1045700001010161204600F05BFA206801696FF0DB
:10458000800511F0800F1CBFC16811F0800F03D0AF
:1045900005612046FFF728FE2068016911F4807F3D
:1045A0001CBFC16811F0800F03D005612046FFF7E2
:1045B0001BFE2068016911F0400F1CBFC16811F09B
:1045C000400F05D06FF040010161204600F060FA15
:1045D0002068016911F0200F1ABFC16811F0200F87
:1045E00070BD6FF0200101612046BDE87040FFF70B
:1045F000FCBD70472DE9F041044690F838000D46A7
:1046000001280DBF0220012684F83860BDE8F08142
:10461000022084F839000C2A47D006DC6AB1042A4B
:104620001DD0082A2FD000F0BFB8DFF88CC1102AA7
:10463000624F4ED0142A7DD0B6E0206807F0CFFD3F
:104640002068816941F0080181612068816921F059
:1046500004018161206881692A69114311E02068A1
:1046600007F0F1FD2068816941F4006181612068F3
:10467000816921F480618161206881692A6941EA48
:104680000221816190E0206807F015FE2068C16971
:1046900041F00801C1612068C16921F00401C161D4
:1046A0002068C1692A69114311E0206807F03BFEC8
:1046B0002068C16941F40061C1612068C16921F4C9
:1046C0008061C1612068C1692A6941EA0221C16132
:1046D0006AE02068016A21F480310162036A41685E
:1046E000426D23F40033D5F80080604522F070025B
:1046F00022F4803248EA0202B5F8088043EA08430F
:1047000018BFB84205D1D5F814C021F4803141EA70
:104710000C21416042656968816503622068416DD2
:1047200041F0080141652068416D21F004014165B7
:10473000206800E003E0416D2A69114333E02068FE
:10474000016A21F480110162036A4168426D23F419
:104750000013D5F80080604522F4E04222F0807218
:1047600042EA0822B5F8088043EA085318BFB84265
:1047700005D1D5F814C021F4802141EA8C21416093
:1047800042656968C16503622068416D41F400615A
:1047900041652068416D21F4806141652068416D6B
:1047A0002A6941EA0221416584F83960002084F8D1
:1047B0003800BDE8F0810000000001400004014025
:1047C000002804BF0120704710B5044690F8390056
:1047D00028B9002084F83800204600F00DF80220A7
:1047E00084F839002068211D07F08AFC012084F834
:1047F0003900002010BD000070B5016802253C4B57
:104800000126A1F1804204463848B2F5823286B0D2
:104810004FF0030C31D0B2F5705249D0B2F580623E
:104820001CBF06B070BD016841F400310160006832
:1048300000F400300590186840F0200018601868F7
:104840006946CDE9025C00F0200005904020CDF8DB
:1048500010C0CDE900052748FEF750FE03221920BD
:104860001146FEF7D9FF1920FEF7C9FF2068C1687D
:1048700041F00101C16006B070BD016841F0020164
:104880000160006800F002000590186840F0040024
:10489000186018686946CDE9026C00F004000590C4
:1048A0004FF47070CDF810C0CDE90005124818E043
:1048B000016841F480310160006800F480300590A7
:1048C000186840F01000186018686946CDE9026C5D
:1048D00000F0100005902020CDF810C0CDE90005B3
:1048E0000648FEF70BFE06B070BD000044380240DB
:1048F000303802400014024000080240001002401C
:10490000704710B501220446006807F05BFC21687F
:10491000A1F18040B0F580301CBFA1F18040B0F51E
:10492000823003D1486C40F400404864206801683C
:1049300041F001010160002010BD10B5026800299E
:10494000044604BFD06840F0020011D0042904BF1F
:10495000D06840F004000BD0082904BFD06840F0B4
:10496000080005D00C2904BFD06840F0100000D129
:10497000D0600122206807F025FC2068A0F180416A
:10498000B1F580311CBFA0F18041B1F5823103D176
:10499000416C41F4004141642068016841F001012B
:1049A0000160002010BD10B502680029044604BF54
:1049B000D06820F0020011D0042904BFD06820F094
:1049C00004000BD0082904BFD06820F0080005D0EF
:1049D0000C2904BFD06820F0100000D1D060002264
:1049E000206807F0EFFB216841F211139A10A1F142
:1049F0008040B0F580301CBFA1F18040B0F582301E
:104A000009D1086A184204BF086A104203D1486CF1
:104A100020F4004048642068016A194204BF016A1A
:104A2000114203D1016821F001010160002010BD95
:104A3000124910B5884210D1114C6088401C60802A
:104A400060882188884298BF10BD00210B48FFF77D
:104A5000AAFF00206080208010BD0A49884204D14E
:104A600009480168491C016010BD0849884218BF07
:104A700010BDBDE81040FEF733B8000094060220D8
:104A800014000220EC0602208C00022028070220DD
:104A90007047704790F8691090F86A0008437047B3
:104AA00070B501680446C8690A688B6810F00F0F7A
:104AB0004FF0200551D040F2011C13EA0C0F7DD0BD
:104AC00010F0010F18BF12F4807F07D04FF0010CD7
:104AD000C1F820C0E16E41F00101E16610F0020F63
:104AE00018BF13F0010F08D0D4F800C00221CCF891
:104AF0002010E16E41F00401E16610F0040F18BFD0
:104B000013F0010F08D0D4F800C00421CCF8201015
:104B1000E16E41F00201E16610F0080F0CD002F0E6
:104B2000200103F00103194306D02368082119620C
:104B3000E16E41F00801E166E16E002908BF70BD39
:104B400010F0200F1EBF12F0200F204608F003FCCB
:104B5000E06E10F0080F10D10AE010F0200F18BF1F
:104B600012F0200F39D02046BDE8704008F0F3BBAA
:104B70002068806810F0400F29D02068016821F477
:104B8000907101602068816821F00101816084F8E2
:104B90006A502068816811F0400F14D0816821F0BC
:104BA00040018160606E70B12D490165606EFEF755
:104BB000D5FB002808BF70BD606E00E00DE0016D00
:104BC000BDE8704008472046FFF763FF70BD2046F0
:104BD000FFF75FFF0020E06670BD10F0800F18BF88
:104BE00012F0800F2CD094F86900212818BF70BDF6
:104BF000B4F8520090B1A068B0F5805F04BF20699E
:104C00000028E06C14D0411CE164216800788862BF
:104C1000B4F85200401EA4F8520070BD086820F09D
:104C2000800008602068016841F04001016070BDAB
:104C30000088C0F308008862E06C801CE064E7E74D
:104C400010F0400F14BF12F0400F70BD20460A68EC
:104C500022F040020A6084F8695000F04DF970BDFE
:104C600043D30008002804BF0120704710B5044654
:104C700090F8690028B9002084F86800204600F008
:104C800029F8242084F869002068016821F00101D6
:104C90000160204608F09EFB012808BF10BD606A35
:104CA00000281CBF204608F0AFFA2068416821F4B4
:104CB000904141602068816821F02A01816020686C
:104CC000016841F0010101602046BDE8104008F094
:104CD00008BB000030B501680223304A0724304881
:104CE000A1F18045B5F588354FF0010C87B029D08A
:104CF00015F54C451CBF07B030BD116841F00101EE
:104D00001160116801F00101059126490A6842F419
:104D100000320A600968CDF808C001F4003105913D
:104D20000C21CDE90013CDE903346946FEF7E6FB1B
:104D30002620FEF764FD032202212620FEF76CFDEB
:104D400007B030BD116841F001011160116801F038
:104D50000101059114490A6842F010020A600968CD
:104D6000CDF808C001F0100105914FF40071CDE9B4
:104D70000013CDE9033469460446FEF7BFFB4FF448
:104D80008061204600916946FEF7B8FB2520FEF7BA
:104D900036FD032225201146D0E7000030380240BE
:104DA00000000240403802404438024090F86A3027
:104DB000202B49D1002912BF002A0120704790F80A
:104DC0006830012B40D0012380F868304165A0F89D
:104DD0005820A0F85A20FF228168B1F5805F05D0E5
:104DE0007F2351B1B1F1805F0CD012E0016900293D
:104DF00008BF40F2FF1102D109E0016909BBA0F828
:104E00005C2006E00169002918BF3F2119D0A0F8F5
:104E10005C100021C166222280F86A2080F86810A8
:104E200001680A6842F480720A6001688A6842F088
:104E300001028A600068016841F0200101600020E1
:104E40007047A0F85C30E4E7022070472DE9F003DA
:104E5000284E00270568DFF89890A5F180487088F3
:104E6000411C8AB23146B8F5883840F400440978CC
:104E700040F4804CC0F30D030DD018F54C480EBF24
:104E800010F4004FBDE8F003704710F4804F25D0B8
:104E90000A290FD00AE010F4004F1CBFBDE8F00350
:104EA000704710F4804F09D00A2903D07780BDE8FD
:104EB000F00370477480BDE8F00370470D2908D0F7
:104EC00009F80310C72A72809CBFBDE8F003704741
:104ED000ECE7A6F802C0BDE8F00370470D29F8D052
:104EE00009F80310C72A7280E0D8BDE8F0037047C4
:104EF000080202200C0002207047FEE7114810B59E
:104F000086B0016841F080010160006869460E4C7E
:104F100000F0800005903020009001200190029068
:104F2000022003902046FEF7E9FA012220462021C4
:104F3000FEF701FC012220461021FEF7FCFB06B023
:104F400010BD000030380240001C02402DE9F04145
:104F5000374E07460024306820F4406030603068E7
:104F600030602546002230461021FEF7E4FB022087
:104F70000CF03CFC012230461021FEF7DCFB600601
:104F80002021040E3046FEF7D1FB00281CBF601C18
:104F9000C4B201200CF02AFC681CC5B2082DE1D374
:104FA0004FF000024FF0100130460FB3FEF7C3FB85
:104FB000306820F440603060306840F480603060D9
:104FC000002230462021FEF7B6FB02200CF00EFC3A
:104FD000012230461021FEF7AEFB02200CF006FC49
:104FE000002230461021FEF7A6FB2046BDE8F081E6
:104FF000FEF7A1FB306820F440603060306840F478
:1050000080603060012230462021FEF794FB0220B0
:105010000CF0ECFB012230461021FEF78CFB022045
:105020000CF0E4FB002230461021FEF784FBDCE7A5
:10503000001C024070B51C4E05463046316821F414
:1050400040613160316841F480613160002210219B
:10505000FEF771FB002415F0800F05D001223046C9
:105060002021FEF768FB04E0002230462021FEF7F5
:1050700062FB6806050E02200CF0B8FB01223046E8
:105080001021FEF758FB02200CF0B0FB0022304646
:105090001021FEF750FB02200CF0A8FB601CC4B2EC
:1050A000082CD8D370BD0000001C024010B5124C73
:1050B000206820F440602060206840F48060206018
:1050C000012220462021FEF736FB01222046102136
:1050D000FEF731FB04200CF089FB00222046202142
:1050E000FEF729FB04200CF081FB00222046BDE8DE
:1050F00010401021FEF71FBB001C024010B5124CDF
:10510000206820F440602060206840F480602060C7
:10511000002220461021FEF70EFB0022204620210F
:10512000FEF709FB04200CF061FB01222046102150
:10513000FEF701FB012220462021FEF7FCFABDE824
:10514000104004200CF052BB001C024070B5294DE9
:105150000024286820F44060286028682860012224
:1051600020212846FEF7E7FA01200CF03FFB012240
:1051700028461021FEF7DFFA01200CF037FB202132
:105180002846FEF7D3FA00282DD0601CC4B2FA2CB2
:1051900023D9286820F440602860286840F48060A3
:1051A0002860002228461021FEF7C5FA0022284672
:1051B0002021FEF7C0FA04200CF018FB012228463B
:1051C0001021FEF7B8FA012228462021FEF7B3FA93
:1051D00004200CF00BFB012070BD20212846FEF7B7
:1051E000A5FA0028D1D1002228461021FEF7A3FA03
:1051F000002070BD001C0240F0B50C4E0746002494
:105200003188708800FB01F52146204601F0D8F86E
:10521000074930890880002D86BFB9B20548F0BD26
:105220000180641CA542FBD8F0BD0000E407022009
:10523000FEFF0760000008600449054A0968497CD0
:1052400052F821100969096808470000A4000220EB
:10525000BC0002202DE9F04F394F2C232B244FF0B6
:105260002A0C4FF4305A45F210594FF448754FF05C
:10527000F00BB9884FF4A0784FF4F07249F2413E38
:1052800045F2103670B10120B871A7F80080714561
:10529000A7F802B018BFB14230D13B81A7F80AC0CD
:1052A000BC8142E00020B871A7F800B07145A7F8B2
:1052B000028018BFB14209D13B81B142A7F80AC0B0
:1052C000BC8104BFA7F800807A8033E049450AD149
:1052D000A7F808A04FF4285078814FF42C50B881DB
:1052E0003A807D8026E0A1F5C850633822D13B8109
:1052F0007C81A7F80CC03A807D801BE049450AD12B
:10530000A7F808A04FF4285078814FF42C50B881AA
:105310003D807A8009E0A1F5C850633805D13B8112
:10532000A7F80AC0BC813D807A80B14204BF3A80B0
:10533000A7F802800020BDE8F04F00F049BE000051
:10534000E40702202DE9F04F05468DB07B48DDF8DB
:1053500060901A9C00681E4617464FF0000A78B10C
:105360001B9B199ACDF808900593CDE90324DDE93C
:105370001623CDE90023046833463A46284680E0E8
:10538000DDE9160201EB060805EB070C1043A8F156
:105390000108ACF1010C012806D0C9F10800059004
:1053A000002002910990C6E065480268B2F90A300F
:1053B000581A002806DD361A002E63DD1946199B9F
:1053C00000FB0344B2F90E00A8EB0000002802DD48
:1053D000361A002E56DDB2F90C00ACEB00000028A6
:1053E00000DD3F1AB2F908300020AB4235DD581B12
:1053F0003F1A4B46B9F1080F26D006DC012B0BD023
:10540000022B11D0042B28D116E0102B1ED0182B04
:105410001FD0202B21D11CE020F0070304EBE00477
:105420001D4400F0070018E020F0030304EBA00483
:105430001D4400F0030010E020F0010304EB6004C1
:105440001D4400F0010008E0044404E004EB4004C3
:1054500001E004EB800405440020002F12DD1B9BBB
:10546000DDF864C0CDE90403CDE90069CDE902C4EB
:10547000527C34483B4650F82200C26854680A46C1
:105480002946A0470DB0BDE8F08F1799029808444F
:105490000C902B49401E00900A68B2F90A308342F2
:1054A00041DCB2F90E10029881423CDB4FF0000B58
:1054B000D84603950A9434E0BBF1000F05D10A9851
:1054C0004FF0080B10F801AB0A900599ABEB090BF4
:1054D0003AFA01F00AFA09F101F0FF0A04D1184979
:1054E0000968097C890716D415490968C96B0A68D7
:1054F0000B921B9A0AB152F8200008601699039883
:10550000009B4218521E029900F0FAFA0C490B98BF
:105510000968C96B08600399169808F101080844E6
:105520000390B845C8DB0998401C09900C9802907C
:10553000199804440998B042A7DBA3E7D0000220E1
:10554000A4000220BC000220F0B40C4612490968F5
:10555000B1F90A30A3421CDCB1F90E30A34218DBCA
:10556000B1F90830834200DD1846B1F90C3093429E
:1055700000DA1A4682420CDB4B7C084951F8235072
:1055800013462246E9688E6801462846B446F0BCB8
:105590006047F0BC70470000A4000220BC0002205D
:1055A0002DE9F04F002682465F1A3546A2EB00082F
:1055B0008946B8F1000F83B0C8BF012007DC0FBFD8
:1055C00000204FF0FF30C8F10008019000D1019099
:1055D000002FC8BF012006DC0FBF00204FF0FF30B6
:1055E0007F42009000D10090B845CCBF44463C4675
:1055F0004FF0000B601C52BF029003B0BDE8F08F6B
:105600001FFA8AF01FFA89F100F0DAFE0E480189CC
:105610000E4801800E480F49008808804644A64283
:105620003D4402DD0198361B8244A54202DD00980C
:105630002D1B81440BF101001FFA80FB029883456A
:10564000DEDD03B0BDE8F08FE4070220FEFF076057
:1056500058000220000008600A46174930B4096863
:10566000B1F90A30934225DCB1F90E30934221DBC7
:10567000B1F9083083421DDCB1F90C30834219DBEB
:105680000B7C0E4CDB0709D0497C54F82130D968DB
:10569000CC690146A44630BC18466047CB6B497CB8
:1056A0001B6854F82140E1688D6901462046AC46EC
:1056B00030BC604730BC7047A4000220BC00022010
:1056C0004DF804ED00F07CFE04480549008908808F
:1056D000891C0448008808805DF804FBE407022068
:1056E000FEFF0760580002202DE9F04F002480469D
:1056F00015004FF0030085B00F46A0EB450644BFF0
:1057000005B0BDE8F08FDFF83891DFF838A1DFF899
:1057100038B108EB040082B20090781B039081B28C
:10572000104600F04DFEB9F80800AAF800004749FD
:10573000BBF80000088008EB050082B20190381B1E
:10574000029081B2104600F03BFEB9F80800AAF8BA
:1057500000003E49BBF800000880019882B2381969
:10576000019081B2104600F02BFEB9F80800AAF8AB
:1057700000003649BBF800000880009882B2781912
:10578000049081B2104600F01BFEB9F80800AAF898
:1057900000002E49BBF800000880A8EB0400009030
:1057A00082B2049881B2104600F00AFEB9F80800EF
:1057B000AAF800002549BBF800000880A8EB050006
:1057C000049082B2019881B2104600F0F9FDB9F858
:1057D0000800AAF800001D49BBF8000008800098E6
:1057E00082B2039881B2104600F0EAFDB9F80800D1
:1057F000AAF800001549BBF800000880049882B29E
:10580000029881B2104600F0DBFDB9F80800AAF852
:1058100000000E49BBF800000880641C002EBCBFCD
:1058200006EB8400861D05DB601B6D1E06EB800009
:1058300000F10A06AC427FF76CAF05B0BDE8F08F0F
:10584000E4070220FEFF0760580002200000086005
:105850002DE9F80FDFF840A20C0ADFF84092CBB236
:10586000D446070ABAF8045009F10206BCF80C1035
:1058700000F0FF08BCF80AC0A5F5134BBBF1410BC3
:105880001CBFA5F5A04BBBF5447B09D0A5F5A04BEB
:10589000BBF5A26B3DD0A5F5C857633F7ED0F2E0C3
:1058A000ADF800C0BDF80000ADF80000BDF8000084
:1058B000A9F80000ADF80070BDF80000ADF80000D8
:1058C000BDF800003080ADF80080BDF80000ADF8F4
:1058D0000000BDF800003080ADF80010BDF80000F9
:1058E000ADF80000BDF80000A9F80000ADF80040D8
:1058F000BDF80000ADF80000BDF800003080ADF844
:105900000030BDF80000ADF80000BDF800003080A8
:10591000B9E0ADF800C0BDF80000ADF80000BDF87A
:105920000000A9F80000ADF80070BDF80000ADF867
:105930000000BDF8000030800CF10100ADF800005F
:10594000BDF80000ADF80000BDF80000A9F80000A7
:10595000ADF80080BDF80000ADF80000BDF8000013
:105960003080ADF80010BDF80000ADF80000BDF8C3
:105970000000A9F80000ADF80040BDF80000ADF847
:105980000000BDF800003080481CADF80000BDF8F4
:105990000000ADF80000BDF8000000E00BE0A9F841
:1059A0000000ADF80030BDF80000ADF80000BDF813
:1059B0000000308067E09AF8065025B9BAF8005028
:1059C000281A401E80B2ADF800C0BDF800C0ADF886
:1059D00000C0BDF800C0A9F800C04FEA102CADF817
:1059E00000C0BDF80050ADF80050BDF80050358043
:1059F000C0B2ADF80000BDF80050ADF80050BDF8E1
:105A000000503580ADF800C0BDF800C0ADF800C052
:105A1000BDF800C0A6F800C0ADF80000BDF8000059
:105A2000ADF80000BDF800003080ADF80010BDF802
:105A30000000ADF80000BDF80000A9F80000ADF8C6
:105A40000040BDF80000ADF80000BDF80000308057
:105A5000ADF80030BDF80000ADF80000BDF8000062
:105A60003080ADF80040BDF80000ADF80000BDF892
:105A700000003080ADF80030BDF80000ADF8000047
:105A8000BDF800003080BAF80800A9F800003280A4
:105A9000BDE8F80F70470000E4070220FEFF076032
:105AA0002DE9F04F83461F46A2EB0B020C46521C19
:105AB000099895B2B94288BFBDE8F08FDFF83890F9
:105AC00086B2DFF838A00AF102082146584600F0F5
:105AD00077FCB9F80800AAF800000020002D05D9CD
