:020000040800F2
:1000000030C904202D0300086902010825CC00082E
:10001000FD01010813110008D5820108000000004D
:100020000000000000000000000000002D14010886
:1000300055150008000000004D0A0108351501089B
:100040004703000847030008470300084703000868
:100050004703000847030008F91500084703000894
:10006000071600080D16000847030008470300089C
:100070004703000847030008470300084703000838
:100080004703000847030008470300084703000828
:100090004703000847030008470300084703000818
:1000A00047030008D162010847030008470300081E
:1000B00047030008470300084703000847030008F8
:1000C00047030008470300084703000847030008E8
:1000D000470300081D8201087982010847030008D0
:1000E000FF150008470300084703000847030008FE
:1000F00047030008470300084703000847030008B8
:1001000047030008470300084703000847030008A7
:1001100047030008470300080D640108456401080F
:100120004703000847030008470300084703000887
:100130004703000847030008470300084703000877
:100140004703000847030008470300084703000867
:100150004703000847030008470300084703000857
:100160004703000847030008470300084703000847
:100170004703000847030008470300080000000089
:100180004703000847030008470300084703000827
:100190004703000847030008470300084703000817
:1001A0004703000847030008470300084703000807
:1001B00047030008470300084703000847030008F7
:1001C0004703000847030008000000004703000839
:1001D00047030008470300084703000847030008D7
:1001E00047030008470300084703000847030008C7
:1001F000470300084703000800F002F800F06CF81D
:100200000AA090E8000C82448344AAF10107DA4571
:1002100001D100F061F8AFF2090EBAE80F0013F057
:10022000010F18BFFB1A43F00103184790600C0040
:10023000B0600C000A444FF0000C10F8013B13F0C2
:10024000070408BF10F8014B1D1108BF10F8015B2F
:10025000641E05D010F8016B641E01F8016BF9D122
:1002600013F0080F1EBF10F8014BAD1C0C1B09D179
:100270006D1E58BF01F801CBFAD505E014F8016BEB
:1002800001F8016B6D1EF9D59142D6D3704700007D
:100290000023002400250026103A28BF78C1FBD88F
:1002A000520728BF30C148BF0B607047692900F072
:1002B000DD80642900F0DA80782900F01381732949
:1002C00000F0AB83002070471FB52BF053F800F00F
:1002D0004AF91FBD10B510BD00F000FC1146FFF734
:1002E000F3FF2AF0F9FE00F01EFC03B4FFF7F2FF63
:1002F00003BC2AF08FFE00000B49D1F800C04A6809
:100300005CF8043B1068184442F8040B8C4528BF85
:10031000A1F1DC0C8A4228BFA1F1DC02C1F800C0C7
:100320004A6020F000407047C4C20420094880475A
:1003300009480047FEE7FEE7FEE7FEE7FEE7FEE7C7
:10034000FEE7FEE7FEE7FEE704480549054A064BDF
:100350007047000039150108F901000830C3042076
:1003600030C9042030C5042030C504207047000087
:100370000FB4044910B503AA029800F053FB10BC57
:100380005DF814FB100002200FB41CB5074B06AA41
:100390007B4469460090059800F015FB00206946F3
:1003A00000F024FB1CBC5DF814FB000059060000A3
:1003B0002DE9F0410E460446002020622046E16807
:1003C000884730B3252805D0D4E901219047206A19
:1003D000401CF2E7E168204600278847050018D056
:1003E000A5F14100192802D820354FF400673246A4
:1003F000294620462760FFF759FF40B1012804D065
:10040000F61D26F007060836D8E7361DD6E728463B
:10041000DAE7206ABDE8F08170B50C460546012A8E
:1004200005D02878800600D5EA69002302E0012380
:1004300005E05B1C934202D2E05C0028F9D1A86978
:10044000E618C01AA861286A184428622846AFF343
:10045000008004E0D5E9012114F8010B9047B44273
:10046000F8D32846AFF3008070BD00002DE9F041BD
:100470000646002410687529314616A510D0AFF342
:100480000080002802DA404213A507E031688A079D
:1004900001D512A502E0490704D511A5012401E008
:1004A000AFF3008000210A2206F1240709E0B0FB27
:1004B000F2FCB0FBF2F302FB1C003030785418461B
:1004C000491C0028F3D123462A463046BDE8F041B6
:1004D00000F01BBA000000002D0000002B000000FF
:1004E0002000000070B504460D4621461068AFF3A9
:1004F00000802188090502D50F4A7A4402E00E4A9D
:100500007A440E32002104F1240305E000F00F06C6
:100510000009965D5E54491C0028F7D1207800231D
:10052000000704D5702D02D009B1022311322046F4
:10053000BDE8704000F0E9B92B510C000B4910B533
:10054000A1F17C020A4CC2E93712372106E000EB28
:10055000104342F82130074B00FB03400B1EA1F172
:100560000101F4DC10BD0120E8E7000064C20420B2
:10057000E119D666CD0D010040EA010310B59B07D5
:100580000FD1042A0DD310C808C9121F9C42F8D0FD
:1005900020BA19BA884201D9012010BD4FF0FF30AE
:1005A00010BD1AB1D30703D0521C07E0002010BDC4
:1005B00010F8013B11F8014B1B1B07D110F8013B50
:1005C00011F8014B1B1B01D1921EF1D1184610BD31
:1005D00040EA0103024630B59B0710D14FF00134C9
:1005E00000E008C208C91D1B9D4315EAC41FF8D0CE
:1005F00013F0FF0102F8011B0DD01B0AF8E711F8F8
:10060000013B002B02F8013B05D011F8013B002B08
:1006100002F8013BF3D130BD10B5431C02E010F8E5
:10062000011B71B18107FAD14FF0013202C88C1A57
:100630008C4314EAC211F9D0C01A0A0603D0C01EB6
:1006400010BDC01A10BD0A0401D0801E10BD0902E1
:10065000FCD0401E10BD421E12F8013F002BFBD102
:1006600011F8013B002B02F8013BF9D17047032A36
:1006700040F2308010F0030C00F0158011F8013BBF
:10068000BCF1020F624498BF11F801CB00F8013BA6
:1006900038BF11F8013BA2F1040298BF00F801CB6A
:1006A00038BF00F8013B11F0030300F06780083AFF
:1006B000C0F0088051F8043B083A51F804CBA0E898
:1006C0000810F5E7121D5CBF51F8043B40F8043BED
:1006D000AFF30080D20724BF11F8013B11F801CB22
:1006E00048BF11F8012B24BF00F8013B00F801CBF3
:1006F00048BF00F8012B7047431A28BF9A427FF683
:10070000B6AF032A1044114440F2268010F0030FC4
:100710001EBF11F8013D521E00F8013D10F0030FFD
:100720007FF4F6AF11F0030300F0A181083AC0F0A6
:100730000B8051F8043D083A51F804CD40F8043DCF
:1007400040F804CDFFF7F3BF121D5CBF51F8043D24
:1007500040F8043DAFF30080D20724BF11F8013DFB
:1007600011F801CD48BF11F8012C24BF00F8013D5C
:1007700000F801CD48BF00F8012C704710B5203AB1
:10078000C0F00B80B1E81850203AA0E81850B1E84A
:100790001850A0E81850BFF4F5AF5FEA027C24BF00
:1007A000B1E81850A0E8185044BF18C918C0BDE8F7
:1007B00010405FEA827C24BF51F8043B40F8043BC0
:1007C00008BF7047D20728BF31F8023B48BF11F875
:1007D000012B28BF20F8023B48BF00F8012B7047CF
:1007E00002F0FF0343EA032242EA024200F002B8A9
:1007F0004FF000020429C0F0128010F0030C00F04A
:100800001B80CCF1040CBCF1020F18BF00F8012BC7
:10081000A8BF20F8022BA1EB0C0100F00DB85FEA95
:10082000C17C24BF00F8012B00F8012B48BF00F861
:10083000012B70474FF0000200B5134694469646D0
:10084000203922BFA0E80C50A0E80C50B1F12001E3
:10085000BFF4F7AF090728BFA0E80C5048BF0CC091
:100860005DF804EB890028BF40F8042B08BF7047EF
:1008700048BF20F8022B11F0804F18BF00F8012B61
:10088000704700004FF0013C50F8042B51F8043B36
:100890009A4215D1A2EB0C03934313EACC130BD16C
:1008A00050F8042B51F8043B9A4209D1A2EB0C03F7
:1008B000934313EACC13E7D04FF00000704700BF1A
:1008C000D01A01BAB1FA81F101F0180122FA01F04F
:1008D000CB40C1F12001DBB2C0B2C01A2CFA01F347
:1008E000D11A914311EAC311E6D17047704770479E
:1008F0007047704710B500F0E5F8006810BD10B5FE
:10090000044600F0DFF8046010BD2DE9F0470D4605
:1009100099469246044600F124080168880604D5E9
:10092000E06921F01001216000E00120A84201DD12
:10093000471B00E00027A1697A1902EB0900081A99
:10094000A0612078C00602D42046AFF300800026C4
:1009500008E0D4E901211AF806009047206A401CFB
:10096000761C20624E45F4DB2078C0060AD520466E
:10097000AFF3008006E0D4E9012130209047206ADF
:10098000401C2062381EA7F10107F4DC07E0D4E91F
:10099000012118F805009047206A401C2062281E9B
:1009A000A5F10105F3DC2046AFF3008020780006B6
:1009B00002D50220BDE8F0870120FBE701694A1C4F
:1009C00002610878704700B58FB0CDE90131002190
:1009D000059105497944CDE9031011466846FFF7B2
:1009E000E7FC0FB000BD0000E5FFFFFF0A6802F85A
:1009F000010B0A60704710B5436913B1AFF3008073
:100A000001E0FFF709FD012010BD127800F124017B
:100A10000A7000224A700122EDE711684FF0FF32A0
:100A2000E9E70000074B70B50D467B44FFF7CBFFAD
:100A30000446284600F04AF810B14FF0FF3070BD70
:100A4000204670BD7FA60200431A28BF9A427FF657
:100A500095AE104410F0030F11441EBF11F8013D74
:100A6000521E00F8013D10F0030F7FF4F6AF103A6C
:100A7000C0F00A8010B531E91850103A20E918503A
:100A8000BFF4F9AFBDE81040530724BF31E90810A7
:100A900020E9081044BF51F8043D40F8043D12F02D
:100AA000030F08BF7047D20728BF31F8023D48BF87
:100AB00011F8012C28BF20F8023D48BF00F8012C96
:100AC0007047000000487047CCC20420007B00F053
:100AD0008000704700487047CCC204207546FFF77D
:100AE000F9FFAE4605006946534620F007008546EB
:100AF00018B020B5FFF728FCBDE820404FF00006F5
:100B00004FF000074FF000084FF0000B21F00701F5
:100B1000AC46ACE8C009ACE8C009ACE8C009ACE838
:100B2000C0098D4670470446AFF300802046FFF7AA
:100B3000DCFB0CF07BBA2DE9F0470E0001464FF0CC
:100B4000000004461ABF01EB06084FF0A009BDE8FB
:100B5000F0870702A8EB0400451E0CF03FFB280AB3
:100B600009EB4000C0B20CF0FDFA0CF087FBE8B2D4
:100B70000CF0F8FA0CF082FB0CF030FBA1200CF02A
:100B8000F1FA0CF07BFB00200CF078FA05460CF033
:100B90004DFB611CE819CCB2A642DAD8BDE8F0875B
:100BA00010B504460CF01AFB200AA02101EB40000E
:100BB000C0B20CF0D7FA0CF061FBE0B20CF0D2FA44
:100BC0000CF05CFB0CF00AFBA1200CF0CBFA0CF053
:100BD00055FB00200CF052FA04460CF027FB20468F
:100BE00010BD2DE9F04716000F4680464FF0000477
:100BF00014BF4FF0A00ABDE8F08708EB0405E00041
:100C000027FA00F000F0FF090CF0E8FA280A0AEBD6
:100C10004000C0B20CF0A6FA0CF030FBE8B20CF0C9
:100C2000A1FA0CF02BFB48460CF09CFA0CF026FBCA
:100C30000CF0FCFA0A202AF0F9F9601CC4B2A642B2
:100C4000DBD8BDE8F08770B50D4604460CF0C6FA57
:100C5000200AA02202EB4000C0B20CF083FA0CF094
:100C60000DFBE0B20CF07EFA0CF008FB28460CF00D
:100C700079FA0CF003FB0CF0D9FABDE870400A20B9
:100C80002AF0D4B9002800DC4042704738B54568E6
:100C900004460146284617F03DFB00282BD020686B
:100CA000304A11280DD006DC0B2825D00E2833D071
:100CB0000F2852D112E0282849D0B0F5107F4CD12E
:100CC00008E09268002A16D02146284601B0BDE807
:100CD00030401047214628465268F7E7284605F07D
:100CE000F1F90090406E0468684605F055FA002C52
:100CF00001D02846A04738BD284605F0E3F900900A
:100D0000683005F02BF9009803216C3005F034F9B8
:100D1000684605F041FA20E0E168486809680D2955
:100D200002D0202913D105E0002810DD284624F048
:100D300092FC06E0002804DD2846BDE8384024F097
:100D40008ABC2846BDE83840022124F09ABCE068FD
:100D500018B90021284600F099F92046BDE838402E
:100D600017F0BABDEC080220F0B5044685B08069E2
:100D7000B4F90850668A0027CDE90265CDE900176D
:100D80000490B4F90C00B4F91060C118B4F90A0069
:100D9000B4F90E50104433462A4600F007F80546D1
:100DA000616800F089F905B02846F0BD2DE9F04FE3
:100DB00085B01F46DDE911B4DDE90E56904689463F
:100DC000824606F041FE16484C34CDE90204CDE9D6
:100DD00000563B4642464946504617F0C5FC0400C3
:100DE00018D005F06FF910225946049017F0E6FB71
:100DF000049830220B493430FFF7C0FC094D0499A8
:100E00000C3D2868486604A805F0C6F928684168C2
:100E10002046884708F0BEFC05B02046BDE8F08FAC
:100E20008D0C0008F8080220F0B5044680688B4954
:100E300089B051F82050606800287DD0052804D082
:100E400006287AD0122879D1AEE0E86900284FD080
:100E500095E80E008DE80F0004F110010FC909F0AC
:100E600019F9002655F8260007F0F3FFA169E86993
:100E70000A1A216901446069304406F049FAA169FF
:100E8000E8690A1A21690144E069801B06F040FA0A
:100E9000E169E8690A1A616901442069304406F091
:100EA0003FFBE169E8690A1A61690144A069801B96
:100EB00006F036FB761C022ED4DBA86807F0C9FFCB
:100EC000E069E9696669431A206942183144801C67
:100ED000521E06F0AFFBE169E869A2690B1A61696D
:100EE0000144101A401C921E06F0A4FBEE6913E0A8
:100EF0005FF0000655F8260007F0ABFFE069831BA2
:100F0000A069821B606981192069304406F076FA75
:100F1000761C022EEEDB0226D5E90301CDE90001A5
:100F20006169E06908444310A069891C821B20693B
:100F3000304406F087F902E089E012E08AE0D5E962
:100F40000501CDE90001E36960690121184401EB65
:100F50006001A0699B1E821B2069304406F072F973
:100F600078E0206805F0AEF80490206819F0D2F916
:100F700040B1A06808B1002008E00498006F28B1D3
:100F8000012003E00498406F00B10220049901EBB6
:100F90008000C56E04A805F0FFF800231A46284615
:100FA000216805F0BBFD55E0206805F08BF8049042
:100FB000866EEEB3B0F95C70A168D1B3032942D05C
:100FC0005FF0000100EB8101406D0C6C07F070FFD9
:100FD000204607F03EFF05A806F058FCBDF81410A7
:100FE000A88B0144ADF81410BDF81810081AADF81C
:100FF0001800BDF81600801CADF81600BDF81A00E8
:10100000801EADF81A000498B0F96020B0F95E10A7
:1010100005A807F0DDFB04A805F0BEF8022007F0E4
:10102000D1FF304605F04EF83A4605A9079001E099
:101030000BE006E005F0F4FE0DF11C0005F0ACF845
:1010400008E00121BEE70221BCE704A8F6E720681A
:1010500018F094FD09B00020F0BD0000F8430C0822
:10106000044A0349116004494A6A486210467047BD
:1010700028090220EC080220F808022000294FF07D
:10108000100101D017F0DAB917F025B94FF48072CA
:101090000029114601D017F0D1B917F01CB9000092
:1010A0000348024941600349816070475B70020850
:1010B000EC080220496A02082DE9FF410E460500AE
:1010C0004FF0010421D006F0BFFC284604F0FAFFDF
:1010D0000190876E01A8009705F05EF831466846DA
:1010E00009F084FB78B100980024B84208D0284663
:1010F00004F0E8FF01900099816601A805F04CF822
:10110000284618F083F908F045FB04B02046BDE8F6
:10111000F081FEE77CB5214C0546216831F8220FAD
:101120004A8D104408804888CA8D1044488028465B
:1011300006F086FB2168498CADF800104618284659
:1011400009F0A4F93044401EADF8040006F0C8FBD5
:101150002168898CADF802100844401EADF80600E5
:10116000684618F063FF04E0284601F0F5FA18F02D
:10117000D7FE0028F8D10A2D04D0BDF8040021685C
:10118000401C4884206830F8221F428D891A018053
:101190004188C28D891A41807CBD0000C0070220B1
:1011A00013484DF804ED87B0016841F080010160FB
:1011B000016801F080010591016841F480710160CE
:1011C0000068694600F4807005904020009001207E
:1011D0000190029003200390064809F031FD082099
:1011E00000900548694609F02BFD07B05DF804FB47
:1011F00030380240001C0240002002402DE9F0413E
:101200003C4F80460024386820F0C00038603868C1
:1012100038601E2029F030FF374E00250022402183
:10122000304609F02AFE022029F026FF012230462E
:10123000402109F022FE60060821040E384609F01C
:1012400017FE00281CBF601CC4B2681CC5B2082D64
:10125000E4D3B8F1000F4FF000024FF040013046E8
:1012600024D009F00AFE386820F0C00038603868E1
:1012700040F040003860022029F0FEFE002238468F
:10128000082109F0FAFD022029F0F6FE012230467D
:10129000402109F0F2FD022029F0EEFE0022304646
:1012A000402109F0EAFD2046BDE8F08109F0E5FDA6
:1012B000386820F0C0003860386840F0400038607E
:1012C000022029F0D9FE01223846082109F0D5FD77
:1012D000022029F0D1FE01223046402109F0CDFD47
:1012E000022029F0C9FE00223046402109F0C5FD48
:1012F000D9E7000000200240001C02402DE9F04127
:101300001C4F0546386820F0C0003860386840F04F
:1013100040003860184E00224021304609F0ADFDF3
:10132000022029F0A9FE002415F0800F05D001222B
:101330003846082109F0A1FD04E0002238460821C2
:1013400009F09BFD68060122050E3046402109F098
:1013500094FD022029F090FE00223046402109F041
:101360008CFD022029F088FE601CC4B2082CDBD35F
:10137000BDE8F08100200240001C024070B5134C13
:10138000206820F0C0002060206840F0400020600D
:1013900001222046082109F070FD0D4D0122402157
:1013A000284609F06AFD1E2029F066FE002220462C
:1013B000082109F062FD022029F05EFE2846BDE802
:1013C00070400022402109F058BD0000002002407A
:1013D000001C024010B5104C206820F0C0002060B6
:1013E000206840F0400020600C480122402109F0B4
:1013F00044FD1E2029F040FE00222046082109F06D
:101400003CFD022029F038FE01222046BDE81040B4
:10141000082109F032BD000000200240001C0240FB
:1014200070B5284E0024306820F0C000306030686D
:10143000306001220821304609F01FFD224D0122B3
:101440004021284609F019FD022029F015FE082147
:10145000304609F00DFD00282CD0601CC4B2FA2CD7
:101460001FD93068344620F0C0003060306840F04A
:101470004000306001222846402109F0FEFC1E2079
:1014800029F0FAFD00222046082109F0F6FC02208E
:1014900029F0F2FD01222046082109F0EEFC01208E
:1014A00070BD022029F0E8FD0821304609F0E0FC7B
:1014B0000028D2D100222846402109F0DEFC00207D
:1014C00070BD000000200240001C024070B4BFF359
:1014D0004F8FBFF36F8F1A4900200860194D29689C
:1014E00041F400312960BFF34F8FBFF36F8F16496E
:1014F0000860BFF34F8F081F006843F6FF76134A5A
:10150000C0F34E3CC0F3C90406EA4C11204641EA40
:1015100080731360401EFAD2BCF1010CF4D2BFF309
:101520004F8F286840F480302860BFF34F8FBFF39F
:101530006F8F0748016841F00401016070BC70477B
:1015400050EF00E014ED00E084ED00E060EF00E01B
:101550009CEF00E0704700002DE9FC5F1546074650
:10156000DFF8908028440190D8F800201C460E46F1
:10157000526E2144894652689047D8F80020781B63
:101580004946526E82465268904771193819009048
:10159000D8F800208946526E52689047D8F800204B
:1015A000711B8B46526E009852689047002C1ED0DB
:1015B000D8F80010361B4546496E01984A683146F6
:1015C00090472A6831465046526E526890472868C4
:1015D0003C1B4946406E4268204690472A6859465F
:1015E0002046526E526802B0BDE8F05F1047BDE879
:1015F000FC9F0000C0070220012009F015BB4FF43A
:10160000005009F011BB042009F00EBB082009F0BE
:101610000BBB00002A4810B586B0016841F00101FB
:101620000160016801F001010591016841F00401C8
:101630000160016801F004010591016841F0800139
:10164000016000680124694600F0800005901D4893
:10165000CDE90040022002901B4809F0F1FA600336
:1016600000901A486946CDE90104194809F0E8FAE2
:101670000C2000901748694609F0E2FA0022022186
:10168000062009F06BFC062009F05BFC0122022118
:10169000082009F063FC082009F053FC022209200D
:1016A000114609F05BFC092009F04BFC03220221E2
:1016B000282009F053FC282009F043FC06B010BD97
:1016C00030380240000011100000024000002110DC
:1016D00000080240001C0240B3F5804F30B418BF30
:1016E0006FF0704104D040F8221030BC00207047E9
:1016F00050F82230DFF824C08D8903EA0C03D1E9C9
:1017000000C44CEA041C8C688969240244EA05443C
:101710004CEA040C4CEA01011943E4E70000F0CF65
:1017200070B4D1F800C050F82C201B4BD1E90356FF
:101730001A40D1E9014335431C432C434D692C43E6
:101740008D692C43CD692C430D6A2C434D6A2C4383
:101750008D6A2C43CD6A2C430D6B2C438D6B2C432F
:101760004D6B2C432243082B08BF42F0400240F847
:101770002C200A6BB2F5801F05D10A684AB10268B5
:1017800042F4801202600A681AB10268496B114380
:10179000016070BC002070478004C0FF00EB820233
:1017A00070B453684FF07E46D1E900C48D8903F0D0
:1017B00040434CEA041C8C68240244EA05440D8A28
:1017C0004CEA0404DFF834C00CEB05552C430D7DC6
:1017D00006EB05652C438D692C4323435360026857
:1017E00012F4801F07D04268098A22F470020CEBC1
:1017F00001511143416070BC002070470000F0FFB0
:101800004DF8044DD1E901320C681343D1E903C20C
:101810004CEA02021A434B6913438A69012C04689B
:1018200043EA020CCB690A6A496A08D04CEA03030E
:101830001A4311436FF30E04214301600BE024F4BB
:10184000F8441A4321430A43416802606FF30E01D2
:101850004CEA010141605DF8044B00207047426989
:1018600042EA4101416100207047F8B5144605463F
:10187000D1E900026FF01F0310438A68C96803EBC7
:10188000421242EA412108430090286109F0FAFA25
:101890000646A86910F0200F0ED0B4F1FF3F07D024
:1018A00024B109F0EFFA801BA04201D90320F8BD52
:1018B000A86910F0200FF0D10020F8BD2DE9F0014B
:1018C000D1F804C06FF00F050B682C015B1E05EB0F
:1018D0000C1C43EA0C03D1F808C04FEA0428270384
:1018E00004EB0C2C43EA0C050B8A2604CC68012A75
:1018F000826808EB034C8B8A097E07EB035306EBE7
:1019000001610DD0361306EB04342C4344EA0C0C71
:101910004CEA0303194302F070421143816012E064
:10192000240322F47042A4F58054234322F470026D
:101930001A43C36845EA0C0C826003F070434CEA1A
:1019400001011943C160BDE8F001002070472DE995
:10195000F047044640688EB00027804604F0B2FB92
:101960000090B0F87CA0D0F86890D0F88060D0F8F3
:101970008850C06D00B10768684604F00DFC05E0B2
:10198000696820468847002843D12D68002DF7D18B
:101990002068172853D00CDC0F283DD004DC0B281E
:1019A00077D00D2825D18BE0112810D0142820D114
:1019B0003BE0262846D004DC1E2851D0202818D130
:1019C0008AE02A2816D0B0F5107F12D128E04046D0
:1019D000E56804F077FB0290697A39B9297A012920
:1019E00004D130F87C1F41F48071018002A804F01A
:1019F000D3FB75E0404604F065FB0090E16811B14F
:101A0000C0F8841002E0D0F88400E060684604F07A
:101A1000C3FB0EB0BDE8F087D7B34046B8475FE0E0
:101A20002146404625F082F8F3E705A9404600F03C
:101A3000A2FBE0680699016007994160E9E7C4F8F4
:101A40000C90E6E7E0680228E3D1CDF83080E0684A
:101A50000D9027200A900AA9A06818F06BFED8E71D
:101A6000E068012804D00021404600F0C9FAD0E720
:101A7000304617F046FD68B1304617F0F9FF3046A2
:101A800017F0F0FB98B10121304616F0D7FC0EE0BC
:101A900026E02FE0484618F03FF80646404604F09E
:101AA00011FB0090C0F88060684604F075FB0121CE
:101AB000404600F0A5FA002EABD10020E060A8E778
:101AC0005FEA0A700CD4E068C06848B1007A38B1A7
:101AD000404617F0CDFF03E02146404623F0EEFDDF
:101AE0002146404616F016FC002892D0204616F0FB
:101AF000F3FE8EE7404604F0E5FA0090703004F003
:101B00002DFA684673E7F0B587B0B0F908400DF1DB
:101B10000C0C0C9E876945688CE8F000448A00250F
:101B2000CDE900150294B0F90C10B0F91050B0F9DD
:101B30000E40B0F90A00194410442B46224600F02A
:101B400003F807B0F0BD00002DE9F04F8BB09846C8
:101B5000DDE9155691468A468346149F1A9C05F086
:101B600073FF3348603445F48055CDE90204CDE974
:101B7000007543464A465146584616F0F5FD0400A6
:101B80004FD004F09FFA30220490179916F016FDFA
:101B90000498282227493430FEF7F0FD049819995B
:101BA000244F4166A0F87C600026C0F88060C666BD
:101BB000083FC0F888607968C16504A804F0ECFAB1
:101BC00005A9204600F0D7FA1B4841F2827103961E
:101BD0000094CDE90110BDF91E00BDF91A10BDF940
:101BE0001C20431ABDF918005B1C121A521C16F077
:101BF000BBFD06467868416820468847204604F0C9
:101C000061FA0490866604A804F0C6FA42F2040061
:101C1000054202D1204616F00FFF2046189900F029
:101C200053FA07F0B7FD0BB02046BDE8F08F000077
:101C30004F190008BC0902202F2300082DE9F041AC
:101C4000044694B0006800F0B7F908B1D94D01E03E
:101C5000D84D2C35606815281ED00CDC0B281FD001
:101C600004DC00287ED005287DD12FE10E287BD012
:101C70001228F9D141E1162806D0172808D01828D3
:101C800008D01C28F0D109E0E86914B0BDE8F08163
:101C9000286AFAE7686AF8E7A86AF6E76869F4E785
:101CA00020680B901C200C90206804F00BFA039025
:101CB000016D0BA88847064603A804F06DFA022EB2
:101CC0000FDB95E807008DE80700D4E904023346EE
:101CD000A16908F0A5F920698719A069A0EB060899
:101CE0002CE0286807F0B5F82169E8690A18521E47
:101CF000606905F00DFBA269E869111A491C606969
:101D000005F006FBD4E904077F1C394605F050FBBB
:101D10003946A06905F04CFB686807F09AF820691D
:101D20003946401C05F044FBA0693946401E05F0C9
:101D30003FFBA0692769A0F10208BF1C286807F0D3
:101D400088F842463946606905F0E2FA686807F0AB
:101D500080F8606942463946401C05F0D9FA686A45
:101D6000022802E015E1B0E000E10BDDA86807F011
:101D700070F861696A6A881C8B18014642463846C9
:101D80005B1E27E0296AB14226DD6069022E074604
:101D900000F1020801DB374401E007F10207206986
:101DA00001DB304401E000F1020022693B460A44B5
:101DB0004146A2F1010205F03DFC022E02DBA069C2
:101DC000821B01E0A269921EA069E9693B46401AA4
:101DD0004146401C05F02EFC022E02DB60690644E1
:101DE00001E06669B61CE76928687F1E07F031F8D4
:101DF0003A463146206905F093FB3A463146A069E0
:101E000005F08EFBE7696868BF1E07F022F82069BD
:101E10003A463146401C05F083FBA0693A463146FC
:101E2000401E05F07DFBE869022802DC286A0228D2
:101E300023DDA86A022802DDE1690F1A01E0E769E3
:101E4000BF1EA86807F005F8E969022909DD2069C5
:101E50003B46421800F1020C31466046521E05F026
:101E6000E9FB286A022808DDA269E8693B46101AE6
:101E70003146401C921E05F0DDFB286806F0E9FFA4
:101E8000D4E90620216905F043FA686806F0E1FF0D
:101E9000D4E906202169401E491C521E05F038FA7B
:101EA000A86A022811DDA1692669E469A1F1020886
:101EB000271AA41EB61C7F1CA86806F0CAFF23467A
:101EC00042463946304605F0B5FB71E0208A00B243
:101ED000ADF81400A18A09B2ADF81610228B12B227
:101EE000ADF81820A38B1BB2ADF81A302C69ED6841
:101EF000CDE9005405F0A6F95AE0208A298B084460
:101F0000ADF81400A08AADF81600208B298B401A7A
:101F1000ADF81800A08BADF81A00206804F0D2F8D4
:101F20000390006FF0B1022007F04CF8039890F88E
:101F30007C10C1F3C00100EB8100006C06F089FF4A
:101F40000398406B06F0B4FF0398006F04F0BAF8F2
:101F500003990990B1F95A2005A904F061FF09A875
:101F600004F01AF903A804F017F921E0208AADF86B
:101F70001400A08AADF81600208BADF81800A08BD5
:101F8000ADF81A00A86806F064FF05A805F07EFB0E
:101F90000EE0206804F096F8039030F85A1F41F0E4
:101FA0000C01018003A804F0F7F8206817F0E6FDA3
:101FB00000206AE6F809022038B505004FF0000459
:101FC0000FD005F041FD284604F07CF8009090F811
:101FD0007C00000700D50124684604F0DDF807F016
:101FE000D9FB204638BD0000022905D2034A52F829
:101FF00021102C22FEF7C2BB7047000008440C08D9
:1020000070B50D46040009D005F01EFD2946204696
:1020100025F03CFEBDE8704007F0BCBB70BD000081
:10202000022803D2024A02EB8000416070470000A0
:10203000BC0902200149086070470000BC09022069
:10204000074A0649054B1160064A083BD1695860AA
:102050001B68C2E90630084670470000EC09022000
:10206000B8090220BC090220024AB2F92610D08425
:1020700008467047BC09022070B50D460146022D86
:102080001ED2104C2C2254F82500FEF777FB54F892
:1020900025100220CA69022A00DAC86154F8251006
:1020A0000A6A022A00DA086254F825104A6A022AEB
:1020B00000DA486254F825108A6A022A00DA886237
:1020C00070BD000008440C087CB50D4604001DD00E
:1020D00005F0BAFC204603F0F5FF0090006F019078
:1020E000684604F059F8294601A808F07FFB58B16A
:1020F000204603F0E7FF009001990167684604F06D
:102100004BF8204617F082F907F044FB7CBD38B548
:102110000C46050013D005F097FC284603F0D2FFCB
:102120000090B0F95A10A14204D0A0F85A402846B5
:1021300017F06CF9684604F02FF807F02BFB38BD58
:1021400038B50C46050015D005F07EFC284603F096
:10215000B9FF0022CDF8000000EB8201521C0C6494
:10216000022AF9D3684604F017F8284617F04EF90A
:1021700007F010FB38BD2DE9F34F85B000270C4662
:10218000B846059803F09EFF0090C06D0121856858
:1021900005982A68904782462A6803210598904747
:1021A00004902A6802210598904703902A6800212C
:1021B000059890470646009817F029FF8346009837
:1021C00017F02CFF8146009890F83210890601D54F
:1021D000B0F9588000F036F805460098C06E10B18E
:1021E00016F05CFE074625806780A4F804A0049AD8
:1021F000ABEB020006EB0802401E2A4420813A4461
:10220000E280039BA9EB0302521E6281A4F80CA09A
:1022100020827019E681401E6082684603F0BCFF90
:10222000B4F90C000190B4F91000029002AA01A9BF
:10223000059800F039F80198A0810298208207B033
:10224000BDE8F08F10B50146002091F832209206CB
:1022500007D5B1F95400002803D1486B05F0B1FB54
:10226000801C10BD70B58AB00C46054603F02AFFED
:102270000990C06D866809A803F08EFF009534B1FF
:10228000012C06D0022C0BD0032C04D10AE018201C
:1022900000E0162001907168684688470AB070BD5A
:1022A0001520F7E71720F5E72DE9FC41174688468A
:1022B000044603F007FF0090C16D056868468E680C
:1022C00003F06AFF32680021204690470646204608
:1022D00016F089FC27E000BF03F0F4FE0190B0F98E
:1022E00000102AB2B0F90430891A9A1AB0F90230F3
:1022F000A3EB2543B34210D190F82800000605D582
:102300003868884209DB491E396006E0D8F80000C9
:10231000904202DC521CC8F8002001A803F03CFFE8
:10232000204616F005FD0400D6D1BDE8FC812DE95C
:10233000F0430446406889B0054616F017FD814613
:1023400003F0C0FE0290D0F84880D0F88070466E4E
:1023500002A803F021FF2068172853D008DC0E28BC
:102360003AD00F2811D014284CD015283DD149E07F
:102370001E281ED01F282AD0222840D0312834D130
:102380000020E06009B0BDE8F0836FF07041404686
:10239000884503D00CF002FA04F03EFA002EF1D08A
:1023A000D4E902122068CDE90405CDE9061204A89B
:1023B0001FE0E0680028E5D02FB1AF4203D03846D7
:1023C00017F056FBDEE7284617F0A6FBDAE72146B2
:1023D000484615F09FFFD5E7E0684168002904DD15
:1023E00000680928EFD00A2805D05EB12046C4F85D
:1023F0000490B047C6E7284617F09DFBC2E7C4F833
:102400000C80BFE7204616F067FABBE730B53948C5
:1024100087B0016841F080010160016801F080012E
:102420000691016841F48071016000680024012573
:1024300000F4807006908020CDE90104032001A9FA
:10244000CDE903502C4808F0FBFB2802CDE901053B
:102450002A4D01A9284608F0F3FBFEF7A1FE002251
:102460002846A91508F009FD142028F0DFFD0122F7
:102470002846110208F001FD322028F0D7FD012284
:10248000694600208DF8004000F040F901226946BD
:10249000A42000F03BF91620694601228DF80000C7
:1024A000802000F033F90C20694601228DF80000ED
:1024B000882000F02BF902226946A12000F026F8BE
:1024C0009DF80000302804BF9DF80110032907D0B3
:1024D0009DF8011001291FBF0229012007B030BD5E
:1024E000C9B201EB002106A0FDF742FF07B00020B2
:1024F00030BD000030380240001C02400020024085
:102500004354502049443A25780D0A002DE9F04102
:1025100015460E460446FEF731FF7020FEF7EEFE2C
:10252000FEF77EFFE0B2FEF7E9FEFEF779FFFEF769
:1025300025FF7120FEF7E2FEFEF772FF0024002D5A
:1025400088BF6F1E0AD9BC4214BF01200020FEF7CD
:1025500055FE3055601CC4B2AC42F4D3BDE8F04126
:10256000FEF738BF2DE9F14FDFF88CB10025DFF819
:10257000909182B02C469BF80000401CC1B25F488D
:102580008BF80010A0FB0120C008404200EB800047
:1025900011EB400001D00A297ED20122022002A9BB
:1025A000FFF7B4FF9DF8080010F00F0F74D000F093
:1025B0000F0006287ED2FF214FF0000A01FA00F03A
:1025C000C04340F0C00089F82000012099F8201095
:1025D000A84001425CD04B480426E84610F815405C
:1025E000FEF7CCFE7020FEF789FEFEF719FFE0B281
:1025F000FEF784FEFEF714FFFEF7C0FE7120FEF723
:102600007DFEFEF70DFF0024771EBC4214BF0120A3
:102610000020FEF7F3FD08F80400601CC4B2B442C9
:10262000F3D3FEF7D7FE99F830009DF8001010F0B4
:10263000010F9DF8010001F00F0100EB01210CD00A
:1026400009EB4500C1829DF802209DF8031002F0BD
:102650000F0201EB022181810EE02B480088411A14
:1026600009EB450081819DF802209DF8031002F0DE
:102670000F0201EB0221C1829DF8000000F0F00082
:10268000802805D009EB4500A0F816A0A0F80CA002
:10269000681CC5B2052D00E00CE096D3B9F80C100B
:1026A0000124002902BFB9F8160000288DF808A0FF
:1026B0008BF800A09DF8080010F01F0F11D199F8B9
:1026C000200010F0800F18BF20F0800007D14FF6D7
:1026D000FF71A9F80C1000F0E000A9F8161089F8B5
:1026E00020009BF80000F02884BF0A208BF800002F
:1026F000204603B0BDE8F08F1C000220CDCCCCCC2E
:102700002400022096B30208801402202DE9F04133
:10271000002716460D460446FEF730FE7020FEF7F1
:10272000EDFDFEF77DFEE0B2FEF7E8FDFEF778FE78
:102730000024002E0AD9285DFEF7E0FDFEF770FEAA
:10274000070003D1601CC4B2B442F4D3FEF742FECA
:102750003846BDE8F081000010B504460A2812D0C2
:102760000D2C14D005F070F909480068C0690168A3
:10277000204688470748016809B120468847BDE8D8
:10278000104007F007B8BDE8104004F06FBA10BD64
:10279000C0070220EC0702202DE9F0430446C5687B
:1027A00087B090468946002006F076FB064625B1A4
:1027B000287910B146F0020001E026F0020006F090
:1027C0006BFB2069012558B1D4E902128DE826007F
:1027D000039563882288046841464846A0471EE066
:1027E000124F134B214638681B68427CE0689847BB
:1027F00030B9E088012801D0002001E03868806B02
:10280000A288E388A1680095CDE90410CDE90232E1
:10281000019563882288414648460AF065FE07B064
:102820003046BDE8F04306F037BB0000C007022089
:10283000B80702202DE9F0478146884640F2C320C0
:1028400050434FF47A7190FBF1F502FB02F002EB7A
:10285000D27100EB610617460023414648466D1CC5
:10286000FEF77AFE012413E004FB04F007FB0700E7
:10287000B04206DD3B46224641464846FEF76CFE26
:102880007F1E3B46224641464846FEF765FE641CD5
:10289000AC42E9DDBDE8F0871CB50024019401AC31
:1028A000009400F0E7F81CBD2DE9FF4F83B081468E
:1028B00006988A46A0EB0A08109E00200090A2EB22
:1028C00009043568934654EA080018D02046FEF7FC
:1028D000D9F907464046FEF7D5F987420BDA20467C
:1028E000444680464846D14682465846DDF818B0F0
:1028F000069001200090002C07DD204606E007B07E
:102900004846BDE8F04F00F03BB96042A0420AD013
:102910004846D9466442C8F1000883464FF0FF3765
:10292000DDF818A000E001275148B8F1000F11D0E0
:1029300004EBD4714FEA610B01DACBF1000B4C4888
:102940000068807E88B3002F02DA3068204430604F
:1029500000257BE000990029016821D0897E11B112
:102960000027804615E007B05A4649465046BDE864
:10297000F04F0AF08BBF28466D1C25F0D7FC38B904
:10298000D8F8000009EB0701406E426850469047B6
:102990007F1CA742EFDD6D1E356007B0BDE8F08FEC
:1029A0008A7E1AB10027804617E019E0486E5A4621
:1029B0005146036807B04846BDE8F04F184728461F
:1029C0006D1C25F0B3FC38B9D8F8001009EB0700EE
:1029D000496E4A68514690477F1CA742EFDDDAE70F
:1029E00000250FE008FB05B090FBF4F101EB0A00B5
:1029F000009951B11E4A09EB05011268526E5268E6
:102A000090476D1CA542EDDDC7E7194909EB0503A9
:102A10000968496E4A6801461846F1E708FB05B0A7
:102A200090FBF4F101EB0A0001903068384430600B
:102A300025F07CFC48B9009890B10D4809EB0501E0
:102A40000068406E4268019890476D1CA542E5DD24
:102A50003068002F01DA20443060C01B30609CE7F2
:102A6000034909EB05000968496E4A680199EBE7DB
:102A7000C00702202DE9FF470F4640491646804611
:102A800009680C981D460A7E012A1CD0A8EB060096
:102A9000791B50EA01031CD0A2F1010927F0A4FC24
:102AA00000F58060824607F0CAFF00FB09F450463B
:102AB00007F0CAFF00FB09F1002C0CDAC4F5007026
:102AC000801240420AE00090324639464046FFF705
:102AD000EBFEBDE8FF8704F50074A012002904DABC
:102AE000C1F5007189124C4202E001F500718C12AF
:102AF000002804DD411C01EBD171491003E000EB1B
:102B0000D0714910401E00EBD0704210002C04DD43
:102B1000601C00EBD070401003E004EBD470401058
:102B2000641E04EBD47308EB0104ADF800403C18BC
:102B3000ADF80240A8EB02045B10B21AADF80440F5
:102B4000ADF808203144FC1AEA1AADF80C102844FC
:102B5000ADF80A20ADF80E000023ADF806401A4685
:102B60000421684600F08CF8394640461DF02AFFE3
:102B7000294630461DF026FFABE70000C0070220C3
:102B8000064A13681A7E012A05D0521E02EBD27241
:102B9000521000F005B85A6E52681047C007022064
:102BA0002DE9F05F0646884640F2C32002FB00F1A3
:102BB0004FF47A7091FBF0F702FB02F102EBD27056
:102BC00001EB600B1446B118234A301B7F1C1268BE
:102BD000526E13680A4641469847012538E000BF07
:102BE00005FB05F004FB040159451CDDBC4219DD61
:102BF000194B06EB050AA6EB05091B68AAF10102B1
:102C000008EB04015B6E09F101001B689847124B49
:102C1000AAF10102A8EB04011B6809F101005B6E37
:102C20001B689847641E0C4B3219301B1B68924678
:102C300008EB05015B6E81461B689847064B5246C0
:102C4000A8EB05011B6848465B6E1B6898476D1C26
:102C5000BD42C5DDBDE8F09FC007022070B5144637
:102C60000E4605460119001B03F0C4F82246314602
:102C700028461FF0D1FABDE8704002F0D5BF000031
:102C80002DE9FF4F43F6FF740F46664283B09B4623
:102C9000814600210BE000BF09EB8100B0F9020082
:102CA000A04200DA0446B04200DD0646491CB942A3
:102CB000F2DB67480068406900280DD0B0F90610C3
:102CC0001A46A1EB0B01B14200DA0E46B0F9020040
:102CD000801AA04200DD0446B4E0DFF878A10020AD
:102CE0000546CAF8000088E0781E854201DA6B1CB0
:102CF00000E0002309EB850C09EB8302BCF902001C
:102D0000B2F90210A04244D1A14215D139F92330C1
:102D1000059A39F9251003EB020C4D4A0598126803
:102D2000084404EB0B01526E6045136801DA6246F9
:102D30002AE00246604627E02846A4464FF00008F5
:102D40007A1E0BE008B1401E00E0781E09EB8003FC
:102D5000B3F90230634504D108F101089045F1DB75
:102D60002346A34248D01A1B39F92500A1EB040CD5
:102D7000059B92EA0C0F09D4354A184404EB0B0169
:102D80001268526E13680246984735E017F0ECFD62
:102D900032E0A14230D001DBA04203DDA0422BDBB8
:102DA000A14229DCE04688420ADC0346A04223DC3B
:102DB0000846A14220DBB8F900C0B2F9001008E0D3
:102DC0000B46A14218DCA04216DBB2F900C0B8F9EC
:102DD0000010E21AA1EB0C0151430029A0EB030201
:102DE00002DD01EB620102E0A1EB6201491CC01AA5
:102DF00091FBF0F06044C9E76D1CBD42FFF674AF73
:102E00000598009004EB0B000190002080460546D9
:102E100013E01149B8F1000F31F915A009D000995C
:102E200001EB0A0208440A490968496E0B680199D6
:102E3000984788F0010850466D1C064909688D4284
:102E4000E7DB641CB4427FF748AF07B0BDE8F08F02
:102E5000C0070220A80D02200CC1042010B50020DC
:102E600005F0E0FF6FF07F4005F0F3FF012006F072
:102E70008BF8002006F096F8002006F0A3F800205A
:102E800006F00AF80448006806F012F8BDE81040A1
:102E9000002006F04BB80000BC07022033B583B019
:102EA00004001BD004F0D0FD204603F00BF9019084
:102EB000456E01A803F070F9049803F003F900903F
:102EC0008460684603F068F9042204A9284603F0E8
:102ED00087F9204616F09AFA06F05CFC05B030BD82
:102EE00033B583B004001BD004F0AEFD204603F0E0
:102EF000E9F80190856E01A803F04EF9049803F0FB
:102F0000E1F800908460684603F046F9042204A9C1
:102F1000284603F065F9204616F078FA06F03AFCE8
:102F200005B030BD2DE9F04104460025D4E9000785
:102F3000B0F5407F00D101252146384615F0EAF969
:102F4000064615B1384622F0D1F8002E2FD0206861
:102F5000052806D00B280ED00F2806D0262821D110
:102F60000EE0384622F0C2F81CE03846E168BDE8C1
:102F7000F04122F014BF3846BDE8F04122F0CDBB4D
:102F8000E06805280ED1384615F02AFFA16888426E
:102F900005D0384615F014FFA168884202D1606858
:102FA00023F074FD2046BDE8F04115F095BCBDE866
:102FB000F081F0B585B00DF1280C9CE8F0004FF0E1
:102FC000000C8DE8F01000F003F805B0F0BD000033
:102FD0002DE9F04F85B09846DDE90E5691468A46B8
:102FE0008346109F129C04F02FFD18486C34CDE9E5
:102FF0000204CDE9005643464A465146584615F06C
:10300000B3FB04001BD003F028F9054603F025F9B3
:103010000646204603F056F80490C0E919560022EF
:10302000119915F0CBFA0498302209493430FDF794
:10303000A5FB0498A0F8787004A803F0ADF806F09A
:10304000A9FB05B02046BDE8F08F0000252F000841
:10305000500A022013B582B0044604F0F5FC204665
:1030600003F030F8009060B1406A03F02BF801469D
:103070000190022303AA009800F0C8F901A803F008
:103080008BF8684603F088F806F084FB1FBD00004B
:103090002DE9F04385B01D4690460F46814604F069
:1030A000D3FC2C2002F011FF060024D0780002F09F
:1030B0000CFF04000ED0B8F1000F0BD055B1204624
:1030C00003F000F86A0041460090FDF7D0FA684628
:1030D00003F062F8304602F0F5FF0A49029000F171
:1030E0000C02446282E8A20207490160074941607C
:1030F00002A803F051F806F04DFB05B03046BDE8DC
:10310000F0830000ED4B0208495F0208AB5702084C
:1031100010B5044604F098FC204622F046FBBDE8BA
:10312000104006F037BB2DE9FC47894607002BD03D
:1031300004F08AFC384602F0C5FF0190466E01A8F3
:1031400003F02AF8304603F0E0F80546002414E0C6
:103150002146304603F0E5F870B102F0B3FF00906D
:10316000D0F80080684603F017F8C84504D121461E
:10317000304603F09DF802E0641CAC42E8DB3846C0
:1031800016F044F906F006FBBDE8FC872DE9FC4784
:10319000894607002BD004F057FC384602F092FF16
:1031A0000190866E01A802F0F7FF304603F0ADF8FB
:1031B0000546002414E02146304603F0B2F870B111
:1031C00002F080FF0090D0F80080684602F0E4FF33
:1031D000C84504D12146304603F06AF802E0641C79
:1031E000AC42E8DB384616F011F906F0D3FABDE838
:1031F000FC8700002DE9F843984615460E46074621
:1032000004F022FC302002F060FE040015D002F031
:1032100059FF0090C0E9057685840A4AB7EE000A96
:10322000C0F81C8080ED0A0AD2E90012C0E903123E
:1032300005490160684602F0AFFF06F0ABFA204690
:10324000BDE8F883800A02202160020802F05CBE1B
:10325000F8B50D4606004FF0000411D004F0F4FB61
:10326000304602F02FFF0090046AAC4203D00562A2
:10327000806816F0CBF8684602F08EFF06F08AFAF6
:103280002046F8BDF8B50D4606004FF0000411D0F9
:1032900004F0DAFB304602F015FF00904469AC42BE
:1032A00003D04561806816F0B1F8684602F074FFFB
:1032B00006F070FA2046F8BD2DE9F8431D46DDF80A
:1032C000208016460F46040015D004F0BDFB2046B2
:1032D00002F0F8FE0090C0F860804765C0E916650E
:1032E000684602F059FF204621F000FF204616F004
:1032F0008DF806F04FFABDE8F883F8B515460E468E
:1033000007004FF0000415D004F09EFB384602F091
:10331000D9FE0090042D08D200EB8500446BB44226
:1033200003D04663384616F071F8684602F034FF61
:1033300006F030FA2046F8BDF8B50D4606004FF00D
:10334000000411D004F080FB304602F0BBFE009078
:10335000446CAC4203D04564304616F057F86846DA
:1033600002F01AFF06F016FA2046F8BDF8B50D4631
:1033700006004FF0000411D004F066FB304602F066
:10338000A1FE0090846CAC4203D08564304616F0F8
:103390003DF8684602F000FF06F0FCF92046F8BD53
:1033A000F8B50D4606004FF0000411D004F04CFBB8
:1033B000304602F087FE0090046DAC4203D00565F4
:1033C000304600F055F8684602F0E6FE06F0E2F9F5
:1033D0002046F8BDF8B50D4606004FF0000413D0A6
:1033E00004F032FB304602F06DFE009090F86C4025
:1033F000AC4204D080F86C50304616F007F86846AE
:1034000002F0CAFE06F0C6F92046F8BD2DE9F041EB
:10341000044680681D4617460E46002826D0D4E98B
:10342000040290420ED1521E6A4371193046FDF7D4
:1034300063F920692A46401E05FB00603946FDF706
:103440005BF90EE005FB0013401C20612A4639465B
:103450001846FDF751F9E16819B12046BDE8F04181
:103460000847A068BDE8F04100F002B8BDE8F0816F
:1034700010B58AB0044602F025FE09A904AACDE9D8
:10348000002105AB089006AA07A920F05DFC08A85A
:1034900002F082FE02A9204615F0F8FBBDF80800F4
:1034A00007990844ADF80800BDF80A0006990844D9
:1034B000ADF80A00BDF80C000599401AADF80C00F3
:1034C000BDF80E000499401AADF80E0002A920467E
:1034D00015F05CFF0AB010BD2DE9F041534888B0EB
:1034E000016841F080010160016801F080010791ED
:1034F000016841F480710160006800240326DFF850
:10350000308100F48070079080256946012740468D
:10351000CDE90054CDE9027607F092FB68006946D8
:10352000CDE90007434F384607F08AFBFDF738FE28
:1035300000223846690007F0A0FC0A2027F076FD3B
:1035400001223846110207F098FC0A2027F06EFD90
:10355000CDE90054CDE902466946404607F070FBCC
:10356000642027F063FD042248F2401005A900F012
:103570007BF805A98DF818402FA0FCF7F9FE31A1C2
:1035800005A8FDF77FF900281EBF012008B0BDE89F
:10359000F0810220012205A98DF8140048F24000B4
:1035A00000F08EF9012248F2470005A900F05CF80E
:1035B0009DF8141060292AD224A0FCF7D9FE2848CF
:1035C0008088A0F5AA41103921D18DF81C40012135
:1035D0008DF81D10002023499DF81C200B5C401C19
:1035E000C0B2B8281A448DF81C20F5D3D0B21D49BA
:1035F000C043401C8DF81C00B82248F2470000F080
:103600005FF9022248F2FF0007A900F059F90A20E9
:1036100027F00CFD012248F2400005A98DF8144066
:1036200000F04EF908B00020BDE8F08130380240CB
:10363000001C0240002002404354502049443A25D7
:10364000730D0A00393134370000000044656661AB
:10365000756C74205665723A25640D0A00000000EE
:1036600080140220A0B302082DE9F04115460E4651
:103670000446FDF783FE2820FDF740FEFDF7D0FE4F
:10368000200AFDF73BFEFDF7CBFEE0B2FDF736FE6C
:10369000FDF7C6FEFDF772FE2920FDF72FFEFDF7B0
:1036A000BFFE0024002D88BF6F1E0AD9BC4214BF84
:1036B00001200020FDF7A2FD3055601CC4B2AC42D1
:1036C000F4D3BDE8F041FDF785BE00002DE9F14FD0
:1036D000764E0024764982B0764DA2463078401C62
:1036E000C0B23070A1FB0021C908494201EB810141
:1036F00010EB410101D00A287BD2012248F24E1082
:1037000002A9FFF7B1FF9DF808004FF0000910F083
:10371000800F0BD000F00F00062807D2012248F2DC
:103720004E1001A98DF8049000F0CAF89DF8080029
:1037300010F00F0F5DD000F00F00062859D2FF21C6
:10374000DFF874B1DFF874814FF0010A01FA00F07C
:103750008DF80400C04395F8207040F0C00085F853
:103760002000A889A882E88AE88395F820000AFA50
:1037700004F1084250D03BF8140004226946FFF7D8
:1037800073FFB8F80400A0F5AA41103904D0A0F5E1
:103790008641423917D03FE095F8300010F0010F14
:1037A00016D09DF801109DF8000000EB012105EBFB
:1037B0004400C1829DF803209DF8021001EB022114
:1037C000C1F5487127E095F8300010F0010F11D0D5
:1037D0009DF801109DF8000000EB012105EB44006D
:1037E00081819DF803209DF8021001EB0221C18226
:1037F00012E03BE09DF801109DF8000000EB012174
:1038000005EB4400C1829DF803209DF8021001EBF6
:103810000221C1F588718181601CC4B2052CA4D33A
:10382000A9894FF0010AB8F8002028468A4207D338
:10383000C18AB8F802208A4228BF86F8009015D2C3
:103840009DF8081001F00F01012906D9C189818175
:10385000018BE98286F8009008E0818A8181C18B22
:10386000C18280218DF8081085F820709DF808002D
:1038700000F08F0080280FD195F8200010F0800F05
:1038800018BF20F0800005D14FF6FF71A98100F02C
:10389000E000E98285F820003078F02884BF0A2013
:1038A0003070504603B0BDE8F08F00001D000220CC
:1038B000CDCCCCCC2400022058B4020880140220C5
:1038C0002DE9F041002715460E460446FDF756FD4A
:1038D0002820FDF713FDFDF7A3FD200AFDF70EFDDF
:1038E000FDF79EFDE0B2FDF709FDFDF799FD00240F
:1038F000002D0AD9305DFDF701FDFDF791FD0700B0
:1039000003D1601CC4B2AC42F4D3FDF763FD38466A
:10391000BDE8F0814DF8044D02784FF0000C2AB15B
:103920000CF1010C10F80C20002AF9D10123B1FB95
:10393000F3F41A460A2C07D303EB8303521C5B00F3
:10394000B1FBF3F40A2CF7D200EB0C040023002A9D
:10395000A35412BFDFF82CC05DF8044B7047ACFBDA
:103960000130C008434203EB830301EB4301A3187A
:103970003031521E03F8011C0146F0D15DF8044BB2
:1039800070470000CDCCCCCC90F800C0002213468C
:10399000BCF1000F05D0521C10F802C0BCF1000FA2
:1039A000F9D111F803C0BCF1000F08D05B1C00F87E
:1039B00002C0521C11F803C0BCF1000FF6D1002167
:1039C00081547047F0B583B02FA13CA001F02EF9CF
:1039D000012000F0BDFC012003F0CAFD07463C4871
:1039E00005F066FA0C22BE213AA003F0FFF9002090
:1039F000ADF800002B20ADF802003B203B49ADF8AC
:103A000004008A20ADF806002B3839A56E4681FBEC
:103A10000010A0EBE0743D4805F04AFA6FF07F40DB
:103A200005F017FA012331460E22284603F022FA48
:103A3000374805F03DFA214668461DF02DF965220C
:103A40006846002104F0C4FE304832A505F030FA83
:103A50006FF07F4005F0FDF9012331460E22284624
:103A600003F008FA324805F023FA214668461DF0B3
:103A700013F94FF47A6001F015FD03B03846BDE844
:103A8000F04003F075BD00004F75747075742061CF
:103A90006E7469616C696173656420746578740A19
:103AA0006F6E20646966666572656E74206261631C
:103AB0006B67726F756E64732E000000416E7469DF
:103AC000616C69617365642054657874000000005E
:103AD00014960908416E7469616C696173656420AC
:103AE000746578742073616D706C6500565555551A
:103AF000416E7469616C6961736564207465787482
:103B00000A20283420627070290000009C0C0C08E8
:103B100034980908416E7469616C69617365642049
:103B2000746578740A2028322062707029000000C1
:103B30008C9909082DE9F041002441A14AA001F027
:103B400075F80AF0B5F905460AF0BEF9A0F1C4010E
:103B500007464A48C83D4A4E4A4A80FB0101A1EB4C
:103B6000E171F1601088401DB0EB650F03DB5088F8
:103B7000401D814200DD012443A003F0E8FEB0EBCC
:103B8000650F4FF0010806DBF068A7F1280140003F
:103B9000C430814201DDC6F800803F4805F088F955
:103BA000054603F08FFEF168401C8842B8BFC6F896
:103BB0000480284605F07CF90AF07AF907460AF0F5
:103BC00083F905466FF07F4005F043F9002005F0CA
:103BD000F9F9002005F026F902F01EFE24B10522B5
:103BE0002848114603F0D6F9306880B12B4805F01B
:103BF0005FF90A21A5F1280229A003F0E3F8A5F155
:103C0000170002B203230A21002003F007F87068AE
:103C100050B1214805F04CF903F054FE281A7910F0
:103C2000421023A003F0E2F801F0F6FF032002F0B7
:103C3000EDF817F0C1F8BDE8F04101F0E5BF000074
:103C40004578616D706C657320666F72207468656D
:103C50000A6175746F6D6F7469766520696E64753D
:103C600073747269650000004175746F6D6F7469DB
:103C700076652073616D706C6573000056555555FF
:103C8000E400022094830A086D7365632F706963F2
:103C9000747572653A0A00001496090828790908B3
:103CA0006D7365632F706963747572653A0A0000FD
:103CB00047656172202020203100000007A10CA080
:103CC00010B500F0B3FF012000F042FB02F078FCD9
:103CD00018F0C6F9BDE8104002F05ABD416E696D9A
:103CE00061746564206261722067726170680000AF
:103CF0004261722047726170680000002DE9F84F40
:103D00003FA14DA000F092FF00F08AFF002000F0DC
:103D10001FFB0AF0CDF804460AF0D6F83222074617
:103D20004748142103F036F946A000F063FF40F63F
:103D3000B83001F0B7FB002000F00AFB4748322200
:103D4000142103F027F946A000F054FF40F6B830E4
:103D500001F0A8FB4748002580FB04100111A1EBEE
:103D6000E07000F1010ABAF1000FC4BF4FF0000883
:103D7000DFF8049124DD38464146C9FB07100024D2
:103D80008111A1EBE070401C0028C4BF05EB450089
:103D9000C0EB851611DD5C20314604FB00F22F4894
:103DA00003F0F8F838464146C9FB0710641C81113E
:103DB000A1EBE070401CA042EDDC6D1CAA45DADCF2
:103DC0004FF4FA6001F06EFB2CA000F013FF0AF034
:103DD0006FF844100AF078F84010A0F18A0203202E
:103DE0000090A4F15A0103461C4803F0FFF82EA0EE
:103DF00000F000FFBDE8F84F4FF47A6001F052BBCD
:103E000053686F77696E670A646966666572656E86
:103E100074206269746D61707320776974680A61D7
:103E20006E6420776974686F757420636F6D70724B
:103E3000657373696F6E00004269746D6170730021
:103E400084480308524C4520436F6D70726573734C
:103E50006564206269746D617073000070480308C6
:103E6000312F322F342F3820627070206269746DC8
:103E7000617073003FC52543C94216B24269746D33
:103E8000617073206D617920616C736F2062650AC7
:103E90006D61676E696669656420616E6420726F2A
:103EA00074617465640000004269746D6170732010
:103EB00063616E206265206D61676E696669656425
:103EC0002E2E2E0010B5094C606A012805D10A205B
:103ED00002F05CFE606A0128F9D0A06A01284FF068
:103EE000000004BFA062012010BD0000900002206D
:103EF0002DE9F04F97B0502102A8FCF79BFC09F088
:103F0000D7FF169009F0E0FF8849044688A000F02A
:103F10008DFE012000F01CFA6FF07F4004F099FF45
:103F2000864804F0C5FF16980C22411084A002F0C8
:103F30005DFF864804F0BCFF2B22012184A002F023
:103F400041FF3F22012183A002F03CFF53220121C7
:103F500082A002F037FF6222012182A002F032FF2C
:103F60007122012181A002F02DFF8522012181A073
:103F700002F028FF9922012180A002F023FF81484E
:103F800004F096FF09F0E4FE014602A8FFF7C2FC28
:103F90007DA102A8FFF7F8FC092009F0F5FE050055
:103FA0000BD07BA102A8FFF7EFFC02A82946FFF780
:103FB000B1FC78A102A8FFF7E7FC0C21A4F11902DB
:103FC00002A802F0FFFE00F0D1F94FF6FF7A064694
:103FD000FF274FF47F484FF47F094FEA0A2B92E006
:103FE00000F0C4F9811B4FF4FA6091FBF0F200FB82
:103FF0001211401091FBF0F06FF07C0200FB02F216
:1040000001EBC201B1F5FA7F7DDCC1EB01224FF477
:10401000FA7192FBF1F1C0EB0020169A342348406C
:1040200000EB002101EB00446FF07F40051B2B21CA
:104030003C20CDE9007403F0C9F8169A3E233521DF
:104040003C20CDE9007503F0C1F8169A48233F21C2
:104050003C20CDE9008403F0B9F8169A5223492197
:104060003C20CDE9008503F0B1F8169A5C2353217A
:104070003C20CDE9009403F0A9F8169A66235D214F
:104080003C20CDE9009503F0A1F844487023CDE928
:104090000004169A67213C2003F098F8169A7A23B8
:1040A00071213C20CDE900A503F090F8169A8423F5
:1040B0007B213C20CDE900A403F088F8169A8E23DA
:1040C00085213C20CDE900B503F080F8169A9823AD
:1040D0008F213C20CDE900B403F078F828464FF05A
:1040E000FF15169AA2239921CDE900503C2003F038
:1040F0006DF8169AAC23A3213C20CDE9005403F0BF
:1041000065F803F075FA00F031F9811B41F2707027
:104110008142A4BF17B0BDE8F08FFFF7D3FE00289F
:104120003FF45EAF17B0BDE8F08F0000FC560C08FE
:10413000436F6C6F72206261720000001496090870
:10414000436F6C6F7220626172730000F01F0C0885
:1041500052656400477265656E000000426C7565CB
:1041600000000000477265790000000059656C6C22
:104170006F7700004379616E000000004D61676554
:104180006E74610090FD0B082062707000000000EA
:104190002C20000020636F6C6F72730080808000A1
:1041A000034901600F214160052101817047000032
:1041B0002001022070B524A12CA000F037FD0120C1
:1041C00000F0C6F802F0FCF909F072FE0446022085
:1041D00004F0F8FE274804F06BFE61100C2226A0C4
:1041E00002F004FE00EE104AB0EE041B44252748FE
:1041F000B8EEC00B05212A4680EE012BBDEEC20BA6
:1042000010EE104A24F028FE8F2621480521324660
:1042100024F022FE1F482A46214624F01DFE1E4897
:104220003246214624F018FE4FF47A6001F03AF944
:1042300002F0AEFA0021084602F066FABDE87040CE
:10424000164802F0F1B900005354656D57696E20AD
:10425000737570706F7274730A736F6674776172BE
:104260006520637572736F7200000000437572738E
:104270006F72000014960908417661696C61626C86
:104280006520637572736F72730000003C50030801
:10429000745003085850030890500308A4E70B0813
:1042A0002DE9F047294C4FF404710546A06814F03D
:1042B00089FC642D814606DDA0684FF4047114F07A
:1042C00081FC15F0F7FC002148460CF0B0FA002103
:1042D0002A4648460CF078FA03F043FB07464FF0B5
:1042E0000008606A002818BF206A03D103F039FB78
:1042F000E169401AC61B642D03DD314648460CF0C7
:1043000096FA052002F042FC606A012805D10A20D5
:1043100002F03CFC636A012BF9D0A06A012806BFB9
:104320000120C4F828800020AE4201D20028D8D055
:10433000642D06DDA0684FF4047114F043FC14F002
:10434000A1FFBDE8F04703F053B900009000022040
:1043500001490969084700009000022002490989C3
:10436000084018BF0120704780BD042010B5054CDF
:10437000606A00281CBF206A10BD03F0F2FAE169F0
:10438000401A10BD9000022006A113A010B500F045
:104390004DFC00F045FC1FF0FDFFBDE8104000F0B3
:1043A0000FBB00004F7074696D697A656420647298
:1043B0006177696E6720726F7574696E650A666FE2
:1043C000722064726177696E67206772617068201D
:1043D000646174610000000044726177696E672057
:1043E0006120677261706800054810B5C06814F0FC
:1043F00049FF14F0D1FBBDE8104015F073BC00007C
:10440000900002202DE9F04F8FB066A170A000F05F
:104410000DFCFFF7E9FF14F0BFFB14F01FFB14F0D5
:10442000BBFB6F4915F087FA074614F0B5FB6DA189
:104430000025029502244FF4B072CDE90321CDE9A5
:1044400000041E2329464FF4A07228460DF0D3F82D
:104450006A4981460DF05EF90E2148460DF09BF940
:10446000674948460DF0ACF914F096FB65A140F29F
:10447000611202956423CDE90321CDE900048C2269
:104480002821A0200DF0B7F85F4A06A980465F48B2
:1044900004F092FA06A940460DF03CF96FF07F4116
:1044A00040460DF08DF9012140460DF0A0F90E2196
:1044B00040460DF070F909F007FD054614F06CFB5D
:1044C0003C2137224FF41473CDE904210321CDE9B7
:1044D00002438822CDE900011E210A20A5F128030C
:1044E00008F070FC4A4D0024824604EB440005EBC2
:1044F00080014A6855F82010504608F095FB641C6E
:10450000092CF2D3434A0121504608F0D1FC42491C
:10451000504608F0E9FC504615F0AAFA012600249E
:10452000FFF724FF42F2283100EB010BFFF71EFFDB
:1045300000F57A75322002F029FB14F02DFB4FF4C0
:10454000806115F0D8F9FFF711FFA8420EDB002CAF
:1045500005F57A7508BF012603D0082C08BF4FF077
:10456000FF3634445046214608F0D5FCFFF7FEFEE6
:10457000584503DAFFF7A6FC0028DBD0484614F0C4
:10458000E3F9404614F0E0F9504614F0DDF914F078
:1045900003FB394615F0CFF900F012FA0FB0BDE871
:1045A000F08F000044656D6F6E7374726174657393
:1045B0002074686520757365206F660A74686520CD
:1045C00049434F4E564945572077696467657400E3
:1045D00049636F6E20566965772044656D6F0000F2
:1045E000E1AD02085354656D57696E2049434F4E43
:1045F000564945572073616D706C65001496090823
:104600004040FF000000000098E90B08D8070608AA
:104610004CEA06080000FFC050150C08F0B53A48F7
:1046200089B090E87F108DE87F1009F041FC0646C4
:1046300009F04AFC771004460020FFF789FE0220AB
:1046400004F0C0FC6FF07F4004F003FC2F4804F03E
:104650002FFC44F3191239462DA002F0C7FB2E4857
:1046600004F026FC04EB4400394600EBC400821140
:104670002AA002F0BBFB374804F0EBFB16203946BA
:1046800004FB00F534A0AA1102F0B0FB3E4804F090
:104690000FFC1220394600EBA5123CA002F0A6FB4D
:1046A0006FF07F4004F0D5FB1B4804F001FC03F0E1
:1046B0005BF901466846FBF7CEFFC4EB4410394670
:1046C0008211684602F092FB262004FB00F0821162
:1046D00036480088301A4110354802F05BFC6FF014
:1046E0007F4004F0B6FB094804F0E2FBC4EBC400D1
:1046F000394640F3D9022FA002F078FB41F288300E
:10470000FFF7CEFD09B0F0BDB81A080814960908E5
:104710005354656D57696E00F01F0C08556E69762D
:10472000657273616C206772617068696320736F72
:104730006674776172650A666F7220656D62656482
:10474000646564206170706C69636174696F6E7315
:1047500000000000FF882200466F722053544D3342
:1047600032204D43552050726F6475637473202D51
:1047700020436F72746578204D33202D20436F7273
:10478000746578204D34000078040C08436F6D7018
:10479000696C6564204A756E2032342032303139BC
:1047A0002031393A35373A323300000004C4090861
:1047B000385D0A087777772E73742E636F6D2F73C9
:1047C000746D33320000000006A111A010B500F096
:1047D0002DFA0120FFF7BCFD00F022FABDE81040E1
:1047E00017F08ABD53686F777320736F6D6520660D
:1047F00065617475726573206F660A746865204C14
:104800004953545645572077696467657400000022
:104810004C697374766965772064656D6F0000007C
:1048200055498EB0554803F037FD14F0B5F9544999
:1048300015F081F8FCF734FC002102A8FDF7D4FB49
:104840000026079602A83146FDF716FC012102A8B2
:10485000FDF7CAFB0121079602A8FDF70DFC4948A8
:10486000FDF7EEFB48480BF08DFF4848FCF7F8FBDE
:1048700047480CF02FFB47480CF082FD464808F0F3
:1048800037F9022004F09EFB4448FFF789FC09F049
:104890005FFA424D1028424C0CDB287A10F0040FCE
:1048A00008D001F0EFFBB0F5001FD4BF3D483E48F3
:1048B000206101E03D4820610120207014F06CF976
:1048C00014F0E8FF01F0A8FF01F062FF09F0F0FA30
:1048D000074609F0F9FA804614F05EF9A8F13D01A7
:1048E0000346A7F15000324ACDE9000131480521C5
:1048F00001F0EAFFA06014F04FF979102E4A491E2A
:104900000346CDE900162D48022101F0DDFFE060ED
:1049100014F0B8FCA06814F079FD14F03DF914F01F
:104920008BF802F065FE14F037F914F097F8FFF7F2
:1049300075FE66612868006898B16662E661266265
:1049400000F024FC2868616950F821008047A661C6
:10495000E6626069401C6061296851F82000002807
:10496000EBD16661A06813F0EFFFE06813F0ECFF95
:1049700001F026FEA2E70000BC00022089AA02087E
:10498000BDA40208F321020801070108290E00084E
:10499000150D0108F1110108E9C9000880BD0420C6
:1049A0009000022075F80108BDF80108F1F901082E
:1049B00011AB020808FC020849AC020894FC02088A
:1049C00004488169491C816100214162C161016221
:1049D00000F0DCBB900002202DE9F04186B0FFF72B
:1049E00003FD7C497CA000F021F9012014F096FD24
:1049F0007C480921049041607B49C162A0F16C01AF
:104A000001630021016009F053FAC11700EB117036
:104A10000011C0EB001509F057FAC11700EB9170B7
:104A2000801000EB400414F0B7F804274FF003089F
:104A30006E4923462A46CDE90217CDE90008142124
:104A40000A2013F091FE06466948CDE9020704EBFF
:104A5000D4702A46CDE9006843104110002013F0BD
:104A600083FE0422074604A9304615F011F90422FA
:104A7000384604A915F00CF9FFF724FA00287DD177
:104A8000C823384600211A4614F05CFD02F069FF85
:104A900000F5FA640A2002F079F802F062FFA04201
:104AA000F8DBFFF70FFA002869D14FF44873384656
:104AB00000211A4614F046FD02F053FF00F5FA6497
:104AC0000A2002F063F802F04CFFA042F8DBFFF787
:104AD000F9F9002872D14FF4FA63384600211A46DA
:104AE00014F030FD02F03DFF00F5FA640A2002F0F8
:104AF0004DF802F036FFA042F8DBFFF7E3F900289B
:104B00005CD1C82338465A42002114F01BFD02F044
:104B100028FF00F5FA640A2002F038F802F021FFBD
:104B2000A042F8DBFFF7CEF9002847D14FF44873D5
:104B300038465A42002114F005FD02F012FF00F53C
:104B4000FA640A2002F022F802F00BFFA042F8DB20
:104B5000FFF7B8F998B94FF4FA6338465A42002182
:104B600014F0F0FC02F0FDFE00F5FA640A2002F0F9
:104B70000DF802F0F6FEA042F8DB01E024E01DE0B3
:104B8000FFF7A0F9002808BF002517D16423384695
:104B900000214FF4FA7214F01BFD02F0E2FE00F562
:104BA000FA740A2001F0F2FF02F0DBFEA042F8DB0B
:104BB000FFF788F910B96D1C052DE7DB384613F0B7
:104BC000C3FE304613F0C0FE06B00020BDE8F04141
:104BD00014F0A4BC64610C0852616469616C204DDE
:104BE000656E75000CBE04208865090865A802087A
:104BF000C1AC020870B5094C0546E06814F06FFCC2
:104C0000002808BF70BD4FF4B071E06813F0DAFF00
:104C10002946BDE870400CF094BD000090000220D1
:104C20000148C06815F046B8900002202DE9F04117
:104C30000C46074609F03CF9054609F045F94FEAEC
:104C40006508224D4610E86814F01CFB13F0A4FF21
:104C500015F048F8A86815F02DF802F0C9FC02F02C
:104C6000C7FC2969012088476FF07F4004F0F1F804
:104C7000022004F0A7F9164804F01AF93C22414634
:104C8000384602F0B3F8134804F012F902F01AFEA5
:104C9000301A414600F10A02204602F0A7F82078B7
:104CA000002218B1521CA35C002BFBD102EB820046
:104CB0000001FFF7F5FAA869401CA86100206862AE
:104CC000E8612862BDE8F04100F060BA900002207F
:104CD00014960908F01F0C082DE9F04F99B04FF019
:104CE0000008CDF80080CDF80480CDF80880CDF81C
:104CF0000C80CDF81080CDF81480CDF81880CDF858
:104D00001C80CDF82080CDF8248009F0D1F806462B
:104D100009F0DAF8054609F0BFF8074601F050FC43
:104D2000AF420ADDADF8488012A8ADF84C60ADF88E
:104D30004A80ADF84E5004F080F872A17DA0FFF7D4
:104D400075FFDFF8FCA100270DF128095AF82700AC
:104D500001F0AEFD49F827007F1C082FF6DBFFF7B6
:104D600005FB189006EBD670179005EBD5701690E2
:104D7000701E00B215900027681E00B214904CE01F
:104D800007F007010AA850F8210004F06DF8FBF7BE
:104D9000B3FA90FBF6F106FB11011798A1EB600046
:104DA0000FFA80F8FBF7A8FA90FBF5F105FB11016B
:104DB0001698A1EB60000FFA80FAFBF79DFA90FBC2
:104DC000F6F106FB1100143040440FFA80F969F344
:104DD0000F04FBF791FA90FBF5F14A4605FB110031
:104DE0005146143050440FFA80FB40465B466BF34B
:104DF0001F4402F01FFCB145A4BF159860F30F04D7
:104E0000AB45A4BF149860F31F44201444BF002096
:104E100060F31F4402F0ECFB7F1CFFF7A7FA189920
:104E2000411A41F28830814203DAFFF74BF800283B
:104E3000A6D0FFF7C5FD09F03BF8074609F044F896
:104E400000244FF0410AA7F10109A346A0F13D0853
:104E500002F021FD149002F0E7FC03F0FAFFFFF7E7
:104E600085FA074643464A465146584602F0E2FB59
:104E7000641CFFF77BFAC11B64390029F2DDA9EB42
:104E80000B01A8EB0A02491C521CC01B01FB02F1DA
:104E900001FB04F1B1FBF0F04FF47A7100FB01F477
:104EA000149803F0D6FF002003F0C7FF0020FFF79F
:104EB0004FFA6FF07F4003F0CCFF022004F082F83D
:104EC000204803F0F5FF05221F48114602F062F862
:104ED0001EA16846FEF758FD21466846FEF71AFDFA
:104EE00002F0FEFC281A71104210684601F07EFFA5
:104EF0004FF47A60FFF7D4F901F04AFC19B0BDE82D
:104F0000F08F00004D756C7469206C6179657220BA
:104F1000636C697070696E670A486967686C7920AC
:104F20006F7074696D697A65642064726976657200
:104F3000730000004869676820737065656400004D
:104F4000A8830A081496090894830A0850697865AA
:104F50006C732F7365633A20000000002DE9F04F59
:104F600083B063A16DA0FFF761FEFFF73DFA08F083
:104F70009FFF04466E48FDF75DF80220FDF774F8C8
:104F800000204FF0FF11FDF74BF801204FF0FF110B
:104F9000FDF746F80CF0ACFB029065480CF0AEFB58
:104FA0004FF47F000CF0B0FB13F0F6FD614914F0F4
:104FB000C2FC814613F0F0FD40F2014114F09BFC6D
:104FC000A4F1DC00372100EBD070002340101A461A
:104FD000CDE900015848052101F076FC009014F05D
:104FE000CDFD5649009814F0A6FC009813F0C9FDB9
:104FF000044614F0C3FD5249204614F09CFC51496C
:1050000088611D21204614F076FC009813F0B9FD4C
:105010004FF4987113F0D6FD0190009813F0B1FD94
:1050200040F2311113F0CEFD8246FFF79FF941F2B5
:105030008837044600F1280540F6C4187E00012098
:1050400001F0A4FDFFF792F9A842A0EB040B25DBC9
:1050500000F1280513F0A0FD4FF4806114F04BFC23
:105060009BFBF7F007FB10B0404505DAC0EB0020D2
:10507000800090FBF6FB08E0A0F6C410C0EB002017
:10508000800090FBF6F0C0F1FF0B019859460CF040
:10509000A6F9CBF1FF0150460CF0A1F9FFF766F934
:1050A000001BB04203DAFEF70DFF0028C7D00098BE
:1050B00013F04AFC2448FCF7BDFF0020FCF7D4FFA6
:1050C00022490020FCF7ACFF01204FF47F01FCF7E0
:1050D000A7FF02980CF012FB00200CF015FB13F058
:1050E0005BFD03B04946BDE8F04F14F024BC00005E
:1050F0005573657320616C70686120626C656E64C5
:10510000696E670A666F72207472616E7370617285
:10511000656E637920656666656374005472616EBE
:1051200073706172656E74206469616C6F670000F2
:10513000EC2D0C08D1AE020880DE0A08E9AA0208AC
:1051400009A50208BC06022070F70B084040400089
:1051500009490AA010B5FFF769FDFFF761FD0020BE
:10516000FFF7F6F801F02CFA17F028FA01F010FB1F
:10517000BDE81040FFF724BC6C620C0854726565F2
:10518000766965772064656D6F00000070B586B044
:105190003D4E00244FF4B0710094019402940394A6
:1051A0000494B06813F00EFD9DF800C0002137A3F1
:1051B0000546BCF1000F68460A4605D0491C10F8A8
:1051C00001C0BCF1000FF9D113F802C0BCF1000F0F
:1051D00008D0521C00F801C0491C13F802C0BCF1F1
:1051E000000FF6D144547069411C6846FEF792FBEB
:1051F0009DF800C0002127A06B46BCF1000F0A46B5
:1052000005D0491C13F801C0BCF1000FF9D110F80A
:1052100002C0BCF1000F08D0521C03F801C0491CA9
:1052200010F802C0BCF1000FF6D15C54B169184609
:10523000FEF770FB9DF800C0002117A06B46BCF183
:10524000000F0A4605D0491C13F801C0BCF1000F3D
:10525000F9D110F802C0BCF1000F08D0521C03F8BD
:1052600001C0491C10F802C0BCF1000FF6D10B4878
:105270005C544068411E1846FEF74CFB69462846C0
:105280000CF05FFA06B070BD9000022044656D6FAF
:10529000200000002E0000002F00000080BD042030
:1052A0002DE9F04F87B008F00FFE044608F0F4FD3A
:1052B000B0EB440FBCBF07B0BDE8F08F5CA166A0A7
:1052C000FFF7B4FC0120FFF743F86748D0E900106E
:1052D000CDE9041008F0ECFD054608F0F5FD0746A1
:1052E000624803F0E5FD022003F06CFE681EADF895
:1052F0000C000024ADF80840781EADF80A40ADF867
:105300000E006FF07F4003F0A4FD0E2202A958A00A
:1053100001F086FDFA2001F039FCBDF80A0038449E
:1053200001B2BDF80E00ADF80A10384403B2ADF872
:105330000E306FF07F40BDF90C20CDE90004BDF9BF
:10534000080001F07FFF4E4880FB0710BDF80E10EB
:10535000A0EBE070081AADF80E004FF4004003F027
:1053600078FD0E2202A947A001F05AFD4C480DF12C
:10537000100A80FB07104110A1EBE0795AF824B025
:1053800000264FF005084D4646440020314603F004
:10539000DBFD584601F0FAFBFEF794FD002840D1F2
:1053A0006D1EF1D1394603F0CFFDFA2001F0EEFB7E
:1053B0005AF824B06FF004083D464E46454400209C
:1053C000294603F0C1FD584601F0E0FBFEF77AFDE7
:1053D00038BB761EF2D10021084603F0B5FDFA2055
:1053E00001F0D4FBFEF76EFDD8B9641C022CC5D3C6
:1053F00000243946002003F0A7FDC82001F0C6FBB9
:105400000021084603F0A0FDC82001F0BFFBFEF715
:1054100059FD30B9641C052CEBDB4FF47A70FEF7B4
:105420003FFF07B000210846BDE8F04F03F08CBDF8
:1054300044656D6F6E7374726174657320686F7705
:1054400020746F207573650A7669727475616C20BB
:1054500073637265656E73005653637265656E2083
:1054600064656D6F00000000D4E50B08EC420C0889
:1054700044656661756C742073637265656E0000C7
:1054800056555555486572652069732074686520C6
:105490007669727475616C2073637265656E000065
:1054A0006766666610B5FEF7FBFE06488169491C13
:1054B000816100214162C1610162BDE81040FFF7D6
:1054C00065BE0000900002202DE9F04FDFF828B102
:1054D00091B04FF0FF35DBF80030B3F922100691A0
:1054E000DE69B3F92490F469A189814206D8E28982
:1054F000824203D3471AD4F8008012E0D4E9018134
:1055000000296FD00A8882426CD84D88854269D3C1
:10551000801A82B2486800EB8200B0F90070B0F9DE
:105520000250781C5ED0307EA17C10FB01FA217CF9
:10553000CDE90701B3F92A60304609F0D7FAC0B2C5
:105540000E90DBF8000007FB0A81A37C826B012729
:10555000CDE90412CDE90273C069089AC17E807E4C
:10556000CDE90001DDE90603494607F0BDFF681CEF
:1055700018D046F0020009F0B9FADBF80000A37C6D
:1055800005FB0A81826BCDE90273CDE90412C06983
:10559000089AC17E807ECDE90001DDE90603494617
:1055A00007F0A2FFDBF800005D46C069417E007E87
:1055B000814214D9022E12D086F0040009F096FA26
:1055C0002868C069027EC37E12FB0391437E857EFC
:1055D000089A06984B4412FB050208F08DFB0E98C2
:1055E00009F084FADBF80000627C418C11444184AC
:1055F00011B0BDE8F08F0000C00702200448006829
:10560000C069C06909B1027C0A60407C7047000033
:10561000C0070220022008807047C06982898A4240
:1056200002D8C2898A4210D2806880B102888A4238
:105630000DD843888B420AD3406800EB8100A0EB71
:105640008200B0F90000002801DB01207047002033
:1056500070470000F0B52C4D044687B028682146FD
:10566000B0F92A60C069C06900F03CFA002848D04F
:1056700041680088201A00EB400001EB800420788C
:10568000C01C8708304609F031FA06461F48D0F89A
:1056900000C0BCF1000F1AD00021A068CDE90401C0
:1056A0000222012001A9009081E88500286894F970
:1056B0000320DCF80070B0F92410B0F92200114486
:1056C00094F90220637810442278B84711E0A0686A
:1056D000CDE90070286894F903206378B0F92410AC
:1056E000B0F92200114494F902201044227800F00D
:1056F00095FB304609F0FAF928682279418C11446B
:10570000418407B0F0BD0000C0070220FC07022062
:10571000F0B5254C054687B020682946B0F92A60C7
:10572000C069C06900F017FA00283AD041680088C3
:10573000281A01EBC0053046AF7809F0D7F90646C4
:105740001A48D0F800C0BCF1000F15D000216868DD
:10575000CDE904010422012001A9009081E885001F
:105760002068DCF800702A78C1690B7EB0F924103B
:10577000B0F92200B8470CE06868CDE900702068F5
:105780002A78C1690B7EB0F92410B0F9220000F02C
:1057900057FB304609F0AAF920686A78418C114419
:1057A000418407B0F0BD0000C0070220FC070220C2
:1057B000F0B52C4D044687B028682146B0F92A6020
:1057C000C069C06900F08EF9002848D0416800889F
:1057D000201A00EB400001EB80042078401C4708B1
:1057E000304609F083F906461F48D0F800C0BCF1E6
:1057F000000F1AD00021A068CDE904010422012085
:1058000001A9009081E88500286894F90320DCF85C
:105810000070B0F92410B0F92200114494F902206C
:10582000637810442278B84711E0A068CDE9007091
:10583000286894F903206378B0F92410B0F92200A5
:10584000114494F902201044227800F0F9FA30460D
:1058500009F04CF928682279418C1144418407B041
:10586000F0BD0000C0070220FC07022070B505460D
:105870000B480C4629460068C069C06900F06BF906
:1058800000280BD0416800882A1A012000EBC200D2
:10589000002C085C02D011F83210216070BD0000AD
:1058A000C007022011200880704710B5C06900F0C1
:1058B00052F9002800D0012010BD00002DE9F0436E
:1058C000304C034687B020681946B0F92A60C06999
:1058D000C06900F040F9002850D041680088181ACB
:1058E00001EBC0053046AF7809F000F98146206829
:1058F0006A680123816BCDE90237CDE90421C169D2
:10590000CB7E8A7ECDE900230B7EB0F924102A7865
:10591000B0F9220007F0E8FD2068C069417E027EF0
:1059200091421FD9C07E11FB00F812FB00F7022E36
:1059300018D001F0B0FF064601F076FF03F089FAB7
:1059400021682A78CB69B1F92200DB7E12FB0302C1
:10595000B1F9241001EB0803394408F0CDF93046C1
:1059600003F077FA484609F0C1F820686A78C369FD
:10597000B0F922109B7E12FB0311418407B0BDE8F1
:10598000F0830000C007022030B5104C05460B46DE
:1059900020682946C069C06900F0A4F8002814D026
:1059A000416800882468281A00EB40020420E4695A
:1059B00000EB8200085CA47E10FB04F0002B04D0F6
:1059C00011F8221011FB04F1196030BDC00702204C
:1059D00003460C4810B500680C461946C069C069FA
:1059E00000F080F858B141680088181A00EB4000B8
:1059F00001EB800007C884E80700002010BD0120EB
:105A000010BD0000C007022001200880704700B5CB
:105A1000C06900F067F8002800D0012000BD000038
:105A20002DE9F3411C4E0F46002530682C46C06915
:105A3000417EC07E11FB00F81DE0684603F082FD48
:105A4000054630682946C069C06900F04BF890B13E
:105A500041680088281A00EB400001EB800090F9B3
:105A60000210007908443168C969897E10FB01F091
:105A7000002800DD04447F1EDFD51DB1284604F058
:105A800005FD04444146204615F022FE034901204D
:105A90000870BDE8FC810000C00702204808022011
:105AA0002DE9F3410D4D0E4F0E462868B0F92A40FE
:105AB000A0070AD17A680098904706E0684603F08C
:105AC00041FD2968C96909688847761EF6D5002016
:105AD000387028684485BDE8FC810000C0070220BA
