:020000040800F2
:10000000F80B0220A9020008E97E00086726000814
:100010007D7E0008090700087D8C000800000000B4
:10002000000000000000000000000000CD7F00087C
:100030009507000800000000EB7E0008D58000084E
:10004000C3020008C3020008C3020008C30200087C
:10005000C3020008C302000897070008C302000893
:10006000A5070008AB070008C3020008C302000888
:10007000C3020008C3020008C3020008C30200084C
:10008000C3020008C3020008C3020008C30200083C
:10009000C3020008C3020008C3020008C30200082C
:1000A000C30200087D810008C3020008C3020008E3
:1000B000C3020008C3020008C3020008C30200080C
:1000C000C3020008C3020008C3020008C3020008FC
:1000D000C3020008C58B0008218C0008C302000879
:1000E0009D070008C3020008C3020008C3020008FD
:1000F000C3020008C3020008C3020008C3020008CC
:10010000C3020008C3020008C3020008C3020008BB
:10011000C3020008C3020008C3020008C3020008AB
:10012000C3020008C3020008C3020008C30200089B
:10013000C3020008C3020008C3020008C30200088B
:10014000C3020008C3020008C3020008C30200087B
:10015000C3020008C3020008C3020008C30200086B
:10016000C3020008C3020008C3020008C30200085B
:10017000C3020008C3020008C30200080000000018
:10018000C3020008C3020008C3020008C30200083B
:10019000C3020008C3020008C3020008C30200082B
:1001A000C3020008C3020008C3020008C30200081B
:1001B000C3020008C3020008C3020008C30200080B
:1001C000C3020008C302000800000000C3020008C8
:1001D000C3020008C3020008C3020008C3020008EB
:1001E000C3020008C3020008C3020008C3020008DB
:1001F000C3020008C302000800F002F800F044F84F
:100200000AA090E8000C82448344AAF10107DA4571
:1002100001D100F039F8AFF2090EBAE80F0013F07F
:10022000010F18BFFB1A43F0010318476CD60000FA
:100230008CD60000103A24BF78C878C1FAD852078B
:1002400024BF30C830C144BF04680C607047000050
:100250000023002400250026103A28BF78C1FBD8CF
:10026000520728BF30C148BF0B607047642900F0B7
:100270008580782900F0BE80002070471FB508F007
:100280003DFF1FBD10B510BD00F00EFA1146FFF77F
:10029000F5FF08F0BBFD00F02CFA03B4FFF7F2FF06
:1002A00003BC08F0F3FC00000948804709480047F8
:1002B000FEE7FEE7FEE7FEE7FEE7FEE7FEE7FEE716
:1002C000FEE7FEE704480549054A064B7047000073
:1002D000D9800008F9010008F8050220F80B022077
:1002E000F8070220F8070220704700000FB4044905
:1002F00010B503AA029800F0C1F910BC5DF814FB18
:10030000100002200FB41CB5074B06AA7B446946B7
:100310000090059800F099F90020694600F0A8F9CE
:100320001CBC5DF814FB00006103000070B50446BE
:1003300085690068C10601D5302600E02026C00787
:1003400007D070BDD4E9012130469047206A401C97
:1003500020626D1EF6D570BD70B5044685690078C3
:10036000C00707D170BDD4E9012120209047206A41
:10037000401C20626D1EF6D570BD00002DE9F041D5
:100380000646002410687529314616A510D0AFF333
:100390000080002802DA404213A507E031688A078E
:1003A00001D512A502E0490704D511A5012401E0F9
:1003B000AFF3008000210A2206F1240709E0B0FB18
:1003C000F2FCB0FBF2F302FB1C003030785418460C
:1003D000491C0028F3D123462A463046BDE8F041A7
:1003E00000F0D4B8000000002D0000002B00000039
:1003F0002000000070B504460D4621461068AFF39A
:1004000000802188090502D50F4A7A4402E00E4A8D
:100410007A440E32002104F1240305E000F00F06B7
:100420000009965D5E54491C0028F7D1207800230E
:10043000000704D5702D02D009B1022311322046E5
:10044000BDE8704000F0A2B850D400002DE9F05F84
:10045000894604464FF0000ADFF824B1FB44C0F897
:1004600020A02046E168884700287DD0252806D0B6
:10047000D4E901219047206A401C2062F1E7002561
:100480005F462046E16888472028064607DB312E74
:1004900005D2B81910F8200C08B10543F1E7A807F8
:1004A00001D525F00405C4F81CA00027C4F818A045
:1004B0002A2E09D0304608F0E2FB38B304EB870857
:1004C000303EC8F8186019E059F8041B204604EBC8
:1004D00087029161E1688847012F064618D1E069DB
:1004E000002820DA25F020051DE0D8F8180000EBE0
:1004F000800006EB40003038C8F818002046E1685C
:100500008847064608F0BBFB0028EED1012F0AD031
:100510002E2E08D12046E16888477F1C0646022F10
:1005200045F02005C4DBA069002803DA404245F00D
:100530000105A061E80701D025F01005A6B1A6F1DC
:100540004100192802D8203645F400654A46314654
:10055000204625604D46FFF789FE60B1012807D08F
:10056000ED1D25F0070000E007E000F1080978E73D
:1005700005F1040975E730467AE7206ABDE8F09F87
:1005800026D4000070477047704770472DE9F04748
:100590000D4699469246044600F1240801688806F3
:1005A00004D5E06921F01001216000E00120A8429B
:1005B00001DD471B00E00027A1697A1902EB090061
:1005C000081AA0612078C00602D42046FFF7AEFECC
:1005D000002608E0D4E901211AF806009047206AB5
:1005E000401C761C20624E45F4DB2078C0060AD5FC
:1005F0002046FFF79BFE06E0D4E90121302090471A
:10060000206A401C2062381EA7F10107F4DC07E0D5
:10061000D4E9012118F805009047206A401C2062A7
:10062000281EA5F10105F3DC2046FFF795FE207892
:10063000000602D50220BDE8F0870120FBE700009C
:1006400001694A1C02610878704700B58FB0CDE996
:1006500001310021059105497944CDE90310114686
:100660006846FFF7F3FE0FB000BD0000E5FFFFFF97
:100670000A6802F8010B0A6070470000074B70B56A
:100680000D467B44FFF7E1FF0446284600F008F8DA
:1006900010B14FF0FF3070BD204670BD9F86000046
:1006A000007B00F080007047754600F029F8AE46E8
:1006B00005006946534620F00700854618B020B56E
:1006C000FFF700FEBDE820404FF000064FF00007A6
:1006D0004FF000084FF0000B21F00701AC46ACE8EA
:1006E000C009ACE8C009ACE8C009ACE8C0098D4657
:1006F00070470446AFF300802046FFF7CEFD0000B0
:100700000048704798050220FEE7000070B4BFF370
:100710004F8FBFF36F8F1A4900200860194D296869
:1007200041F400312960BFF34F8FBFF36F8F16493B
:100730000860BFF34F8F081F006843F6FF76134A27
:10074000C0F34E3CC0F3C90406EA4C11204641EA0E
:1007500080731360401EFAD2BCF1010CF4D2BFF3D7
:100760004F8F286840F480302860BFF34F8FBFF36D
:100770006F8F0748016841F00401016070BC704749
:1007800050EF00E014ED00E084ED00E060EF00E0E9
:100790009CEF00E07047012000F06CBA4FF400506D
:1007A00000F068BA042000F065BA082000F062BAD0
:1007B0002A4810B586B0016841F001010160016866
:1007C00001F001010591016841F004010160016837
:1007D00001F004010591016841F0800101600068A9
:1007E0000124694600F0800005901D48CDE90040D5
:1007F000022002901B4800F049FA600300901A485A
:100800006946CDE90104194800F040FA0C20009037
:100810001748694600F03AFA00220221062000F04B
:10082000C7FB062000F0B7FB01220221082000F0E0
:10083000BFFB082000F0AFFB02220920114600F0A8
:10084000B7FB092000F0A7FB03220221282000F0BB
:10085000AFFB282000F09FFB06B010BD30380240EF
:1008600000001110000002400000211000080240AA
:10087000001C0240B3F5804F30B418BF6FF07041D8
:1008800004D040F8221030BC0020704750F82230CD
:10089000DFF824C08D8903EA0C03D1E900C44CEAD7
:1008A000041C8C688969240244EA05444CEA040C5F
:1008B0004CEA01011943E4E70000F0CF70B4D1F82D
:1008C00000C050F82C201B4BD1E903561A40D1E947
:1008D000014335431C432C434D692C438D692C4304
:1008E000CD692C430D6A2C434D6A2C438D6A2C43F1
:1008F000CD6A2C430D6B2C438D6B2C434D6B2C43DD
:100900002243082B08BF42F0400240F82C200A6B1B
:10091000B2F5801F05D10A684AB1026842F480121C
:1009200002600A681AB10268496B1143016070BC29
:10093000002070478004C0FF00EB820270B453684F
:100940004FF07E46D1E900C48D8903F040434CEA64
:10095000041C8C68240244EA05440D8A4CEA040411
:10096000DFF834C00CEB05552C430D7D06EB056517
:100970002C438D692C4323435360026812F4801F7B
:1009800007D04268098A22F470020CEB015111432E
:10099000416070BC002070470000F0FF4DF8044D2E
:1009A000D1E901320C681343D1E903C24CEA0202D7
:1009B0001A434B6913438A69012C046843EA020C09
:1009C000CB690A6A496A08D04CEA03031A43114307
:1009D0006FF30E04214301600BE024F4F8441A4342
:1009E00021430A43416802606FF30E014CEA0101A2
:1009F00041605DF8044B00207047426942EA4101C2
:100A0000416100207047F8B514460546D1E900025F
:100A10006FF01F0310438A68C96803EB421242EA71
:100A2000412108430090286100F056FA0646A86963
:100A300010F0200F0ED0B4F1FF3F07D024B100F02A
:100A40004BFA801BA04201D90320F8BDA86910F021
:100A5000200FF0D10020F8BD2DE9F001D1F804C03D
:100A60006FF00F050B682C015B1E05EB0C1C43EAB5
:100A70000C03D1F808C04FEA0428270304EB0C2C20
:100A800043EA0C050B8A2604CC68012A826808EB2D
:100A9000034C8B8A097E07EB035306EB01610DD0F3
:100AA000361306EB04342C4344EA0C0C4CEA0303E3
:100AB000194302F070421143816012E0240322F4D2
:100AC0007042A4F58054234322F470021A43C36891
:100AD00045EA0C0C826003F070434CEA01011943B3
:100AE000C160BDE8F0010020704790F83510022980
:100AF00003D08021416501207047052180F8351021
:100B00000068016821F001010160002070470000C9
:100B10002DE9F041002604463220B04608F0C2F824
:100B2000454D0027012C21D04448042C444E3CD094
:100B3000082C56D0B4F5005F18BFBDE8F0814FF423
:100B40000051404800F0BAF9002818BFBDE8F08114
:100B50002878002814BF002001202870002861D0C8
:100B600001223046022100F0B2F960E0364801214E
:100B700000F0A4F9012818BFBDE8F081A8780A2880
:100B80003ABF401CA870AF70A87800EB800006EB5D
:100B90004004204607F062FD204607F071FD214623
:100BA000BDE8F04129A0FFF7A1BB042100F086F9C0
:100BB000002818BFBDE8F0816878002814BF002025
:100BC0000120687030B13046BDE8F0410122114685
:100BD00000F07DB93046BDE8F0410022012100F06F
:100BE00076B9082100F06AF9002818BFBDE8F08145
:100BF000E8780A283ABF401CE870EF70E87800EB0C
:100C0000800008EB4004204607F04CFD204607F02A
:100C10005BFD204607F06AFD2146BDE8F04110A0CB
:100C2000FFF764BB00223046022100F050F9BDE816
:100C3000F041142007F0CCB918000220001C02403B
:100C400000040240000802400000024076616C206F
:100C50006F66206A6F696E7431323A202564000035
:100C600076616C206F66206A6F696E743334353A32
:100C70002025640004490A68024208BF704710B585
:100C80000860FFF745FF10BD143C01402DE9F84F07
:100C9000DFF81C920022DFF814820F2709F1040A02
:100CA0004FF0010E0B680EFA02F52B40AB4240F0FC
:100CB000F780D1F804C0BCF1020F18BFBCF1120FCD
:100CC00012D14FEAD20C00EB8C0CDCF820605407F8
:100CD000E40E07FA04FB26EA0B06D1F810B00BFA73
:100CE00004F43443CCF8204006684FEA420C91F8F3
:100CF00004B003240BF0030B04FA0CF4A6430BFA24
:100D00000CFB4BEA060606604E68012E18BF022E49
:100D100003D0112E18BF122E11D18668D1F80CB055
:100D2000A6430BFA0CFB4BEA06068660466826EAE9
:100D300005050E79C6F30016964035434560C56833
:100D400025EA04048D6805FA0CFC4CEA040CC0F892
:100D50000CC0D1F804C01CF0805F7CD0D8F800C073
:100D60004CF4804CC8F800C0D8F800C00CF4804C9B
:100D7000CDF800C022F0030C0CF1804505F5983544
:100D8000D5F808C89407240F07FA04F62CEA0606DB
:100D9000A0F1804CBCF5003C48D0A0F1804CBCF5E3
:100DA000013C08BF4FF0010C40D0A0F1804CBCF5D5
:100DB000023C08BF4FF0020C38D0A0F1804CBCF5CB
:100DC000033C08BF4FF0030C30D0A0F1804CBCF5C1
:100DD000043C08BF4FF0040C28D0A0F1804CBCF5B7
:100DE000053C08BF4FF0050C20D0A0F1804CBCF5AD
:100DF000063C08BF4FF0060C18D0A0F1804CBCF5A3
:100E0000073C08BF4FF0070C10D0A0F1804CBCF598
:100E1000083C08BF4FF0080C08D0A0F1804CBCF58E
:100E2000093C0CBF4FF0090C4FF00A0C0CFA04FC03
:100E30004CEA060CC5F808C8D9F800C04C682CEA82
:100E4000030C14F4803F18BF4CEA030CC9F800C02F
:100E5000DAF800C000E023E04C682CEA030C14F43C
:100E6000003F18BF4CEA030CCAF800C0114CD4F87C
:100E700000C04D682CEA030C15F4801F18BF4CEA23
:100E8000030CC4F800C00C4CD4F800C04D682CEA28
:100E9000030C15F4001F18BF4CEA030CC4F800C083
:100EA000521C102AFFF4FEAEBDE8F88F4438024011
:100EB000003C0140083C01400C3C014000690840F6
:100EC00018BF012070474269514041617047002AB4
:100ED00008BF09048161704701480068704700003D
:100EE0000400022002480168491C016070470000AC
:100EF00004000220074810B5016841F40071016048
:100F0000052000F087F80F2000F006F800F042F806
:100F1000002010BD003C024010B5044607484FF4C5
:100F20007A720068B0FBF2F000F014FD0022214656
:100F3000501E00F03DF8002010BD0000000002200F
:100F4000134A41781160111D03780A1D002B04BF5C
:100F5000002008601AD043680B60017BC37A090740
:100F600041EA0361837A41EAC341437B41EA834119
:100F7000837B41EA4341C37B41EA0341437A41EA2F
:100F80000321037A007841EA430108431060704767
:100F900098ED00E07047012200F01F0102FA01F114
:100FA0004009800000F1E020C0F800117047000007
:100FB000174B4DF8044D1B68C3F30223C3F1070C14
:100FC000BCF1040F88BF4FF0040C1C1D072C34BF6C
:100FD0000023DB1E012404FA0CFCACF1010C0CEA2A
:100FE0000101994004FA03F35B1E1A4011430028E3
:100FF0004FEA0111B8BF00F00F0000F1E020B4BFCC
:1010000080F8141D80F800145DF8044B7047000050
:101010000CED00E0074A00F0070011684FF6FF03EF
:10102000194041EA002040F0FD7040F080601060FF
:10103000704700000CED00E01C4838B5016841F035
:101040008051016000681A4C00F0805000902068C8
:1010500040F480302060FFF73FFF0546606810F4E1
:10106000803F09D1FFF738FF401BB0F57A7F14D8D5
:10107000606810F4803FF5D0206840F400302060B4
:10108000FFF72AFF0546606810F4003F0BD1FFF719
:1010900023FF401BB0F57A7F01D9032038BD60687B
:1010A00010F4003FF3D0002038BD0000403802406B
:1010B000007000402DE9F047DFF8688104460D46D6
:1010C000D8F8000000F00F00A8420CD2D8F80000B9
:1010D00020F00F002843C8F80000D8F8000000F006
:1010E0000F00A84270D120784F4F10F0020F05D0AA
:1010F0003868A16820F0F00008433860207810F0CC
:10110000010F4ED060684949012820D009680228A3
:1011100022D011F0020F57D0396821F003010843A3
:101120003860FFF7D9FE0646606841F28839012829
:1011300016D00228386800F00C0021D0F8B1FFF773
:10114000CBFE801B484528D90320BDE8F0870968FD
:1011500011F4003FE0D137E011F0007FDCD133E043
:10116000386800F00C0004281BD0FFF7B5FE801B88
:101170004845E9D8386800F00C000428F5D110E0A3
:1011800008280ED0FFF7A8FE801B4845DCD8386839
:1011900000F00C000828F5D103E0386810F00C0FBF
:1011A000CDD1D8F8000000F00F00A8420FD9D8F830
:1011B000000020F00F002843C8F80000D8F8000015
:1011C00000F00F00A84202D00120BDE8F08720788F
:1011D00010F0040F05D03868E16820F4E0500843AF
:1011E0003860207810F0080F06D03868216920F4A4
:1011F000604040EAC100386000F04EF83968F022E3
:1012000092FAA2F201F0F001B2FA82F2D140084A59
:10121000515CC840074908600F20FFF77DFE0020A1
:10122000BDE8F087003C0240083802400038024028
:101230000691000800000220084809490068096872
:101240004FF4E05292FAA2F201F4E051B2FA82F2C3
:10125000D140044A515CC8407047000000000220A1
:1012600008380240169100080848094900680968D2
:101270004FF4604292FAA2F201F46041B2FA82F2B3
:10128000D140044A515CC840704700000000022071
:1012900008380240169100082148006810F00C013F
:1012A000204808BF7047DFF880C0042904BF6046AB
:1012B0007047082918BF70474DF8044D1B4A116844
:1012C000136801F03F0113F4800F47F6C0730BD091
:1012D000BCFBF1F01168194093FAA3F3B3FA83F35E
:1012E000D94000FB01F00AE0B0FBF1F011681940B1
:1012F00093FAA3F3B3FA83F3D94000FB01F011682A
:101300004FF440325DF8044B92FAA2F201F44031FE
:10131000B2FA82F2D140491C4900B0FBF1F07047AB
:10132000083802400024F40040787D01043802406F
:101330002DE9F84FDFF8A88304460078A8F10407E8
:1013400010F0010FA7F104055AD0D8F8000000F002
:101350000C00042809D0D8F8000000F00C00082880
:101360000CD1386810F4800F08D0286810F4003FC2
:1013700046D06068002800F0AF8141E06068B0F5B9
:10138000803F04BF286840F480300AD010B1B0F527
:10139000A02F11D0286820F480302860286820F41D
:1013A000802028606068D0B1FFF796FD0646286867
:1013B00010F4003F08D023E0286840F48020286023
:1013C000286840F48030ECE7FFF786FD801B642836
:1013D00000F22581286810F4003FF5D010E0FFF7F7
:1013E0007BFD0646286810F4003F09D0FFF774FD26
:1013F000801B642800F21381286810F4003FF5D1A7
:10140000207810F0020F50D0D8F800004FF0F80903
:1014100010F00C0F18D0D8F8000000F00C000828CD
:1014200004BF386810F4800F0ED0E06800282868E8
:1014300028D040F001002860FFF74EFD06462868DE
:1014400010F0020F09D011E0286810F0020F1CBF45
:10145000E06801280AD000F03FB9FFF73DFD801B8E
:1014600002287DD8286810F0020FF6D0286899FA73
:10147000A9F22169B2FA82F220F0F8009140084303
:10148000286012E020F001002860FFF725FD0646E5
:10149000286810F0020F08D0FFF71EFD801B0228FD
:1014A0005ED8286810F0020FF6D1207810F0080FEF
:1014B00033D0DFF8309260690028D9F8000016D0E8
:1014C00040F00100C9F80000FFF706FD0646D9F814
:1014D000000010F0020F20D1FFF7FEFC801B022855
:1014E0003ED8D9F8000010F0020FF5D015E020F03A
:1014F0000100C9F80000FFF7EFFC0646D9F800002C
:1015000010F0020F09D0FFF7E7FC801B022827D854
:10151000D9F8000010F0020FF5D1207810F0040F78
:1015200063D07148016841F08051016000686F4EDE
:1015300000F080500090306840F480703060FFF719
:10154000CBFC8146306810F4807F0BD1FFF7C4FCE0
:10155000A0EB0900642862D8306810F4807F00E0B6
:101560005DE0F3D0A068624E012804BF306840F00F
:10157000010009D008B1052813D0306820F001001F
:101580003060306820F004003060A06841F2883A92
:10159000D0B1FFF7A1FC8146306810F0020F08D0EF
:1015A00023E0306840F004003060306840F0010013
:1015B000EAE7FFF791FCA0EB090050452FD830680F
:1015C00010F0020FF5D010E0FFF786FC814630687E
:1015D00010F0020F09D0FFF77FFCA0EB0900504587
:1015E0001DD8306810F0020FF5D1A069E8B3D8F823
:1015F000001001F00C0108296ED00228286820F0A4
:10160000807028600ED0FFF767FC0446286810F051
:10161000007F5ED0FFF760FC001B022855D9032035
:10162000BDE8F88FFFF758FC0646286810F0007FE9
:1016300008D0FFF751FC801B0228F0D8286810F072
:10164000007FF6D1D4E9070147F6C0724FF0FF33AF
:1016500092FAA2F20843616AB2FA82F29140A26A57
:1016600003EB52024FF4403300E032E093FAA3F36D
:10167000B3FA83F39A4011434FF070620843E16A72
:1016800092FAA2F2B2FA82F291404FF0E04208439D
:10169000216B92FAA2F2B2FA82F2914008433860CA
:1016A000286840F080702860FFF716FC0446286820
:1016B00010F0007F0DD1FFF70FFC001B0228AED801
:1016C000286810F0007FF6D003E0286810F0007F53
:1016D000A0D10020BDE8F88F0120BDE8F88F000000
:1016E0000838024074380240403802400070004020
:1016F00070380240002804BF0120704770B50446CE
:1017000090F82C000D4628B9002084F82D002046C2
:1017100000F012F8022084F82C002068211DFFF749
:101720003DF9D4E900022946FFF796F9012084F833
:101730002C00002070BD000030484DF804ED87B04B
:10174000016841F001010160006800F001000590AE
:101750002B48016841F004010160016801F00401B7
:101760000591016841F008010160016801F008017C
:101770000591016841F010010160016801F010015C
:101780000591016841F020010160016801F020012C
:101790000591016841F0400101600068694600F070
:1017A000400005900D200090022001900120029041
:1017B000032003900C2004901248FFF767FA4CF2C4
:1017C0000370009010486946FFF760FA4FF6837087
:1017D00000900E486946FFF759FA4FF63F00009017
:1017E0000B486946FFF752FA48F237100090094853
:1017F0006946FFF74BFA07B05DF804FB3838024042
:101800003038024000080240000C02400010024044
:10181000001402400018024010B5044690F82C0055
:10182000022808BF10BD022084F82C002068FFF7B2
:10183000E4F8012084F82C00002010BD70B50446A7
:1018400090F82C000D46022808BF70BD022084F8D5
:101850002C002068FFF7D7F8286802280CBF052065
:10186000012084F82C00002070BD002804BF012056
:10187000704770B5044690F8450015460E4628B9E5
:10188000002084F84400204600F01AF8206804F193
:101890000801FFF713F8A26831462068FFF74CF8FB
:1018A000E36A2946D4E90102FEF7E4FFA168206853
:1018B00050F8212042F0010240F82120002070BDA4
:1018C0001A484DF804ED87B0016841F0010101604C
:1018D000006800F0010005901548016841F008011A
:1018E0000160016801F008010591016841F01001F3
:1018F00001600068694600F0100005904EF2B37078
:1019000000900220019001200290032003900C20FF
:1019100004900848FFF7BAF94FF680700090064827
:101920006946FFF7B3F907B05DF804FB38380240A9
:1019300030380240000C0240001002404FF0E0211D
:10194000042808690CBF40F0040020F0040008617E
:1019500070470000401EB0F1807F24BF0120704717
:101960004FF0E0214861F020044A82F8140D002075
:101970008861072008610020704700000FE000E048
:1019800070477047002804BF0120704770B50446B7
:1019900090F839000D4628B9002084F83800204618
:1019A00000F048F8022084F839002068816821F0AE
:1019B000070121F4803181602068211D06F00CFDB3
:1019C000206883688169026AD5F800C021F00301AC
:1019D000AE6921F440714CEA0303D5F808C022F047
:1019E000AA0241EA0621EE694CEA0101D5F80CC0D1
:1019F00021F0FC0121F47C4141EA06212E6A4CEAE7
:101A00000101D5F810C04FEA0C1C4CEA063C4CEA28
:101A10000101D5F804C06D69836042EA05124CEA01
:101A200002022068816120680262012084F8390086
:101A3000002070BD70B5016802235D4A03245D4D2E
:101A4000A1F18040B0F580304FF0010C86B02DD070
:101A50005948B1F1804F594E60D0B1EBF54540D0B7
:101A600015F580657DD0B5F500651CBF06B070BD6D
:101A7000016841F008010160006800F0080005906D
:101A8000106840F08000106010686946CDF808C00A
:101A900000F0800005904FF44060CDE90003484815
:101AA000CDE90343FFF7F2F806B070BD4548016881
:101AB00041F001010160006800F00100059010682C
:101AC00040F0010010601068694600F001000590C8
:101AD0004FF440700090CDE9013CCDE9034C28461D
:101AE00045E0016841F004010160006800F0040075
:101AF0000590106840F00200106010686946CDF84B
:101B000008C000F002000590C020CDE90003CDE937
:101B100003433046FFF7BAF806B070BD016841F0E4
:101B200001010160006800F001000590106840F0BC
:101B300001001060106800F001000590106840F08E
:101B4000020010601068694600F00200059008204D
:101B50000090CDE9013CCDE9034C3046FFF796F803
:101B600000E008E04FF40040694600902846FFF787
:101B70008DF806B070BD016841F002010160006897
:101B800000F002000590106840F00200106010683C
:101B90006946CDF808C000F0020005903020CDE97C
:101BA0000003CDE903433046FFF770F806B070BD7F
:101BB0003038024000000240403802400004024039
:101BC000001C02404438024010B504460068002959
:101BD00008BF012212D004294FF001020ED00021CB
:101BE00006F05CFC20680122042106F057FC206806
:101BF000016841F001010160002010BD06F04EFCBB
:101C0000F5E7704770B50446006801694FF00005BC
:101C100011F0020F1CBFC16811F0020F13D06FF05A
:101C200002010161012020762068806910F0030F15
:101C3000204602D0FFF7E5FF04E000F0A6F82046BA
:101C400000F02AFA25762068016911F0040F1CBF04
:101C5000C16811F0040F13D06FF00401016102207C
:101C600020762068806910F4407F204602D0FFF77C
:101C7000C8FF04E000F089F8204600F00DFA257650
:101C80002068016911F0080F1CBFC16811F0080F2E
:101C900013D06FF008010161042020762068C0692C
:101CA00010F0030F204602D0FFF7ABFF04E000F076
:101CB0006CF8204600F0F0F925762068016911F0F3
:101CC000100F1CBFC16811F0100F13D06FF010017E
:101CD0000161082020762068C06910F4407F20460A
:101CE00002D0FFF78EFF04E000F04FF8204600F02E
:101CF000D3F925762068016911F0010F1CBFC16876
:101D000011F0010F05D06FF001010161204600F0D4
:101D10005BFA206801696FF0800511F0800F1CBF2D
:101D2000C16811F0800F03D005612046FFF728FE3F
:101D30002068016911F4807F1CBFC16811F0800F19
:101D400003D005612046FFF71BFE2068016911F0F2
:101D5000400F1CBFC16811F0400F05D06FF040016B
:101D60000161204600F04AFA2068016911F0200F55
:101D70001ABFC16811F0200F70BD6FF02001016122
:101D80002046BDE87040FFF7FCBD70472DE9F041EB
:101D9000044690F838000D4601280DBF02200126A8
:101DA00084F83860BDE8F081022084F839000C2AFC
:101DB00047D006DC6AB1042A1DD0082A2FD000F0D3
:101DC000BFB8DFF88CC1102A624F4ED0142A7DD0E4
:101DD000B6E0206806F06FFB2068816941F00801D9
:101DE00081612068816921F0040181612068816935
:101DF0002A69114311E0206806F091FB206881698F
:101E000041F4006181612068816921F48061816110
:101E1000206881692A6941EA0221816190E0206895
:101E200006F0B5FB2068C16941F00801C161206876
:101E3000C16921F00401C1612068C1692A691143A7
:101E400011E0206806F0DBFB2068C16941F4006105
:101E5000C1612068C16921F48061C1612068C169E4
:101E60002A6941EA0221C1616AE02068016A21F41D
:101E700080310162036A4168426D23F40033D5F872
:101E80000080604522F0700222F4803248EA0202AB
:101E9000B5F8088043EA084318BFB84205D1D5F821
:101EA00014C021F4803141EA0C2141604265696827
:101EB000816503622068416D41F008014165206839
:101EC000416D21F004014165206800E003E0416DAF
:101ED0002A69114333E02068016A21F4801101620C
:101EE000036A4168426D23F40013D5F80080604511
:101EF00022F4E04222F0807242EA0822B5F808801B
:101F000043EA085318BFB84205D1D5F814C021F4EC
:101F1000802141EA8C21416042656968C1650362A4
:101F20002068416D41F4006141652068416D21F4F4
:101F3000806141652068416D2A6941EA022141655D
:101F400084F83960002084F83800BDE8F081000092
:101F50000000014000040140002804BF0120704738
:101F600010B5044690F8390028B9002084F83800EC
:101F7000204600F00DF8022084F839002068211D69
:101F800006F02AFA012084F83900002010BD000074
:101F900070B5016802253C4B0126A1F18042044640
:101FA0003848B2F5823286B04FF0030C31D0B2F52A
:101FB000705249D0B2F580621CBF06B070BD016896
:101FC00041F400310160006800F4003005901868A9
:101FD00040F02000186018686946CDE9025C00F006
:101FE000200005904020CDF810C0CDE9000527481D
:101FF000FEF74CFE032219201146FEF7D9FF1920E7
:10200000FEF7C9FF2068C16841F00101C16006B058
:1020100070BD016841F002010160006800F002003B
:102020000590186840F00400186018686946CDE90A
:10203000026C00F0040005904FF47070CDF810C0F1
:10204000CDE90005124818E0016841F480310160D3
:10205000006800F480300590186840F010001860A7
:1020600018686946CDE9026C00F010000590202048
:10207000CDF810C0CDE900050648FEF707FE06B012
:1020800070BD000044380240303802400014024065
:102090000008024000100240704710B501220446BB
:1020A000006806F0FBF92168A1F18040B0F58030AE
:1020B0001CBFA1F18040B0F5823003D1486C40F4E0
:1020C000004048642068016841F00101016000207F
:1020D00010BD10B502680029044604BFD06840F066
:1020E000020011D0042904BFD06840F004000BD0D6
:1020F000082904BFD06840F0080005D00C2904BFAF
:10210000D06840F0100000D1D0600122206806F0B5
:10211000C5F92068A0F18041B1F580311CBFA0F164
:102120008041B1F5823103D1416C41F400414164F9
:102130002068016841F001010160002010BD10B568
:1021400002680029044604BFD06820F0020011D0C4
:10215000042904BFD06820F004000BD0082904BF74
:10216000D06820F0080005D00C2904BFD06820F00A
:10217000100000D1D0600022206806F08FF921689D
:1021800041F211139A10A1F18040B0F580301CBFCC
:10219000A1F18040B0F5823009D1086A184204BF2D
:1021A000086A104203D1486C20F40040486420685B
:1021B000016A194204BF016A114203D1016821F08A
:1021C00001010160002010BD0A49884218BF704714
:1021D00010B5094C6088401C608060882188884266
:1021E00098BF10BD00210348FFF7A9FF00206080C1
:1021F000208010BDB00402201400022070477047F8
:1022000090F8691090F86A000843704770B501684B
:102210000446C8690A688B6810F00F0F4FF020055C
:1022200051D040F2011C13EA0C0F7DD010F0010FC9
:1022300018BF12F4807F07D04FF0010CC1F820C006
:10224000E16E41F00101E16610F0020F18BF13F0DA
:10225000010F08D0D4F800C00221CCF82010E16EA4
:1022600041F00401E16610F0040F18BF13F0010FF4
:1022700008D0D4F800C00421CCF82010E16E41F061
:102280000201E16610F0080F0CD002F0200103F00B
:102290000103194306D0236808211962E16E41F059
:1022A0000801E166E16E002908BF70BD10F0200F43
:1022B0001EBF12F0200F204606F0C5FAE06E10F0A7
:1022C000080F10D10AE010F0200F18BF12F0200FF5
:1022D00039D02046BDE8704006F0B5BA2068806865
:1022E00010F0400F29D02068016821F4907101603E
:1022F0002068816821F00101816084F86A502068BB
:10230000816811F0400F14D0816821F04001816094
:10231000606E70B12D490165606EFEF7E6FB002826
:1023200008BF70BD606E00E00DE0016DBDE870405B
:1023300008472046FFF763FF70BD2046FFF75FFFA9
:102340000020E06670BD10F0800F18BF12F0800F03
:102350002CD094F86900212818BF70BDB4F8520041
:1023600090B1A068B0F5805F04BF20690028E06CE0
:1023700014D0411CE164216800788862B4F85200EE
:10238000401EA4F8520070BD086820F0800008606C
:102390002068016841F04001016070BD0088C0F311
:1023A00008008862E06C801CE064E7E710F0400FF2
:1023B00014BF12F0400F70BD20460A6822F04002A0
:1023C0000A6084F8695000F04DF970BD3388000848
:1023D000002804BF0120704710B5044690F869003A
:1023E00028B9002084F86800204600F029F824204D
:1023F00084F869002068016821F00101016020462D
:1024000006F060FA012808BF10BD606A00281CBFF2
:10241000204606F071F92068416821F4904141603E
:102420002068816821F02A0181602068016841F0FC
:10243000010101602046BDE8104006F0CAB9000065
:1024400030B501680223304A07243048A1F18045A5
:10245000B5F588354FF0010C87B029D015F54C45FE
:102460001CBF07B030BD116841F001011160116857
:1024700001F00101059126490A6842F400320A6020
:102480000968CDF808C001F4003105910C21CDE9AF
:102490000013CDE903346946FEF7F8FB2620FEF76A
:1024A0007AFD032202212620FEF782FD07B030BD0F
:1024B000116841F001011160116801F001010591FD
:1024C00014490A6842F010020A600968CDF808C091
:1024D00001F0100105914FF40071CDE90013CDE931
:1024E000033469460446FEF7D1FB4FF48061204671
:1024F00000916946FEF7CAFB2520FEF74CFD03223A
:1025000025201146D0E7000030380240000002408C
:10251000403802404438024090F86A30202B49D1BC
:10252000002912BF002A0120704790F86830012B63
:1025300040D0012380F868304165A0F85820A0F809
:102540005A20FF228168B1F5805F05D07F2351B109
:10255000B1F1805F0CD012E00169002908BF40F2A0
:10256000FF1102D109E0016909BBA0F85C2006E077
:102570000169002918BF3F2119D0A0F85C10002183
:10258000C166222280F86A2080F8681001680A6813
:1025900042F480720A6001688A6842F001028A602F
:1025A0000068016841F02001016000207047A0F838
:1025B0005C30E4E7022070472DE9F003284E002745
:1025C0000568DFF89890A5F180487088411C8AB2B0
:1025D0003146B8F5883840F40044097840F4804C1E
:1025E000C0F30D030DD018F54C480EBF10F4004F8A
:1025F000BDE8F003704710F4804F25D00A290FD0B2
:102600000AE010F4004F1CBFBDE8F003704710F45F
:10261000804F09D00A2903D07780BDE8F0037047C6
:102620007480BDE8F00370470D2908D009F8031045
:10263000C72A72809CBFBDE8F0037047ECE7A6F89C
:1026400002C0BDE8F00370470D29F8D009F8031067
:10265000C72A7280E0D8BDE8F0037047240002204A
:102660000C0002207047FEE7F0B50C4E0746002430
:102670003188708800FB01F52146204605F00AF9F3
:10268000074930890880002D86BFB9B20548F0BDE2
:102690000180641CA542FBD8F0BD00005405022057
:1026A000FEFF0760000008602DE9F04F394F2C2332
:1026B0002B244FF02A0C4FF4305A45F210594FF4A6
:1026C00048754FF0F00BB9884FF4A0784FF4F072D2
:1026D00049F2413E45F2103670B10120B871A7F8B9
:1026E00000807145A7F802B018BFB14230D13B81DC
:1026F000A7F80AC0BC8142E00020B871A7F800B07A
:102700007145A7F8028018BFB14209D13B81B1429F
:10271000A7F80AC0BC8104BFA7F800807A8033E024
:1027200049450AD1A7F808A04FF4285078814FF402
:102730002C50B8813A807D8026E0A1F5C8506338DE
:1027400022D13B817C81A7F80CC03A807D801BE0C0
:1027500049450AD1A7F808A04FF4285078814FF4D2
:102760002C50B8813D807A8009E0A1F5C8506338CB
:1027700005D13B81A7F80AC0BC813D807A80B14277
:1027800004BF3A80A7F802800020BDE8F04F04F0B3
:10279000F3BE0000540502202DE9F80FDFF840A237
:1027A0000C0ADFF84092CBB2D446070ABAF80450BC
:1027B00009F10206BCF80C1000F0FF08BCF80AC0D2
:1027C000A5F5134BBBF1410B1CBFA5F5A04BBBF509
:1027D000447B09D0A5F5A04BBBF5A26B3DD0A5F578
:1027E000C857633F7ED0F2E0ADF800C0BDF80000EE
:1027F000ADF80000BDF80000A9F80000ADF80070C9
:10280000BDF80000ADF80000BDF800003080ADF864
:102810000080BDF80000ADF80000BDF80000308079
:10282000ADF80010BDF80000ADF80000BDF80000E4
:10283000A9F80000ADF80040BDF80000ADF80000B8
:10284000BDF800003080ADF80030BDF80000ADF8F4
:102850000000BDF800003080B9E0ADF800C0BDF860
:102860000000ADF80000BDF80000A9F80000ADF8C8
:102870000070BDF80000ADF80000BDF80000308029
:102880000CF10100ADF80000BDF80000ADF800004B
:10289000BDF80000A9F80000ADF80080BDF8000008
:1028A000ADF80000BDF800003080ADF80010BDF8B4
:1028B0000000ADF80000BDF80000A9F80000ADF878
:1028C0000040BDF80000ADF80000BDF80000308009
:1028D000481CADF80000BDF80000ADF80000BDF8E0
:1028E000000000E00BE0A9F80000ADF80030BDF8F2
:1028F0000000ADF80000BDF80000308067E09AF8F5
:10290000065025B9BAF80050281A401E80B2ADF81A
:1029100000C0BDF800C0ADF800C0BDF800C0A9F807
:1029200000C04FEA102CADF800C0BDF80050ADF863
:102930000050BDF800503580C0B2ADF80000BDF8C1
:102940000050ADF80050BDF800503580ADF800C023
:10295000BDF800C0ADF800C0BDF800C0A6F800C0CA
:10296000ADF80000BDF80000ADF80000BDF80000B3
:102970003080ADF80010BDF80000ADF80000BDF8E3
:102980000000A9F80000ADF80040BDF80000ADF867
:102990000000BDF800003080ADF80030BDF8000048
:1029A000ADF80000BDF800003080ADF80040BDF883
:1029B0000000ADF80000BDF800003080ADF8003038
:1029C000BDF80000ADF80000BDF800003080BAF896
:1029D0000800A9F800003280BDE8F80F7047000039
:1029E00054050220FEFF07602DE9F04FFE4895B028
:1029F0000068FD4940F002000860086801264FF0B9
:102A0000200ACDF838A000F0020013904FF003091F
:102A1000CDF84490F5480EA9CDE90F66FEF736F9DA
:102A200004F014FDF24800274FF020414FF0550B01
:102A300007AA0160EF49C0E901171021C760C0E98A
:102A4000047109028761C761C0E908718900C0E9A2
:102A50000A7189010763C0E90D711120CDF808B032
:102A6000CDE9000715206946CDE90870CDE906706B
:102A7000DF480D97FEF7F9FE322006F013F9D32058
:102A8000ADF84C00BDF84C00ADF84C00BDF84C0062
:102A9000D94D2880AC1C2088ADF84C00BDF84C0006
:102AA000DFF858832088ADF84C00BDF84C00208832
:102AB000ADF84C00BDF84C004FF6FF7101EA002064
:102AC0002188ADF84C10BDF84C100843A8F804005C
:102AD000A0F5134141397CD0D420ADF84C00BDF8AD
:102AE0004C00ADF84C00BDF84C0028802088ADF8B3
:102AF0004C00BDF84C002088ADF84C00BDF84C00EF
:102B00002088ADF84C00BDF84C004FF6FF712288CC
:102B100001EA0020ADF84C20BDF84C201043A8F885
:102B20000400A0F5A642103A67D04FF45A40ADF821
:102B30004C00BDF84C00ADF84C00BDF84C002880AE
:102B40002088ADF84C00BDF84C004FF45B40ADF868
:102B50004C00BDF84C00ADF84C00BDF84C0028808E
:102B60002088ADF84C00BDF84C004FF45C42ADF845
:102B70004C2001EA0020BDF84C20ADF84C20BDF8F7
:102B80004C202A802288ADF84C20BDF84C20104300
:102B9000A8F80400B0F5004F08BF45F210502AD045
:102BA000A0F5AA42103A28D0A120ADF84C00BDF8FB
:102BB0004C00ADF84C00BDF84C0028802088ADF8E2
:102BC0004C00BDF84C002088ADF84C00BDF84C001E
:102BD00000E012E001EA00202188ADF84C10BDF8B9
:102BE0004C100843A8F80400A0F5AE41613908BFB5
:102BF00041F6631001D1A8F8040081B280A0FDF76E
:102C000075FB7E48ED214FF0B10C8088A0F5134292
:102C1000413A10D0E222A0F5A643103B00F0948385
:102C2000B3F5007103F08583A0F5C851633904F052
:102C30009A8104F0B6BBCF20ADF84C00BDF84C0033
:102C4000ADF84C00BDF84C002880ADF84C70BDF8D4
:102C50004C00ADF84C00BDF84C002080C123ADF80D
:102C60004C30BDF84C00ADF84C00BDF84C00208055
:102C70003020ADF84C00BDF84C20ADF84C20BDF82C
:102C80004C202280ADF84C10BDF84C10ADF84C1023
:102C9000BDF84C1029806421ADF84C10BDF84C10E3
:102CA000ADF84C10BDF84C102180ADF84C90BDF83B
:102CB0004C10ADF84C10BDF84C1021801221ADF82D
:102CC0004C10BDF84C10ADF84C10BDF84C102180E4
:102CD0008121ADF84C10BDF84C10ADF84C10BDF88A
:102CE0004C102180E821ADF84C10BDF84C10ADF827
:102CF0004C10BDF84C1029808521ADF84C10BDF862
:102D00004C10ADF84C10BDF84C1021801022ADF8DD
:102D10004C20BDF84C10ADF84C10BDF84C10218083
:102D20007A21ADF84C10BDF84C10ADF84C10BDF840
:102D30004C102180CB21ADF84C10BDF84C10ADF8F3
:102D40004C10BDF84C1029803921ADF84C10BDF85D
:102D50004C10ADF84C10BDF84C1021802C21ADF872
:102D60004C10BDF84C10ADF84C10BDF84C10218043
:102D7000ADF84C70BDF84C10ADF84C10BDF84C10CF
:102D800021803421ADF84C10BDF84C10ADF84C103A
:102D9000BDF84C1021800221ADF84C10BDF84C104C
:102DA000ADF84C10BDF84C102180F721ADF84C1057
:102DB000BDF84C10ADF84C10BDF84C102980ADF8A2
:102DC0004CA0BDF84C10ADF84C10BDF84C10218053
:102DD000EA21ADF84C10BDF84C10ADF84C10BDF820
:102DE0004C10298014E000003038024000040240FA
:102DF00008050220040100A0FEFF07605405022020
:102E0000204C43442049443A25780D0A0000000034
:102E1000ADF84C70BDF84C10ADF84C10BDF84C102E
:102E20002180ADF84C70BDF84C10ADF84C10BDF8D9
:102E30004C102180C021ADF84C10BDF84C10ADF8FD
:102E40004C10BDF84C1029801B21ADF84C10BDF87A
:102E50004C10ADF84C10BDF84C102180ADF84C3042
:102E6000BDF84C10ADF84C10BDF84C102980ADF8F1
:102E70004C60BDF84C10ADF84C10BDF84C102180E2
:102E8000C521ADF84C10BDF84C10ADF84C10BDF894
:102E90004C102980ADF84C00BDF84C10ADF84C102A
:102EA000BDF84C102180ADF84C00BDF84C00ADF8D9
:102EB0004C00BDF84C002080C720ADF84C00BDF898
:102EC0004C00ADF84C00BDF84C002880B720ADF8A0
:102ED0004C00BDF84C00ADF84C00BDF84C00208013
:102EE0003620ADF84C00BDF84C00ADF84C00BDF8F4
:102EF0004C0028804820ADF84C00BDF84C00ADF8DF
:102F00004C00BDF84C0020803A20ADF84C00BDF8D4
:102F10004C00ADF84C00BDF84C002880ADF84CB02A
:102F2000BDF84C00ADF84C00BDF84C002080ADF869
:102F30004CC0BDF84C00ADF84C00BDF84C002880EA
:102F4000ADF84C70BDF84C00ADF84C00BDF84C002D
:102F500020801A20ADF84C00BDF84C00ADF84C00B4
:102F6000BDF84C002080B620ADF84C00BDF84C00F8
:102F7000ADF84C00BDF84C0028804FF00A0CADF8BD
:102F80004CC0BDF84C00ADF84C00BDF84C002080A2
:102F9000A220ADF84C00BDF84C00ADF84C00BDF8D7
:102FA0004C002080F220ADF84C00BDF84C00ADF88C
:102FB0004C00BDF84C002880ADF84C70BDF84C00BA
:102FC000ADF84C00BDF84C0020802620ADF84C0038
:102FD000BDF84C00ADF84C00BDF84C002880ADF8B1
:102FE0004C60BDF84C00ADF84C00BDF84C002080A2
:102FF000E020ADF84C00BDF84C00ADF84C00BDF839
:103000004C0028800F20ADF84C00BDF84C10ADF8F6
:103010004C10BDF84C1021802A23ADF84C30BDF87F
:103020004C10ADF84C10BDF84C1021802821ADF8A3
:103030004C10BDF84C10ADF84C10BDF84C10218070
:103040000821ADF84C10BDF84C90ADF84C90BDF88F
:103050004C90A4F800904FF00E09ADF84C90BDF8DC
:103060004C90ADF84C90BDF84C90A4F80090ADF8A1
:103070004C10BDF84C10ADF84C10BDF84C10218030
:103080005421ADF84C10BDF84C10ADF84C10BDF803
:103090004C102180A921ADF84C10BDF84C10ADF8B2
:1030A0004C10BDF84C1021804321ADF84C10BDF8F8
:1030B0004C10ADF84C10BDF84C102180ADF84CC050
:1030C000BDF84C10ADF84C10BDF84C102180ADF897
:1030D0004C00BDF84C10ADF84C10BDF84C102180E0
:1030E000ADF84C70BDF84C10ADF84C10BDF84C105C
:1030F0002180ADF84C70BDF84C10ADF84C10BDF807
:103100004C102180ADF84C70BDF84C10ADF84C104F
:10311000BDF84C102180ADF84C70BDF84C10ADF8E6
:103120004C10BDF84C102180E121ADF84C10BDF8D9
:103130004C10ADF84C10BDF84C102980ADF84C7017
:10314000BDF84C10ADF84C10BDF84C102180152185
:10315000ADF84C10BDF84C10ADF84C10BDF84C104B
:1031600021801721ADF84C10BDF84C10ADF84C1073
:10317000BDF84C1021800721ADF84C10BDF84C1063
:10318000ADF84C10BDF84C1021804FF0110CADF88B
:103190004CC0BDF84C10ADF84C10BDF84C1021805F
:1031A0000621ADF84C10BDF84C10ADF84C10BDF830
:1031B0004C1021804FF02B09ADF84C90BDF84C100D
:1031C000ADF84C10BDF84C1021805621ADF84C10D4
:1031D000BDF84C10ADF84C10BDF84C1021803C21CE
:1031E000ADF84C10BDF84C10ADF84C10BDF84C10BB
:1031F00021800521ADF84C10BDF84C10ADF84C10F5
:10320000BDF84C102180ADF84C20BDF84C10ADF845
:103210004C10BDF84C102180ADF84C00BDF84C109E
:10322000ADF84C10BDF84C1021803F21ADF84C108A
:10323000BDF84C20ADF84C20BDF84C202280ADF8F4
:103240004C10BDF84C20ADF84C20BDF84C2022802D
:10325000ADF84C00BDF84C00ADF84C00BDF84C008A
:103260002080ADF84C90BDF84C00ADF84C00BDF896
:103270004C002880ADF84C70BDF84C00ADF84C0007
:10328000BDF84C002080ADF84C70BDF84C00ADF896
:103290004C00BDF84C002080ADF84C60BDF84C00EF
:1032A000ADF84C00BDF84C002080ADF84C10BDF8D6
:1032B0004C00ADF84C00BDF84C002080ADF84C300F
:1032C000BDF84C00ADF84C00BDF84C002880ADF8BE
:1032D0004C70BDF84C00ADF84C00BDF84C0020809F
:1032E000ADF84C70BDF84C00ADF84C00BDF84C008A
:1032F0002080ADF84C70BDF84C00ADF84C00BDF826
:103300004C002080EF20ADF84C00BDF84C00ADF82B
:103310004C00BDF84C002080ADF84CC0BDF84C000E
:10332000ADF84C00BDF84C002880782005F0BAFCC0
:103330002920ADF84C00BDF84C00ADF84C00BDF8AC
:103340004C00288004F02DB8ADF84C10BDF84C00AE
:10335000ADF84C00BDF84C002880ADF84C60BDF8CD
:103360004C00ADF84C00BDF84C002080FE20ADF8BC
:103370004C00BDF84C00ADF84C00BDF84C0020806E
:10338000EE20ADF84C00BDF84C00ADF84C00BDF897
:103390004C002880DE20ADF84C00BDF84C00ADF8A4
:1033A0004C00BDF84C0020802120ADF84C00BDF849
:1033B0004C10ADF84C10BDF84C102180F121ADF847
:1033C0004C10BDF84C10ADF84C10BDF84C102980D5
:1033D0000121ADF84C10BDF84C10ADF84C10BDF803
:1033E0004C102180DF21ADF84C10BDF84C10ADF829
:1033F0004C10BDF84C1029801021ADF84C10BDF8D0
:103400004C10ADF84C10BDF84C102180C421ADF823
:103410004C10BDF84C10ADF84C10BDF84C10298084
:103420008F21ADF84C10BDF84C10ADF84C10BDF824
:103430004C102180C621ADF84C10BDF84C10ADF8F1
:103440004C10BDF84C1029803946ADF84C70BDF8D1
:103450004C30ADF84C30BDF84C302380E223ADF851
:103460004C30BDF84C20ADF84C20BDF84C202280EB
:10347000ADF84C30BDF84C20ADF84C20BDF84C20D8
:103480002280ADF84C30BDF84C20ADF84C20BDF892
:103490004C202280BF22ADF84C20BDF84C20ADF866
:1034A0004C20BDF84C202A80AA22ADF84C20BDF853
:1034B0004C20ADF84C20BDF84C202280B022ADF855
:1034C0004C20BDF84C20ADF84C20BDF84C202A8093
:1034D0000D22ADF84C20BDF84C20ADF84C20BDF8C5
:1034E0004C202280ADF84C10BDF84C20ADF84C209B
:1034F000BDF84C2022800D22ADF84C20BDF84C20A8
:10350000ADF84C20BDF84C202280ADF84C10BDF831
:103510004C20ADF84C20BDF84C2022801122ADF893
:103520004C20BDF84C20ADF84C20BDF84C2022803A
:10353000ADF84C10BDF84C20ADF84C20BDF84C2037
:1035400022801922ADF84C20BDF84C20ADF84C205B
:10355000BDF84C202280ADF84C10BDF84C20ADF8E1
:103560004C20BDF84C202280ADF84C00BDF84C003A
:10357000ADF84C00BDF84C002080ADF84C10BDF803
:103580004C00ADF84C00BDF84C0020802D20ADF86B
:103590004C00BDF84C00ADF84C00BDF84C0020804C
:1035A000ADF84C10BDF84C00ADF84C00BDF84C0027
:1035B00020803D20ADF84C00BDF84C00ADF84C002B
:1035C000BDF84C002080ADF84C10BDF84C00ADF8B3
:1035D0004C00BDF84C0020805D20ADF84C00BDF8DB
:1035E0004C20ADF84C20BDF84C202280ADF84C109A
:1035F000BDF84C20ADF84C20BDF84C202280ADF831
:103600004C00BDF84C00ADF84C00BDF84C002080DB
:10361000ADF84C10BDF84C00ADF84C00BDF84C00B6
:103620002080ADF84CC0BDF84C00ADF84C00BDF8A2
:103630004C0028808020ADF84C00BDF84C00ADF85F
:103640004C00BDF84C002080ADF84C10BDF84C008B
:10365000ADF84C00BDF84C0020804FF08B0EADF85B
:103660004CE0BDF84C00ADF84C00BDF84C0020809B
:10367000ADF84C10BDF84C00ADF84C00BDF84C0056
:1036800020809622ADF84C20BDF84C00ADF84C00DF
:10369000BDF84C002080ADF84C10BDF84C00ADF8E2
:1036A0004C00BDF84C002080B220ADF84C00BDF8B5
:1036B0004C00ADF84C00BDF84C002880ADF84C1023
:1036C000BDF84C00ADF84C00BDF84C002080ADF8C2
:1036D0004C10BDF84C00ADF84C00BDF84C30204605
:1036E00023804FF0020CADF84CC0BDF84C30ADF863
:1036F0004C30BDF84C302380ADF84C10BDF84C3048
:10370000ADF84C30BDF84C302380ADF84C90BDF88E
:103710004C30ADF84C30BDF84C300380ADF84C1057
:10372000BDF84C30ADF84C30BDF84C300380B323BD
:10373000ADF84C30BDF84C30ADF84C30BDF84C30E5
:103740002B80ADF84C10BDF84C30ADF84C30BDF8C6
:103750004C300380ADF84C10BDF84C30ADF84C3017
:10376000BDF84C300380ADF84C10BDF84C30ADF8CE
:103770004C30BDF84C300380ADF84C10BDF84C30E7
:10378000ADF84C30BDF84C300380ADF84C10BDF8AE
:103790004C30ADF84C30BDF84C300380ADF84C10D7
:1037A000BDF84C30ADF84C30BDF84C300380ADF86E
:1037B0004C10BDF84C30ADF84C30BDF84C300380A7
:1037C000ADF84C10BDF84C30ADF84C30BDF84C3075
:1037D0000380ADF84C10BDF84C30ADF84C30BDF85E
:1037E0004C300380ADF84C10BDF84C30ADF84C3087
:1037F000BDF84C300380ADF84C10BDF84C30ADF83E
:103800004C30BDF84C300380ADF84C10BDF84C3056
:10381000ADF84C30BDF84C300380ADF84C10BDF81D
:103820004C30ADF84C30BDF84C300380ADF84C1046
:10383000BDF84C30ADF84C30BDF84C300380ADF8DD
:103840004C10BDF84C30ADF84C30BDF84C30038016
:10385000ADF84C10BDF84C30ADF84C30BDF84C30E4
:103860000380ADF84C10BDF84C30ADF84C30BDF8CD
:103870004C300380ADF84C10BDF84C30ADF84C30F6
:10388000BDF84C300380ADF84C10BDF84C30ADF8AD
:103890004C30BDF84C300380ADF84C10BDF84C30C6
:1038A000ADF84C30BDF84C300380ADF84C10BDF88D
:1038B0004C30ADF84C30BDF84C300380ADF84C10B6
:1038C000BDF84C30ADF84C30BDF84C300380ADF84D
:1038D0004C10BDF84C30ADF84C30BDF84C30038086
:1038E000ADF84C10BDF84C30ADF84C30BDF84C3054
:1038F0000380B423ADF84C30BDF84C30ADF84C30FB
:10390000BDF84C302B808B23ADF84C30BDF84C30DB
:10391000ADF84C30BDF84C300380ADF84C10BDF81C
:103920004C30ADF84C30BDF84C300380ADF84C2035
:10393000BDF84C20ADF84C20BDF84C200280ADF80D
:103940004C10BDF84C20ADF84C20BDF84C20028046
:10395000A122ADF84C20BDF84C20ADF84C20BDF8AC
:103960004C200280ADF84C10BDF84C20ADF84C2036
:10397000BDF84C200280B522ADF84C20BDF84C209B
:10398000ADF84C20BDF84C202A80ADF84CC0BDF8F5
:103990004C20ADF84C20BDF84C200280ADF84C1006
:1039A000BDF84C20ADF84C20BDF84C200280ADF89D
:1039B0004C90BDF84C20ADF84C20BDF84C20028056
:1039C000ADF84C10BDF84C20ADF84C20BDF84C20A3
:1039D00002804FF0040CADF84CC0BDF84C20ADF89F
:1039E0004C20BDF84C200280ADF84C10BDF84C20A6
:1039F000ADF84C20BDF84C200280B622ADF84C202A
:103A0000BDF84C20ADF84C20BDF84C202A80ADF814
:103A10004C10BDF84C20ADF84C20BDF84C20028075
:103A2000ADF84C10BDF84C20ADF84C20BDF84C2042
:103A30000280B722ADF84C20BDF84C20ADF84C20E8
:103A4000BDF84C202A80ADF84C10BDF84C20ADF8E4
:103A50004C20BDF84C200280ADF84C10BDF84C2035
:103A6000ADF84C20BDF84C2002803F22ADF84C2030
:103A7000BDF84C20ADF84C20BDF84C200280ADF8CC
:103A80004C10BDF84C20ADF84C20BDF84C20028005
:103A90005E22ADF84C20BDF84C20ADF84C20BDF8AE
:103AA0004C200280ADF84C10BDF84C20ADF84C20F5
:103AB000BDF84C2002806422ADF84C20BDF84C20AB
:103AC000ADF84C20BDF84C200280ADF84C10BDF88C
:103AD0004C20ADF84C20BDF84C2002808C22ADF873
:103AE0004C20BDF84C20ADF84C20BDF84C20028095
:103AF000ADF84C10BDF84C20ADF84C20BDF84C2072
:103B00000280AC22ADF84C20BDF84C20ADF84C2022
:103B1000BDF84C200280ADF84C10BDF84C20ADF83B
:103B20004C20BDF84C200280DC23ADF84C30BDF8B1
:103B30004C20ADF84C20BDF84C200280ADF84C1064
:103B4000BDF84C20ADF84C20BDF84C20028070220E
:103B5000ADF84C20BDF84C20ADF84C20BDF84C2001
:103B60000280ADF84C10BDF84C20ADF84C20BDF8EB
:103B70004C2002809022ADF84C20BDF84C20ADF8CE
:103B80004C20BDF84C200280ADF84C10BDF84C2004
:103B9000ADF84C20BDF84C200280EB22ADF84C2053
:103BA000BDF84C20ADF84C20BDF84C200280ADF89B
:103BB0004C10BDF84C20ADF84C20BDF84C200280D4
:103BC000ADF84C30BDF84C20ADF84C20BDF84C2081
:103BD0000280ADF84C10BDF84C20ADF84C20BDF87B
:103BE0004C200280B822ADF84C20BDF84C20ADF836
:103BF0004C20BDF84C202A80ADF84C10BDF84C206C
:103C0000ADF84C20BDF84C200280ADF84C10BDF84A
:103C10004C20ADF84C20BDF84C200280ADF84C1083
:103C2000BDF84C20ADF84C20BDF84C200280ADF81A
:103C30004C10BDF84C20ADF84C20BDF84C20028053
:103C4000ADF84C10BDF84C20ADF84C20BDF84C2020
:103C50000280ADF84C10BDF84C20ADF84C20BDF8FA
:103C60004C200280ADF84C10BDF84C20ADF84C2033
:103C7000BDF84C200280ADF84C10BDF84C20ADF8DA
:103C80004C20BDF84C200280BA22ADF84C20BDF883
:103C90004C20ADF84C20BDF84C202A802423ADF8F0
:103CA0004C30BDF84C20ADF84C20BDF84C200280C3
:103CB000ADF84C10BDF84C20ADF84C20BDF84C20B0
:103CC0000280ADF84C10BDF84C20ADF84C20BDF88A
:103CD0004C200280ADF84C10BDF84C20ADF84C20C3
:103CE000BDF84C200280C122ADF84C20BDF84C201C
:103CF000ADF84C20BDF84C202A802022ADF84C2095
:103D0000BDF84C20ADF84C20BDF84C200280ADF839
:103D10004C10BDF84C20ADF84C20BDF84C20028072
:103D20005422ADF84C20BDF84C20ADF84C20BDF825
:103D30004C200280ADF84C10BDF84C20ADF84C2062
:103D4000BDF84C200280FF22ADF84C20BDF84C207D
:103D5000ADF84C20BDF84C200280ADF84C10BDF8F9
:103D60004C20ADF84C20BDF84C200280C222ADF8AA
:103D70004C20BDF84C20ADF84C20BDF84C202A80DA
:103D80000A22ADF84C20BDF84C20ADF84C20BDF80F
:103D90004C200280ADF84C10BDF84C20ADF84C2002
:103DA000BDF84C200280ADF84CC0BDF84C20ADF8F9
:103DB0004C20BDF84C200280ADF84C10BDF84C20D2
:103DC000ADF84C20BDF84C200280C322ADF84C2049
:103DD000BDF84C20ADF84C20BDF84C202A804FF0A7
:103DE0003C0CADF84CC0BDF84C20ADF84C20BDF8F3
:103DF0004C200280ADF84C10BDF84C20ADF84C20A2
:103E0000BDF84C2002803A22ADF84C20BDF84C2081
:103E1000ADF84C20BDF84C200280ADF84C10BDF838
:103E20004C20ADF84C20BDF84C2002803922ADF872
:103E30004C20BDF84C20ADF84C20BDF84C20028041
:103E4000ADF84C10BDF84C20ADF84C20BDF84C201E
:103E500002803722ADF84C20BDF84C20ADF84C2044
:103E6000BDF84C200280ADF84C10BDF84C20ADF8E8
:103E70004C20BDF84C200280ADF84CC0BDF84C2061
:103E8000ADF84C20BDF84C200280ADF84C10BDF8C8
:103E90004C20ADF84C20BDF84C2002803622ADF805
:103EA0004C20BDF84C20ADF84C20BDF84C200280D1
:103EB000ADF84C10BDF84C20ADF84C20BDF84C20AE
:103EC00002804FF03209ADF84C90BDF84C20ADF8AF
:103ED0004C20BDF84C200280ADF84C10BDF84C20B1
:103EE000ADF84C20BDF84C2002804FF02F0AADF801
:103EF0004CA0BDF84C20ADF84C20BDF84C20028001
:103F0000ADF84C10BDF84C20ADF84C20BDF84C205D
:103F100002804FF02C0EADF84CE0BDF84C20ADF80F
:103F20004C20BDF84C200280ADF84C10BDF84C2060
:103F3000ADF84C20BDF84C2002802922ADF84C2071
:103F4000BDF84C20ADF84C20BDF84C200280ADF8F7
:103F50004C10BDF84C20ADF84C20BDF84C20028030
:103F60002622ADF84C20BDF84C20ADF84C20BDF811
:103F70004C200280ADF84C10BDF84C20ADF84C2020
:103F8000BDF84C200280ADF84C30BDF84C20ADF8A7
:103F90004C20BDF84C200280ADF84C10BDF84C20F0
:103FA000ADF84C20BDF84C200280ADF84C30BDF887
:103FB0004C20ADF84C20BDF84C200280ADF84C10E0
:103FC000BDF84C20ADF84C20BDF84C2002802327D2
:103FD000ADF84C70BDF84C20ADF84C20BDF84C202D
:103FE0000280ADF84C10BDF84C20ADF84C20BDF867
:103FF0004C200280ADF84CC0BDF84C20ADF84C20F0
:10400000BDF84C200280ADF84C10BDF84C20ADF846
:104010004C20BDF84C2002803622ADF84C20BDF873
:104020004C20ADF84C20BDF84C200280ADF84C106F
:10403000BDF84C20ADF84C20BDF84C200280ADF806
:104040004C90BDF84C20ADF84C20BDF84C200280BF
:10405000ADF84C10BDF84C20ADF84C20BDF84C200C
:104060000280ADF84CA0BDF84C20ADF84C20BDF856
:104070004C200280ADF84C10BDF84C20ADF84C201F
:10408000BDF84C200280ADF84CE0BDF84C20ADF8F6
:104090004C20BDF84C200280ADF84C10BDF84C20EF
:1040A000ADF84C20BDF84C2002802922ADF84C2000
:1040B000BDF84C20ADF84C20BDF84C200280ADF886
:1040C0004C10BDF84C20ADF84C20BDF84C200280BF
:1040D0002622ADF84C20BDF84C20ADF84C20BDF8A0
:1040E0004C200280ADF84C10BDF84C20ADF84C20AF
:1040F000BDF84C200280ADF84C30BDF84C20ADF836
:104100004C20BDF84C200280ADF84C10BDF84C207E
:10411000ADF84C20BDF84C200280ADF84C30BDF815
:104120004C20ADF84C20BDF84C200280ADF84C106E
:10413000BDF84C20ADF84C20BDF84C200280ADF805
:104140004C70BDF84C20ADF84C20BDF84C200280DE
:10415000ADF84C10BDF84C20ADF84C20BDF84C200B
:104160000280C422ADF84C20BDF84C20ADF84C20A4
:10417000BDF84C202A806222ADF84C20BDF84C20BE
:10418000ADF84C20BDF84C200280ADF84C10BDF8C5
:104190004C20ADF84C20BDF84C2002800522ADF833
:1041A0004C20BDF84C20ADF84C20BDF84C200280CE
:1041B000ADF84C10BDF84C20ADF84C20BDF84C20AB
:1041C00002808422ADF84C20BDF84C20ADF84C2084
:1041D000BDF84C200280ADF84C10BDF84C20ADF875
:1041E0004C20BDF84C200280F022ADF84C20BDF8E8
:1041F0004C20ADF84C20BDF84C200280ADF84C109E
:10420000BDF84C20ADF84C20BDF84C20028018229F
:10421000ADF84C20BDF84C20ADF84C20BDF84C203A
:104220000280ADF84C10BDF84C20ADF84C20BDF824
:104230004C200280A422ADF84C20BDF84C20ADF8F3
:104240004C20BDF84C200280ADF84C10BDF84C203D
:10425000ADF84C20BDF84C2002801822ADF84C205F
:10426000BDF84C20ADF84C20BDF84C200280ADF8D4
:104270004C10BDF84C20ADF84C20BDF84C2002800D
:104280005022ADF84C20BDF84C20ADF84C20BDF8C4
:104290004C200280ADF84C10BDF84C20ADF84C20FD
:1042A000BDF84C2002800C22ADF84C20BDF84C200B
:1042B000ADF84C20BDF84C200280ADF84C10BDF894
:1042C0004C20ADF84C20BDF84C2002801722ADF8F0
:1042D0004C20BDF84C20ADF84C20BDF84C2002809D
:1042E000ADF84C10BDF84C20ADF84C20BDF84C207A
:1042F00002809522ADF84C20BDF84C20ADF84C2042
:10430000BDF84C200280ADF84C10BDF84C20ADF843
:104310004C20BDF84C200280F322ADF84C20BDF8B3
:104320004C20ADF84C20BDF84C200280ADF84C106C
:10433000BDF84C20ADF84C20BDF84C200280E622A0
:10434000ADF84C20BDF84C20ADF84C20BDF84C2009
:104350000280ADF84C10BDF84C20ADF84C20BDF8F3
:104360004C200280C522ADF84C20BDF84C20ADF8A1
:104370004C20BDF84C202A803222ADF84C20BDF8EC
:104380004C20ADF84C20BDF84C200280ADF84C100C
:10439000BDF84C20ADF84C20BDF84C2002804422E2
:1043A000ADF84C20BDF84C20ADF84C20BDF84C20A9
:1043B0000280ADF84C10BDF84C20ADF84C20BDF893
:1043C0004C2002806522ADF84C20BDF84C20ADF8A1
:1043D0004C20BDF84C200280ADF84C10BDF84C20AC
:1043E000ADF84C20BDF84C2002807622ADF84C2070
:1043F000BDF84C20ADF84C20BDF84C200280ADF843
:104400004C10BDF84C20ADF84C20BDF84C2002807B
:104410008822ADF84C20BDF84C20ADF84C20BDF8FA
:104420004C200280ADF84C10BDF84C20ADF84C206B
:10443000BDF84C200280C622ADF84C20BDF84C20BF
:10444000ADF84C20BDF84C202A802022ADF84C203D
:10445000BDF84C20ADF84C20BDF84C200280ADF8E2
:104460004C10BDF84C20ADF84C20BDF84C2002801B
:104470001722ADF84C20BDF84C20ADF84C20BDF80B
:104480004C200280ADF84C10BDF84C20ADF84C200B
:10449000BDF84C2002800122ADF84C20BDF84C2024
:1044A000ADF84C20BDF84C200280ADF84C10BDF8A2
:1044B0004C20ADF84C20BDF84C200280C722ADF84E
:1044C0004C20BDF84C20ADF84C20BDF84C202A8083
:1044D000ADF84C10BDF84C20ADF84C20BDF84C2088
:1044E0000280ADF84C10BDF84C20ADF84C20BDF862
:1044F0004C200280ADF84C10BDF84C20ADF84C209B
:10450000BDF84C200280ADF84C10BDF84C20ADF841
:104510004C20BDF84C200280C822ADF84C20BDF8DC
:104520004C20ADF84C20BDF84C202A80ADF84C1042
:10453000BDF84C20ADF84C20BDF84C200280ADF801
:104540004C10BDF84C20ADF84C20BDF84C2002803A
:10455000ADF84C10BDF84C20ADF84C20BDF84C2007
:104560000280ADF84C10BDF84C20ADF84C20BDF8E1
:104570004C200280C922ADF84C20BDF84C20ADF88B
:104580004C20BDF84C202A80ADF84C10BDF84C20D2
:10459000ADF84C20BDF84C200280ADF84C10BDF8B1
:1045A0004C20ADF84C20BDF84C200280ADF84C10EA
:1045B000BDF84C20ADF84C20BDF84C200280ADF881
:1045C0004C10BDF84C20ADF84C20BDF84C200280BA
:1045D000ADF84C10BDF84C20ADF84C20BDF84C2087
:1045E0000280ADF84C10BDF84C20ADF84C20BDF861
:1045F0004C200280ADF84C10BDF84C20ADF84C209A
:10460000BDF84C200280ADF84C10BDF84C20ADF840
:104610004C20BDF84C200280ADF84C10BDF84C2069
:10462000ADF84C20BDF84C200280ADF84C10BDF820
:104630004C20ADF84C20BDF84C200280ADF84C1059
:10464000BDF84C20ADF84C20BDF84C200280ADF8F0
:104650004C10BDF84C20ADF84C20BDF84C20028029
:10466000ADF84C10BDF84C20ADF84C20BDF84C20F6
:104670000280ADF84C10BDF84C20ADF84C20BDF8D0
:104680004C200280ADF84C10BDF84C20ADF84C2009
:10469000BDF84C200280ADF84C10BDF84C20ADF8B0
:1046A0004C20BDF84C200280E022ADF84C20BDF833
:1046B0004C30ADF84C30BDF84C302B801623ADF8A3
:1046C0004C30BDF84C30ADF84C30BDF84C30038068
:1046D000ADF84C10BDF84C30ADF84C30BDF84C3056
:1046E00003801C23ADF84C30BDF84C30ADF84C3095
:1046F000BDF84C300380ADF84C10BDF84C30ADF82F
:104700004C30BDF84C3003802123ADF84C30BDF85F
:104710004C30ADF84C30BDF84C300380ADF84C1047
:10472000BDF84C30ADF84C30BDF84C30038036232A
:10473000ADF84C30BDF84CC0ADF84CC0BDF84CC025
:10474000A0F800C0ADF84C10BDF84CC0ADF84CC09E
:10475000BDF84CC0A0F800C04FF0460CADF84CC0FE
:10476000BDF84CC0ADF84CC0BDF84CC0A0F800C0BE
:10477000ADF84C10BDF84CC0ADF84CC0BDF84CC005
:10478000A0F800C04FF0520EADF84CE0BDF84CC0A0
:10479000ADF84CC0BDF84CC0A0F800C0ADF84C104E
:1047A000BDF84CC0ADF84CC0BDF84CC0A0F800C07E
:1047B0004FF0640AADF84CA0BDF84CC0ADF84CC049
:1047C000BDF84CC0A0F800C0ADF84C10BDF84CC00E
:1047D000ADF84CC0BDF84CC0A0F800C04FF07A0C4A
:1047E000ADF84CC0BDF84CC0ADF84CC0BDF84CC0E5
:1047F000A0F800C0ADF84C10BDF84CC0ADF84CC0EE
:10480000BDF84CC0A0F800C04FF08B0CADF84CC008
:10481000BDF84C60ADF84C60BDF84C600680ADF85A
:104820004C10BDF84C60ADF84C60BDF84C60068093
:104830004FF09909ADF84C90BDF84C60ADF84C6064
:10484000BDF84C6006800026ADF84C60BDF84C60A9
:10485000ADF84C60BDF84C600680A826ADF84C6001
:10486000BDF84C60ADF84C60BDF84C600680002689
:10487000ADF84C60BDF84C60ADF84C60BDF84C60D4
:104880000680B926ADF84C60BDF84C60ADF84C60C0
:10489000BDF84C6006800026ADF84C60BDF84C6059
:1048A000ADF84C60BDF84C600680C426ADF84C6095
:1048B000BDF84C60ADF84C60BDF84C600680002639
:1048C000ADF84C60BDF84C60ADF84C60BDF84C6084
:1048D0000680CA26ADF84C60BDF84C60ADF84C605F
:1048E000BDF84C6006800026ADF84C60BDF84C6009
:1048F000ADF84C60BDF84C600680D226ADF84C6037
:10490000BDF84C60ADF84C60BDF84C6006800026E8
:10491000ADF84C60BDF84C60ADF84C60BDF84C6033
:104920000680D926ADF84C60BDF84C60ADF84C60FF
:10493000BDF84C6006800026ADF84C60BDF84C60B8
:10494000ADF84C60BDF84C600680ADF84C20BDF869
:104950004C60ADF84C60BDF84C6006800026ADF8A8
:104960004C60BDF84C60ADF84C60BDF84C60068002
:10497000F326ADF84C60BDF84C60ADF84C60BDF866
:104980004C6006800026ADF84C60BDF84C60ADF878
:104990004C60BDF84C600680E126ADF84C60BDF877
:1049A0004C60ADF84C60BDF84C602E801626ADF81A
:1049B0004C60BDF84C60ADF84C60BDF84C600680B2
:1049C0000026ADF84C60BDF84C60ADF84C60BDF809
:1049D0004C6006801C26ADF84C60BDF84C60ADF80C
:1049E0004C60BDF84C6006800026ADF84C60BDF808
:1049F0004C60ADF84C60BDF84C6006802226ADF8E6
:104A00004C60BDF84C60ADF84C60BDF84C60068061
:104A10000026ADF84C60BDF84C60ADF84C60BDF8B8
:104A20004C600680ADF84C30BDF84C30ADF84C30E1
:104A3000BDF84C3003800023ADF84C30BDF84C304D
:104A4000ADF84C30BDF84C3003804523ADF84C3008
:104A5000BDF84C30ADF84C30BDF84C30038000232D
:104A6000ADF84C30BDF84C30ADF84C30BDF84C30A2
:104A70000380ADF84CE0BDF84C30ADF84C30BDF8DB
:104A80004C3003800023ADF84C30BDF84C30ADF80D
:104A90004C30BDF84C300380ADF84CA0BDF84C3024
:104AA000ADF84C30BDF84C3003800023ADF84C30ED
:104AB000BDF84C30ADF84C30BDF84C3003807A2353
:104AC000ADF84C30BDF84C30ADF84C30BDF84C3042
:104AD00003800023ADF84C30BDF84C30ADF84C30BD
:104AE000BDF84C300380ADF84CC0BDF84C30ADF88B
:104AF0004C30BDF84C3003800023ADF84C30BDF88D
:104B00004C30ADF84C30BDF84C300380ADF84C90D3
:104B1000BDF84C30ADF84C30BDF84C30038000236C
:104B2000ADF84C30BDF84C30ADF84C30BDF84C30E1
:104B30000380A823ADF84C30BDF84C30ADF84C30B4
:104B4000BDF84C3003800023ADF84C30BDF84C303C
:104B5000ADF84C30BDF84C300380B923ADF84C3083
:104B6000BDF84C30ADF84C30BDF84C30038000231C
:104B7000ADF84C30BDF84C30ADF84C30BDF84C3091
:104B80000380C423ADF84C30BDF84C30ADF84C3048
:104B9000BDF84C3003800023ADF84C30BDF84C30EC
:104BA000ADF84C30BDF84C300380CA23ADF84C3022
:104BB000BDF84C30ADF84C30BDF84C300380ADF84A
:104BC0004C10BDF84C30ADF84C30BDF84C30038083
:104BD000D223ADF84C30BDF84C30ADF84C30BDF8B8
:104BE0004C300380ADF84C10BDF84C30ADF84C3073
:104BF000BDF84C300380D823ADF84C30BDF84C30B4
:104C0000ADF84C30BDF84C300380ADF84C10BDF819
:104C10004C30ADF84C30BDF84C300380ADF84C2032
:104C2000BDF84C20ADF84C20BDF84C200280ADF80A
:104C30004C10BDF84C20ADF84C20BDF84C20028043
:104C4000F322ADF84C20BDF84C30ADF84C30BDF837
:104C50004C300380ADF84C10BDF84C30ADF84C3002
:104C6000BDF84C300380E223ADF84C30BDF84C3039
:104C7000ADF84C30BDF84C302B800523ADF84C30EE
:104C8000BDF84C30ADF84C30BDF84C300380ADF879
:104C90004C10BDF84C30ADF84C30BDF84C300380B2
:104CA0000B23ADF84C30BDF84C30ADF84C30BDF8AE
:104CB0004C300380ADF84C10BDF84C30ADF84C30A2
:104CC000BDF84C3003801B23ADF84C30BDF84C30A0
:104CD000ADF84C30BDF84C300380ADF84C10BDF849
:104CE0004C30ADF84C30BDF84C3003803423ADF877
:104CF0004C30BDF84C30ADF84C30BDF84C30038032
:104D0000ADF84C10BDF84C30ADF84C30BDF84C301F
:104D100003804FF0440EADF84CE0BDF84C30ADF8D8
:104D20004C30BDF84C300380ADF84C10BDF84C3021
:104D3000ADF84C30BDF84C3003804F23ADF84C300B
:104D4000BDF84C30ADF84C30BDF84C300380ADF8B8
:104D50004C10BDF84C30ADF84C30BDF84C300380F1
:104D60006123ADF84C30BDF84C30ADF84C30BDF897
:104D70004C300380ADF84C10BDF84C30ADF84C30E1
:104D8000BDF84C3003807923ADF84C30BDF84C3081
:104D9000ADF84C30BDF84C300380ADF84C10BDF888
:104DA0004C30ADF84C30BDF84C3003808826ADF85F
:104DB0004C60BDF84C30ADF84C30BDF84C30038041
:104DC000ADF84C10BDF84C30ADF84C30BDF84C305F
:104DD00003804FF0970AADF84CA0BDF84C30ADF809
:104DE0004C30BDF84C300380ADF84C10BDF84C3061
:104DF000ADF84C30BDF84C300380A623ADF84C30F4
:104E0000BDF84C30ADF84C30BDF84C300380ADF8F7
:104E10004C10BDF84C30ADF84C30BDF84C30038030
:104E2000B723ADF84C30BDF84C30ADF84C30BDF880
:104E30004C300380ADF84C10BDF84C30ADF84C3020
:104E4000BDF84C300380C223ADF84C30BDF84CC0E7
:104E5000ADF84CC0BDF84CC0A0F800C0ADF84C1087
:104E6000BDF84CC0ADF84CC0BDF84CC0A0F800C0B7
:104E70004FF0C70CADF84CC0BDF84C90ADF84C905D
:104E8000BDF84C90A0F80090ADF84C10BDF84C90D7
:104E9000ADF84C90BDF84C90A0F800904FF0D109BF
:104EA000ADF84C90BDF84C90ADF84C90BDF84C90DE
:104EB000A0F80090ADF84C10BDF84C90ADF84C90B7
:104EC000BDF84C90A0F800904FF0D609ADF84C908A
:104ED000BDF84C90ADF84C90BDF84C90A0F8009007
:104EE000ADF84C10BDF84C90ADF84C90BDF84C901E
:104EF000A0F800904FF0DD09ADF84C90BDF84C9053
:104F0000ADF84C90BDF84C90A0F80090ADF84C1066
:104F1000BDF84C90ADF84C90BDF84C90A0F80090C6
:104F20009146ADF84C90BDF84C90ADF84C90BDF862
:104F30004C90A0F80090ADF84C10BDF84C90ADF836
:104F40004C90BDF84C90A0F800904FF0E309ADF8FC
:104F50004C90BDF84C90ADF84C90BDF84C90A5F835
:104F600000904FF00509ADF84C90BDF84C90ADF8AD
:104F70004C90BDF84C90A4F80090ADF84C10BDF8E2
:104F80004C00ADF84C00BDF84C0020800A20ADF874
:104F90004C00BDF84C00ADF84C00BDF84C00208032
:104FA000ADF84C10BDF84C00ADF84C00BDF84C000D
:104FB00020801C20ADF84C00BDF84C00ADF84C0032
:104FC000BDF84C002080ADF84C10BDF84C00ADF899
:104FD0004C00BDF84C0020803320ADF84C00BDF8EB
:104FE0004C00ADF84C00BDF84C002080ADF84C10E2
:104FF000BDF84C00ADF84C00BDF84C002080704668
:10500000ADF84CE0BDF84C90ADF84C90BDF84C902C
:10501000A4F80090ADF84C10BDF84C90ADF84C9051
:10502000BDF84C90A4F800904FF05009ADF84C90AA
:10503000BDF84C90ADF84C90BDF84C90A4F80090A1
:10504000ADF84C10BDF84C90ADF84C90BDF84C90BC
:10505000A4F800904FF06209ADF84C90BDF84C9068
:10506000ADF84C90BDF84C90A4F80090ADF84C1001
:10507000BDF84C90ADF84C90BDF84C90A4F8009061
:105080004FF07809ADF84C90BDF84C90ADF84C90CD
:10509000BDF84C90A4F80090ADF84C10BDF84C90C1
:1050A000ADF84C90BDF84C90A4F80090ADF84C6071
:1050B000BDF84C60ADF84C60BDF84C602680ADF892
:1050C0004C10BDF84C60ADF84C60BDF84C602680CB
:1050D000ADF84CA0BDF84C60ADF84C60BDF84C602C
:1050E0002680ADF84C10BDF84C60ADF84C60BDF8B2
:1050F0004C602680A626ADF84C60BDF84C60ADF83B
:105100004C60BDF84C602680ADF84C10BDF84C608A
:10511000ADF84C60BDF84C602680B726ADF84C6009
:10512000BDF84C60ADF84C60BDF84C602680ADF821
:105130004C10BDF84C60ADF84C60BDF84C6026805A
:10514000ADF84C30BDF84C30ADF84C30BDF84C30BB
:105150002380ADF84C10BDF84C30ADF84C30BDF8A4
:105160004C302380ADF84CC0BDF84C30ADF84C301D
:10517000BDF84C302380ADF84C10BDF84C30ADF884
:105180004C30BDF84C302380D123ADF84C30BDF805
:105190004C30ADF84C30BDF84C302380ADF84C109D
:1051A000BDF84C30ADF84C30BDF84C302380D523E1
:1051B000ADF84C30BDF84C30ADF84C30BDF84C304B
:1051C0002380ADF84C10BDF84C30ADF84C30BDF834
:1051D0004C302380DD23ADF84C30BDF84C30ADF8B9
:1051E0004C30BDF84C302380ADF84C10BDF84C303D
:1051F000ADF84C30BDF84C302380ADF84C20BDF8F4
:105200004C30ADF84C30BDF84C302380ADF84C102C
:10521000BDF84C30ADF84C30BDF84C302380E42361
:10522000ADF84C30BDF84C30ADF84C30BDF84C30DA
:105230002B800123ADF84C30BDF84CC0ADF84CC00C
:10524000BDF84CC0A4F800C0ADF84C10BDF84CC07F
:10525000ADF84CC0BDF84CC0A4F800C0ADF84C305F
:10526000BDF84C30ADF84C30BDF84C302380ADF873
:105270004C10BDF84C30ADF84C30BDF84C302380AC
:105280000226ADF84C60BDF84C30ADF84C30BDF89E
:105290004C302380ADF84C10BDF84C30ADF84C309C
:1052A000BDF84C3023802A23ADF84C30BDF84C308B
:1052B000ADF84C30BDF84C302380ADF84C10BDF843
:1052C0004C30ADF84C30BDF84C3023803C23ADF869
:1052D0004C30BDF84C30ADF84C30BDF84C3023802C
:1052E000ADF84C10BDF84C30ADF84C30BDF84C303A
:1052F00023804B23ADF84C30BDF84C30ADF84C302A
:10530000BDF84C302380ADF84C10BDF84C30ADF8F2
:105310004C30BDF84C3023804FF05D0AADF84CA006
:10532000BDF84C30ADF84C30BDF84C302380ADF8B2
:105330004C10BDF84C30ADF84C30BDF84C302380EB
:105340007423ADF84C30BDF84C30ADF84C30BDF89E
:105350004C302380ADF84C10BDF84C30ADF84C30DB
:10536000BDF84C3023808423ADF84C30BDF84C3070
:10537000ADF84C30BDF84C302380ADF84C10BDF882
:105380004C30ADF84C30BDF84C3023809323ADF851
:105390004C30BDF84C30ADF84C30BDF84C3023806B
:1053A000ADF84C10BDF84C30ADF84C30BDF84C3079
:1053B0002380A223ADF84C30BDF84C30ADF84C3012
:1053C000BDF84C302380ADF84C10BDF84C30ADF832
:1053D0004C30BDF84C3023804FF0B309ADF84C9001
:1053E000BDF84C30ADF84C30BDF84C302380ADF8F2
:1053F0004C10BDF84C30ADF84C30BDF84C3023802B
:10540000BE23ADF84C30BDF84CC0ADF84CC0BDF873
:105410004CC0A4F800C0ADF84C10BDF84CC0ADF8BD
:105420004CC0BDF84CC0A4F800C04FF0C40EADF89D
:105430004CE0BDF84CC0ADF84CC0BDF84CC0A4F871
:1054400000C0ADF84C10BDF84CC0ADF84CC0BDF874
:105450004CC0A4F800C04FF0CD0CADF84CC0BDF866
:105460004CC0ADF84CC0BDF84CC0A4F800C0ADF8BD
:105470004C10BDF84CC0ADF84CC0BDF84CC0A4F801
:1054800000C04FF0D30CADF84CC0BDF84CC0ADF827
:105490004CC0BDF84CC0A4F800C0ADF84C10BDF82D
:1054A0004CC0ADF84CC0BDF84CC0A4F800C04FF0E3
:1054B000DD0CADF84CC0BDF84CC0ADF84CC0BDF82B
:1054C0004CC0A4F800C0ADF84C10BDF84CC0ADF80D
:1054D0004CC0BDF84CC0A4F800C0ADF84C20BDF8DD
:1054E0004CC0ADF84CC0BDF84CC0A4F800C0ADF83D
:1054F0004C10BDF84CC0ADF84CC0BDF84CC0A4F881
:1055000000C04FF0E50CADF84CC0BDF84CC0ADF894
:105510004CC0BDF84CC0A5F800C0ADF84C10BDF8AB
:105520004CC0ADF84CC0BDF84CC0A4F800C0ADF8FC
:105530004C10BDF84CC0ADF84CC0BDF84CC0A4F840
:1055400000C0ADF84C10BDF84CC0ADF84CC0BDF873
:105550004CC0A4F800C0ADF84C10BDF84CC0ADF87C
:105560004CC0BDF84CC0A4F800C0ADF84C60BDF80C
:105570004CC0ADF84CC0BDF84CC0A4F800C0ADF8AC
:105580004C10BDF84CC0ADF84CC0BDF84CC0A4F8F0
:1055900000C04FF0290CADF84CC0BDF84CC0ADF8C0
:1055A0004CC0BDF84CC0A4F800C0ADF84C10BDF81C
:1055B0004CC0ADF84CC0BDF84CC0A4F800C04FF0D2
:1055C0003C0CADF84CC0BDF84CC0ADF84CC0BDF8BB
:1055D0004CC0A4F800C0ADF84C10BDF84CC0ADF8FC
:1055E0004CC0BDF84CC0A4F800C04FF04B0CADF857
:1055F0004CC0BDF84CC0ADF84CC0BDF84CC0A4F8D0
:1056000000C0ADF84C10BDF84CC0ADF84CC0BDF8B2
:105610004CC0A4F800C0ADF84CA0BDF84CC0ADF82B
:105620004CC0BDF84CC0A4F800C0ADF84C10BDF89B
:105630004CC0ADF84CC0BDF84CC0A4F800C04FF051
:10564000740CADF84CC0BDF84CC0ADF84CC0BDF802
:105650004CC0A4F800C0ADF84C10BDF84CC0ADF87B
:105660004CC0BDF84CC0A4F800C04FF0840CADF89D
:105670004CC0BDF84CC0ADF84CC0BDF84CC0A4F84F
:1056800000C0ADF84C10BDF84CC0ADF84CC0BDF832
:105690004CC0A4F800C04FF0930CADF84CC0BDF85E
:1056A0004CC0ADF84CC0BDF84CC0A4F800C0ADF87B
:1056B0004C10BDF84CC0ADF84CC0BDF84CC0A4F8BF
:1056C00000C04FF0A20CADF84CC0BDF84CC0ADF816
:1056D0004CC0BDF84CC0A4F800C0ADF84C10BDF8EB
:1056E0004CC0ADF84CC0BDF84CC0A4F800C0ADF83B
:1056F0004C90BDF84CC0ADF84CC0BDF84CC0A4F8FF
:1057000000C0ADF84C10BDF84CC0ADF84CC0BDF8B1
:105710004CC0A4F800C0ADF84C30BDF84C30ADF82A
:105720004C30BDF84C302380ADF84C10BDF84C30F7
:10573000ADF84C30BDF84C302380ADF84CE0BDF8EE
:105740004C30ADF84C30BDF84C302380ADF84C10E7
:10575000BDF84C30ADF84C30BDF84C302380CD2333
:10576000ADF84C30BDF84C30ADF84C30BDF84C3095
:105770002380ADF84C10BDF84C30ADF84C30BDF87E
:105780004C302380D323ADF84C30BDF84C30ADF80D
:105790004C30BDF84C302380ADF84C10BDF84C3087
:1057A000ADF84C30BDF84C302380DC23ADF84C30E4
:1057B000BDF84C30ADF84C30BDF84C302380ADF81E
:1057C0004C10BDF84C30ADF84C30BDF84C30238057
:1057D000ADF84C20BDF84C20ADF84C20BDF84C2065
:1057E0002280ADF84C10BDF84C20ADF84C20BDF82F
:1057F0004C202280E622ADF84C20BDF84C20ADF8BC
:105800004C20BDF84C202A801122ADF84C20BDF868
:105810004C20ADF84C20BDF84C202280ADF84C1047
:10582000BDF84C20ADF84C20BDF84C20228034222D
:10583000ADF84C20BDF84C20ADF84C20BDF84C2004
:105840002280ADF84C10BDF84C20ADF84C20BDF8CE
:105850004C2022805622ADF84C20BDF84C20ADF8EB
:105860004C20BDF84C202280ADF84C10BDF84C20E7
:10587000ADF84C20BDF84C2022804FF0760EADF8EC
:105880004CE0BDF84C20ADF84C20BDF84C202280F7
:10589000ADF84C10BDF84C20ADF84C20BDF84C20B4
:1058A00022804FF07709ADF84C90BDF84C20ADF850
:1058B0004C20BDF84C202280ADF84C10BDF84C2097
:1058C000ADF84C20BDF84C2022806622ADF84C206B
:1058D000BDF84C30ADF84C30BDF84C302380ADF8FD
:1058E0004C10BDF84C30ADF84C30BDF84C30238036
:1058F0008823ADF84C30BDF84C30ADF84C30BDF8D5
:105900004C302380ADF84C10BDF84C30ADF84C3025
:10591000BDF84C3023809923ADF84C30BDF84CC015
:10592000ADF84CC0BDF84CC0A4F800C0ADF84C10A8
:10593000BDF84CC0ADF84CC0BDF84CC0A4F800C0D8
:105940004FF0BB0CADF84CC0BDF84C60ADF84C60EE
:10595000BDF84C602680ADF84C10BDF84C60ADF839
:105960004C60BDF84C6026809926ADF84C60BDF8BF
:105970004C60ADF84C60BDF84C602680ADF84C1022
:10598000BDF84C60ADF84C60BDF84C602680ADF8B9
:105990004C20BDF84C60ADF84C60BDF84C602680E2
:1059A000ADF84C10BDF84C60ADF84C60BDF84C60E3
:1059B0002680ADF84CB0BDF84C60ADF84C60BDF839
:1059C0004C602680ADF84C10BDF84C60ADF84C60D2
:1059D000BDF84C602680ADF84CB0BDF84C60ADF819
:1059E0004C60BDF84C602680ADF84C10BDF84C60A2
:1059F000ADF84C60BDF84C6026804526ADF84C6093
:105A0000BDF84C60ADF84C60BDF84C602680ADF838
:105A10004C10BDF84C60ADF84C60BDF84C60268071
:105A20004326ADF84C60BDF84C60ADF84C60BDF855
:105A30004C602680ADF84C10BDF84C60ADF84C6061
:105A4000BDF84C602680ADF84C00BDF84C60ADF858
:105A50004C60BDF84C602680ADF84C10BDF84C6031
:105A6000ADF84C60BDF84C602680E726ADF84C6080
:105A7000BDF84C60ADF84C60BDF84CA0A5F800A096
:105A80004FF0320AADF84CA0BDF84CA0ADF84CA0D8
:105A9000BDF84CA0A4F800A0ADF84C10BDF84CA087
:105AA000ADF84CA0BDF84CA0A4F800A0ADF84CB0E7
:105AB000BDF84CA0ADF84CA0BDF84CA0A4F800A0D7
:105AC000ADF84C10BDF84CA0ADF84CA0BDF84CA002
:105AD000A4F800A0ADF84CE0BDF84CA0ADF84CA087
