:020000040800F2
:10000000600B0220A1020008FF1F0008AF1F0008BC
:10001000FD1F000855050008B12C00080000000075
:1000200000000000000000000000000003200008A5
:10003000E105000800000000012000080921000877
:10004000BB020008BB020008BB020008BB0200089C
:10005000BB020008BB020008E3050008BB02000861
:10006000F1050008F7050008BB020008BB02000804
:10007000BB020008BB020008BB020008BB0200086C
:10008000BB020008BB020008BB020008BB0200085C
:10009000BB020008BB020008BB020008BB0200084C
:1000A000BB020008B1210008BB020008BB02000827
:1000B000BB020008BB020008BB020008BB0200082C
:1000C000BB020008BB020008BB020008BB0200081C
:1000D000BB020008F92B0008552C0008BB020008E1
:1000E000E9050008BB020008BB020008BB020008CB
:1000F000BB020008BB020008BB020008BB020008EC
:10010000BB020008BB020008BB020008BB020008DB
:10011000BB020008BB020008BB020008BB020008CB
:10012000BB020008BB020008BB020008BB020008BB
:10013000BB020008BB020008BB020008BB020008AB
:10014000BB020008BB020008BB020008BB0200089B
:10015000BB020008BB020008BB020008BB0200088B
:10016000BB020008BB020008BB020008BB0200087B
:10017000BB020008BB020008BB0200080000000030
:10018000BB020008BB020008BB020008BB0200085B
:10019000BB020008BB020008BB020008BB0200084B
:1001A000BB020008BB020008BB020008BB0200083B
:1001B000BB020008BB020008BB020008BB0200082B
:1001C000BB020008BB02000800000000BB020008E0
:1001D000BB020008BB020008BB020008BB0200080B
:1001E000BB020008BB020008BB020008BB020008FB
:1001F000BB020008BB02000800F002F800F041F862
:100200000AA090E8000C82448344AAF10107DA4571
:1002100001D100F036F8AFF2090EBAE80F0013F082
:10022000010F18BFFB1A43F001031847802C000090
:10023000A02C0000103A24BF78C878C1FAD8520721
:1002400024BF30C830C144BF04680C607047000050
:100250000023002400250026103A28BF78C1FBD8CF
:10026000520728BF30C148BF0B607047642900F0B7
:100270007980002070471FB502F006FE1FBD10B543
:1002800010BD00F037F91146FFF7F5FF02F058FDF9
:1002900000F055F903B4FFF7F2FF03BC02F009FDCB
:1002A0000948804709480047FEE7FEE7FEE7FEE70A
:1002B000FEE7FEE7FEE7FEE7FEE7FEE70448054946
:1002C000054A064B704700000D210008F90100089F
:1002D00060050220600B02206007022060070220F8
:1002E000704700000FB4044910B503AA029800F04B
:1002F000D3F810BC5DF814FB100002202DE9F0418A
:100300000E460446002020622046E168884730B34C
:10031000252805D0D4E901219047206A401CF2E746
:10032000E168204600278847050018D0A5F1410064
:10033000192802D820354FF4006732462946204656
:100340002760FFF793FF40B1012804D0F61D26F087
:1003500007060836D8E7361DD6E72846DAE7206ACA
:10036000BDE8F0812DE9F0410646002410687529AA
:10037000314616A510D0AFF30080002802DA4042C3
:1003800013A507E031688A0701D512A502E04907E5
:1003900004D511A5012401E0AFF3008000210A2259
:1003A00006F1240709E0B0FBF2FCB0FBF2F302FB1C
:1003B0001C00303078541846491C0028F3D12346DD
:1003C0002A463046BDE8F04100F00CB800000000BD
:1003D0002D0000002B000000200000007047704737
:1003E000704770472DE9F0470D46994692460446FE
:1003F00000F124080168880604D5E06921F01001A5
:10040000216000E00120A84201DD471B00E0002739
:10041000A1697A1902EB0900081AA0612078C006C8
:1004200002D42046AFF30080002608E0D4E9012181
:100430001AF806009047206A401C761C20624E4540
:10044000F4DB2078C0060AD52046AFF3008006E032
:10045000D4E9012130209047206A401C2062381ED8
:10046000A7F10107F4DC07E0D4E9012118F8050041
:100470009047206A401C2062281EA5F10105F3DC8C
:100480002046AFF300802078000602D50220BDE8A8
:10049000F0870120FBE70000074B70B50D467B4459
:1004A00000F011F80446284600F020F810B14FF093
:1004B000FF3070BD204670BD7328000001694A1CE2
:1004C00002610878704700B58FB0CDE90131002195
:1004D000059105497944CDE9031011466846FFF7B7
:1004E0000DFF0FB000BD0000E5FFFFFF007B00F037
:1004F00080007047754600F029F8AE460500694651
:10050000534620F00700854618B020B5FFF7D6FE09
:10051000BDE820404FF000064FF000074FF0000804
:100520004FF0000B21F00701AC46ACE8C009ACE885
:10053000C009ACE8C009ACE8C0098D467047044664
:10054000AFF300802046FFF7A5FE0000004870478B
:1005500000050220FEE7000070B4BFF34F8FBFF329
:100560006F8F1A4900200860194D296841F4003145
:100570002960BFF34F8FBFF36F8F16490860BFF339
:100580004F8F081F006843F6FF76134AC0F34E3CB6
:10059000C0F3C90406EA4C11204641EA8073136097
:1005A000401EFAD2BCF1010CF4D2BFF34F8F286881
:1005B00040F480302860BFF34F8FBFF36F8F074840
:1005C000016841F00401016070BC704750EF00E029
:1005D00014ED00E084ED00E060EF00E09CEF00E04F
:1005E0007047012000F030B94FF4005000F02CB9F2
:1005F000042000F029B9082000F026B92A4810B5D7
:1006000086B0016841F001010160016801F001015B
:100610000591016841F004010160016801F00401E5
:100620000591016841F0800101600068012469467C
:1006300000F0800005901D48CDE9004002200290A6
:100640001B4800F00DF9600300901A486946CDE997
:100650000104194800F004F90C200090174869467D
:1006600000F0FEF800220221062000F05DFA0620CC
:1006700000F04DFA01220221082000F055FA08206E
:1006800000F045FA02220920114600F04DFA092037
:1006900000F03DFA03220221282000F045FA28202C
:1006A00000F035FA06B010BD3038024000001110DD
:1006B000000002400000211000080240001C02401F
:1006C00090F83510022903D0802141650120704740
:1006D000052180F835100068016821F001010160F2
:1006E000002070472DE9F041002604463220B04634
:1006F00002F0EAFA454D0027012C21D04448042C91
:10070000444E3CD0082C56D0B4F5005F18BFBDE86D
:10071000F0814FF40051404800F0BAF9002818BFAA
:10072000BDE8F081A878002814BF00200120A8703F
:10073000002861D001223046022100F0AEF960E0CD
:100740003648012100F0A4F9012818BFBDE8F08166
:1007500028780A283ABF401C28702F70287800EBB0
:10076000800006EB4004204601F092FF204601F095
:10077000A1FF2146BDE8F04129A0FFF7B3BD042148
:1007800000F086F9002818BFBDE8F081E87800285D
:1007900014BF00200120E87030B13046BDE8F041C0
:1007A0000122114600F079B93046BDE8F04100223F
:1007B000012100F072B9082100F06AF9002818BF81
:1007C000BDE8F08168780A283ABF401C68706F70F5
:1007D000687800EB800008EB4004204601F07CFFC5
:1007E000204601F08BFF204601F09AFF2146BDE82C
:1007F000F04110A0FFF776BD00223046022100F044
:100800004CF9BDE8F041142001F0FCBB18000220B7
:10081000001C0240000402400008024000000240A8
:1008200076616C206F66206A6F696E7431323A208F
:100830002564000076616C206F66206A6F696E74B3
:100840003334353A2025640004490A68024208BF5F
:10085000704710B50860FFF745FF10BD143C01401C
:100860002DE9F84FDFF81C920022DFF814820F27E1
:1008700009F1040A4FF0010E0B680EFA02F52B4045
:10088000AB4240F0F780D1F804C0BCF1020F18BFB2
:10089000BCF1120F12D14FEAD20C00EB8C0CDCF839
:1008A00020605407E40E07FA04FB26EA0B06D1F891
:1008B00010B00BFA04F43443CCF8204006684FEA39
:1008C000420C91F804B003240BF0030B04FA0CF46F
:1008D000A6430BFA0CFB4BEA060606604E68012E97
:1008E00018BF022E03D0112E18BF122E11D1866808
:1008F000D1F80CB0A6430BFA0CFB4BEA0606866057
:10090000466826EA05050E79C6F30016964035437B
:100910004560C56825EA04048D6805FA0CFC4CEABC
:10092000040CC0F80CC0D1F804C01CF0805F7CD06F
:10093000D8F800C04CF4804CC8F800C0D8F800C00B
:100940000CF4804CCDF800C022F0030C0CF1804573
:1009500005F59835D5F808C89407240F07FA04F66A
:100960002CEA0606A0F1804CBCF5003C48D0A0F172
:10097000804CBCF5013C08BF4FF0010C40D0A0F109
:10098000804CBCF5023C08BF4FF0020C38D0A0F1FF
:10099000804CBCF5033C08BF4FF0030C30D0A0F1F5
:1009A000804CBCF5043C08BF4FF0040C28D0A0F1EB
:1009B000804CBCF5053C08BF4FF0050C20D0A0F1E1
:1009C000804CBCF5063C08BF4FF0060C18D0A0F1D7
:1009D000804CBCF5073C08BF4FF0070C10D0A0F1CD
:1009E000804CBCF5083C08BF4FF0080C08D0A0F1C3
:1009F000804CBCF5093C0CBF4FF0090C4FF00A0CC1
:100A00000CFA04FC4CEA060CC5F808C8D9F800C07A
:100A10004C682CEA030C14F4803F18BF4CEA030C1A
:100A2000C9F800C0DAF800C000E023E04C682CEA06
:100A3000030C14F4003F18BF4CEA030CCAF800C0C2
:100A4000114CD4F800C04D682CEA030C15F4801F3B
:100A500018BF4CEA030CC4F800C00C4CD4F800C01A
:100A60004D682CEA030C15F4001F18BF4CEA030C68
:100A7000C4F800C0521C102AFFF4FEAEBDE8F88F87
:100A800044380240003C0140083C01400C3C01401D
:100A90000069084018BF01207047002A08BF0904F8
:100AA000816170470148006870470000040002201F
:100AB00002480168491C01607047000004000220E0
:100AC000074810B5016841F400710160052000F08D
:100AD0005DF80F2000F006F800F018F8002010BDB7
:100AE000003C024010B5044607484FF47A72006893
:100AF000B0FBF2F000F0C6FB00222146501E00F0D1
:100B000013F8002010BD00000000022070470122F1
:100B100000F01F0102FA01F14009800000F1E0201D
:100B2000C0F8001170470000174B4DF8044D1B68CA
:100B3000C3F30223C3F1070CBCF1040F88BF4FF0CD
:100B4000040C1C1D072C34BF0023DB1E012404FAF7
:100B50000CFCACF1010C0CEA0101994004FA03F31E
:100B60005B1E1A40114300284FEA0111B8BF00F084
:100B70000F0000F1E020B4BF80F8141D80F80014CD
:100B80005DF8044B704700000CED00E0074A00F0F0
:100B9000070011684FF6FF03194041EA002040F0BA
:100BA000FD7040F080601060704700000CED00E0C8
:100BB0001C4838B5016841F08051016000681A4C4A
:100BC00000F080500090206840F480302060FFF7F3
:100BD00069FF0546606810F4803F09D1FFF762FFA6
:100BE000401BB0F57A7F14D8606810F4803FF5D0D0
:100BF000206840F400302060FFF754FF054660682D
:100C000010F4003F0BD1FFF74DFF401BB0F57A7F8A
:100C100001D9032038BD606810F4003FF3D00020F4
:100C200038BD000040380240007000402DE9F04718
:100C3000DFF8688104460D46D8F8000000F00F0088
:100C4000A8420CD2D8F8000020F00F002843C8F8C2
:100C50000000D8F8000000F00F00A84270D1207802
:100C60004F4F10F0020F05D03868A16820F0F00057
:100C700008433860207810F0010F4ED06068494971
:100C8000012820D00968022822D011F0020F57D085
:100C9000396821F0030108433860FFF703FF064677
:100CA000606841F28839012816D00228386800F0BF
:100CB0000C0021D0F8B1FFF7F5FE801B484528D97C
:100CC0000320BDE8F087096811F4003FE0D137E068
:100CD00011F0007FDCD133E0386800F00C0004280C
:100CE0001BD0FFF7DFFE801B4845E9D8386800F0CD
:100CF0000C000428F5D110E008280ED0FFF7D2FE32
:100D0000801B4845DCD8386800F00C000828F5D175
:100D100003E0386810F00C0FCDD1D8F8000000F0D7
:100D20000F00A8420FD9D8F8000020F00F00284388
:100D3000C8F80000D8F8000000F00F00A84202D068
:100D40000120BDE8F087207810F0040F05D0386846
:100D5000E16820F4E05008433860207810F0080F74
:100D600006D03868216920F4604040EAC10038604C
:100D700000F04EF83968F02292FAA2F201F0F00188
:100D8000B2FA82F2D140084A515CC8400749086073
:100D90000F20FFF7A7FE0020BDE8F087003C0240CF
:100DA0000838024000380240922E0008000002205D
:100DB00008480949006809684FF4E05292FAA2F223
:100DC00001F4E051B2FA82F2D140044A515CC840C9
:100DD000704700000000022008380240A22E0008E0
:100DE00008480949006809684FF4604292FAA2F283
:100DF00001F46041B2FA82F2D140044A515CC84029
:100E0000704700000000022008380240A22E0008AF
:100E10002148006810F00C01204808BF7047DFF837
:100E200080C0042904BF60467047082918BF704776
:100E30004DF8044D1B4A1168136801F03F0113F48B
:100E4000800F47F6C0730BD0BCFBF1F0116819405E
:100E500093FAA3F3B3FA83F3D94000FB01F00AE05D
:100E6000B0FBF1F01168194093FAA3F3B3FA83F3DE
:100E7000D94000FB01F011684FF440325DF8044B9B
:100E800092FAA2F201F44031B2FA82F2D140491C46
:100E90004900B0FBF1F07047083802400024F4002C
:100EA00040787D01043802402DE9F84FDFF8A8832F
:100EB00004460078A8F1040710F0010FA7F104051B
:100EC0005AD0D8F8000000F00C00042809D0D8F857
:100ED000000000F00C0008280CD1386810F4800FD6
:100EE00008D0286810F4003F46D06068002800F061
:100EF000AF8141E06068B0F5803F04BF286840F4EE
:100F000080300AD010B1B0F5A02F11D0286820F49D
:100F100080302860286820F4802028606068D0B184
:100F2000FFF7C0FD0646286810F4003F08D023E014
:100F3000286840F480202860286840F48030ECE77E
:100F4000FFF7B0FD801B642800F22581286810F4AB
:100F5000003FF5D010E0FFF7A5FD0646286810F425
:100F6000003F09D0FFF79EFD801B642800F213812B
:100F7000286810F4003FF5D1207810F0020F50D00F
:100F8000D8F800004FF0F80910F00C0F18D0D8F87E
:100F9000000000F00C00082804BF386810F4800F2F
:100FA0000ED0E0680028286828D040F001002860B2
:100FB000FFF778FD0646286810F0020F09D011E00F
:100FC000286810F0020F1CBFE06801280AD000F06A
:100FD0003FB9FFF767FD801B02287DD8286810F015
:100FE000020FF6D0286899FAA9F22169B2FA82F2C2
:100FF00020F0F80091400843286012E020F0010042
:101000002860FFF74FFD0646286810F0020F08D051
:10101000FFF748FD801B02285ED8286810F0020FF9
:10102000F6D1207810F0080F33D0DFF830926069E5
:101030000028D9F8000016D040F00100C9F80000DF
:10104000FFF730FD0646D9F8000010F0020F20D15E
:10105000FFF728FD801B02283ED8D9F8000010F0C9
:10106000020FF5D015E020F00100C9F80000FFF7ED
:1010700019FD0646D9F8000010F0020F09D0FFF75D
:1010800011FD801B022827D8D9F8000010F0020FAC
:10109000F5D1207810F0040F63D07148016841F059
:1010A0008051016000686F4E00F080500090306801
:1010B00040F480703060FFF7F5FC8146306810F432
:1010C000807F0BD1FFF7EEFCA0EB0900642862D80B
:1010D000306810F4807F00E05DE0F3D0A068624EDD
:1010E000012804BF306840F0010009D008B105288C
:1010F00013D0306820F001003060306820F0040028
:101100003060A06841F2883AD0B1FFF7CBFC81464D
:10111000306810F0020F08D023E0306840F004007F
:101120003060306840F00100EAE7FFF7BBFCA0EB5D
:10113000090050452FD8306810F0020FF5D010E0AC
:10114000FFF7B0FC8146306810F0020F09D0FFF7BE
:10115000A9FCA0EB090050451DD8306810F0020F23
:10116000F5D1A069E8B3D8F8001001F00C01082906
:101170006ED00228286820F0807028600ED0FFF71B
:1011800091FC0446286810F0007F5ED0FFF78AFCCF
:10119000001B022855D90320BDE8F88FFFF782FC19
:1011A0000646286810F0007F08D0FFF77BFC801B04
:1011B0000228F0D8286810F0007FF6D1D4E90701A2
:1011C00047F6C0724FF0FF3392FAA2F20843616A09
:1011D000B2FA82F29140A26A03EB52024FF440331A
:1011E00000E032E093FAA3F3B3FA83F39A40114399
:1011F0004FF070620843E16A92FAA2F2B2FA82F208
:1012000091404FF0E0420843216B92FAA2F2B2FA09
:1012100082F2914008433860286840F0807028606E
:10122000FFF740FC0446286810F0007F0DD1FFF75F
:1012300039FC001B0228AED8286810F0007FF6D0D9
:1012400003E0286810F0007FA0D10020BDE8F88FEF
:101250000120BDE8F88F00000838024074380240D1
:101260004038024000700040703802404FF0E021EA
:10127000042808690CBF40F0040020F00400086155
:1012800070470000401EB0F1807F24BF01207047EE
:101290004FF0E0214861F020044A82F8140D00204C
:1012A0008861072008610020704700000FE000E01F
:1012B00070477047002804BF0120704770B504468E
:1012C00090F839000D4628B9002084F838002046EF
:1012D00000F048F8022084F839002068816821F085
:1012E000070121F4803181602068211D01F08EF812
:1012F000206883688169026AD5F800C021F0030183
:10130000AE6921F440714CEA0303D5F808C022F01D
:10131000AA0241EA0621EE694CEA0101D5F80CC0A7
:1013200021F0FC0121F47C4141EA06212E6A4CEABD
:101330000101D5F810C04FEA0C1C4CEA063C4CEAFF
:101340000101D5F804C06D69836042EA05124CEAD8
:1013500002022068816120680262012084F839005D
:10136000002070BD70B5016802235D4A03245D4D05
:10137000A1F18040B0F580304FF0010C86B02DD047
:101380005948B1F1804F594E60D0B1EBF54540D08E
:1013900015F580657DD0B5F500651CBF06B070BD44
:1013A000016841F008010160006800F00800059044
:1013B000106840F08000106010686946CDF808C0E1
:1013C00000F0800005904FF44060CDE900034848EC
:1013D000CDE90343FFF744FA06B070BD4548016804
:1013E00041F001010160006800F001000590106803
:1013F00040F0010010601068694600F0010005909F
:101400004FF440700090CDE9013CCDE9034C2846F3
:1014100045E0016841F004010160006800F004004B
:101420000590106840F00200106010686946CDF821
:1014300008C000F002000590C020CDE90003CDE90E
:1014400003433046FFF70CFA06B070BD016841F067
:1014500001010160006800F001000590106840F093
:1014600001001060106800F001000590106840F065
:10147000020010601068694600F002000590082024
:101480000090CDE9013CCDE9034C3046FFF7E8F987
:1014900000E008E04FF40040694600902846FFF75E
:1014A000DFF906B070BD016841F00201016000681B
:1014B00000F002000590106840F002001060106813
:1014C0006946CDF808C000F0020005903020CDE953
:1014D0000003CDE903433046FFF7C2F906B070BD03
:1014E0003038024000000240403802400004024010
:1014F000001C02404438024010B504460068002930
:1015000008BF012212D004294FF001020ED00021A1
:1015100000F0DEFF20680122042100F0D9FF2068DE
:10152000016841F001010160002010BD00F0D0FF12
:10153000F5E7704770B50446006801694FF0000593
:1015400011F0020F1CBFC16811F0020F13D06FF031
:1015500002010161012020762068806910F0030FEC
:10156000204602D0FFF7E5FF04E000F0A6F8204691
:1015700000F02AFA25762068016911F0040F1CBFDB
:10158000C16811F0040F13D06FF004010161022053
:1015900020762068806910F4407F204602D0FFF753
:1015A000C8FF04E000F089F8204600F00DFA257627
:1015B0002068016911F0080F1CBFC16811F0080F05
:1015C00013D06FF008010161042020762068C06903
:1015D00010F0030F204602D0FFF7ABFF04E000F04D
:1015E0006CF8204600F0F0F925762068016911F0CA
:1015F000100F1CBFC16811F0100F13D06FF0100155
:101600000161082020762068C06910F4407F2046E0
:1016100002D0FFF78EFF04E000F04FF8204600F004
:10162000D3F925762068016911F0010F1CBFC1684C
:1016300011F0010F05D06FF001010161204600F0AB
:101640005BFA206801696FF0800511F0800F1CBF04
:10165000C16811F0800F03D005612046FFF728FE16
:101660002068016911F4807F1CBFC16811F0800FF0
:1016700003D005612046FFF71BFE2068016911F0C9
:10168000400F1CBFC16811F0400F05D06FF0400142
:101690000161204600F056FA2068016911F0200F20
:1016A0001ABFC16811F0200F70BD6FF020010161F9
:1016B0002046BDE87040FFF7FCBD70472DE9F041C2
:1016C000044690F838000D4601280DBF022001267F
:1016D00084F83860BDE8F081022084F839000C2AD3
:1016E00047D006DC6AB1042A1DD0082A2FD000F0AA
:1016F000BFB8DFF88CC1102A624F4ED0142A7DD0BB
:10170000B6E0206800F0F1FE2068816941F0080130
:1017100081612068816921F004018161206881690B
:101720002A69114311E0206800F013FF20688169E5
:1017300041F4006181612068816921F480618161E7
:10174000206881692A6941EA0221816190E020686C
:1017500000F037FF2068C16941F00801C1612068CD
:10176000C16921F00401C1612068C1692A6911437E
:1017700011E0206800F05DFF2068C16941F400615C
:10178000C1612068C16921F48061C1612068C169BB
:101790002A6941EA0221C1616AE02068016A21F4F4
:1017A00080310162036A4168426D23F40033D5F849
:1017B0000080604522F0700222F4803248EA020282
:1017C000B5F8088043EA084318BFB84205D1D5F8F8
:1017D00014C021F4803141EA0C21416042656968FE
:1017E000816503622068416D41F008014165206810
:1017F000416D21F004014165206800E003E0416D86
:101800002A69114333E02068016A21F480110162E2
:10181000036A4168426D23F40013D5F800806045E7
:1018200022F4E04222F0807242EA0822B5F80880F1
:1018300043EA085318BFB84205D1D5F814C021F4C3
:10184000802141EA8C21416042656968C16503627B
:101850002068416D41F4006141652068416D21F4CB
:10186000806141652068416D2A6941EA0221416534
:1018700084F83960002084F83800BDE8F081000069
:101880000000014000040140002804BF012070470F
:1018900010B5044690F8390028B9002084F83800C3
:1018A000204600F00DF8022084F839002068211D40
:1018B00000F0ACFD012084F83900002010BD0000CC
:1018C00070B5016802253C4B0126A1F18042044617
:1018D0003848B2F5823286B04FF0030C31D0B2F501
:1018E000705249D0B2F580621CBF06B070BD01686D
:1018F00041F400310160006800F400300590186880
:1019000040F02000186018686946CDE9025C00F0DC
:10191000200005904020CDF810C0CDE900052748F3
:10192000FEF79EFF032219201146FFF7FDF819204C
:10193000FFF7EDF82068C16841F00101C16006B011
:1019400070BD016841F002010160006800F0020012
:101950000590186840F00400186018686946CDE9E1
:10196000026C00F0040005904FF47070CDF810C0C8
:10197000CDE90005124818E0016841F480310160AA
:10198000006800F480300590186840F0100018607E
:1019900018686946CDE9026C00F01000059020201F
:1019A000CDF810C0CDE900050648FEF759FF06B096
:1019B00070BD00004438024030380240001402403C
:1019C0000008024000100240704710B50122044692
:1019D000006800F07DFD2168A1F18040B0F5803005
:1019E0001CBFA1F18040B0F5823003D1486C40F4B7
:1019F000004048642068016841F001010160002056
:101A000010BD10B502680029044604BFD06840F03C
:101A1000020011D0042904BFD06840F004000BD0AC
:101A2000082904BFD06840F0080005D00C2904BF85
:101A3000D06840F0100000D1D0600122206800F092
:101A400047FD2068A0F18041B1F580311CBFA0F1B5
:101A50008041B1F5823103D1416C41F400414164D0
:101A60002068016841F001010160002010BD10B53F
:101A700002680029044604BFD06820F0020011D09B
:101A8000042904BFD06820F004000BD0082904BF4B
:101A9000D06820F0080005D00C2904BFD06820F0E1
:101AA000100000D1D0600022206800F011FD2168F4
:101AB00041F211139A10A1F18040B0F580301CBFA3
:101AC000A1F18040B0F5823009D1086A184204BF04
:101AD000086A104203D1486C20F400404864206832
:101AE000016A194204BF016A114203D1016821F061
:101AF00001010160002010BD0D49884218BF7047E8
:101B000010B50C4C0CA062882188FEF7EBFB6088B6
:101B1000401C80B260802188884298BF10BD00219F
:101B20000348FFF7A4FF00206080208010BD000064
:101B3000A80402201400022025642020202025640F
:101B40000A0000007047704790F8691090F86A002A
:101B50000843704770B501680446C8690A688B6815
:101B600010F00F0F4FF0200551D040F2011C13EA86
:101B70000C0F7DD010F0010F18BF12F4807F07D03A
:101B80004FF0010CC1F820C0E16E41F00101E166A7
:101B900010F0020F18BF13F0010F08D0D4F800C0E6
:101BA0000221CCF82010E16E41F00401E16610F052
:101BB000040F18BF13F0010F08D0D4F800C004219F
:101BC000CCF82010E16E41F00201E16610F0080F40
:101BD0000CD002F0200103F00103194306D0236862
:101BE00008211962E16E41F00801E166E16E002909
:101BF00008BF70BD10F0200F1EBF12F0200F20464E
:101C000000F03BFEE06E10F0080F10D10AE010F07B
:101C1000200F18BF12F0200F39D02046BDE87040C9
:101C200000F02BBE2068806810F0400F29D020689B
:101C3000016821F4907101602068816821F0010140
:101C4000816084F86A502068816811F0400F14D0D8
:101C5000816821F040018160606E70B12D4901659D
:101C6000606EFEF72DFD002808BF70BD606E00E0BD
:101C70000DE0016DBDE8704008472046FFF763FFA7
:101C800070BD2046FFF75FFF0020E06670BD10F0DA
:101C9000800F18BF12F0800F2CD094F86900212813
:101CA00018BF70BDB4F8520090B1A068B0F5805F65
:101CB00004BF20690028E06C14D0411CE164216855
:101CC00000788862B4F85200401EA4F8520070BD3B
:101CD000086820F0800008602068016841F0400139
:101CE000016070BD0088C0F308008862E06C801C51
:101CF000E064E7E710F0400F14BF12F0400F70BD32
:101D000020460A6822F040020A6084F8695000F018
:101D10004DF970BD67280008002804BF01207047F6
:101D200010B5044690F8690028B9002084F86800CE
:101D3000204600F029F8242084F869002068016812
:101D400021F001010160204600F0D6FD012808BF06
:101D500010BD606A00281CBF204600F0E7FC206828
:101D6000416821F4904141602068816821F02A0196
:101D700081602068016841F0010101602046BDE8F2
:101D8000104000F040BD000030B501680223304A29
:101D900007243048A1F18045B5F588354FF0010C96
:101DA00087B029D015F54C451CBF07B030BD116870
:101DB00041F001011160116801F00101059126490E
:101DC0000A6842F400320A600968CDF808C001F4DC
:101DD000003105910C21CDE90013CDE903346946AA
:101DE000FEF73EFD2620FEF792FE0322022126206A
:101DF000FEF79AFE07B030BD116841F00101116095
:101E0000116801F00101059114490A6842F01002BD
:101E10000A600968CDF808C001F0100105914FF47F
:101E20000071CDE90013CDE9033469460446FEF79D
:101E300017FD4FF48061204600916946FEF710FDC2
:101E40002520FEF764FE032225201146D0E700007E
:101E5000303802400000024040380240443802401E
:101E600090F86A30202B49D1002912BF002A0120A6
:101E7000704790F86830012B40D0012380F868301B
:101E80004165A0F85820A0F85A20FF228168B1F5DA
:101E9000805F05D07F2351B1B1F1805F0CD012E09B
:101EA0000169002908BF40F2FF1102D109E0016970
:101EB00009BBA0F85C2006E00169002918BF3F219A
:101EC00019D0A0F85C100021C166222280F86A2097
:101ED00080F8681001680A6842F480720A6001683C
:101EE0008A6842F001028A600068016841F02001BE
:101EF000016000207047A0F85C30E4E702207047E2
:101F00002DE9F003284E00270568DFF89890A5F129
:101F100080487088411C8AB23146B8F5883840F450
:101F20000044097840F4804CC0F30D030DD018F53F
:101F30004C480EBF10F4004FBDE8F003704710F49A
:101F4000804F25D00A290FD00AE010F4004F1CBFA3
:101F5000BDE8F003704710F4804F09D00A2903D080
:101F60007780BDE8F00370477480BDE8F0037047E8
:101F70000D2908D009F80310C72A72809CBFBDE85C
:101F8000F0037047ECE7A6F802C0BDE8F003704725
:101F90000D29F8D009F80310C72A7280E0D8BDE8EF
:101FA000F00370471C0002200C0002207047FEE77F
:101FB000104810B586B0016841F002010160006868
:101FC00001210D4C00F0020005900320CDE9000135
:101FD000CDE9021069462046FEF742FC0122204668
:101FE0001146FEF75AFD012220460221FEF755FD5B
:101FF00006B010BD3038024000040240FEE77047D2
:102000007047704700EB4001144BC1EBC0104FF01C
:10201000FF3110B501EBC0000F496B22002408808E
:1020200040F2E7310E48C0E902410461C0E90032E4
:10203000FFF72AFC0B4860210022016040F2F311F7
:10204000C0E9011401463C38FFF738FBBDE81040F9
:1020500003480021FFF7D5BC1400022000440140D2
:10206000A8040220E4040220DFF894C010B594B064
:10207000DCF8004044F08054CCF80040DCF800C0AC
:102080000CF0805CCDF848C0DFF878C0DCF8004088
:1020900044F44044CCF80040DCF800C002240CF4C6
:1020A000404CCDF848C04FF0010CCDF800C04FF4C3
:1020B000803CCDF804C04FF4800CCDE90810CDE988
:1020C0000A23CDE9064C6846FEF7EEFE00B1FEE7B6
:1020D000FEF76EFD00B1FEE70F20CDE90D040020F4
:1020E0000F904FF4A05010904FF4805011900721A2
:1020F0000DA8FEF79BFD002804BF14B010BDFEE73D
:102100004038024000700040FEF7D2BC0F48016822
:1021100041F4700101600E48016841F00101016065
:102120000C4A00211160026822F4102222F0807211
:102130000260031D084A1A60026822F480220260CD
:1021400006480160580606490860704788ED00E0BF
:102150000038024008380240103000240C38024099
:1021600008ED00E0104A0F4B10B5C2E90031002124
:10217000C2E902100D48022311610322C0E90023C5
:102180000122C0E90221C0E90413C0E9062101626D
:1021900001463C38FFF78EF8BDE8104002483C216C
:1021A000FFF7AAB900000140C4010220000202208A
:1021B0000148FFF7BFB90000A8040220104A4FF001
:1021C000804310B5C2E900310021C2E902100D4878
:1021D000022311610322C0E900230122C0E9022188
:1021E000C0E90413C0E90621016201463C38FFF74B
:1021F00061F8BDE8104002483C21FFF77DB90000BE
:102200002402022060020220104A0F4B10B5C2E9DE
:1022100000310021C2E902100D480223116103229E
:10222000C0E900230122C0E90221C0E90413C0E98A
:102230000621016201463C38FFF73CF8BDE810403A
:1022400002483C21FFF758B90004004084020220F4
:10225000C0020220104A0F4B10B5C2E90031002124
:10226000C2E902100D48022311610322C0E90023D4
:102270000122C0E90221C0E90413C0E9062101627C
:1022800001463C38FFF716F8BDE8104002483C21F3
:10229000FFF732B900080040E402022020030220C8
:1022A000104A0F4B10B5C2E900310021C2E90210FB
:1022B0000D48022311610322C0E900230122C0E975
:1022C0000221C0E90413C0E90621016201463C383D
:1022D000FEF7F0FFBDE8104002483C21FFF70CB9C3
:1022E000000C0040440302208003022070B5054624
:1022F0002F4800242D4A0260C0E90114C0E90354AC
:10230000FFF7C2FA2B4860216A080160C0E9012486
:102310004AF6AB220461446105FB02F284611C3081
:10232000520C0160C0E901240461AA08446184617F
:102330001C300160C0E90124046100224461846111
:102340001C3001604CF6CD4105FB01F1890CC0E960
:1023500001140461A0F15401446184619038FFF7D5
:10236000ADF915490422A1F15800FFF7A7F9134967
:102370000822A1F17400FFF7A1F911490C22A1F183
:102380009000FFF79BF90A480021FFF71EFB084861
:102390000421FFF71AFB06480821FFF716FBBDE8EA
:1023A000704003480C21FFF710BB000000040140FF
:1023B000A4030220E0030220FC03022018040220F0
:1023C000340402200F4A70B5002504460C48106002
:1023D0001046C2E90115C2E90345FFF755FA0A485C
:1023E0006021002201606108C0E9011501463C3806
:1023F000FFF764F9BDE8704002480021FFF7E5BA35
:1024000000400140500402208C040220F0B4026815
:102410002A4BDFF8ACC02B4D98422B4E2B4C18BFEB
:10242000B0F1804F07D0604518BFA84203D0B0423A
:1024300018BFA04203D14F6822F070023A4398427D
:1024400018BFB0F1804F25D0604518BFA84221D0F9
:10245000B04218BFA0421DD0A0F1804CBCF5A03CFA
:102460001CBFA0F1804CBCF5A23C13D0A0F1804C65
:10247000BCF5A43C1CBFA0F1804CBCF5C05C09D0ED
:10248000A0F1804CBCF5E05C1CBFA0F1804CBCF519
:10249000005C05D1D1F80CC022F440724CEA020273
:1024A00002608A68C2620A688262984212BFA042D1
:1024B0000969016301214161F0BC704700000140DE
:1024C0000004004000080040000C004000040140EF
:1024D0000123D0F820C08B402CEA03030362036A77
:1024E00002FA01F11943016270474DF8044D026A86
:1024F00022F001020262036A4268D0F818C023F099
:1025000002030C682CF0730C2CF4803C44EA0C0C95
:102510008C682343A0F18044B4F580341CBFA0F143
:102520008044B4F582340BD1CC6823F0080322F444
:10253000407223434C6923F0040322438C692243F5
:102540004260C0F818C04968416303625DF8044BFB
:1025500070474DF8044D026A22F010020262036ACD
:102560004268D0F818C023F020030C682CF4E64C25
:102570002CF0807C4CEA042C8C6843EA0413A0F114
:102580008044B4F580341CBFA0F18044B4F582349B
:102590000ED1CC6823F0800322F4406243EA041396
:1025A0004C6923F0400342EA84028C6942EA8402C7
:1025B0004260C0F818C04968816303625DF8044B4B
:1025C00070474DF8044D026A22F480720262036A79
:1025D0004268D0F81CC023F400730C682CF0730C14
:1025E0002CF4803C44EA0C0C8C6843EA0423A0F1F0
:1025F0008044B4F580341CBFA0F18044B4F582342B
:102600000ED1CC6823F4006322F4405243EA042341
:102610004C6923F4806342EA04128C6942EA041292
:102620004260C0F81CC04968C16303625DF8044B96
:1026300070474DF8044D026A22F480520262D0F8CD
:1026400020C04268C3692CF4005C0C6823F4E643A4
:1026500023F0807343EA04238C684CEA043CA0F125
:102660008044B4F580341CBFA0F18044B4F58234BA
:1026700004D14C6922F4804242EA84124260C36170
:1026800049680164C0F820C05DF8044B7047000041
:102690000649002210B54860A1F13C00FFF70EF892
:1026A000BDE8104002480021FFF78FB9E003022087
:1026B000A40302200649042210B54860A1F1580085
:1026C000FEF7FCFFBDE8104002480421FFF77DB98A
:1026D000FC030220A40302200649082210B548602A
:1026E000A1F17400FEF7EAFFBDE81040024808219E
:1026F000FFF76BB918040220A403022006490C223C
:1027000010B54860A1F19000FEF7D8FFBDE8104079
:1027100002480C21FFF759B934040220A403022017
:1027200001494863704700000040014090F82410C0
:1027300011F0010F06D001684A68836A22F4003262
:102740001A434A6090F8241011F0020F06D0016875
:102750004A68C36A22F480321A434A6090F824100F
:1027600011F0040F06D001684A68036B22F480223E
:102770001A434A6090F8241011F0080F06D001683F
:102780004A68436B22F400421A434A6090F82410CE
:1027900011F0100F06D001688A68836B22F4805212
:1027A0001A438A6090F8241011F0200F06D00168B7
:1027B0008A68C36B22F400521A438A6090F824108E
:1027C00011F0400F11D001684A68036C22F48012A6
:1027D0001A434A60016CB1F5801F06D101684A684E
:1027E000436C22F4C0021A434A6090F8241011F09E
:1027F000800F08BF704701684A68806C22F400228D
:10280000104348607047F8B500260446C666FEF7D8
:1028100049F90746206800686FF07E4510F0080F00
:1028200008D000223B464FF400112046009500F0EE
:10283000A9F968B92068006810F0040F0AD00022D6
:102840003B464FF480012046009500F09BF908B10B
:102850000320F8BD202084F8690084F86A00002075
:1028600084F86860F8BD10B5806B0021A0F85A109C
:10287000A0F85210FFF767F910BD10B5B0F85C2052
:1028800090F86A300168222B05D0886940F0080072
:102890008861022010BD8368B3F5805F04BF0369BF
:1028A000002B20D0496A0A40416D4B1C43650A70D9
:1028B000B0F85A10491E0904090CA0F85A101CBFA0
:1028C000002010BD01680A6822F490720A60016855
:1028D0008A6822F001028A60202180F86A10FFF7DE
:1028E0000FFB002010BD436D496A11401980416DF6
:1028F000891C4165DCE7000070B504468068102142
:10290000002223691546D4F81CC01843636943EAC2
:102910000C0303432068D0F800C0964E0CEA060C66
:102920004CEA0303036020684368D4F80CC023F426
:10293000405343EA0C034360236AA06903432068C1
:10294000D0F808C02CF4306C4CEA03038360206894
:10295000894BA0F1804CBCF5883C15D01CF54C4C43
:102960001DD0BCF5806C25D0BCF5806C2DD0BCF59D
:10297000806C35D0BCF5444C40D01CF51C4C4DD07F
:10298000BCF5806C58D06CE01B6813F0030343D097
:10299000012B63D0022B5FD0032B61D061E01B6859
:1029A00013F00C0356D0042B58D0082B54D00C2B0A
:1029B00056D056E01B6813F030034BD0102B4DD08F
:1029C000202B49D0302B4BD04BE01B6813F0C003B9
:1029D00040D0402B42D0802B3ED0C02B40D040E096
:1029E0001B6813F4407335D0B3F5807F36D0B3F550
:1029F000007F31D0B3F5407F32D032E01B6813F452
:102A0000406309D0B3F5806F28D0B3F5006F23D0B1
:102A1000B3F5406F24D024E0012122E01B6813F4B9
:102A2000405317D0B3F5805F18D0B3F5005F13D0D3
:102A3000B3F5405F14D014E01B6813F4404309D091
:102A4000B3F5804F0AD0B3F5004F05D0B3F5404F32
:102A500006D006E0002104E0022102E0042100E0AB
:102A60000821E369B3F5004F08D009297FD2DFE8D8
:102A700001F046525E7E677E7E7E7400092935D263
:102A8000DFE801F0050F1934213434342B00FEF750
:102A90008FF94100606801EB5001B1FBF0F082B2A8
:102AA00025E0FEF79DF94100606801EB5001B1FBA4
:102AB000F0F082B21BE06068304901EB5001B1FBDD
:102AC000F0F082B213E0FEF7A3F94100606801EB79
:102AD0005001B1FBF0F082B209E060684FF4803140
:102AE00001EB5001B1FBF0F082B200E0012522F0D1
:102AF0000F00C2F3420108432168C86038E0FEF7C6
:102B000057F90146606801EB5001B1FBF0F0216814
:102B100080B2C8602CE0FEF763F90146606801EB03
:102B20005001B1FBF0F0216880B2C86020E061681C
:102B3000134A02EB5102B2FBF1F189B2C16017E016
:102B4000FEF766F90146606801EB5001B1FBF0F059
:102B5000216880B2C8600BE009E061684FF4004270
:102B600002EB5102B2FBF1F189B2C16000E0012534
:102B7000284670BDF369FFEF903802400048E80135
:102B80000024F4002DE9F041044600681E46174673
:102B9000069D8846C06931EA00000CBF0120002074
:102BA000B84226D1B5F1FF3F1AD025B1FDF77AFF23
:102BB000801BA84214D32068016821F4D071016001
:102BC0002068816821F001018160202084F869007B
:102BD00084F86A00002084F868000320BDE8F081D2
:102BE0002068C06938EA00000CBF01200020B8420C
:102BF000D8D00020BDE8F08170B5134D00241348F3
:102C0000FEF7A8FF1148FEF79FFF202807D0641C9D
:102C1000AC4204D80D48FEF797FF2028F7D10C49A5
:102C200000240A480122FFF71BF9002808BF70BDE5
:102C3000641CAC4288BF70BD012205490348FFF700
:102C40000FF90028F4D170BDFFFF0100E40002205D
:102C50000C00022070B5134D00241348FEF77AFFD4
:102C60001148FEF771FF202807D0641CAC4204D83D
:102C70000D48FEF769FF2028F7D10C4900240A48C7
:102C80000122FFF7EDF8002808BF70BD641CAC42BC
:102C900088BF70BD012205490348FFF7E1F800280D
:102CA000F4D170BDFFFF0100540102200C0002208E
:102CB000FEE7704710B504460420FEF7D7FA014836
:102CC000046010BD08000220F0B4002400289CBF5E
:102CD000F0BC70470E494FF47A724FF0E026096855
:102CE00001FB02F5D6F814C00021B369B2699A421B
:102CF000FCD026BFACEB02073B449B1A1944134699
:102D0000A942F3D3641C8442ECD3F0BC70470000AA
:102D1000080002200749CA6912F0400FFBD0C3B275
:102D20008B6205490A6812F0400FFBD003490B6023
:102D300070470000001001401C440040284400403F
:102D400082B04FF000084646474644464546FDF7E8
:102D500003FCFDF7B5FE0923022219214FF4D870B8
:102D6000FFF782F9D820FFF7A5FF4FF4E13000F01C
:102D70006FF8FFF71DF9FDF741FC6B216320FFF7AA
:102D8000B5FA6B216320FFF71DFB00214FF6FE70A3
:102D9000FFF7E8F900214FF6FE70FFF70FFA002168
:102DA0004FF6FE70FFF730FA00214FF6FE70FFF786
:102DB00051FA00214FF6FE70FFF772FA4046FFF716
:102DC00067FC3046FFF776FC3846FFF785FC204667
:102DD000FFF794FC2846FFF7A3FC114C114D124E4F
:102DE000124FDFF84C804FF47A70FFF76DFF2068C8
:102DF000406A81B22868406A82B23068406A83B211
:102E00003868406AD8F800C080B2DCF824C01FFAE5
:102E10008CFCCDE9000C07A0FDF764FAE3E70000A5
:102E2000C40102202402022084020220E4020220C3
:102E300044030220256420202025642020202564CE
:102E400020202025642020202025640A0000000086
:102E50000B490A4A10B5C1E9002000208860C8600B
:102E6000086188610C2048610846FEF755FFBDE8FF
:102E70001040044901220248FEF7F2BF004400401E
:102E8000540102200C0002204FF04070E1EE100AC5
:102E90007047000000000000000001020304060764
:102EA000080900000000010203040000CC2E000805
:102EB000000002201C00000034020008E82E000878
:102EC0001C000220440B0000500200080024F40003
:102ED00000000000000000000000000000000000F2
:082EE0000000000000000101E8
:04000005080001F9F5
:00000001FF
