:020000040800F2
:10000000C8C30420F5020008519F0008877F00083C
:10001000E59E0008E10F00086912010800000000D9
:1000200000000000000000000000000017AB000806
:100030003D170008000000009DA200081DAC00084C
:100040000F0300080F0300080F0300080F03000848
:100050000F0300080F0300084F1D00080F030008DE
:100060005D1D0008631D00080F0300080F03000852
:100070000F0300080F0300080F0300080F03000818
:100080000F0300080F0300080F0300080F03000808
:100090000F0300080F0300080F0300080F030008F8
:1000A0000F03000849F900080F0300080F030008B8
:1000B0000F0300080F0300080F0300080F030008D8
:1000C0000F0300080F0300080F0300080F030008C8
:1000D0000F030008B11101080D1201080F030008F9
:1000E000551D00080F0300080F0300080F03000848
:1000F0000F0300080F0300080F0300080F03000898
:100100000F0300080F0300080F0300080F03000887
:100110000F0300080F03000885FA000891FA000891
:100120000F0300080F0300080F0300080F03000867
:100130000F0300080F0300080F0300080F03000857
:100140000F0300080F0300080F0300080F03000847
:100150000F0300080F0300080F0300080F03000837
:100160000F0300080F0300080F0300080F03000827
:100170000F0300080F0300080F0300080000000031
:100180000F0300080F0300080F0300080F03000807
:100190000F0300080F0300080F0300080F030008F7
:1001A0000F0300080F0300080F0300080F030008E7
:1001B0000F0300080F0300080F0300080F030008D7
:1001C0000F0300080F030008000000000F030008E1
:1001D0000F0300080F0300080F0300080F030008B7
:1001E0000F0300080F0300080F0300080F030008A7
:1001F0000F0300080F03000800F002F800F06BF88E
:100200000AA090E8000C82448344AAF10107DA4571
:1002100001D100F060F8AFF2090EBAE80F0013F058
:10022000010F18BFFB1A43F00103184720550200C5
:100230004055020010F8013B0A4413F0030408BFC4
:1002400010F8014B1D1108BF10F8015B641E05D0AA
:1002500010F8016B641E01F8016BF9D1002D15D067
:1002600010F8014B03F00C030C2BA1EB04040ABFA4
:1002700010F8013BA4EB8314A4EB032405F1010364
:1002800014F8016B5B1E01F8016BF9D5914238BF80
:1002900010F8013BD1D3704700230024002500262D
:1002A000103A28BF78C1FBD8520728BF30C148BFD9
:1002B0000B607047642900F0A980782900F0E28083
:1002C000732900F00983002070471FB51AF020F948
:1002D0001FBD10B510BD00F077FB1146FFF7F5FF0D
:1002E00019F0F8FE00F095FB03B4FFF7F2FF03BC32
:1002F00019F08EFE0948804709480047FEE7FEE7EF
:10030000FEE7FEE7FEE7FEE7FEE7FEE7FEE7FEE7C5
:1003100004480549054A064B7047000021AC000817
:10032000F9010008C8B70420C8C30420C8B90420D4
:10033000C8B90420704700000FB4044910B503AADF
:10034000029800F0CDFA10BC5DF814FB10000220FA
:100350002DE9F0410E460446002020622046E16867
:10036000884730B3252805D0D4E901219047206A79
:10037000401CF2E7E168204600278847050018D0B6
:10038000A5F14100192802D820354FF40067324604
:10039000294620462760FFF78DFF40B1012804D091
:1003A000F61D26F007060836D8E7361DD6E728469C
:1003B000DAE7206ABDE8F08170B50C460546012AEF
:1003C00005D02878800600D5EA69002302E00123E1
:1003D00005E05B1C934202D2E05C0028F9D1A869D9
:1003E000E618C01AA861286A184428622846AFF3A4
:1003F000008004E0D5E9012114F8010B9047B442D4
:10040000F8D32846AFF3008070BD00002DE9F0411D
:100410000646002410687529314616A510D0AFF3A2
:100420000080002802DA404213A507E031688A07FD
:1004300001D512A502E0490704D511A5012401E068
:10044000AFF3008000210A2206F1240709E0B0FB87
:10045000F2FCB0FBF2F302FB1C003030785418467B
:10046000491C0028F3D123462A463046BDE8F04116
:1004700000F0C7B9000000002D0000002B000000B4
:100480002000000070B504460D4621461068AFF309
:1004900000802188090502D50F4A7A4402E00E4AFD
:1004A0007A440E32002104F1240305E000F00F0627
:1004B0000009965D5E54491C0028F7D1207800237E
:1004C000000704D5702D02D009B102231132204655
:1004D000BDE8704000F095B98E51020040EA01037A
:1004E00010B59B070FD1042A0DD310C808C9121FDD
:1004F0009C42F8D020BA19BA884201D9012010BD17
:100500004FF0FF3010BD1AB1D30703D0521C07E0E3
:10051000002010BD10F8013B11F8014B1B1B07D147
:1005200010F8013B11F8014B1B1B01D1921EF1D1B8
:10053000184610BD40EA0103024630B59B0710D1B2
:100540004FF0013400E008C208C91D1B9D4315EAA5
:10055000C41FF8D013F0FF0102F8011B0DD01B0AD5
:10056000F8E711F8013B002B02F8013B05D011F828
:10057000013B002B02F8013BF3D130BD10B5431C09
:1005800002E010F8011B71B18107FAD14FF001327E
:1005900002C88C1A8C4314EAC211F9D0C01A0A0698
:1005A00003D0C01E10BDC01A10BD0A0401D0801EA9
:1005B00010BD0902FCD0401E10BD032A40F230805D
:1005C00010F0030C00F0158011F8013BBCF1020F94
:1005D000624498BF11F801CB00F8013B38BF11F815
:1005E000013BA2F1040298BF00F801CB38BF00F82C
:1005F000013B11F0030300F06780083AC0F0088067
:1006000051F8043B083A51F804CBA0E80810F5E78C
:10061000121D5CBF51F8043B40F8043BAFF300806F
:10062000D20724BF11F8013B11F801CB48BF11F8E4
:10063000012B24BF00F8013B00F801CB48BF00F8B4
:10064000012B7047431A28BF9A427FF6B6AF032AA0
:100650001044114440F2268010F0030F1EBF11F821
:10066000013D521E00F8013D10F0030F7FF4F6AF7C
:1006700011F0030300F05981083AC0F00B8051F8E3
:10068000043D083A51F804CD40F8043D40F804CD4B
:10069000FFF7F3BF121D5CBF51F8043D40F8043D65
:1006A000AFF30080D20724BF11F8013D11F801CD4E
:1006B00048BF11F8012C24BF00F8013D00F801CD1E
:1006C00048BF00F8012C704710B5203AC0F00B80ED
:1006D000B1E81850203AA0E81850B1E81850A0E846
:1006E0001850BFF4F5AF5FEA027C24BFB1E81850A0
:1006F000A0E8185044BF18C918C0BDE810405FEA10
:10070000827C24BF51F8043B40F8043B08BF70478B
:10071000D20728BF31F8023B48BF11F8012B28BF90
:1007200020F8023B48BF00F8012B70474FF0000251
:1007300000B5134694469646203922BFA0E80C50D7
:10074000A0E80C50B1F12001BFF4F7AF090728BFB2
:10075000A0E80C5048BF0CC05DF804EB890028BF2E
:1007600040F8042B08BF704748BF20F8022B11F057
:10077000804F18BF00F8012B704700004FF0013C7C
:1007800050F8042B51F8043B9A4215D1A2EB0C030C
:10079000934313EACC130BD150F8042B51F8043BCC
:1007A0009A4209D1A2EB0C03934313EACC13E7D08E
:1007B0004FF00000704700BFD01A01BAB1FA81F1C2
:1007C00001F0180122FA01F0CB40C1F12001DBB2A7
:1007D000C0B2C01A2CFA01F3D11A914311EAC31125
:1007E000E6D17047704770477047704710B500F00A
:1007F000C7F8006810BD10B5044600F0C1F80460E9
:1008000010BD2DE9F0470D4699469246044600F189
:1008100024080168880604D5E06921F010012160F0
:1008200000E00120A84201DD471B00E00027A1698C
:100830007A1902EB0900081AA0612078C00602D4D8
:100840002046AFF30080002608E0D4E901211AF821
:1008500006009047206A401C761C20624E45F4DB5F
:100860002078C0060AD52046AFF3008006E0D4E920
:10087000012130209047206A401C2062381EA7F1D9
:100880000107F4DC07E0D4E9012118F805009047DE
:10089000206A401C2062281EA5F10105F3DC2046D9
:1008A000AFF300802078000602D50220BDE8F08773
:1008B0000120FBE710B5436913B1AFF3008001E0FD
:1008C000FFF77AFD012010BD127800F124010A70B3
:1008D00000224A700122EDE711684FF0FF32E9E78C
:1008E000074B70B50D467B4400F053F8044628468C
:1008F00000F062F810B14FF0FF3070BD204670BDBF
:10090000BF970100431A28BF9A427FF6DDAE10441C
:1009100010F0030F11441EBF11F8013D521E00F8E4
:10092000013D10F0030F7FF4F6AF103AC0F00A80DB
:1009300010B531E91850103A20E91850BFF4F9AF5A
:10094000BDE81040530724BF31E9081020E9081022
:1009500044BF51F8043D40F8043D12F0030F08BFB6
:100960007047D20728BF31F8023D48BF11F8012C6B
:1009700028BF20F8023D48BF00F8012C7047000056
:100980000048704764B7042001694A1C0261087876
:10099000704700B58FB0CDE90131002105910549BF
:1009A0007944CDE9031011466846FFF7D1FC0FB03A
:1009B00000BD0000E5FFFFFF007B00F080007047F6
:1009C0000048704764B704207546FFF7F9FFAE464C
:1009D00005006946534620F00700854618B020B54B
:1009E000FFF796FCBDE820404FF000064FF00007EF
:1009F0004FF000084FF0000B21F00701AC46ACE8C7
:100A0000C009ACE8C009ACE8C009ACE8C0098D4633
:100A1000704710B50446AFF300802046BDE8104093
:100A2000FFF762BC07F0B0BA2DE9F0470E000146AF
:100A30004FF0000004461ABF01EB06084FF0A00972
:100A4000BDE8F0870702A8EB0400451E07F074FB21
:100A5000280A09EB4000C0B207F032FB07F0BCFBEC
:100A6000E8B207F02DFB07F0B7FB07F065FBA1200C
:100A700007F026FB07F0B0FB002007F0ADFA0546B3
:100A800007F082FB611CE819CCB2A642DAD8BDE8B7
:100A9000F08710B5044607F04FFB200AA02101EBB8
:100AA0004000C0B207F00CFB07F096FBE0B207F085
:100AB00007FB07F091FB07F03FFBA12007F000FBCD
:100AC00007F08AFB002007F087FA044607F05CFB7A
:100AD000204610BD2DE9F04716000F4680464FF026
:100AE000000414BF4FF0A00ABDE8F08708EB04052E
:100AF000E00027FA00F000F0FF0907F01DFB280ACC
:100B00000AEB4000C0B207F0DBFA07F065FBE8B281
:100B100007F0D6FA07F060FB484607F0D1FA07F075
:100B20005BFB07F031FB0A2019F07EFA601CC4B2AF
:100B3000A642DBD8BDE8F08770B50D46044607F045
:100B4000FBFA200AA02202EB4000C0B207F0B8FA7C
:100B500007F042FBE0B207F0B3FA07F03DFB28468E
:100B600007F0AEFA07F038FB07F00EFBBDE8704067
:100B70000A2019F059BA000038B545680446014604
:100B8000284610F099FB00282BD02068304A112805
:100B90000DD006DC0B2825D00E2833D00F2852D1DB
:100BA00012E0282849D0B0F5107F4CD108E09268B7
:100BB000002A16D02146284601B0BDE83040104733
:100BC000214628465268F7E7284602F0B3FE009017
:100BD000406E0468684602F0F5FE002C01D02846FD
:100BE000A04738BD284602F0A5FE0090683002F00C
:100BF000FFFD009803216C3002F008FE684602F009
:100C0000E1FE20E0E168486809680D2902D020294A
:100C100013D105E0002810DD284616F03DFD06E062
:100C2000002804DD2846BDE8384016F035BD2846CA
:100C3000BDE83840022116F045BDE06818B9002132
:100C4000284600F097F92046BDE8384010F028BE4D
:100C500014010220F0B5044685B08069B4F908504B
:100C6000668A0027CDE90265CDE900170490B4F942
:100C70000C00B4F91060C118B4F90A00B4F90E50B0
:100C8000104433462A4600F007F80546616800F034
:100C90007AF905B02846F0BD2DE9F04F85B01F4622
:100CA000DDE911B4DDE90E5690468946824603F02F
:100CB00083FE16484C34CDE90204CDE900563B468C
:100CC00042464946504610F033FD040018D002F069
:100CD00031FE10225946049010F08CFC049830220A
:100CE0000B493430FFF7F0FC094D04990C3D28689E
:100CF000486604A802F066FE2868416820468847D6
:100D000004F0A8FC05B02046BDE8F08F790B000880
:100D100020010220F0B5044680688B4989B051F863
:100D20002050606800287DD0052804D006287AD09D
:100D3000122879D1AEE0E86900284FD095E80E007E
:100D40008DE80F0004F110010FC904F0F7FE002632
:100D500055F8260004F091F8A169E8690A1A21699A
:100D600001446069304403F0C7FBA169E8690A1ACD
:100D700021690144E069801B03F0BEFBE169E86979
:100D80000A1A616901442069304403F047FCE169B3
:100D9000E8690A1A61690144A069801B03F03EFCFE
:100DA000761C022ED4DBA86804F067F8E069E969D4
:100DB0006669431A206942183144801C521E03F0B0
:100DC00055FCE169E869A2690B1A61690144101ACE
:100DD000401C921E03F04AFCEE6913E05FF000062F
:100DE00055F8260004F049F8E069831BA069821BCE
:100DF000606981192069304403F0D0FB761C022E13
:100E0000EEDB0226D5E90301CDE900016169E06965
:100E100008444310A069891C821B2069304403F0F8
:100E20002FFB02E089E012E08AE0D5E90501CDE977
:100E30000001E36960690121184401EB6001A069C8
:100E40009B1E821B2069304403F01AFB78E0206867
:100E500002F070FD0490206811F0E8FF40B1A06836
:100E600008B1002008E00498006F28B1012003E0D9
:100E70000498406F00B10220049901EB8000C56E18
:100E800004A802F09FFD00231A462846216803F0BB
:100E9000AFF855E0206802F04DFD0490866EEEB389
:100EA000B0F95C70A168D1B3032942D05FF00001B2
:100EB00000EB8101406D0C6C03F0FCFF204603F059
:100EC000DCFF05A803F094FCBDF81410A88B0144C6
:100ED000ADF81410BDF81810081AADF81800BDF8D8
:100EE0001600801CADF81600BDF81A00801EADF883
:100EF0001A000498B0F96020B0F95E1005A803F05C
:100F000056FE04A802F05EFD022004F041F83046CF
:100F100002F010FD3A4605A9079001E00BE006E05B
:100F200003F072F90DF11C0002F04CFD08E0012104
:100F3000BEE70221BCE704A8F6E7206811F026FC12
:100F400009B00020F0BD0000684C020838B50D461D
:100F500004000ED003F030FD204602F0EBFC0090C0
:100F60004565684602F02EFD204611F015F904F0A3
:100F700071FB38BD4FF480720029114601D010F08A
:100F80002FBA10F072B92DE9FF410E4605004FF05F
:100F9000010421D003F010FD284602F0CBFC0190A3
:100FA000876E01A8009702F00DFD3146684604F0F7
:100FB00079FF78B100980024B84208D0284602F0A2
:100FC000B9FC01900099816601A802F0FBFC28465B
:100FD00011F0E2F804F03EFB04B02046BDE8F081D9
:100FE000FEE7F8B5446805460146204610F064F96E
:100FF000002836D028680B2839D00E2805D00F28B5
:1010000021D0B0F5107F3CD12CE0204602F092FCBC
:10101000009010F8746F4778684602F0D3FC2046C1
:1010200011F004FF10B3E8684168002929DD006869
:10103000202826D17F1CB7FBF6F006FB1071204656
:1010400000F031F91DE02546204602F073FC0090C7
:10105000006F0468684602F0B5FC002C01D02846F9
:10106000A047F8BD2946204616F000FD09E02046BD
:1010700002F060FC0090783002F0BAFB684602F0A3
:10108000A1FC2846BDE8F84010F00ABCF0B585B0D8
:10109000B0F90850468A84690296CDE903540027C6
:1010A000CDE90017B0F90C10B0F91050B0F90E40AE
:1010B000B0F90A00194410442B46224600F002F809
:1010C00005B0F0BD2DE9F04F85B01D46DDE90E9766
:1010D00016468A468346DDF8488003F06DFC254CB1
:1010E0000EB135B10AE02068806800688047064686
:1010F000F7E7206880680068804705461D486FF064
:101100007041001DC068884201D147F0010708F115
:101110005400194ACDE90220CDE900972B4632460A
:101120005146584610F004FB05001CD002F002FCAA
:1011300010220490119910F05DFA0E4904983C2297
:10114000091D3430FFF7C0FA0498216801670221B5
:1011500080F874100F21C16704A802F033FC2068E6
:1011600041682846884704F075FA05B02846BDE86E
:10117000F08F000048030220E30F00082DE9FF472D
:101180000446006810B111F051FE68B100223148E8
:1011900050F8221060680A2841D007DCF0B3062816
:1011A0000DD0072854D106E00122F0E712280AD01A
:1011B00019284DD137E0204612F0B0FD48E0204616
:1011C00013F0E8FB44E0206802F0B4FB0290B0F9B1
:1011D000548090F85650476C466B02A802F0F2FB20
:1011E000206800F039F88146684610F031FCBDF8FF
:1011F000001009EB05000844ADF80000246A3046F1
:1012000003F058FE022003F0C3FE384603F035FE1B
:1012100042466946204602F0F7FF19E007E0204603
:1012200013F01BFF14E0886904B0BDE8F087206864
:1012300011F0ACFA206802F07DFB0390B0F90610C3
:10124000B0F90220891A491CC16703A802F0BAFB51
:101250000020E9E74455020838B5044603F0ACFB2A
:10126000204602F067FB0090C46F684602F0AAFBBC
:1012700004F0F0F9204638BD38B50C46050011D011
:1012800003F09AFB284602F055FB0090416BA14207
:1012900003D04463284610F07FFF684602F092FBBB
:1012A00004F0D8F938BD38B50C4605001BD003F062
:1012B00083FB284602F03EFB009090F87410A14298
:1012C0000CD980F87540684602F07CFB284610F087
:1012D00063FF0521284611F01FF802E0684602F07E
:1012E00071FB04F0B7F938BDFEB50D46040022D0FD
:1012F000002D20D003F060FB204602F01BFB019084
:10130000866F01A8009602F05DFB2946684604F04E
:10131000C9FD70B10098B04208D0204602F00AFB27
:1013200001900099816701A802F04CFB204610F063
:1013300033FF04F08FF9FEBD00B589B02421684663
:10134000FFF7F4F9192001900348006880684168AC
:101350006846884709B000BD4803022013484DF88D
:1013600004ED87B0016841F080010160016801F07F
:1013700080010591016841F480710160006869464F
:1013800000F48070059040200090012001900290B0
:1013900003200390064804F045FF0820009005480C
:1013A000694604F03FFF07B05DF804FB30380240A7
:1013B000001C0240002002402DE9F0413C4F8046D5
:1013C0000024386820F0C0003860386838601E207B
:1013D00018F050FE374E002500224021304605F01F
:1013E0003EF8022018F046FE01223046402105F06A
:1013F00036F860060821040E384605F02BF8002860
:101400001CBF601CC4B2681CC5B2082DE4D3B8F17F
:10141000000F4FF000024FF04001304624D005F09D
:101420001EF8386820F0C0003860386840F040008E
:101430003860022018F01EFE00223846082105F010
:101440000EF8022018F016FE01223046402105F069
:1014500006F8022018F00EFE00223046402104F06B
:10146000FEFF2046BDE8F08104F0F9FF386820F067
:10147000C0003860386840F040003860022018F042
:10148000F9FD01223846082104F0E9FF022018F096
:10149000F1FD01223046402104F0E1FF022018F066
:1014A000E9FD00223046402104F0D9FFD9E70000D1
:1014B00000200240001C02402DE9F0411C4F05466F
:1014C000386820F0C0003860386840F0400038606C
:1014D000184E00224021304604F0C1FF022018F0CF
:1014E000C9FD002415F0800F05D0012238460821DF
:1014F00004F0B5FF04E000223846082104F0AFFFF5
:1015000068060122050E3046402104F0A8FF0220A3
:1015100018F0B0FD00223046402104F0A0FF022068
:1015200018F0A8FD601CC4B2082CDBD3BDE8F08124
:1015300000200240001C024070B5134C206820F0CF
:10154000C0002060206840F040002060012220465A
:10155000082104F084FF0D4D01224021284604F0AB
:101560007EFF1E2018F086FD00222046082104F090
:1015700076FF022018F07EFD2846BDE8704000226C
:10158000402104F06CBF000000200240001C02401B
:1015900010B5104C206820F0C0002060206840F09A
:1015A000400020600C480122402104F058FF1E201A
:1015B00018F060FD00222046082104F050FF0220B0
:1015C00018F058FD01222046BDE81040082104F023
:1015D00046BF000000200240001C024070B5284EAB
:1015E0000024306820F0C000306030683060012294
:1015F0000821304604F033FF224D012240212846C5
:1016000004F02DFF022018F035FD0821304604F0CB
:1016100021FF00282CD0601CC4B2FA2C1FD93068DE
:10162000344620F0C0003060306840F04000306048
:1016300001222846402104F012FF1E2018F01AFD56
:1016400000222046082104F00AFF022018F012FDB3
:1016500001222046082104F002FF012070BD022073
:1016600018F008FD0821304604F0F4FE0028D2D11D
:1016700000222846402104F0F2FE002070BD000048
:1016800000200240001C024070B4BFF34F8FBFF334
:101690006F8F1A4900200860194D296841F4003104
:1016A0002960BFF34F8FBFF36F8F16490860BFF3F8
:1016B0004F8F081F006843F6FF76134AC0F34E3C75
:1016C000C0F3C90406EA4C11204641EA8073136056
:1016D000401EFAD2BCF1010CF4D2BFF34F8F286840
:1016E00040F480302860BFF34F8FBFF36F8F0748FF
:1016F000016841F00401016070BC704750EF00E0E8
:1017000014ED00E084ED00E060EF00E09CEF00E00D
:101710004DF804ED83B010F0C9F90021054A0346E5
:101720000548009101910E2102F04AFB03B05DF8DB
:1017300004FB0000699D0108A4ED010870472DE934
:10174000FC470E465FEA00097FD003F035F94846B2
:1017500002F0F0F8009090F85470D0F85880456B83
:10176000C46C684602F02EF9B8F1000F04D031467F
:1017700048464246904761E0122E18D006DC082EFB
:1017800043D0102E3CD0112E06D112E0132E21D0C2
:101790001D2E43D01E2E3DD0202E4FDB17B14846C4
:1017A00012F053F9B1B2484615F060FD60B3611C08
:1017B00027E04DB3284602F0BDF8054621460190CA
:1017C00003F00AFF4419204603F0B4FE0146234605
:1017D000012210E0C5B1284602F0ACF805462146CA
:1017E000019003F0F9FE4419204603F0A3FE0146E0
:1017F00023464FF0FF32484611F080FF01A81BE05E
:10180000611E484600F079FA18E0BCB1611E4846F6
:1018100000F073FA484612F018F90FE0484602F05B
:1018200089F80090012F12D0012180F85410214630
:10183000484600F062FA684602F0C4F8484610F0E4
:10184000ABFC00E001E003F005FFBDE8FC870021F0
:1018500080F85410EFE7FEB544680546204611F0C5
:10186000E5FA0646294620460FF026FD002837D027
:1018700028680F2830D004DC0B2832D00E2853D132
:101880003AE0A0F58070133804D0A0F580702D38B0
:101890004AD110E0204610F0FFFD2046002116F04E
:1018A0007AF9204602F046F80190C06F002110F04E
:1018B000CAFD01A81DE0E86860B1017A29B101689C
:1018C000204600F0DBF8012100E00221204610F064
:1018D00023FD29E00321F9E70121204616F05BF9F9
:1018E000FEBD204602F026F80090343001F080FF63
:1018F000684602F067F817E0B6B1E8684168002969
:1019000012DD01681B290FD006DC09290CD00A2939
:101910000AD00D2904D107E0212905D0222903D0BE
:101920002046FFF70CFFFEBD28460FF0B9FFFEBDB5
:10193000F0B587B00DF1300E9EE8F0104FF0000EBC
:101940008DE8F05000F002F807B0F0BD2DE9F04F3F
:1019500085B01F46DDE91254DDE90E6A90468946DE
:10196000834603F029F80DF1040C4AF480501F4916
:10197000583400968CE813003B4642464946584688
:101980000FF0D6FE04002AD001F0D4FF10220490FC
:1019900011990FF02FFE04981C2215496030FEF7B4
:1019A00093FE049A012082F85500681C00D00120A3
:1019B00082F88000002D00DC08252DB2158700205C
:1019C0005087506304A86D1C01F0FCFF2946204697
:1019D00015F01EFB18B920460FF09AFF002403F003
:1019E00039FE05B02046BDE8F08F0000571800080A
:1019F00088030220014880687047000088030220A5
:101A000038B505004FF000040BD002F0D5FF284692
:101A100001F090FF0090846C684601F0D3FF03F062
:101A200019FE204638BDF8B515460C46060013D001
:101A300002F0C2FF304601F07DFF009038B1022C69
:101A400005D200EB84004567304610F0A5FB6846E0
:101A500001F0B8FF03F0FEFDF8BD70B50D46044679
:101A600002F0AAFF34B12946204600F046F920468C
:101A700010F092FBBDE8704003F0ECBD2DE9F041A1
:101A800086B00C46060055D002F096FF304601F0B5
:101A900051FF0090406B98B301F04CFF0390009809
:101AA000806E03F007FA8046304610F0A7F807462C
:101AB000039802F0DAFE0546009890F8601001F0F5
:101AC0000301012916D002290DD0416EC06A0068B9
:101AD0000844241A641E039804F0C4F80146002C3C
:101AE0000FDA002115E0781B401C00EBD070A4EB4E
:101AF0006004F0E7406E791B081A241A641CEAE7B8
:101B000013E0AC4205DC02462146039804F054F889
:101B10000146304600F0F1F803A801F053FF4046BB
:101B200003F0C8F9304610F037FB684601F04AFF71
:101B300003F090FD06B0BDE8F08100002DE9F84308
:101B40001D46DDE9084916460F46804602F034FF7F
:101B50005FEA080040D001F0EDFE21490090816568
:101B60002049C1650021C0E91271E0E90F6501213A
:101B7000047280F81A90017690F84470684601F07B
:101B800021FF87B1284614F0E1FE0546304614F0E7
:101B9000DDFE0CB1401C6D1C854200DD284601466F
:101BA000404600F03FF8404617F0F8FA404601F092
:101BB000C1FE009000F08CF80B490978884205D1ED
:101BC0000098C16C4046491C00F097F8684601F047
:101BD000F9FE404610F0E0FA03F03CFDBDE8F88362
:101BE000153301089D9101089800022000294FF04B
:101BF000100101D00FF0F4BB0FF037BB38B50D4624
:101C000004000ED002F0D8FE204601F093FE0090B2
:101C10008566204610F0C0FA684601F0D3FE03F056
:101C200019FD38BD7CB50C46060033D002F0C4FE69
:101C3000304601F07FFE0090B0F93810458FA14288
:101C400023D012DD406B80B101F074FE019004F0EE
:101C500009F8A04206DD2146019803F0BDFC019A77
:101C60000021115401A801F0ADFE684601F0AAFE62
:101C7000611B3046491C15F0CBF9304601F05AFE85
:101C800000900487304610F087FA684601F09AFE0B
:101C900003F0E0FC7CBDF8B515460C46060013D0F9
:101CA00002F08AFE304601F045FE009038B1022C69
:101CB00005D200EB8400C566304610F06DFA684628
:101CC00001F080FE03F0C6FCF8BD002216F093BFC1
:101CD00038B50546406B002468B101F02BFE00903A
:101CE0000446E96C03F078FC204403F023FC04462E
:101CF000684601F067FE204638BD1CB50C4601F071
:101D000019FE0090406BF0B101F014FE019003F059
:101D1000A9FF009991F8542002B10122002C00DAA9
:101D20000024844200DD0446B1F93800801AA04244
:101D300000DA0446C86CA04200D0CC6400200865DC
:101D400001A801F03FFE684601F03CFE1CBD0120E9
:101D500004F05CBA4FF4005004F058BA042004F0C8
:101D600055BA082004F052BA2A4810B586B0016866
:101D700041F001010160016801F001010591016874
:101D800041F004010160016801F00401059101685E
:101D900041F08001016000680124694600F0800084
:101DA00005901D48CDE90040022002901B4804F038
:101DB00039FA600300901A486946CDE901041948D0
:101DC00004F030FA0C2000901748694604F02AFA13
:101DD00000220221062004F0B3FB062004F0A3FB3E
:101DE00001220221082004F0ABFB082004F09BFB39
:101DF00002220920114604F0A3FB092004F093FB02
:101E000003220221282004F09BFB282004F08BFBF6
:101E100006B010BD30380240000011100000024032
:101E20000000211000080240001C0240B3F5804F62
:101E300030B418BF6FF0704104D040F8221030BCAD
:101E40000020704750F82230DFF824C08D8903EA63
:101E50000C03D1E900C44CEA041C8C688969240293
:101E600044EA05444CEA040C4CEA01011943E4E756
:101E70000000F0CF70B4D1F800C050F82C201B4BFC
:101E8000D1E903561A40D1E9014335431C432C43A1
:101E90004D692C438D692C43CD692C430D6A2C432D
:101EA0004D6A2C438D6A2C43CD6A2C430D6B2C4319
:101EB0008D6B2C434D6B2C432243082B08BF42F003
:101EC000400240F82C200A6BB2F5801F05D10A6849
:101ED0004AB1026842F4801202600A681AB10268CC
:101EE000496B1143016070BC002070478004C0FF43
:101EF00000EB820270B453684FF07E46D1E900C413
:101F00008D8903F040434CEA041C8C68240244EAA7
:101F100005440D8A4CEA0404DFF834C00CEB055587
:101F20002C430D7D06EB05652C438D692C43234323
:101F30005360026812F4801F07D04268098A22F4B5
:101F400070020CEB01511143416070BC00207047DE
:101F50000000F0FF4DF8044DD1E901320C68134345
:101F6000D1E903C24CEA02021A434B6913438A695E
:101F7000012C046843EA020CCB690A6A496A08D05A
:101F80004CEA03031A4311436FF30E04214301602B
:101F90000BE024F4F8441A4321430A4341680260E9
:101FA0006FF30E014CEA010141605DF8044B002023
:101FB0007047426942EA4101416100207047F8B52B
:101FC00014460546D1E900026FF01F0310438A68EA
:101FD000C96803EB421242EA41210843009028619C
:101FE00004F042FA0646A86910F0200F0ED0B4F1B2
:101FF000FF3F07D024B104F037FA801BA04201D97B
:102000000320F8BDA86910F0200FF0D10020F8BD22
:102010002DE9F001D1F804C06FF00F050B682C0119
:102020005B1E05EB0C1C43EA0C03D1F808C04FEA19
:102030000428270304EB0C2C43EA0C050B8A260426
:10204000CC68012A826808EB034C8B8A097E07EB77
:10205000035306EB01610DD0361306EB04342C4319
:1020600044EA0C0C4CEA0303194302F0704211439A
:10207000816012E0240322F47042A4F580542343CB
:1020800022F470021A43C36845EA0C0C826003F024
:1020900070434CEA01011943C160BDE8F001002022
:1020A00070472DE9F047044640688EB0002780460F
:1020B00001F040FC0090B0F87CA0D0F86890D0F817
:1020C0008060D0F88850C06D00B10768684601F0A4
:1020D00079FC05E0696820468847002843D12D68CF
:1020E000002DF7D12068172853D00CDC0F283DD0E5
:1020F00004DC0B2877D00D2825D18BE0112810D0D7
:10210000142820D13BE0262846D004DC1E2851D0DC
:10211000202818D18AE02A2816D0B0F5107F12D1D5
:1021200028E04046E56801F005FC0290697A39B97B
:10213000297A012904D130F87C1F41F48071018093
:1021400002A801F03FFC75E0404601F0F3FB00906F
:10215000E16811B1C0F8841002E0D0F88400E060BA
:10216000684601F02FFC0EB0BDE8F087D7B34046BB
:10217000B8475FE02146404615F0F8FBF3E705A9B4
:10218000404600F096FBE0680699016007994160BF
:10219000E9E7C4F80C90E6E7E0680228E3D1CDF85F
:1021A0003080E0680D9027200A900AA9A06810F0FE
:1021B0007BFFD8E7E068012804D00021404600F00A
:1021C000BCFAD0E7304610F050F868B1304610F055
:1021D00057FA30460FF00CFF98B1012130460FF04E
:1021E000FFF80EE026E02FE0484610F09DFA064684
:1021F000404601F09FFB0090C0F88060684601F007
:10220000E1FB0121404600F098FA002EABD10020FE
:10221000E060A8E75FEA0A700CD4E068C06848B1E3
:10222000007A38B1404610F02BFA03E021464046D0
:1022300015F08FFA214640460FF03EF8002892D064
:1022400020460FF02DFB8EE7404601F073FB009017
:10225000703001F0CDFA684673E7F0B587B0B0F999
:1022600008400DF10C0C0C9E876945688CE8F00065
:10227000448A0025CDE900150294B0F90C10B0F99C
:102280001050B0F90E40B0F90A00194410442B4622
:10229000224600F003F807B0F0BD00002DE9F04F32
:1022A0008BB09846DDE9155691468A468346149FC1
:1022B0001A9C02F081FB3348603445F48055CDE927
:1022C0000204CDE9007543464A46514658460FF090
:1022D0002FFA04004FD001F02DFB30220490179903
:1022E0000FF088F90498282227493430FEF7ECF9DA
:1022F00004981999244F4166A0F87C600026C0F824
:102300008060C666083FC0F888607968C16504A827
:1023100001F058FB05A9204600F0CBFA1B4841F21A
:10232000827103960094CDE90110BDF91E00BDF93C
:102330001A10BDF91C20431ABDF918005B1C121AB3
:10234000521C0FF0F5F90646786841682046884728
:10235000204601F0EFFA0490866604A801F032FBF3
:1023600042F20400054202D120460FF049FB20460C
:10237000189900F0F1F903F06DF90BB02046BDE8B3
:10238000F08F0000A320000858010220D92A00087D
:102390002DE9F041044694B0006800F0B7F908B1A7
:1023A000D94D01E0D84D2C35606815281ED00CDCC5
:1023B0000B281FD004DC00287ED005287DD12FE11A
:1023C0000E287BD01228F9D141E1162806D0172813
:1023D00008D0182808D01C28F0D109E0E86914B00A
:1023E000BDE8F081286AFAE7686AF8E7A86AF6E7C4
:1023F0006869F4E720680B901C200C90206801F0BD
:1024000099FA0390016D0BA88847064603A801F0CE
:10241000D9FA022E0FDB95E807008DE80700D4E912
:1024200004023346A16903F04FFB20698719A069B4
:10243000A0EB06082CE0286802F01FFD2169E8697E
:102440000A18521E606902F057F8A269E869111A69
:10245000491C606902F050F8D4E904077F1C394632
:1024600002F076F83946A06902F072F8686802F066
:1024700004FD20693946401C02F06AF8A06939461B
:10248000401E02F065F8A0692769A0F10208BF1C90
:10249000286802F0F2FC42463946606902F02CF8E6
:1024A000686802F0EAFC606942463946401C02F066
:1024B00023F8686A022802E015E1B0E000E10BDDD4
:1024C000A86802F0DAFC61696A6A881C8B18014608
:1024D000424638465B1E27E0296AB14226DD606924
:1024E000022E074600F1020801DB374401E007F144
:1024F0000207206901DB304401E000F1020022699B
:102500003B460A444146A2F1010202F0AFF8022E16
:1025100002DBA069821B01E0A269921EA069E96941
:102520003B46401A4146401C02F0A0F8022E02DB56
:102530006069064401E06669B61CE76928687F1E89
:1025400002F09BFC3A463146206902F067F83A46B1
:102550003146A06902F062F8E7696868BF1E02F0C0
:102560008CFC20693A463146401C02F057F8A069BD
:102570003A463146401E02F051F8E869022802DC72
:10258000286A022823DDA86A022802DDE1690F1A01
:1025900001E0E769BF1EA86802F06FFCE969022943
:1025A00009DD20693B46421800F1020C31466046C5
:1025B000521E02F05BF8286A022808DDA269E86969
:1025C0003B46101A3146401C921E02F04FF8286814
:1025D00002F053FCD4E90620216901F08DFF686800
:1025E00002F04BFCD4E906202169401E491C521E12
:1025F00001F082FFA86A022811DDA1692669E46959
:10260000A1F10208271AA41EB61C7F1CA86802F0BC
:1026100034FC234642463946304602F027F871E042
:10262000208A00B2ADF81400A18A09B2ADF81610E4
:10263000228B12B2ADF81820A38B1BB2ADF81A3062
:102640002C69ED68CDE9005401F01AFF5AE0208AA8
:10265000298B0844ADF81400A08AADF81600208B31
:10266000298B401AADF81800A08BADF81A0020682D
:1026700001F060F90390006FF0B1022002F088FCD5
:10268000039890F87C10C1F3C00100EB8100006C4E
:1026900002F0F3FB0398406B02F00CFC0398006F10
:1026A00001F048F903990990B1F95A2005A901F000
:1026B000ABFD09A801F086F903A801F083F921E038
:1026C000208AADF81400A08AADF81600208BADF872
:1026D0001800A08BADF81A00A86802F0CEFB05A880
:1026E00001F0F0FF0EE0206801F024F9039030F8CB
:1026F0005A1F41F00C01018003A801F063F9206822
:1027000010F044F800206AE6B803022038B505004E
:102710004FF000040FD002F04FF9284601F00AF9FB
:10272000009090F87C00000700D50124684601F075
:1027300049F902F08FFF204638BD70B50D46040000
:1027400009D002F039F92946204615F015FEBDE8FA
:10275000704002F07FBF70BD7CB50D4604001DD0F7
:1027600002F02AF9204601F0E5F80090006F019090
:10277000684601F027F9294601A803F093FB58B1F8
:10278000204601F0D7F8009001990167684601F0F2
:1027900019F920460FF000FD02F05CFF7CBD38B552
:1027A0000C46050013D002F007F9284601F0C2F8E4
:1027B0000090B0F95A10A14204D0A0F85A4028461F
:1027C0000FF0EAFC684601F0FDF802F043FF38BD67
:1027D00038B50C46050015D002F0EEF8284601F099
:1027E000A9F80022CDF8000000EB8201521C0C6415
:1027F000022AF9D3684601F0E5F828460FF0CCFC30
:1028000002F028FF38BD2DE9FC470C465FEA0009BD
:102810004DD002F0D1F8484601F08CF80090428E7D
:10282000114614B141F0200501E021F02005AA4233
:1028300038D04586484600F018F9009EF4691FE03C
:10284000204601F077F80190076AB0F90200B6F966
:102850000210A0EB010801A801F0B4F8B6F9561077
:1028600041450CD1B06EA04209D096F832008006E6
:10287000204602D50FF0F1FF01E00FF0C9FB3C4606
:10288000002CDDD1009890F87C00400607D5A80602
:10289000484602D50FF0E1FF01E00FF0B9FB4846D2
:1028A0000FF07AFC684601F08DF802F0D3FEBDE827
:1028B000FC872DE9F34F85B000270C46B8460598F4
:1028C00001F038F80090C06D0121856805982A68EC
:1028D000904782462A6803210598904704902A6809
:1028E00002210598904703902A6800210598904797
:1028F0000646009810F018F98346009810F01BF96E
:102900008146009890F83210890601D5B0F95880B8
:1029100000F036F805460098C06E10B10FF085F94A
:10292000074625806780A4F804A0049AABEB020058
:1029300006EB0802401E2A4420813A44E280039BB1
:10294000A9EB0302521E6281A4F80CA02082701928
:10295000E681401E6082684601F034F8B4F90C004C
:102960000190B4F91000029002AA01A9059800F0A4
:1029700039F80198A0810298208207B0BDE8F08F55
:1029800010B50146002091F83220920607D5B1F922
:102990005400002803D1486B01F097FF801C10BD44
:1029A00070B58AB00C46054600F0C4FF0990C06DB2
:1029B000866809A801F006F8009534B1012C06D00C
:1029C000022C0BD0032C04D10AE0182000E01620C2
:1029D00001907168684688470AB070BD1520F7E716
:1029E0001720F5E72DE9FC4117468846044600F01C
:1029F000A1FF0090C16D056868468E6800F0E2FF97
:102A00003268002120469047064620460FF075F8B0
:102A100027E000BF00F08EFF0190B0F900102AB24D
:102A2000B0F90430891A9A1AB0F90230A3EB2543A1
:102A3000B34210D190F82800000605D538688842C6
:102A400009DB491E396006E0D8F80000904202DC3C
:102A5000521CC8F8002001A800F0B4FF20460FF077
:102A60008FF80400D6D1BDE8FC8170B586B006466B
:102A700000F060FF0590D0E91A4505A800F0A2FF1C
:102A800054EA050026D069463046FFF712FFACB184
:102A9000BDF90620BDF9041020460FF0F2FBBDF988
:102AA0000A00BDF90610421ABDF90800BDF904106C
:102AB000521C411A2046491C0FF08CFE002D09D0F3
:102AC000BDF90600BDF90210421ABDF904102846EE
:102AD0000FF0D7FB06B070BD2DE9F0430446406807
:102AE00089B005460FF059F8814600F023FF0290A7
:102AF000D0F84880D0F88070466E02A800F062FFDF
:102B00002068172853D008DC0E283AD00F2811D09F
:102B100014284CD015283DD149E01E281ED01F286E
:102B20002AD0222840D0312834D10020E06009B0DA
:102B3000BDE8F0836FF070414046884503D006F051
:102B400065FC01F0F1F8002EF1D0D4E90212206802
:102B5000CDE90405CDE9061204A81FE0E0680028CD
:102B6000E5D02FB1AF4203D038460FF089FDDEE744
:102B700028460FF0D9FDDAE7214648460EF09CFBC7
:102B8000D5E7E0684168002904DD00680928EFD036
:102B90000A2805D05EB12046C4F80490B047C6E7C5
:102BA00028460FF0D0FDC2E7C4F80C80BFE72046EE
:102BB0000EF076FEBBE7000030B5394887B00168FB
:102BC00041F080010160016801F080010691016817
:102BD00041F48071016000680024012500F48070D8
:102BE00006908020CDE90104032001A9CDE903501E
:102BF0002C4803F017FB2802CDE901052A4D01A955
:102C0000284603F00FFBFEF7A9FB00222846A91572
:102C100003F025FC142017F007FA012228461102C0
:102C200003F01DFC322017F0FFF901226946002055
:102C30008DF8004000F040F901226946A42000F020
:102C40003BF91620694601228DF80000802000F033
:102C500033F90C20694601228DF80000882000F02D
:102C60002BF902226946A12000F026F89DF8000009
:102C7000302804BF9DF80110032907D09DF80110EA
:102C800001291FBF0229012007B030BDC9B201EBE5
:102C9000002106A0FDF750FB07B0002030BD00006A
:102CA00030380240001C02400020024043545020B3
:102CB00049443A25780D0A002DE9F04115460E46A3
:102CC0000446FEF739FC7020FEF7F6FBFEF786FCA3
:102CD000E0B2FEF7F1FBFEF781FCFEF72DFC712060
:102CE000FEF7EAFBFEF77AFC0024002D88BF6F1E7A
:102CF0000AD9BC4214BF01200020FEF75DFB30550D
:102D0000601CC4B2AC42F4D3BDE8F041FEF740BC55
:102D10002DE9F14FDFF88CB10025DFF8909182B0FA
:102D20002C469BF80000401CC1B25F488BF8001095
:102D3000A0FB0120C008404200EB800011EB4000E6
:102D400001D00A297ED20122022002A9FFF7B4FF96
:102D50009DF8080010F00F0F74D000F00F00062847
:102D60007ED2FF214FF0000A01FA00F0C04340F08C
:102D7000C00089F82000012099F82010A8400142E5
:102D80005CD04B480426E84610F81540FEF7D4FB0B
:102D90007020FEF791FBFEF721FCE0B2FEF78CFB02
:102DA000FEF71CFCFEF7C8FB7120FEF785FBFEF763
:102DB00015FC0024771EBC4214BF01200020FEF742
:102DC000FBFA08F80400601CC4B2B442F3D3FEF767
:102DD000DFFB99F830009DF8001010F0010F9DF80E
:102DE000010001F00F0100EB01210CD009EB4500BF
:102DF000C1829DF802209DF8031002F00F0201EB42
:102E0000022181810EE02B480088411A09EB450020
:102E100081819DF802209DF8031002F00F0201EB62
:102E20000221C1829DF8000000F0F000802805D04A
:102E300009EB4500A0F816A0A0F80CA0681CC5B2CC
:102E4000052D00E00CE096D3B9F80C100124002900
:102E500002BFB9F8160000288DF808A08BF800A072
:102E60009DF8080010F01F0F11D199F8200010F004
:102E7000800F18BF20F0800007D14FF6FF71A9F82E
:102E80000C1000F0E000A9F8161089F820009BF85B
:102E90000000F02884BF0A208BF80000204603B011
:102EA000BDE8F08F1C000220CDCCCCCC2400022049
:102EB00032A50108C00B02202DE9F041002716467B
:102EC0000D460446FEF738FB7020FEF7F5FAFEF7D4
:102ED00085FBE0B2FEF7F0FAFEF780FB0024002E3F
:102EE0000AD9285DFEF7E8FAFEF778FB070003D160
:102EF000601CC4B2B442F4D3FEF74AFB3846BDE8C6
:102F0000F08100002DE9F0430446C56887B0904683
:102F10008946002001F0C2FF064625B1287910B18C
:102F200046F0020001E026F0020001F0B7FF206940
:102F3000012558B1D4E902128DE826000395638873
:102F40002288046841464846A0471EE0124F134BB2
:102F5000214638681B68427CE068984730B9E088B1
:102F6000012801D0002001E03868806BA288E38846
:102F7000A1680095CDE90410CDE90232019563887E
:102F800022884146484605F023FA07B03046BDE89E
:102F9000F04301F083BF0000A40002209C00022047
:102FA0002DE9F041534888B0016841F0800101608B
:102FB000016801F080010791016841F480710160AE
:102FC000006800240326DFF8308100F48070079049
:102FD0008025694601274046CDE90054CDE90276B7
:102FE00003F020F968006946CDE90007434F3846F1
:102FF00003F018F9FEF7B2F900223846690003F031
:103000002EFA0A2017F010F801223846110203F0B8
:1030100026FA0A2017F008F8CDE90054CDE9024657
:103020006946404603F0FEF8642016F0FDFF0422D6
:1030300048F2401005A900F07BF805A98DF818406A
:103040002FA0FDF779F931A105A8FDF797FB00281E
:103050001EBF012008B0BDE8F0810220012205A9B1
:103060008DF8140048F2400000F08EF9012248F279
:10307000470005A900F05CF89DF8141060292AD2D9
:1030800024A0FDF759F928488088A0F5AA411039F5
:1030900021D18DF81C4001218DF81D1000202349FD
:1030A0009DF81C200B5C401CC0B2B8281A448DF857
:1030B0001C20F5D3D0B21D49C043401C8DF81C0024
:1030C000B82248F2470000F05FF9022248F2FF0000
:1030D00007A900F059F90A2016F0A6FF012248F2CC
:1030E000400005A98DF8144000F04EF908B000200A
:1030F000BDE8F08130380240001C02400020024050
:103100004354502049443A25730D0A00393134376D
:103110000000000044656661756C74205665723A63
:1031200025640D0A00000000C00B02203CA5010828
:103130002DE9F04115460E460446FEF7FDF928201C
:10314000FEF7BAF9FEF74AFA200AFEF7B5F9FEF7DC
:1031500045FAE0B2FEF7B0F9FEF740FAFEF7ECF9F7
:103160002920FEF7A9F9FEF739FA0024002D88BFBF
:103170006F1E0AD9BC4214BF01200020FEF71CF9C3
:103180003055601CC4B2AC42F4D3BDE8F041FEF748
:10319000FFB900002DE9F14F764E0024764982B048
:1031A000764DA2463078401CC0B23070A1FB0021A1
:1031B000C908494201EB810110EB410101D00A2805
:1031C0007BD2012248F24E1002A9FFF7B1FF9DF811
:1031D00008004FF0000910F0800F0BD000F00F0036
:1031E000062807D2012248F24E1001A98DF804905A
:1031F00000F0CAF89DF8080010F00F0F5DD000F045
:103200000F00062859D2FF21DFF874B1DFF874816E
:103210004FF0010A01FA00F08DF80400C04395F860
:10322000207040F0C00085F82000A889A882E88AB4
:10323000E88395F820000AFA04F1084250D03BF8E0
:10324000140004226946FFF773FFB8F80400A0F5E4
:10325000AA41103904D0A0F58641423917D03FE089
:1032600095F8300010F0010F16D09DF801109DF870
:10327000000000EB012105EB4400C1829DF8032012
:103280009DF8021001EB0221C1F5487127E095F885
:10329000300010F0010F11D09DF801109DF80000D2
:1032A00000EB012105EB440081819DF803209DF88E
:1032B000021001EB0221C18212E03BE09DF80110F7
:1032C0009DF8000000EB012105EB4400C1829DF850
:1032D00003209DF8021001EB0221C1F58871818164
:1032E000601CC4B2052CA4D3A9894FF0010AB8F818
:1032F000002028468A4207D3C18AB8F802208A42B1
:1033000028BF86F8009015D29DF8081001F00F0133
:10331000012906D9C1898181018BE98286F8009053
:1033200008E0818A8181C18BC18280218DF80810DB
:1033300085F820709DF8080000F08F0080280FD1DC
:1033400095F8200010F0800F18BF20F0800005D104
:103350004FF6FF71A98100F0E000E98285F82000B6
:103360003078F02884BF0A203070504603B0BDE8A2
:10337000F08F00001D000220CDCCCCCC2400022018
:10338000F4A50108C00B02202DE9F04100271546E5
:103390000E460446FEF7D0F82820FEF78DF8FEF71B
:1033A0001DF9200AFEF788F8FEF718F9E0B2FEF7DB
:1033B00083F8FEF713F90024002D0AD9305DFEF7DB
:1033C0007BF8FEF70BF9070003D1601CC4B2AC42D6
:1033D000F4D3FEF7DDF83846BDE8F0812DE9F04F73
:1033E000DFF828B191B04FF0FF35DBF80030B3F9CA
:1033F00022100691DE69B3F92490F469A189814213
:1034000006D8E289824203D3471AD4F8008012E03A
:10341000D4E9018100296FD00A8882426CD84D8896
:10342000854269D3801A82B2486800EB8200B0F905
:103430000070B0F90250781C5ED0307EA17C10FB89
:1034400001FA217CCDE90701B3F92A60304606F084
:1034500085F9C0B20E90DBF8000007FB0A81A37C5F
:10346000826B0127CDE90412CDE90273C069089A85
:10347000C17E807ECDE90001DDE90603494604F006
:10348000A7FF681C18D046F0020006F067F9DBF8C9
:103490000000A37C05FB0A81826BCDE90273CDE9B4
:1034A0000412C069089AC17E807ECDE90001DDE981
:1034B0000603494604F08CFFDBF800005D46C06956
:1034C000417E007E814214D9022E12D086F0040083
:1034D00006F044F92868C069027EC37E12FB03919E
:1034E000437E857E089A06984B4412FB050205F040
:1034F00077FB0E9806F032F9DBF80000627C418C15
:103500001144418411B0BDE8F08F0000A4000220F6
:1035100004480068C069C06909B1027C0A60407C47
:1035200070470000A4000220022008807047C06994
:1035300082898A4202D8C2898A4210D2806880B1C8
:1035400002888A420DD843888B420AD3406800EB38
:103550008100A0EB8200B0F90000002801DB01200F
:1035600070470020704700002DE9F043304C0346BF
:1035700087B020681946B0F92A60C069C06900F0B8
:1035800086F8002850D041680088181A01EBC00561
:103590003046AF7806F0E2F8814620686A68012379
:1035A000816BCDE90237CDE90421C169CB7E8A7EEA
:1035B000CDE900230B7EB0F924102A78B0F922005F
:1035C00004F006FF2068C069417E027E91421FD947
:1035D000C07E11FB00F812FB00F7022E18D001F09C
:1035E0000CF9064601F0D2F801F047FC21682A7870
:1035F000CB69B1F92200DB7E12FB0302B1F9241082
:1036000001EB0803394405F0EBFA304601F035FCD4
:10361000484606F0A3F820686A78C369B0F922101A
:103620009B7E12FB0311418407B0BDE8F0830000CC
:10363000A400022030B50F4C05460B4620682946F1
:10364000C069C06900F023F8002812D041680088E2
:1036500024682A1A0120E46900EBC200085CA47EF9
:1036600010FB04F0002B04D011F8321011FB04F110
:10367000196030BDA400022001200880704700B509
:10368000C06900F004F8002800D0012000BD06E069
:1036900002888A4202D842888A4202D28068002880
:1036A000F6D1704770B50025124C19E02069124917
:1036B000C5EB051600EBC60070220968001DFDF77A
:1036C00003F82069002140F8361000EBC60000F135
:1036D0000C018161011D0A1DC0E90F126D1C4164BE
:1036E000A0688542E2DB01F067F9BDE8704001F0B7
:1036F000B1BF000078020220A400022070B50F497B
:103700000D480860084602F0C5FB0C4C143CA0684C
:10371000C0EB0010C500284600F086F82A460021BC
:10372000206102F030FC4FF0FF30206001F0D1FF4B
:10373000BDE8704013F062BB457801088C0202209E
:1037400010B5040009D001F037F920460FF09CFEB7
:10375000044601F07FFF204610BD002010BD38B5A3
:10376000054601F029F92846FFF7EAFF040009D0D1
:1037700000F0E0F82A460021009002F004FC6846C0
:1037800000F020F901F066FF204638BD024A1060C3
:1037900021F003005060704780B5042010B504008C
:1037A00016D001F009F90B48406B10F8341059B1EC
:1037B000022909D2042101EBC401415848680FF0E5
:1037C00061FD204614F0A4FCBDE8104001F042BFAA
:1037D00010BD0000C0B40420002805D0034AD16BFE
:1037E000016001B14860D06370470000C0B404209C
:1037F00010B5044601F0E0F82068FFF7CFFF002085
:103800002060BDE8104001F025BF000070B50D46F6
:103810000646002405E000BF06EB8400FFF7E8FF42
:10382000641CAC42F8DB70BD2DE9F041044613F096
:10383000C9FC2848E41C24F00305016C2D1DA94295
:1038400000D90D46C46B13E054F8042CAA420ED1E3
:1038500084B1216809B162684A60616809B122686F
:103860000A60C26BA24231D12168C1632EE0246894
:10387000002CE9D18046816BC0680F1857F8040C02
:103880003E1A306838B1002014F0ACFC57F8040C34
:103890003E1A3068D0B97068A84217DB3044441B28
:1038A0003046241D14F056FCD8F80C10491BC8F8FB
:1038B0000C10D8F814102944C8F814107068401B74
:1038C00002D031460FF0DEFC44F8045C2046BDE82F
:1038D000F0810000C0B4042010B5002413F072FC85
:1038E0000C490F2001EBC002526C1AB101EBC00071
:1038F000406C08E0401EF5D508E04168A14200D9BF
:103900000C46806810B180680028F6D1A4F10C0044
:1039100010BD0000C0B40420002138B104490422C5
:1039200002EBC000496B085841680C3908467047E3
:10393000C0B404200549CA69521CCA61496B01EB35
:10394000C0010A78521C0A7000F054B8C0B40420B8
:103950007CB506460C460846FFF7F2FE050020D06F
:10396000FEB13046FFF7D8FFA04200DA044601F06E
:1039700023F82846FFF7DEFF00903046FFF7DAFF16
:103980000146019022460098FCF717FE684600F0B9
:1039900019F801A800F016F83046FFF7FFFE01F015
:1039A00059FE28467CBD00000549102805D94A6803
:1039B000B0EB520F02D3500800E01020886070472F
:1039C00080B504200A4902684B6B52F8082C03EBBF
:1039D000C2021378022B03D3CB690BB15B1ECB6100
:1039E0001178491E117000210160084670470000DF
:1039F000C0B40420002806D00349042202EBC00012
:103A0000496B085808307047C0B404200820FFF7FD
:103A1000A6BE7CB5050023D0FFF78CFF0090406860
:103A2000C0B1FFF787FF0024019005E0019800EB8B
:103A30008400FFF7DDFE641C00980088A042F5DCDE
:103A400001A8FFF7BFFF0098001DFFF7D1FE009906
:103A5000002008806846FFF7B5FF2846FFF79EFE66
:103A60007CBD38B5002430B1FFF764FF00900488B6
:103A70006846FFF7A7FF204638BD38B50D4600243D
:103A800048B1FFF757FF2946009000F018F80446A8
:103A90006846FFF797FF204638BD38B50D460188C8
:103AA0000024A94209D9406838B1FFF743FF0090CC
:103AB00050F825406846FFF785FF204638BD10B511
:103AC0000024FFF7EAFF10B1FFF734FF0446204659
:103AD00010BD0000F0B52D271C68B0F1004F08D0D4
:103AE000002600280DDA651C1D6027704042012465
:103AF00008E0651C01261D606FF000402770491E1C
:103B000001E00024091BC9B22AB3491EC9B222E050
:103B10000C46491EC9B2944205D1124C27781C6844
:103B2000651C1D602770104C54F8215090FBF5F473
:103B3000E4B20A2C11D804FB150011B90EB1641CB3
:103B4000E4B20A2C02D10124491CC9B21D686F1CC1
:103B500030341F602C700029DAD1196800200870F9
:103B6000F0BD000098000220B042020810B5002805
:103B700007DD0A682B24531C0B60147009680022AF
:103B80000A7010BD10B5044600F016FF044904EB9E
:103B9000840001EB8000447901F05CFD204610BDFB
:103BA000C4B604202DE9FC5F8946044600F004FFFA
:103BB000484600F02FFE2C4E09EB8907824656F846
:103BC0002700019029484FF00108016841B92749B1
:103BD000C0F80080091D26480860084602F05AF91E
:103BE000214A09EB89015FEA0A0002EB81051BD03B
:103BF00001F01CF983464FF07F4001F033F900F0EB
:103C000093F800221146206800F0B8FB2068428833
:103C10000188504601F06EF946F8274085F8058086
:103C2000584601F003F917E046F8274085F805806B
:103C30002869464618B101F029F80020286174B1BE
:103C40000096E868A1684B46421AA8686168411A64
:103C5000206801F075F82861484615F001F801F078
:103C6000F9FC0198BDE8FC9FC4B60420240502209D
:103C70006D78010870B514460D46064600F09CFEAE
:103C8000204600F0C7FD0300174804EB840109D06B
:103C900050F8210041688068711A2A1A184601F00C
:103CA00019F91CE000EB8104A268B24201D00122A4
:103CB00000E00022E368AB4201D0012300E00023D2
:103CC0001A430CD0236943B150F821008168406841
:103CD0006A1A311A184600F0FEFFC4E90265BDE811
:103CE000704001F0B7BC0000C4B6042010B5C2B2E9
:103CF000CBB2D21A00D5524293B25B43C0F3072233
:103D0000C1F30724121B00D55242000C92B2A0EB63
:103D1000114002FB023200B2002801DA404200B238
:103D200080B200FB002010BD10B50021084600F055
:103D3000E1FD43F6FF725042BDE8104013460146D4
:103D4000AFF300802DE9FC411C4615460E460746A0
:103D500000F032FE042005F001FD80461248C068E4
:103D6000C16C006D0F4406440D440444ADF800706E
:103D7000ADF80450ADF80260ADF8064068460EF0AC
:103D8000E1FE07E023462A463146384604F028FF84
:103D90000EF08CFE0028F5D1404605F0DFFC01F066
:103DA00059FCBDE8FC81000098000220B0F9063003
:103DB000B0F90420B0F90210B0F90000FFF7C2BF5B
:103DC0002DE9F8431C00DDE9089816460F46054624
:103DD00002D10DF06BFE044600962E6843464A461B
:103DE00021462846B047060039D00DF054FE8146E2
:103DF000698A30460DF0F4FA30460EF02EFD484642
:103E00000EF02BFD4FF000080CE000BFCDF8008055
:103E100055F81CCF00231A4649462846E04700B310
:103E20000EF01BFD7F1E002FF0DC1D2148460EF01A
:103E300064FB601C12D000F0BFFD0DF06BFE30B1D2
:103E4000FFF7D8FD8469B44201D02000F8D1B44214
:103E500002D030460EF068FC01F0FCFB3046BDE8B5
:103E6000F88330460DF054FD0020F8E72DE9F041CD
:103E70001C4616460D460746022B02DB0020BDE815
:103E8000F0811C20FFF7D0FC0028F8D00DB10561AF
:103E90000AE0094A52F8241009B905E011460A68F7
:103EA000002AFBD1096901618461868200210160D9
:103EB0004160C0E90217E2E7BC00022070B51D4670
:103EC000FFF7D4FF040009D000F00EF8E0680068A6
:103ED00020B90348006800EB85008465204670BD6A
:103EE000A4000220FFF778BC70B590B38269022A63
:103EF00030DA1E4C54F8221019B944F8220032E08E
:103F000019464B68002BFBD106E0CB68C5681B68DF
:103F10002D68AB4203DD09680029F6D11AE0C1B172
:103F2000CB68C6681B683668B3420CD1838A012B04
:103F300005D008E01946DB681B68AB4203DB0B6861
:103F4000002BF7D129B14B6833B118604A68426041
:103F500004E0FFE7012070BD44F822004860884279
:103F600000D100210160002070BD0000BC000220D3
:103F700010B503E00468FFF7B7FF20460028F9D129
:103F800010BD15F0F3B800002DE9F0410026DFF870
:103F900034800D4F354600BF58F8254009E0E068F1
:103FA0000068385C20B1204615F0E0F8266026460F
:103FB0002468002CF3D16D1C022DEDDB3046BDE8EA
:103FC000F0810000BC00022034EF0108022801DB70
:103FD00000207047054951F8200004E0C1680968D5
:103FE0000029F6D000680028F8D17047BC000220F4
:103FF0002DE9F8431D461646884604000CD0FFF70D
:1040000099FC0090006807686846FFF7DBFC2B46C8
:10401000324641462046B847BDE8F88338B504002B
:104020004FF000000AD02046FFF784FC00900068A3
:1040300045686846FFF7C6FC2046A84738BD38B536
:1040400004004FF000000AD02046FFF773FC0090F8
:10405000006885686846FFF7B5FC2046A84738BD6C
:104060001FB503ABCDF80CD0FFF734FD684600F068
:1040700019F81FBD7FB50C461546CDF80CD003A925
:10408000FFF774FD002801DD641EE4B203AB2A468D
:104090002146FFF71FFD684600F004F87FBD0122AE
:1040A0000FF014BD2DE9FC4706005FD000F084FC42
:1040B00000F0BAFB3C4C81462068B0F9228000F049
:1040C000E1FB216807468A8CD01B888441E000BF51
:1040D00047F6FF71304601F0A9FD824601463046A1
:1040E00001F07AFD2168054691F82C0000F00300EC
:1040F000012841D002283BD000204A8C101A488465
:10410000ADF800006A1E1044ADF80400888CADF8CC
:104110000200A9F101010844ADF806006A465146C3
:10412000304601F0D7FB2168BDF802008884514673
:10413000304601F051FA064430780A281ED00D2886
:104140001CD0BDF80000216828444884307818B19C
:10415000761C30780028BBD12068818C394481845A
:10416000818D21F00301818501F074FABDE8FC879F
:1041700005EBD5704010C0E72846BEE7206890F8F0
:104180002C1001F0030101290BD0022909D0018C68
:10419000418431780A29D9D1828C02EB09018184CA
:1041A000D4E7A0F82280F4E7A400022070B51446FA
:1041B0000D46064600F000FC0548006845848484EE
:1041C0003046FFF76FFFBDE8704001F043BA0000D2
:1041D000A40002202DE9F04107460A4815460E4684
:1041E0000068B0F92C0040F0020000F0C1FE044667
:1041F0002A4631463846FFF7D9FF2046BDE8F04150
:1042000000F0B6BEA400022047F6FF73AFF30080B3
:104210002DE9FC411F4690460D4606004FF0000474
:104220001AD000F0C9FB65B128460EF0F7FA040079
:1042300007D002462946684601F056FD68460EF052
:10424000EDFA3B4642462946304601F09BFB2046AC
:104250000EF0E4FA01F0FEF9BDE8FC812DE9FF4F14
:1042600087B09046894607007DD000F0A5FBD9F8BD
:104270000040D9F8045021B228B2401A401C0290E4
:1042800000F0D2FA064618F00C0F1ED038460A9AF3
:10429000029901F0E9F908F00C01042904D0082979
:1042A00002D00C2911D104E0291400FB1610401C87
:1042B00009E02114C1EB254200FB1620401C00EB55
:1042C000D07001EB600060F31F4448460EF0A6FA80
:1042D0005FEA000B09D00246494604A8CDE904452F
:1042E00001F002FD04A80EF099FAA6F1010A384681
:1042F0000A9A029901F016FE03900AEB244060F33B
:104300001F45CDE900453846039901F065FC18F0DA
:1043100003010ED001292CD002290ED1B9F90420B5
:10432000B9F90010521A101A00EBD07001EB6000BE
:1043300001E0B9F80000ADF800006A46384603997C
:1043400001F0C8FA38460A9A029901F0E1FD0744E3
:1043500006EB244060F31F4438780028C7D1584644
:104360000EF05CFA00E001E001F074F90BB0BDE87A
:10437000F08FB9F80410081A401CDCE77CB514462D
:104380000D46064600F018FB11480068C16C006D30
:104390000D4404443188681E0844ADF80400ADF8AB
:1043A00000507188601E0844ADF80600ADF8024068
:1043B00068460EF0C7FB06E0224629463046FEF767
:1043C000A1FD0EF073FB0028F6D101F043F97CBD8E
:1043D000A40002201CB50A460146684601F04DFDC6
:1043E00000F0EAFA2548BDF80010006830F84C2FBC
:1043F0001144ADF80010BDF8021082881144ADF8E8
:104400000210BDF8041002881144ADF80410BDF884
:10441000061080880844ADF8060068460EF092FB4E
:1044200027E000BFBDF900400BE000BFBDF902105E
:10443000204604F057F9BDF90610204604F052F961
:10444000A41CBDF90400A042F0DABDF902400AE064
:10445000BDF90000214604F045F9BDF904002146EC
:1044600004F040F9A41CBDF90600A042F0DA0EF0F9
:104470001DFB0028D6D101F0EDF81CBDA4000220E0
:104480002DE9F04F87B09B46DDE9109892460C4627
:10449000054600F091FA16480168C86C096D471985
:1044A0000E1900EB0A0501EB0B04ADF81070ADF826
:1044B0001450ADF81260ADF8164004A80EF042FB9F
:1044C00088B1DFF830B04FF0010ACDE90098CDE9AE
:1044D00002BA23462A463146384610F071FE0EF0E5
:1044E000E5FA0028F1D101F0B5F807B0BDE8F08F8A
:1044F000A4000220D58500082DE9FC4114460D4694
:10450000064600F059FA114F3968C86C096D054428
:1045100004440E44ADF80050ADF80440ADF802601C
:10452000ADF8066068460EF00DFB08E038682246DC
:104530003146406E0368284698470EF0B7FA0028C7
:10454000F4D101F087F8BDE8FC810000A40002204E
:104550007CB50C46064600F02FFA0F4D2868C16C5A
:10456000006D0E440444ADF80460ADF80060ADF891
:104570000640ADF8024068460EF0E4FA07E028680D
:104580002146406E4268304690470EF08FFA002870
:10459000F5D101F05FF87CBDA40002202DE9FC41BB
:1045A0001C4616460D46074600F006FA1A480168F2
:1045B000087ECA6C096D17440D440C44401E391A1C
:1045C0001644ADF800103118ADF80410291A204433
:1045D000ADF80600ADF8021068460EF0B3FA15E02B
:1045E00032462946384603F0F5FF32462146384622
:1045F00003F0F0FF621E691C384604F0BBF8621E2F
:10460000691C304604F0B6F80EF050FA0028E7D1E5
:1046100001F020F8BDE8FC81A40002207CB514461E
:104620000D46064600F0C8F90F480068C16C006DE1
:104630000E4405440444ADF80060ADF80460ADF8E4
:104640000250ADF8064068460EF07CFA06E02246BD
:104650002946304604F08EF80EF028FA0028F6D1EC
:1046600000F0F8FF7CBD0000A40002202DE9FC4111
:104670001C4615460E46074600F09EF91048006895
:10468000C16C006D0F4406440D440444ADF8007045
:10469000ADF80450ADF80260ADF8064068460EF083
:1046A00051FA07E023462A463146384604F098FA84
:1046B0000EF0FCF90028F5D100F0CCFFBDE8FC813C
:1046C000A4000220B0F90630B0F90420B0F90210BD
:1046D000B0F90000FFF7CABF08B50B46002805D0A7
:1046E000009281888268C08800F001F808BD10B58A
:1046F0000828029C30D008DC04FB01F401280AD011
:10470000022813D0042804D11CE0102828D0202827
:104710002CD0002010BD04EBD30003F00701105C87
:10472000C1F10701C84000F0010010BD04EB930087
:104730000621105C01EA4301C1F10601C84000F006
:10474000030010BD04EB5300D907105C02D000F049
:104750000F0010BD000910BD04FB0130105C10BD3E
:10476000481004FB003032F8100010BD881004FB24
:10477000003052F8200010BD034951F82000C168F4
:104780008A6A082110470000BC00022010B500F022
:1047900013F904F055FA04F0D1FA044600F05AFF78
:1047A000204610BD10B5044600F006F9054800216A
:1047B0000068C069426820469047044600F04AFFFE
:1047C000204610BDA400022070B50C46054600F03E
:1047D000F3F8064821460068C069426828469047B9
:1047E000044600F037FF204670BD0000A400022000
:1047F000002801D00DF02CB9704710B500F0DCF89E
:1048000004F026FA04F09AFA044600F023FF20464A
:1048100010BD00000021022802D2024951F82010E8
:10482000084670477002022010B500F0C5F8044831
:104830000068C069447E00F00DFF204610BD0000F6
:10484000A400022070B514460D46064600F0B4F8E8
:1048500022462946304604F02FFA10B10020286085
:104860002060BDE8704000F0F5BE10B5044601F0D0
:10487000F9F901462046BDE8104001F0ADB900F05D
:1048800021BF000010B5002400F096F80B48006826
:1048900090F82C1001F00C01042904D0082906D04E
:1048A0000C2907D103E0C069047E641E02E0C069E0
:1048B000007E440800F0CEFE204610BDA400022079
:1048C000417EC07E11FB00F07047017EC07E11FB6F
:1048D00000F07047024951F82000006900687047F5
:1048E000BC000220024951F820000069406870476E
:1048F000BC00022070B50D46044600F05DF820466D
:1049000012F0F6FA0446284612F0FAFA044300F0D0
:10491000A1FE204670BD000010B500F0BFFF0A499F
:104920002E20087000F0D4FE084812F013FC04F0AA
:1049300029FA04460021084600F0FAFA0DF082FB3D
:10494000FEF7B0FE204610BD980002208CB5042072
:104950002DE9FC411C4615460E46074600F02CF892
:10496000012000F09BFA804612480068C16C006D7F
:104970000F4406440D440444ADF80070ADF80450F3
:10498000ADF80260ADF8064068460EF0DBF807E0CF
:1049900023462A463146384604F022F90EF086F8BE
:1049A0000028F5D1404600F079FA00F053FEBDE84A
:1049B000FC810000A400022070B5184CE06820B112
:1049C00000F07DFE6168884204D000F083FE00F0B4
:1049D00076FE6060E068401CE06001281CD112F0A7
:1049E0000DFA05462068854216D0002813DBFFF734
:1049F000CBFA01462068C0EB0012206900EBC2022E
:104A00005167C5EB0511064A00EBC100011D11609D
:104A1000406FFFF7ADFA256070BD000078020220FC
:104A2000A400022038B504001CD0FFF7C5FF0E48D3
:104A30000068006EA04201D100F0EAF92046FEF7BE
:104A400079FF0090406908B100F0EEFD0098006821
:104A5000FFF748FA6846FEF7B5FF2046FEF79EFED0
:104A600000F0F8FD38BD0000A400022038B50500B4
:104A70004FF0000411D0FFF79FFF2846FEF75AFFC2
:104A80000090006800698068804705F097F9044647
:104A90006846FEF797FF00F0DDFD204638BD38B5CB
:104AA00004000ED0FFF788FF2046FEF743FF00F119
:104AB000180400906846FEF785FF00F0CBFD204605
:104AC00038BD002038BD0000F8B50546FFF774FF7B
:104AD000104E3068046ECDB10CB100F099F90CF0B5
:104AE000CFFE2846FEF726FF009031680D6600686D
:104AF000FFF7FAF96846FEF765FF04F0B3FF04F02C
:104B0000AFFC00BF00F0A6FD2046F8BD00F080F924
:104B1000F8E70000A4000220F8B516460F4605008D
:104B200012D0FEF707FF009044696846FEF74AFF7F
:104B30002846FFF79BFF0346082800DD2CB13246CC
:104B40003946284614F0B4FBF8BD324639462846AB
:104B500014F04EFDF8BD10B5002821D009B30AB3FA
:104B6000B1F90040B2F900309C4200DA23460380DC
:104B7000B1F90240B2F902309C4200DA2346438088
:104B8000B1F90440B2F904309C4200DD2346838031
:104B9000B1F90610B2F90620914200DC1146C1803D
:104BA00010BD11460A6802604968416010BD0028C6
:104BB0000BD003880B44038083881944818041888B
:104BC00011444180C1881144C180704770B50E4DB9
:104BD0000446D5E90001884209D10C49884201D137
:104BE0003C3000E00C3807C884E8070006E090E895
:104BF0000E0084E80E0012F001FA2860207A0028E6
:104C000000D0012070BD000030050220ECB6042069
:104C10000448D0E90010814201D1012070470020F2
:104C20007047000030050220054A10B503491160A5
:104C300014F028F9BDE8104000F0BAB9591C010879
:104C4000C8000220B0F90220B1F906309A4213DC04
:104C5000B1F90220B0F906309A420DDCB0F900201B
:104C6000B1F904309A4207DCB1F90010B0F9040040
:104C7000814201DC01207047002070470146024854
:104C800070220068FBF720BDA400022038B50400A4
:104C900020D0FFF791FE204614F0BEF9204614F014
:104CA00059FA2046FEF746FE00900068FEF794FD94
:104CB0000098C068FEF772FD0098C069FEF76EFDAF
:104CC0006846FEF77FFE2046FEF768FDBDE83840E7
:104CD00000F0C0BC38BD70B515460E4604000AD0C1
:104CE000FFF76AFE2A463146204613F0F1FCBDE884
:104CF000704000F0AFBC70BD38B504001ED0FFF7A7
:104D00005BFE2046FEF716FE0090007C800710D464
:104D1000204612F013FC6846FEF754FE204613F0BE
:104D2000BBFF2046FEF706FE0090018A41F002011B
:104D300001826846FEF746FE00F08CFC38BD00009C
:104D40002DE9F84304460088089F91468846E8B359
:104D50006088D8B3E06818B1806800283BD002E0D2
:104D6000E088202836D107F0010200212348FFF710
:104D70007DF805002ED02088860060884643FFF726
:104D80001BFE06F12000FEF7EAFC060025D03046A7
:104D9000AE60FEF7CFFD009007824461A0F804806A
:104DA000A0F80690238808EB0301491E0181618861
:104DB0004944491E418105606846FEF703FEE068EC
:104DC00078B1214630460EF0DBFE00E002E040B153
:104DD00000F040FC0020BDE8F8832846FFF782F889
:104DE000F6E7B80705D5304612F0A8FB304613F0B9
:104DF00053FF00F02FFC3046EDE70000F8550208A5
:104E0000024970220968FBF75FBC0000A400022081
:104E100010B5FFF7D1FD04F0D9FA04F023FE0CF031
:104E200001FCBDE8104000F015BC000070B50B4D52
:104E300004462868467CFFF7BFFD022C09D22046B5
:104E4000FFF7C4F828B128684474FFF7E1FF04486D
:104E5000046000F0FFFB304670BD0000A40002209B
:104E6000F001022010B50446FFF7A6FD204604F02D
:104E7000CDFABDE8104000F0EDBB10B50446FFF7D9
:104E80009BFD204604F0FAFABDE8104000F0E2BBBA
:104E900001498860704700009800022010B5044660
:104EA000FFF78AFD204604F059FC044600F0D2FBCF
:104EB000204610BD70B50446FFF77EFD044800682B
:104EC000C56904B1C46100F0C5FB284670BD00008F
:104ED000A400022070B514460D460646FFF76CFD8F
:104EE00022462946304604F055FC044600F0B2FB49
:104EF000204670BD70B514460D460646FFF75CFDB2
:104F000022462946304604F05BFC044600F0A2FB32
:104F1000204670BD70B50C460546FFF74DFD214695
:104F2000284604F079FC044600F094FB204670BD4E
:104F300070B50C460546FFF73FFD0948224605803F
:104F40000848048008480068417C084850F821005F
:104F5000C1680B6A29469847BDE8704000F07ABBEB
:104F6000D8000220DA000220A4000220BC000220A7
:104F700070B50446FFF720FD04480068B0F92C50D6
:104F8000848500F067FB284670BD0000A400022065
:104F900070B50446FFF710FD04480068B0F92A50C8
:104FA000448500F057FB284670BD0000A400022095
:104FB00002480068002800D0004770479C02022089
:104FC00002498A6802B98860FFF7F2BF60020220D6
:104FD0002DE9FC41984616460D460746FFF7ECFCC6
:104FE0001C20FEF7BCFB04002DD01C491A480860A9
:104FF0002046FEF79FFC009015B9FFF740FC0546E0
:1050000000980760C0E90465A0F80C806846FEF7C8
:10501000D9FC204612F04EFA114DA86840B9012083
:10502000A86005F10C010F480860084600F032FF47
:105030002046FEF77FFC0190296849B181602C6011
:1050400001A8FEF7BFFC00F005FB2046BDE8FC818F
:1050500000212C608160F3E791500008C400022019
:105060003C0502208578010810B504000ED0FFF73A
:10507000A3FC204613F088F8204614F043F820469D
:10508000FEF78CFBBDE8104000F0E4BA10BD000054
:105090002DE9F04188B00025FFF78EFC184C6768B9
:1050A00025E000BFFFF7EBFB06466068FEF742FC19
:1050B00001904169891B002915DC61680296049101
:1050C0000169039146686660D0F8008001A8FEF788
:1050D00079FC02A84146884766B160680125B8425C
:1050E00005D1002506E001A8FEF76CFC02E060682F
:1050F0000028D7D100F0AEFA08B02846BDE8F0810C
:105100003C05022038B50C46050011D0FFF754FCD1
:105110002846FEF70FFC00908089204201D0012430
:1051200000E000246846FEF74DFC00F093FA00E032
:105130000124204638BD38B5040017D0FFF73CFCE9
:105140002046FEF7F7FB0090FFF799FB0146009819
:105150008269114441616846FEF734FC204613F031
:10516000D1FF204612F0A6F900F074FA38BD38B528
:105170000C4605000BD0FFF71FFC2846FEF7DAFBB4
:10518000009084616846FEF71DFC00F063FA38BDAC
:1051900038B50546002028600648046844B120461A
:1051A000FEF7C8FB0090006928606846FEF70AFC1D
:1051B000204638BD3C05022038B504004FF0000001
:1051C0000D46086011D02046FEF7B4FB00908468BD
:1051D00044B16846FEF7F6FB2046FEF7ABFB0090B5
:1051E000006928606846FEF7EDFB204638BD0000E8
:1051F0002DE9F84FDFF898800546264F98F81800FB
:105200008B46410738680A9E9946407C924607D4EF
:1052100003F068FD04463868407C03F066FD06E054
:1052200003F063FD04463868407C03F05BFD002713
:1052300085B1441EB9EB060000D54042142806DBB8
:105240005146BBEB0A0000D54042142804DA012085
:10525000BDE8F88F641EEDE70A464B4659463846CE
:10526000009612F076F90C4F4B46524647F835003F
:1052700059462046009612F06CF907EBC5014860CC
:1052800013F068F901210020C8F81C10E0E70000C5
:10529000DC000220A4000220FCB504202DE9F04728
:1052A0004D4D4E4E0024E86950B9E8683460746092
:1052B0004107B4604107F46013F04CF90120E86144
:1052C0002878C8B100F0D4F8A846686000F0CEF89D
:1052D0006968286A81420BDBD8F824204046914255
:1052E00006DC836A82689A4202DBC36A9A420DDD59
:1052F0004FF0FF3001466AE000F0E2F8A86000F0ED
:10530000B6F82878401C2870BDE8F087326898F815
:105310001800334F8D1A40073868407C02D403F0E0
:10532000E1FC01E003F0E1FCD6E90021401E454329
:10533000B146891A95FBF1F6D8F80820D9F808008B
:10534000151A98F8180040073868407C02D403F01A
:10535000CCFC01E003F0C6FC401E4543D9E9020144
:10536000081A95FBF0F598F8180040073868407C5B
:1053700017D403F0B7FC81463868407C03F0B5FCD5
:10538000D8F818200146D00703D0A9EB0600401E2C
:1053900000E03046920702D5491B491E17E0294616
:1053A00015E003F0A2FC81463868407C03F09AFCCB
:1053B000D8F81820D10703D0A9EB0601491E00E058
:1053C0003146920702D5401B401E00E0284613F0EC
:1053D0008DFD88F8004097E7DC000220FCB5042032
:1053E000A40002200149886170470000DC0002200F
:1053F000074A002806DB002904DB01231372C2E9F7
:10540000000101E000201072014800F003B8000024
:1054100034B7042010B504460C220849FBF75EF8A7
:10542000002809D0054894E80E0080E80E002046C8
:10543000BDE81040FFF7F8BB10BD000058B70420CE
:10544000094B30B41A68821A00D552425C680C1BB2
:1054500000D564422244022A04DDC3E9000130BCC5
:10546000FFF7C6BF30BC70479402022070477047F8
:10547000114810B58088A0F5AA4110391CBFA0F5CD
:10548000C851B1F1630111D0A0F5E04184391FBFCB
:10549000A0F58441B1F5A171A0F5E041B1F116018B
:1054A00004D0BDE81040D0200BF0ECBA034C002033
:1054B00061688847A08910BDC00B0220240002202B
:1054C000114810B58088A0F5AA4110391CBFA0F57D
:1054D000C851B1F1630111D0A0F5E04184391FBF7B
:1054E000A0F58441B1F5A171A0F5E041B1F116013B
:1054F00004D0BDE8104090200BF0C4BA034C00204B
:1055000061688847E08A10BDC00B02202400022099
:1055100070B50C460546FFF74FFA0548214600686E
:10552000C26828469047044600F094F8204670BDB3
:10553000A800022010B50446FFF73EFA04480068B0
:10554000016820468847044600F084F8204610BDD4
:10555000A800022010B50446FFF72EFA04480068A0
:10556000416820468847044600F074F8204610BD84
:10557000A80002200149096889680847A80002209C
:105580002DE9F041084E0446056830680168284658
:105590008847074630684168284688472844206085
:1055A0003846BDE8F0810000A80002202DE9F04156
:1055B00000250E4680462C46064F06E0396808EB6B
:1055C00004004968884704446D1CA642F6DC28465E
:1055D000BDE8F081A80002202DE9F0410C46064606
:1055E0000025064F05E03868416830468847064484
:1055F0000544641EF7D22846BDE8F081A8000220C9
:105600002DE9F0411E46069C1746884605463A4657
:10561000A8687F1C3346D0F804C041462846E047BE
:10562000641EF4D1BDE8F08138B50546FFF7C4F932
:105630002846FEF77FF900908189491E0CB28481CB
:105640006846FEF7BFF914B92846FEF7A7F800F040
:1056500001F838BD0348C168491EC16001D100F09E
:105660003AB87047780202202DE9F04116460F46FD
:1056700005460024FFF7A0F932463946284600F0D7
:1056800047FC054408B1641CF6E7FFF7E3FF20463A
:10569000BDE8F08101204FF4000110B514F0FCFECC
:1056A0004FF40001FEF772F88020FEF77DF9BDE8A7
:1056B00010400148FFF7ECBB48F601087047002096
:1056C0007047000001480068704700008C0002200D
:1056D00070477047704770472DE9F041984616466D
:1056E0000C4688B3FFF7C1F8074608F0030001280D
:1056F00025D0022817D0B4F9005000BFFFF794F866
:10570000014608F00C0004282BD00C281DD0B4F959
:10571000020035807080EA19521E0844B280401E93
:10572000F080BDE8F081B4F90400B4F90010401A2B
:10573000C01B401C00EBD07001EB6005DEE7B4F944
:105740000400C51B6D1CD9E710E0B4F90600B4F9DC
:105750000220801A401A401C00EBD07002EB60005F
:10576000D7E7B4F90600401A401CD2E72068306041
:1057700060687060D5E7000010B5082A0EDC0346AB
:10578000012A18D0022A56D0042A76D010F8042B09
:1057900003F8012B491EF9D1012010BD102A08DCA5
:1057A0004FEA000230F8043B22F8023B491EF9D1CF
:1057B000F2E7002010BD10F8042BD207120E491E8C
:1057C00034D010F8044B491E04F0010442EA84125C
:1057D0002CD010F8044B491E04F0010442EA441294
:1057E00024D010F8044B491E04F0010442EA0412CC
:1057F0001CD010F8044B491E04F0010442EAC40214
:1058000014D010F8044B491E04F0010442EA84024B
:105810000CD010F8044B491E04F0010442EA440283
:1058200004D010F8044B04F00104224303F8012BC8
:105830000029C0D1B0E710F8042B9207120E491EC0
:1058400015D010F8044B491E04F0030442EA041278
:105850000DD010F8044B491E04F0030442EA840200
:1058600005D010F8044B04F003042243491E03F84A
:10587000012B0029DFD18FE7FFE710F8042B120777
:10588000120E491E05D010F8044B04F00F042243F9
:10589000491E03F8012B0029EFD17DE70B4810B515
:1058A0008169002910D101218161FFF7F3FEFDF725
:1058B00025FF04F0E9F8054905481C310860BDE8FA
:1058C0001040084600F0E6BA10BD00009800022023
:1058D000E57701087CB5064628480D46006868B1A2
:1058E00000200DF02FF906E06A46294630460EF0FA
:1058F0000DF90DF0DBF80028F6D17CBD10680090A2
:105900001F4C506801902268BDF8000032F84C1F0F
:105910000844ADF80000BDF8020091880844ADF8D5
:105920000200BDF8040011880844ADF80400BDF879
:10593000060091880844ADF8060068460DF002F9AB
:105940000EE000BF2068BDF800106A464184BDF833
:1059500002108184294630460EF0D8F80DF0A6F8E2
:105960000028EFD1206830F8221F428D891A01806B
:105970004188C28D891A41807CBD0000D40002207C
:10598000A40002202DE9FF4F85B09A4690460D46AF
:10599000FEF74AFF4FF00009DDF814B006464C460A
:1059A00025B1286800906868019002E06846FEF71B
:1059B0001FFF18F00C0F02D05546002713E0BDF969
:1059C00002402DE029467F1C059800F02FF9014682
:1059D0006D1A0598FFF700FE05990844059005A883
:1059E00000F059F908B9002DECD108F00C0004289A
:1059F00004D0082802D00C2812D105E0BDF9060019
:105A000007FB1604641C0BE0BDF90600BDF902108B
:105A1000401A07FB1600401C00EBD07001EB60043D
:105A20005546CDF814B043E02946059800F0FEF83D
:105A300007460146ED1B059800F0CEF818F003016B
:105A40000ED0012939D002290DD1BDF90410BDF9BC
:105A50000020891A091A01EBD17102EB610101E002
:105A6000BDF900108946174A401E4844126839465D
:105A7000A2F822909484ADF80C00A019401EADF855
:105A80000890ADF80E00ADF80A4002AA0598FFF79D
:105A900021FF39460598FFF79FFD059908440590B9
:105AA000FEF7C2FE044405A800F0F5F8002801D175
:105AB000002DB9D109B0BDE8F08FBDF90410091A65
:105AC000491CCFE7A40002202DE9F04F85B09B468A
:105AD000DDE90F8792460C460546DDF83890FEF763
