:020000040800F2
:10000000F8B70520050300087701010843BF000881
:10001000B9000108092000086187010800000000FC
:100020000000000000000000000000009B480108E4
:10003000372D000800000000491A00084549010852
:100040003F0300083F0300083F0300083F03000888
:100050003F0300083F0300084B3300083F0300083C
:10006000593300085F3300083F0300083F030008CE
:100070003F0300083F0300083F0300083F03000858
:100080003F0300083F0300083F0300083F03000848
:100090003F0300083F0300083F0300083F03000838
:1000A0003F030008097001083F0300083F030008F0
:1000B0003F0300083F0300083F0300083F03000818
:1000C0003F0300083F0300083F0300083F03000808
:1000D0003F030008C1860108118701083F0300089B
:1000E000513300083F0300083F0300083F030008A6
:1000F0003F0300083F0300083F0300083F030008D8
:100100003F0300083F0300083F0300083F030008C7
:100110003F0300083F0300083F0300083F030008B7
:100120003F0300083F0300083F0300083F030008A7
:100130003F0300083F0300083F0300083F03000897
:100140003F0300083F0300083F0300083F03000887
:100150003F0300083F0300083F0300083F03000877
:100160003F0300083F0300083F0300083F03000867
:100170003F0300083F0300083F03000800000000A1
:100180003F0300083F0300083F0300083F03000847
:100190003F0300083F0300083F0300083F03000837
:1001A000B9EF00083F0300083F0300083F030008C1
:1001B0003F0300083F0300083F0300083F03000817
:1001C0003F0300083F030008000000003F03000851
:1001D0003F0300083F0300083F0300083F030008F7
:1001E0003F0300083F0300083F0300083F030008E7
:1001F0003F0300083F03000800F002F800F072F827
:100200000AA090E8000C82448344AAF10107DA4571
:1002100001D100F067F8AFF2090EBAE80F0013F051
:10022000010F18BFFB1A43F00103184760320300A7
:10023000803203000A444FF0000C10F8013B13F029
:10024000070408BF10F8014B1D1108BF10F8015B2F
:10025000641E05D010F8016B641E01F8016BF9D122
:1002600013F0080F1EBF10F8014BAD1C0C1B09D179
:100270006D1E58BF01F801CBFAD505E014F8016BEB
:1002800001F8016B6D1EF9D59142D6D3704700007D
:100290000023002400250026103A28BF78C1FBD88F
:1002A000520728BF30C148BF0B607047662928F04D
:1002B000E682642900F0E680782900F01F81732926
:1002C00000F02186002070471FB528F0D3FA00F017
:1002D0006FFE04000020002128F0B6FAE0601FBD88
:1002E00010B510BD00F068FF1146FFF7EDFF28F0D4
:1002F0009FF800F086FF03B4FFF7F2FF03BC27F07E
:1003000074FF000011488047DFF84400016841F4A1
:1003100070010160BFF34F8FDFF83800016821F0F2
:1003200040410160BFF36F8F0B480047FEE7FEE7D7
:10033000FEE7FEE7FEE7FEE7FEE7FEE7FEE7FEE795
:1003400006480749074A084B7047000069490108F9
:1003500088ED00E034EF00E0F9010008F8AB05207B
:10036000F8B70520F8AD0520F8AD052072B6704746
:1003700062B67047EFF3108072B6704780F3108852
:10038000704730BF704720BF7047B0FA80F07047A9
:1003900090FAA0F0B0FA80F0704790FAA0F07047A1
:1003A000704700000FB4044910B503AA029800F08A
:1003B000AFFD10BC5DF814FB140002200FB41CB597
:1003C000074B06AA7B4469460090059800F071FD32
:1003D0000020694600F080FD1CBC5DF814FB0000A5
:1003E000110B000070B5044685690068C10601D58F
:1003F000302600E02026C00707D070BDD4E90121D7
:1004000030469047206A401C20626D1EF6D570BDB4
:1004100070B5044685690078C00707D170BDD4E97E
:10042000012120209047206A401C20626D1EF6D5D5
:1004300070BD70B50C460546012A05D028788006A7
:1004400000D5EA69002302E0012305E05B1C93422A
:1004500002D2E05C0028F9D1A869E618C01AA861A8
:10046000286A184428622846FFF7BCFF04E0D5E953
:10047000012114F8010B9047B442F8D32846FFF746
:10048000C7FF70BD2DE9F0410646002410687529AC
:10049000314616A510D0AFF30080002802DA4042A2
:1004A00013A507E031688A0701D512A502E04907C4
:1004B00004D511A5012401E0AFF3008000210A2238
:1004C00006F1240709E0B0FBF2FCB0FBF2F302FBFB
:1004D0001C00303078541846491C0028F3D12346BC
:1004E0002A463046BDE8F04100F077BA000000002F
:1004F0002D0000002B0000002000000070B5044615
:100500000D4621461068AFF300802188090502D509
:100510000F4A7A4402E00E4A7A440E32002104F176
:10052000240305E000F00F060009965D5E54491CA7
:100530000028F7D120780023000704D5702D02D0C1
:1005400009B1022311322046BDE8704000F045BADF
:10055000B62D03002DE9F0474FF0000A8946044606
:10056000C0F820A02046E1688847002876D02528DA
:1005700006D0D4E901219047206A401C2062F1E7AF
:10058000E168204600258847C4F81CA006460027DD
:10059000C4F818A02A2E09D0304627F01FFE38B321
:1005A00004EB8708303EC8F8186019E059F8041BBE
:1005B000204604EB87029161E1688847012F0646D7
:1005C00018D1E069002820DA25F020051DE0D8F8D0
:1005D000180000EB800006EB40003038C8F8180027
:1005E0002046E1688847064627F0F8FD0028EED14E
:1005F000012F0AD02E2E08D12046E16888477F1CA3
:100600000646022F45F02005C4DBA069002803DA66
:10061000404245F00105A061E80701D025F0100532
:10062000B6B1A6F14100192802D8203645F400657C
:100630004A463146204625604D46FFF737FE58B101
:10064000012806D0ED1D25F0070000F1080989E713
:1006500004E005F1040985E730468AE7206ABDE831
:10066000F08740EA010310B59B070FD1042A0DD390
:1006700010C808C9121F9C42F8D020BA19BA884283
:1006800001D9012010BD4FF0FF3010BD1AB1D307C2
:1006900003D0521C07E0002010BD10F8013B11F8F8
:1006A000014B1B1B07D110F8013B11F8014B1B1B21
:1006B00001D1921EF1D1184610BD40EA0103024655
:1006C00030B59B0710D14FF0013400E008C208C9D3
:1006D0001D1B9D4315EAC41FF8D013F0FF0102F85B
:1006E000011B0DD01B0AF8E711F8013B002B02F8A3
:1006F000013B05D011F8013B002B02F8013BF3D17F
:1007000030BD10B5431C02E010F8011B71B1810728
:10071000FAD14FF0013202C88C1A8C4314EAC2118C
:10072000F9D0C01A0A0603D0C01E10BDC01A10BDF1
:100730000A0401D0801E10BD0902FCD0401E10BD6D
:10074000032A40F2308010F0030C00F0158011F8FD
:10075000013BBCF1020F624498BF11F801CB00F8D5
:10076000013B38BF11F8013BA2F1040298BF00F829
:1007700001CB38BF00F8013B11F0030300F06780A4
:10078000083AC0F0088051F8043B083A51F804CB0D
:10079000A0E80810F5E7121D5CBF51F8043B40F8D3
:1007A000043BAFF30080D20724BF11F8013B11F8DE
:1007B00001CB48BF11F8012B24BF00F8013B00F822
:1007C00001CB48BF00F8012B7047431A28BF9A425B
:1007D0007FF6B6AF032A1044114440F2268010F091
:1007E000030F1EBF11F8013D521E00F8013D10F02D
:1007F000030F7FF4F6AF11F0030300F0AE83083A65
:10080000C0F00B8051F8043D083A51F804CD40F88F
:10081000043D40F804CDFFF7F3BF121D5CBF51F853
:10082000043D40F8043DAFF30080D20724BF11F827
:10083000013D11F801CD48BF11F8012C24BF00F88B
:10084000013D00F801CD48BF00F8012C704710B5FC
:10085000203AC0F00B80B1E81850203AA0E81850B8
:10086000B1E81850A0E81850BFF4F5AF5FEA027C79
:1008700024BFB1E81850A0E8185044BF18C918C0E8
:10088000BDE810405FEA827C24BF51F8043B40F889
:10089000043B08BF7047D20728BF31F8023B48BF6E
:1008A00011F8012B28BF20F8023B48BF00F8012BAC
:1008B000704702F0FF0343EA032242EA024200F0DB
:1008C00002B84FF000020429C0F0128010F0030CAF
:1008D00000F01B80CCF1040CBCF1020F18BF00F833
:1008E000012BA8BF20F8022BA1EB0C0100F00DB8E2
:1008F0005FEAC17C24BF00F8012B00F8012B48BF40
:1009000000F8012B70474FF0000200B513469446E3
:100910009646203922BFA0E80C50A0E80C50B1F157
:100920002001BFF4F7AF090728BFA0E80C5048BF6B
:100930000CC05DF804EB890028BF40F8042B08BF09
:10094000704748BF20F8022B11F0804F18BF00F805
:10095000012B70474FF0013C50F8042B51F8043B39
:100960009A4215D1A2EB0C03934313EACC130BD19B
:1009700050F8042B51F8043B9A4209D1A2EB0C0326
:10098000934313EACC13E7D04FF00000704700BF49
:10099000D01A01BAB1FA81F101F0180122FA01F07E
:1009A000CB40C1F12001DBB2C0B2C01A2CFA01F376
:1009B000D11A914311EAC311E6D1704770477047CD
:1009C0007047704710B500F0F7FA006810BD10B519
:1009D000044600F0F1FA046010BD2DE9F0470D4621
:1009E00099469246044600F124080168880604D519
:1009F000E06921F01001216000E00120A84201DD42
:100A0000471B00E00027A1697A1902EB0900081AC8
:100A1000A0612078C00602D42046FFF7E3FC002640
:100A200008E0D4E901211AF806009047206A401C2A
:100A3000761C20624E45F4DB2078C0060AD520469D
:100A4000FFF7D0FC06E0D4E9012130209047206A6E
:100A5000401C2062381EA7F10107F4DC07E0D4E94E
:100A6000012118F805009047206A401C2062281ECA
:100A7000A5F10105F3DC2046FFF7CAFC207800064B
:100A800002D50220BDE8F0870120FBE770472DE981
:100A9000FF4F0C461E464FF0FF378BB0D2E90001E6
:100AA000DDF860800A908A46C1F30A5505B93D46D3
:100AB000002108464FF00000BAF1000F00F440009A
:100AC00005DA00EB80004FF4400101EA50004FEAE4
:100AD0009059B9F1010F00DDB9460A9850EA4A0071
:100AE0000ED044F61050A5F2FF3545432F14B8F14F
:100AF000000F1ED07542291E1EDDC9F100021CE048
:100B0000B8F1010F4FF0000001D0302103E0F243B3
:100B100005E02154401CB042FBDB3046002200219E
:100B200021540B99C1F80880C1E900200FB0BDE83D
:100B3000F08FBD1B6D1CDEE74A4600DA694206A84D
:100B400000F0C4FA06AB93E8070003AB83E80700A4
:100B500050460A9900F05EFB8DE80700A0F50050B2
:100B60001F3800900398002D09DD42F21F014A460C
:100B7000084403A90390684600F0BDFD08E0A0F515
:100B800000504A461F3803A90390684600F0C7FD8D
:100B90008DE807000004000C03D04FF0FF3041083F
:100BA00000E01046B8F1000F03D000220092154675
:100BB0001EE0751E05D400F003FA303262556D1E3A
:100BC000F9D5B3460122084302D000227F1C04E07D
:100BD0002078302801D100227F1E002A099786D074
:100BE0001DE0112D07DA00F0EBF9303262556D1C73
:100BF00050EA0102F5D1084302D00098C8B10EE0D6
:100C00000021681E05E0235C625C63542254401E90
:100C1000491C8142F7DBAB46A81B401E099000200F
:100C200004F80B000B98099AC0F80880C0E9002B63
:100C30007CE711264FF0000859E72DE9F04F884670
:100C40000446D21D22F0070191B0D1E90001CDE99F
:100C50000A0126F092FE02460B98C00F01D02D200B
:100C600007E02068810701D52B2002E0202101EA5E
:100C7000C000032A099001D0072A05DB034641463C
:100C8000204600F0E3F90BE12078800601D5E06909
:100C900000E00620B8F1650F814606D0B8F1660F76
:100CA00018D0B8F1670F70D131E00020B9F1110F01
:100CB000009001DB112301E009F101030AAA01A957
:100CC0000CA8FFF7E4FEDDE90C70002609F1010530
:100CD000834647E001204B4600904FF000470AAAA8
:100CE00001A90CA8FFF7D3FEDDE90DB00C995D4614
:100CF000002610B909F101000D18B9EB050003D465
:100D0000C0F1FF3609F10105A5EB09002BE0B9F1AF
:100D1000010F01DA4FF001090020B9F1110F009025
:100D2000484601DD112300E003460AAA01A90CA8E8
:100D3000FFF7ADFEDDE90C704D46002683462078B6
:100D400000070AD4AB4500DA5D4601A8012D04DD99
:100D5000411911F8011C302907D04F4502DA17F16B
:100D6000040F04DA012082460FE06D1EEEE7002F2B
:100D700002DCED1B3E4403E0781CA84200DD7D1C34
:100D8000B81B00F1010A4FF000472078000703D498
:100D9000AA4501DB4FF0FF3A0021B7F1004F0DF1FA
:100DA00043088DF8431024D002202B23002F01DAB2
:100DB0007F422D230A21021EA0F1010000DC5FB159
:100DC00097FBF1FC97FBF1F201FB1C7C17460CF141
:100DD000300C08F801CDEEE7A8F10100037021887E
:100DE000090501D5452100E06521A0F1010800F8C1
:100DF000011C09980FA9A1EB0807FF1D00B10120F4
:100E0000411901EBEA70A1693844081A401EA0613B
:100E10002078C00602D42046FFF7E4FA099828B1EA
:100E2000D4E901219047206A401C20622078C00646
:100E300022D52046FFF7D6FA1EE0002E04DBB3458C
:100E400002DD01A8805D00E03020D4E90121904757
:100E5000206A401C2062761CAAF101005FEA000AA9
:100E60000AD100F0A5F8C0680168405CD4E901210E
:100E70009047206A401C2062281EA5F10105DCDC99
:100E800007E0D4E9012118F8010B9047206A401CC3
:100E90002062381EA7F10107F3DC2046FFF7B8FAFD
:100EA000032011B043E6000001694A1C0261087882
:100EB000704700B58FB0CDE901310021059105499A
:100EC0007944CDE9031011466846FFF743FB0FB0A4
:100ED00000BD0000E5FFFFFF0A6802F8010B0A6091
:100EE000704710B5436913B1AFF3008001E0FFF71D
:100EF000A0FA012010BD127800F124010A7000222E
:100F00004A700122EDE711684FF0FF32E9E7000077
:100F1000074B70B50D467B44FFF7CBFF04462846D0
:100F200000F042F910B14FF0FF3070BD204670BDA7
:100F30006F740200431A28BF9A427FF688AC1044AF
:100F400010F0030F11441EBF11F8013D521E00F8AE
:100F5000013D10F0030F7FF4F6AF103AC0F00A80A5
:100F600010B531E91850103A20E91850BFF4F9AF24
:100F7000BDE81040530724BF31E9081020E90810EC
:100F800044BF51F8043D40F8043D12F0030F08BF80
:100F90007047D20728BF31F8023D48BF11F8012C35
:100FA00028BF20F8023D48BF00F8012C7047000020
:100FB00000487047B4AB05200048704794AB05204B
:100FC00030B5B0F10A024FEA900E71F100034EEA1B
:100FD000817EB0EB0E0061EB91014FEA101E4EEAEC
:100FE000017E10EB0E0041EB11114FEA102E4EEA7C
:100FF000016E10EB0E0041EB11214FEA104E4EEA4C
:10100000014E10EB0E0041EB1141401841F100017F
:101010004FEAD00040EA41704FEAD10110EB800561
:101020004FEA810444EA907444EB01046D1944EBE7
:101030000404521BA3414FF0000348BF0A3200D5FD
:1010400030BD401C41F1000130BD00002DE9F041F0
:101050001F46044603260168072A01F4006004DBEA
:1010600008B116A505E016A503E008B115A500E036
:1010700015A521F010002060A069C01EA0610FB16D
:10108000401EA0612046FFF7ADF94FB1D4E9012120
:1010900038469047206A401C2062C01C206206E04F
:1010A000206AFAE7D4E9012115F8010B9047761E72
:1010B000F8D22046FFF7ACF9BDE8F0814E414E0072
:1010C0006E616E00494E4600696E66002DE9F0477C
:1010D000814616468AB0334878440DC88DE80D0025
:1010E00030487844801C03AC0DC884E80D0041F6FC
:1010F0009B300844372190FBF1F290FBF1F5A5F10C
:10110000800501FB12041B3C02D56442012000E073
:101110000020DFF890A080460027FA44AAF1BE0A1A
:101120000DE0E00709D03246684607EB47010AEBBD
:10113000810100F0F4FA8DE8070064107F1C002C98
:10114000EFD1184F7F44AC3F18E0E80714D007EB0D
:1011500004100DF1180A90E80E008AE80E00C0682D
:10116000F04201D198190890324606A903A800F070
:10117000D6FA03AB83E807006D10641C002DE4D1A0
:1011800032466946B8F1000F03A802D000F0B3FA66
:1011900001E000F0C4FAC9E90001C9F808200AB06A
:1011A000BDE8F08794220300007B00F080007047C8
:1011B0000048704794AB05207546FFF7F9FFAE462F
:1011C00005006946534620F00700854618B020B553
:1011D000FFF7B6F8BDE820404FF000064FF00007DB
:1011E0004FF000084FF0000B21F00701AC46ACE8CF
:1011F000C009ACE8C009ACE8C009ACE8C0098D463C
:10120000704710B50446AFF300802046BDE810409B
:10121000FFF771B85FEA400C08BF91F0000F4FEA8A
:101220008C234FEAC12243EA51514FEA1C5018BFA8
:1012300000F5F0404FEA300018BF41F000415FEA8E
:101240006C5C00F02980BCF1FF3F08BF40F080409B
:101250007047130C06BF12044FF0100C4FF0000C37
:10126000130E04BF12020CF1080C130F04BF12017D
:101270000CF1040C930F04BF92000CF1020CD30F7D
:1012800004BF52000CF1010C11464FF00002A0F116
:101290001F00A0EB0C00704711F0004F08BF704713
:1012A00031F000413FF4D5AF0B0C06BF09044FF0FD
:1012B000100C4FF0000C0B0E04BF09020CF1080CCF
:1012C0000B0F04BF09010CF1040C8B0F04BF890044
:1012D0000CF1020CCB0F04BF49000CF1010CCCF156
:1012E0002003A0EB0C0022FA03F302FA0CF241EA0D
:1012F000030100F10100704720F07F4C80EA0300F9
:1013000023F07F47ACEB070303F57C5300F000406C
:1013100003F1FF032DE980494FEA154B09B44FEA69
:10132000144325EA0B4E24EA03480FF2042606EB89
:10133000132749083E785FEA320203FB0667C7F5C8
:10134000000707FB06F64FEA54374FEAD64606F188
:10135000020607FB066CCCF1005C4FEA1C472CEA46
:10136000074C07FB06F40CFB06F504EB15464FEAA9
:10137000961634BF00204FF000404FEAD13706FBED
:1013800007FC4FEA1C4C0CFB0BF7D21B03FB0CF7C2
:1013900061EB07010CFB0EF7B0EB074072EB174255
:1013A0000CFB08F734BFA2EB0742B2EB074261EB3C
:1013B00017414FEA0C444FEA910706FB07FC4FEA3E
:1013C0001C4C0CFB0BF7B0EBC74072EB573203FB26
:1013D0000CF734BFA2EBC742B2EBC74261EB573107
:1013E0000CFB0EF7B0EBC70072EB57720CFB08F763
:1013F00034BFA2EBC702B2EBC70261EB5771039F88
:101400004FEA816141EA921104EBCC044FEAD137F3
:101410004FEA826206FB07FC42EA90124FEA8060C4
:101420004FEA1C4C0CFB0BF7D21B03FB0CF761EBD8
:1014300007010CFB0EF7B0EB074072EB17420CFBF9
:1014400008F734BFA2EB0742B2EB074261EB17414A
:101450004FEA8C554FEA910704EB9C2406FB07FCEE
:101460004FEA1C4C0CFB0BF7B0EBC74072EB57324A
:1014700003FB0CF734BFA2EBC742B2EBC74261EBF0
:1014800057310CFB0EF7B0EBC70072EB57720CFB39
:1014900008F734BFA2EBC702B2EBC70261EB57718A
:1014A00015EB4C254FEA816141EA92114FEA8262C5
:1014B0004FEAD13742EA901206FB07FC44F10004E0
:1014C0004FEA80604FEA1C4C0CFB0BF7D21B03FB6E
:1014D0000CF761EB07010CFB0EF7B0EB074072EB6A
:1014E00017420CFB08F734BFA2EB0742B2EB0742EE
:1014F00061EB174115EB1C154FEA813141EA92412E
:101500004FEA823242EA90424FEA80304FEA0C764C
:1015100044F1000448EA03434EEA0B484FF0000E42
:10152000B2EB080C71EB030724BF624639464EEB61
:101530000E0E4FF0000B0018524149414BEB0B0BC4
:10154000B2EB080C71EB03077BF1000B24BF624682
:1015500039464EEB0E0E4FF0000B00185241494138
:101560004BEB0B0BB2EB080C71EB03077BF1000BA1
:1015700024BF624639464EEB0E0E51EA020718BFF1
:1015800046F0010616EB0E7655F1000254F100010B
:1015900003D5BDE88901BDE80088BDE88901BDE843
:1015A0000048B619524141EB0101A3F10103704714
:1015B00080807F7E7D7C7B7A797877767675747390
:1015C000727171706F6E6E6D6C6C6B6A6A6968684F
:1015D000676666656464636362616160605F5F5EE5
:1015E0005E5D5D5C5C5B5B5A5A595958585757565B
:1015F00056555555545453535252525151505050C0
:101600004F4F4F4E4E4D4D4D4C4C4C4B4B4B4A4A11
:101610004A49494948484847474747464646454555
:10162000454444444443434343424242424141418E
:10163000002B26D4770021D01CB54FEA370703B41E
:101640004FF010004FF010014FF000000FBCBDE84C
:1016500010400BF1010BBBF1010F08BF5FEA170748
:1016600022BF12F1010211F101014FF0004143F1DB
:10167000000300F0004043EA00007047F9D3570828
:10168000DAE746EA064613F1400F4FEA16461FDD39
:1016900013F1200FDFBF16430A46002120335B42BF
:1016A000C8D0C3F1200746EA064602FA07F74FEA18
:1016B000164646EA0706C3F1200722FA03F201FAAA
:1016C00007F721FA03F14FF0000342EA0702B1E7FE
:1016D00046EA020646EA06464FEA164646EA01068A
:1016E000BCBF46EA0646360C4FF000034FF000023E
:1016F0004FF000019EE72DE9C048934630B491E8D1
:10170000380007C831EA400C48BF34EA430C03D51F
:10171000FFF7F2FDFFF78CFFF0BCBDE800882DE974
:10172000C048934630B491E8380007C810F0804FA5
:1017300008BF13F0804F03D100F005F8FFF778FFE2
:10174000F0BCBDE8008820F07F4780EA030023F06A
:101750007F4C07EB0C03A3F57C5300F00040A3F192
:10176000FE0392F0000F00F0B38095F0000F00F040
:1017700077802DE901494FEA11404FEA144621EAEA
:10178000004800FB06FC24EA064708FB06F607FBB8
:1017900008F800FB07F718EB06484CEB164C4FEA2D
:1017A000124B18EB07484FEA15464CEB174022EA5C
:1017B0000B4E0BFB06FC25EA06470EFB06F607FB65
:1017C0000EFE0BFB07F71EEB064E4CEB164C4FF0D4
:1017D00000061EEB074E4CEB174B18EB0B0840F1C5
:1017E000000018EB0E0B58EB000840F100008F1AB8
:1017F0004FF000013CBFC943661B14BFB5EB040C9E
:1018000000213CBFC943F61B4FEA17444EEA8E0E37
:1018100027EA04454FEA1C4704FB07622CEA074C01
:1018200005FB07F70CFB05F604FB0CFC16EB074663
:1018300042EB174216EB0C4642EB1C421BEB060632
:1018400058EB0202414146EA9E0601D5BDE80189F6
:10185000B619524141EB0101A3F10103BDE8018931
:101860004FEA14454FEA114724EA054621EA074C9E
:1018700005FB07F406FB07F70CFB06F105FB0CFC68
:1018800011EB074144EB17444FEA124711EB0C41AF
:1018900044EB1C4422EA074C05FB07F206FB07F762
:1018A0000CFB06F605FB0CFC16EB074642EB174259
:1018B00016EB0C4642EB1C456A1854F1000148BF78
:1018C0007047B619524141EB0101A3F10103704782
:1018D00095F0000F37D04FEA11424FEA144721EA42
:1018E000024624EA074C02FB07F106FB07F70CFB54
:1018F00006F402FB0CFC14EB074441EB17414FEAE2
:10190000154714EB0C4441EB1C4125EA074C02FB44
:1019100007F506FB07F70CFB06F602FB0CFC16EBC3
:10192000074645EB174516EB0C4645EB1C421219D2
:1019300051F1000148BF7047B619524141EB010116
:10194000A3F1010370474FEA14454FEA114724EA17
:10195000054621EA074C05FB07F106FB07F70CFBE0
:1019600006F24FF0000605FB0CFC12EB074241EBC0
:10197000174112EB0C4251EB1C4148BF70479218C3
:1019800041EB0101A3F1010370470000EFF309816E
:1019900041B1F1EE101A40F8041D20ED200A3E4935
:1019A0000A6810607047B0EC200A02C8E1EE101A15
:1019B0003A490A681060704772B64EF62250CEF26D
:1019C000000040F2FF01C0F2000101704FF0000082
:1019D00080F309880FF096FD40F26810C2F2020011
:1019E000016881F3088840F20210C2F2020040F25E
:1019F0000311C2F202010A78027040F26015C2F2CD
:101A0000020540F26411C2F202010A682A601068FD
:101A100080F30988EFF3148040F0020080F314880B
:101A2000BFF36F8FBDE8F00F0FBCBDE8005006BCE0
:101A300062B608471A484FF0805101607047184855
:101A40004FF080510160704772B6EFF3098020E9D2
:101A5000F00F40F26015C2F202052E683060744645
:101A60000FF050FD40F20210C2F2020040F20311EA
:101A7000C2F202010A78027040F26411C2F202015D
:101A80000A682A6044F0F40E1068B0E8F00F80F3A2
:101A9000098862B6704700006001022064010220DC
:101AA00004ED00E00AF076BA2DE9F0410D4601465A
:101AB00000204E19044608E00702301B401E80B289
:101AC00000F007F8641C3844E4B2AC42F4D3BDE83B
:101AD000F08110B504460AF017FB200AA02101EBA3
:101AE0004000C0B20AF0DAFA0AF05EFBE0B20AF097
:101AF000D5FA0AF059FB0AF007FBA1200AF0CEFA4A
:101B00000AF052FB00200AF095FA04460AF024FB82
:101B1000204610BD2DE9F041002416460D4607462B
:101B200009E0E00025FA00F0C1B2381980B200F0F7
:101B300006F8641CE4B2B442F3D3BDE8F08170B59A
:101B40000D4604460AF0E0FA200AA02101EB40000D
:101B5000C0B20AF0A3FA0AF027FBE0B20AF09EFA3C
:101B60000AF022FB28460AF099FA0AF01DFB0AF057
:101B7000F3FABDE870400A2026F07ABB002800DCAA
:101B80004042704738B5456804460146284616F07D
:101B90000FFE00282BD02068304A11280DD006DC1B
:101BA0000B2825D00E2833D00F2852D112E0282838
:101BB00049D0B0F5107F4CD108E09268002A16D0C9
:101BC0002146284601B0BDE830401047214628464E
:101BD0005268F7E7284603F01DFC0090406E046849
:101BE000684603F081FC002C01D02846A04738BD90
:101BF000284603F00FFC0090683003F061FB00986A
:101C000003216C3003F06AFB684603F06DFC20E0B2
:101C1000E168486809680D2902D0202913D105E040
:101C2000002810DD284621F05AFE06E0002804DDD9
:101C30002846BDE8384021F052BE2846BDE838406D
:101C4000022121F062BEE06818B90021284600F0A8
:101C5000A5F92046BDE8384017F0F6B8A0020220EA
:101C6000F0B5044685B08069B4F90850668A00274B
:101C7000CDE90265CDE900170490B4F90C00B4F980
:101C80001060C118B4F90A00B4F90E50104433467C
:101C90002A4600F007F80546616800F088F905B0AB
:101CA0002846F0BD2DE9F04F85B01F46DDE911B49F
:101CB000DDE90E5690468946824604F057FE1648E6
:101CC0004C34CDE90204CDE900563B464246494634
:101CD000504617F001F8040018D003F09BFB1022C7
:101CE0005946049016F022FF049830220B493430F4
:101CF000FEF7ADFD094D04990C3D2868486604A81F
:101D000003F0F2FB286841682046884706F09AFAFB
:101D100005B02046BDE8F08F851B0008AC0202200C
:101D2000F0B5044680688B4989B051F8205060684E
:101D300000287DD0052804D006287AD0122879D131
:101D4000AEE0E86900284FD095E80E008DE80F005E
:101D500004F110010FC906F011FF002655F8260006
:101D600005F0C3FCA169E8690A1A216901446069A8
:101D7000304404F0E5FAA169E8690A1A21690144CE
:101D8000E069801B04F0DCFAE169E8690A1A61691C
:101D900001442069304404F0BBFBE169E8690A1A98
:101DA00061690144A069801B04F0B2FB761C022E1D
:101DB000D4DBA86805F099FCE069E9696669431A13
:101DC000206942183144801C521E04F0EBFBE1698B
:101DD000E869A2690B1A61690144101A401C921E3D
:101DE00004F0E0FBEE6913E05FF0000655F8260012
:101DF00005F07BFCE069831BA069821B6069811987
:101E00002069304404F012FB761C022EEEDB022621
:101E1000D5E90301CDE900016169E0690844431097
:101E2000A069891C821B2069304404F04DFA02E04D
:101E300089E012E08AE0D5E90501CDE90001E36916
:101E400060690121184401EB6001A0699B1E821B9F
:101E50002069304404F038FA78E0206803F0DAFAB8
:101E60000490206818F032FC40B1A06808B100204E
:101E700008E00498006F28B1012003E00498406F47
:101E800000B10220049901EB8000C56E04A803F0A4
:101E90002BFB00231A462846216803F017FF55E064
:101EA000206803F0B7FA0490866EEEB3B0F95C7068
:101EB000A168D1B3032942D05FF0000100EB81019A
:101EC000406D0C6C05F02EFC204605F00EFC05A8BC
:101ED00004F02AFCBDF81410A88B0144ADF81410CE
:101EE000BDF81810081AADF81800BDF81600801CCF
:101EF000ADF81600BDF81A00801EADF81A0004985F
:101F0000B0F96020B0F95E1005A805F03DFA04A80C
:101F100003F0EAFA022005F069FD304603F07AFA90
:101F20003A4605A9079001E00BE006E003F0D2FF76
:101F30000DF11C0003F0D8FA08E00121BEE70221F0
:101F4000BCE704A8F6E7206818F030F809B00020D4
:101F5000F0BD00000C1A0308044A0349116004494B
:101F60004A6A486210467047DC020220A002022042
:101F7000AC02022038B50D4604000ED004F0F6FC89
:101F8000204603F047FA00904565684603F0ACFA36
:101F9000204617F0D7FC06F055F938BD4FF4807293
:101FA0000029114601D016F097BC16F0DABB2DE9D6
:101FB000FF410E4605004FF0010421D004F0D6FC8D
:101FC000284603F027FA0190876E01A8009703F0D6
:101FD0008BFA3146684607F0EFF878B10098002494
:101FE000B84208D0284603F015FA0190009981669E
:101FF00001A803F079FA284617F0A4FC06F022F9AC
:1020000004B02046BDE8F081FEE7F8B54468054617
:102010000146204616F0CCFB002836D028680B2855
:1020200039D00E2805D00F2821D0B0F5107F3CD133
:102030002CE0204603F0EEF9009010F8746F47781A
:10204000684603F051FA204618F040FB10B3E868E8
:102050004168002929DD0068202826D17F1CB7FBB4
:10206000F6F006FB1071204600F03FF91DE0254612
:10207000204603F0CFF90090006F0468684603F033
:1020800033FA002C01D02846A047F8BD2946204647
:1020900022F0D4F809E0204603F0BCF90090783033
:1020A00003F00EF9684603F01FFA2846BDE8F84031
:1020B00016F0CABEF0B585B0B0F90850468A8469FA
:1020C0000296CDE903540027CDE90017B0F90C10B2
:1020D000B0F91050B0F90E40B0F90A00194410449C
:1020E0002B46224600F002F805B0F0BD2DE9F04F76
:1020F00085B01D46DDE90E9716468A468346DDF813
:10210000488004F033FC254C0EB135B10AE020685C
:102110008068006880470646F7E7206880680068A6
:10212000804705461D486FF07041001DC068884219
:1021300001D147F0010708F15400194ACDE9022006
:10214000CDE900972B4632465146584616F0C4FD5D
:1021500005001CD003F05EF910220490119916F0CE
:10216000E5FC0E4904983C22091D3430FEF76FFB54
:10217000049821680167022180F874100F21C1675B
:1021800004A803F0B1F9206841682846884706F0A2
:1021900059F805B02846BDE8F08F0000480A022033
:1021A0000B2000082DE9FF470446006810B118F025
:1021B0008DFA68B10022314850F8221060680A2870
:1021C00041D007DCF0B306280DD0072854D106E033
:1021D0000122F0E712280AD019284DD137E0204615
:1021E00019F054FF48E020461BF0E4FF44E020686B
:1021F00003F010F90290B0F9548090F85650476CF3
:10220000466B02A803F070F9206800F039F88146A7
:10221000684616F039FFBDF8001009EB05000844C8
:10222000ADF80000246A304605F07CFA022005F083
:10223000DDFB384605F059FA42466946204603F070
:1022400049FE19E007E020461DF03DFB14E08869D7
:1022500004B0BDE8F087206817F0A8FE206803F0FE
:10226000D9F80390B0F90610B0F90220891A491C78
:10227000C16703A803F038F90020E9E71C1A030836
:1022800038B5044604F072FB204603F0C3F8009012
:10229000C46F684603F028F905F0D4FF204638BD26
:1022A000044A034911600449CA69C861104670476D
:1022B00068030220480A02204C0A022038B50C4666
:1022C000050011D004F052FB284603F0A3F800905B
:1022D000416BA14203D04463284617F033FB6846A4
:1022E00003F002F905F0AEFF38BD38B50C46050025
:1022F0001BD004F03BFB284603F08CF8009090F8CC
:102300007410A1420CD980F87540684603F0ECF8CF
:10231000284617F017FB0521284617F0E2FB02E0DC
:10232000684603F0E1F805F08DFF38BDFEB50D46B7
:10233000040022D0002D20D004F018FB204603F02A
:1023400069F80190866F01A8009603F0CDF8294640
:10235000684606F031FF70B10098B04208D02046C0
:1023600003F058F801900099816701A803F0BCF8C8
:10237000204617F0E7FA05F065FFFEBD00B589B00D
:1023800024216846FEF7BFFA19200190034800682F
:10239000806841686846884709B000BD480A022045
:1023A0000549002010B5486000F0A6F800F006F8D6
:1023B000BDE8104000F086B8900002202DE9F04101
:1023C000104F002635463E807E80BE60FE607E61F6
:1023D000BE613E61FDF7CEFF002480467E6100F0C5
:1023E00049F800F057F8641C786924040544240C6B
:1023F000F4D0C7E904564046BE61BDE8F041FDF7A0
:10240000BDBF00009000022003490969884201D93C
:10241000401A7047002070479000022010B5FDF769
:10242000A9FF04494C69FDF7A9FF2046BDE810400B
:10243000FFF7EABF9000022010B5FFF7EFFF044658
:10244000FDF798FF034A00215161FDF797FF2046F1
:1024500010BD00009000022010B5FDF78BFF04496D
:102460008C69FDF78BFF2046BDE81040FFF7CCBF1D
:102470009000022010B5064C2088401C2080608807
:1024800010B900F051F8A0606088401C608010BD59
:102490009000022010B50A4C6088401E0004000C19
:1024A00060800CD100F040F8E060A168401A6169DA
:1024B000814200D26061A169814200D2A06110BD59
:1024C0009000022010B5FDF755FF0446FFF7D2FF3C
:1024D000054810210DF02CFEFFF7DCFF2046BDE87B
:1024E0001040FDF74BBF000000CC042001494860BC
:1024F000704700009000022010B508F09DF90849CF
:102500000A6842F080720A60064900224A600A683E
:1025100042F001020A60BDE81040FFF7E7BF00008B
:10252000FCED00E0001000E001484068704700004A
:10253000001000E070B5144D00224021284607F03D
:102540006CF9124C206820F0C0002060206840F038
:1025500040002060022025F0B3FE00222046082122
:1025600007F05BF9022025F0ABFE0122284640214E
:1025700007F053F9022025F0A3FE2846BDE870407D
:102580000022402107F049B9001C0240002002400F
:10259000124800B587B0016841F080010160016810
:1025A00001F080010591016841F4807101600068CB
:1025B000694600F480700590402000900120019051
:1025C000029003200390064807F030F8082000909E
:1025D0000448694607F02AF807B000BD30380240C9
:1025E000001C02400020024070B5144D0022402122
:1025F000284607F012F9124C206820F0C000206035
:10260000206840F040002060022025F059FE0122A1
:102610002046082107F001F9022025F051FE012291
:102620002846402107F0F9F8022025F049FE284607
:10263000BDE870400022402107F0EFB8001C0240C6
:10264000002002402DE9F041184E07460024306872
:1026500020F0C0003060306830601E2025F030FE71
:10266000B046134E002500223046402107F0D5F831
:10267000022025F025FE01223046402107F0CDF84A
:1026800060060821040E404607F0BEF808B1641C3D
:10269000E4B26D1CEDB2082DE5D327B1FFF74AFF78
:1026A0002046BDE8F081FFF79FFFF9E700200240D8
:1026B000001C02402DE9F0411A4F0546386820F011
:1026C000C0003860386840F040003860164E002284
:1026D0004021304607F0A1F8022025F0F1FD00244A
:1026E000280601D5012200E000223846082107F023
:1026F00094F868060122050E3046402107F08DF857
:10270000022025F0DDFD00223046402107F085F84B
:10271000022025F0D5FD641CE4B2082CE0D3BDE80E
:10272000F081000000200240001C024070B5134CF4
:10273000206820F0C0002060206840F04000206049
:1027400001222046082107F068F80D4D01224021A2
:10275000284607F062F81E2025F0B2FD0022204630
:10276000082107F05AF8022025F0AAFD2846BDE806
:1027700070400022402107F050B8000000200240C5
:10278000001C024010B5104C206820F0C0002060F2
:10279000206840F0400020600C480122402107F0F2
:1027A0003CF81E2025F08CFD00222046082107F071
:1027B00034F8022025F084FD01222046BDE81040B7
:1027C000082107F02AB8000000200240001C024047
:1027D00070B5164D00242846296821F0C0012960F3
:1027E000296829600122082107F017F8104E0122FC
:1027F0004021304607F011F807E0641CE4B2FA2CDF
:1028000003D9FFF7BFFF012070BD022025F058FD5E
:102810000821284606F0F8FF0028EED100223046B5
:10282000402106F0FAFF002070BD000000200240A9
:10283000001C0240FEB515460C46064606F0DCFDBF
:102840000B4FC6EBC60257F8223000FB043100FBE9
:10285000053007EB820400232269CDE900230293AF
:102860000246E368304600F079F9A560FEBD00003D
:10287000BCE804202DE9FE4F984616460F46054653
:10288000DDF838A0DDE90C9406F0B6FD11490246EA
:10289000C5EBC50051F820C001EB80004168C3685A
:1028A00002FB01C106FB03774669406807FB06117E
:1028B00002FB00C709FB0380CDF800A000FB0672F5
:1028C0000026181B2346CDE90106284600F046F9EC
:1028D000BDE8FE8FBCE804202DE9F0471D461446F4
:1028E0000F468046DDE9086A03F03AFF012831D03F
:1028F000ED1B4046361B6D1C761C06F07DFD224B01
:102900000146C8EBC80053F8202003EB8000836821
:1029100001FB0322C1684069A1EB050904FB0173B7
:10292000002403FB00274046D0460AF01FFB18494D
:10293000164A0A60C1F83880CF63C1F840904863F6
:1029400065F31F464E64086840F0010008604FF4CC
:10295000001214E00022404619210AF0EFFE33462F
:102960002A46214638460AF0DBF84046094ABDE8C7
:10297000F04719210AF0E2BE641C944202D20868B2
:10298000C007F9D1BDE8F087BCE8042000020300CD
:1029900000B00240D9280008F0B5BFF34F8FBFF355
:1029A0006F8F184900200860174C216841F40031EE
:1029B0002160BFF34F8FBFF36F8F134970310860F1
:1029C000BFF34F8F081F006843F6FF750D4E10369A
:1029D000C0F34E31C0F3C90305EA4112184642EA7A
:1029E00080773760401EFAD2491EF5D2BFF34F8F71
:1029F000206840F480302060BFF34F8FBFF36F8FAB
:102A0000F0BD000050EF00E014ED00E038B5032405
:102A1000009400F06FF838BD38B50424009400F03D
:102A200069F838BD38B50024009400F063F838BD6B
:102A300038B50024009400F05DF838BD1CB516F0E0
:102A400051FB0346074A0020009001900F210648E1
:102A500003F012F80446204616F074FF642003F0D9
:102A60006DF9F8E7E57A02084CD1020870B51C460A
:102A700015460E460A491A4609F0E0FB0949224666
:102A8000304609F0DBFB084A23460649044800F0BB
:102A90000DF822462946BDE87040034809F0CEBB38
:102AA000D8280520D8680520D8E8042070B5104D36
:102AB00000240E4E2E60E8606961EA632C61AC610F
:102AC0002C64EC616C626C63012000EB0340686471
:102AD000286840F0010028604FF4001102E0641CF7
:102AE0008C4202D22868C007F9D170BD00020200F2
:102AF00000B00240F8B514460E460649069D09F09E
:102B0000A4FB044800222B463146009400F004F850
:102B1000F8BD0000D8E80420F0B50F4D00244FF4B4
:102B20008137059E2F60E860E9632C612C64EA61BF
:102B30006B63012000EB06406864286840F00100E8
:102B400028604FF4001102E0641C8C4202D2286815
:102B5000C007F9D1F0BD000000B002402DE9F047F8
:102B60000F461D4608A91646002491E800070AF002
:102B7000FDF90E494FF400720A60CF60CE63C1F8D0
:102B80001090C1F840A0C861404665F31F404864FA
:102B9000086840F001000860120302E0641C9442DF
:102BA00002D20868C007F9D1BDE8F08700B0024042
:102BB00038B514460D4606490023049A0094FFF7E1
:102BC000ABFF22462946BDE83840014809F03DBB2D
:102BD000D8E804201EB50023FF24B4EB116F2CD0DD
:102BE00080F07F40009081F07F40019014481349AD
:102BF0000160C0F80CD001A9416102A9C1634FF482
:102C0000803141EA0261C161C2F1FF0109064162FE
:102C1000002141634FF001114164016841F001015D
:102C200001604FF4001202E05B1C934202D2016883
:102C3000C907F9D1029880F07F401EBD0002020052
:102C400000B00240F8B50546006802F0E3FB0090D2
:102C5000448ED0F88860684602F046FC06B1012632
:102C600004F00104286817F031FD0EB1002006E0E1
:102C70000CB1012003E008B1022000E003201B4951
:102C800051F82010686858B302280CD0052802D0EB
:102C9000122828D103E0284619F024FA23E0284618
:102CA0001DF08EFB1FE06A69E8694FF0FF33801A60
:102CB000A0F1080203EB6204421CAB69001B451043
:102CC000A3EB6206C86904F010FD06E03219311B5F
:102CD000284603F035FB641E6D1C002CF6DA02E07A
:102CE000286817F063F90020F8BD0000241A0308D3
:102CF000044A0349116004490A6B0863104670478F
:102D0000B4030220880A02208C0A022038B50D463E
:102D1000002402F07FFB0090C06B294602F0A9FC62
:102D20000546684602F0E0FB1DB1284602F072FB42
:102D30000446204638BD70472DE9FC470E465FEA41
:102D400000097FD003F012FE484602F063FB0090BA
:102D500090F85470D0F85880456BC46C684602F007
:102D6000C3FBB8F1000F04D03146484642469047B5
:102D700061E0122E18D006DC082E43D0102E3CD075
:102D8000112E06D112E0132E21D01D2E43D01E2E5F
:102D90003DD0202E4FDB17B1484619F020F8B1B2D4
:102DA000484620F09DFA60B3611C27E04DB32846E9
:102DB00002F030FB05462146019005F031F9441937
:102DC000204605F0DBF801462346012210E0C5B19C
:102DD000284602F01FFB05462146019005F020F928
:102DE0004419204605F0CAF8014623464FF0FF3249
:102DF000484618F01BFB01A81BE0611E484600F086
:102E00007AFA18E0BCB1611E484600F074FA4846F0
:102E100018F0E5FF0FE0484602F0FCFA0090012FA1
:102E200012D0012180F854102146484600F063FA80
:102E3000684602F059FB484616F084FD00E001E0C8
:102E400005F000FABDE8FC87002180F85410EFE798
:102E5000FEB544680546204617F038FC064629466C
:102E6000204615F0A5FC002837D028680F2830D060
:102E700004DC0B2832D00E2853D13AE0A0F5807044
:102E8000133804D0A0F580702D384AD110E02046C8
:102E900016F008FF2046002122F067FB204602F0D2
:102EA000B9FA0190C06F002116F0D3FE01A81DE011
:102EB000E86860B1017A29B10168204600F0DCF8C9
:102EC000012100E00221204616F00BFE29E003213B
:102ED000F9E70121204622F048FBFEBD204602F022
:102EE00099FA0090343002F0EBF9684602F0FCFAEF
:102EF00017E0B6B1E8684168002912DD01681B29B6
:102F00000FD006DC09290CD00A290AD00D2904D1DA
:102F100007E0212905D0222903D02046FFF70CFF26
:102F2000FEBD284615F090FFFEBDF0B587B00DF14F
:102F3000300E9EE8F0104FF0000E8DE8F05000F0DB
:102F400003F807B0F0BD00002DE9F04F85B01F4633
:102F5000DDE91254DDE90E6A90468946834603F0A6
:102F600005FD0DF1040C4AF480501F4958340096B9
:102F70008CE813003B4642464946584615F0ACFEE5
:102F800004002AD002F046FA10220490119915F09C
:102F9000CDFD04981C2215496030FDF758FC049AB9
:102FA000012082F85500681C00D0012082F88000C2
:102FB000002D00DC08252DB21587002050875063B6
:102FC00004A86D1C02F090FA294620461FF055FF18
:102FD00018B9204615F070FF002405F033F905B04C
:102FE0002046BDE8F08F0000512E0008C40A0220E0
:102FF0000148806870470000C40A022038B5050007
:103000004FF000040BD003F0B1FC284602F002FAA6
:103010000090846C684602F067FA05F013F92046C8
:1030200038BDF8B515460C46060013D003F09EFCDB
:10303000304602F0EFF9009038B1022C05D200EBD7
:1030400084004567304616F07DFC684602F04CFA75
:1030500005F0F8F8F8BD70B50D46044603F086FC9F
:1030600034B12946204600F046F9204616F06AFCA5
:10307000BDE8704005F0E6B82DE9F04186B00C4699
:10308000060055D003F072FC304602F0C3F9009000
:10309000406B98B302F0BEF903900098806E04F084
:1030A00041FB8046304616F07FF90746039803F04F
:1030B000B7FB0546009890F8601001F00301012964
:1030C00016D002290DD0416EC06A00680844241A47
:1030D000641E039805F01AFF0146002C0FDA002148
:1030E00015E0781B401C00EBD070A4EB6004F0E707
:1030F000406E791B081A241A641CEAE713E0AC42FC
:1031000005DC02462146039805F0A0FE0146304644
:1031100000F0F1F803A802F0E7F9404604F002FBE2
:10312000304616F00FFC684602F0DEF905F08AF82A
:1031300006B0BDE8F08100002DE9F8431D46DDE949
:10314000084916460F46804603F010FC5FEA080067
:1031500040D002F05FF92149009081652049C165A6
:103160000021C0E91271E0E90F650121047280F8C5
:103170001A90017690F84470684602F0B5F987B16C
:1031800028461FF025F9054630461FF021F90CB1FD
:10319000401C6D1C854200DD28460146404600F07B
:1031A0003FF8404623F072FE404602F033F90090AB
:1031B00000F08CF80B490978884205D10098C16C61
:1031C0004046491C00F097F8684602F08DF94046E9
:1031D00016F0B8FB05F036F8BDE8F88395AE0108A7
:1031E0008D6E0208D001022000294FF0100101D09D
:1031F00015F072BB15F0B5BA38B50D4604000ED007
:1032000003F0B4FB204602F005F9009085662046E5
:1032100016F098FB684602F067F905F013F838BD20
:103220007CB50C46060033D003F0A0FB304602F01C
:10323000F1F80090B0F93810458FA14223D012DD8B
:10324000406B80B102F0E6F8019005F05FFEA0420D
:1032500006DD2146019804F0E3FE019A0021115495
:1032600001A802F041F9684602F03EF9611B3046C0
:10327000491C1FF002FE304602F0CCF80090048793
:10328000304616F05FFB684602F02EF904F0DAFFD4
:103290007CBDF8B515460C46060013D003F066FB5E
:1032A000304602F0B7F8009038B1022C05D200EB9E
:1032B0008400C566304616F045FB684602F014F9F6
:1032C00004F0C0FFF8BD002223F073BA38B50546FC
:1032D000406B002468B102F09DF800900446E96C50
:1032E00004F09EFE204404F049FE0446684602F0C5
:1032F000FBF8204638BD1CB50C4602F08BF8009058
:10330000406BF0B102F086F8019005F0FFFD0099E6
:1033100091F8542002B10122002C00DA00248442EA
:1033200000DD0446B1F93800801AA04200DA0446F4
:10333000C86CA04200D0CC640020086501A802F04F
:10334000D3F8684602F0D0F81CBD012006F062B93F
:103350004FF4005006F05EB9042006F05BB9082077
:1033600006F058B970B5B3F5804F05D06FF07041D5
:1033700040F82210002070BD50F82230084C234045
:10338000D1E900458E8944EA05148D6889692D02CA
:1033900045EA06452C430C431C4340F82240E9E72C
:1033A0000000F0CFF0B50C6850F824501A4A1540D0
:1033B000D1E90123D1E903671A433E4332434E6901
:1033C00032438E693243CE6932430E6A32434E6ACB
:1033D00032438E6A3243CE6A32430E6B32438E6B77
:1033E00032434E6B32432A43082B01D142F0400254
:1033F00040F824200A6BB2F5801F05D10A684AB153
:10340000026842F4801202600A681AB10268496BCD
:103410000A4302600020F0BD8004C0FF00EB82027E
:10342000F0B553688E8903F04044D1E9003543EA92
:1034300005138D682D0245EA06450E8A2B430D4D76
:1034400005EB065633430E7D6F0107EB06663343EB
:103450008E693343234353600268D20207D5426822
:10346000098A22F4700205EB0151114341600020EA
:10347000F0BD00000000F0FF30B5D1E901230D6878
:103480001A43D1E9033423431A434B691A438B6926
:103490001A43D1E90734496A012D056807D01A4358
:1034A00022430A436FF30E052A4302600AE025F423
:1034B000F845234329430B43416803606FF30E0132
:1034C0000A434260002030BD426942EA4101416145
:1034D00000207047F8B514460546D1E900026FF0A8
:1034E0001F0310438A68C96803EB421242EA412174
:1034F00008430090286106F095F9064609E0601C33
:1035000007D024B106F08EF9801BA04201D9032018
:10351000F8BDA8698006F2D40020F8BDF0B5D1E965
:1035200000346FF00F055B1E2E0105EB04142343DE
:103530008C682F034FEA054C0D8A06EB04248E8A13
:103540002343CC68097E4FF07F4E012A07EB0545E7
:103550000CEB06560EEB01610CD082683F1107EBB5
:10356000043423432B4333430B4302F07042134391
:1035700083600FE08768084A17402203C468A2F5F9
:10358000805232433A4382602B430B4304F0704431
:103590002343C3600020F0BDFF0F0FFF2DE9F0476C
:1035A000044640688EB00027804601F033FF00904B
:1035B000B0F87CA0D0F86890D0F88060D0F888503F
:1035C000C06D00B10768684601F08EFF05E06968CC
:1035D00020468847002843D12D68002DF7D1206868
:1035E000172853D00CDC0F283DD004DC0B2877D0F3
:1035F0000D2825D18BE0112810D0142820D13BE0D4
:10360000262846D004DC1E2851D0202818D18AE074
:103610002A2816D0B0F5107F12D128E04046E56880
:1036200001F0F8FE0290697A39B9297A012904D1AA
:1036300030F87C1F41F48071018002A801F054FF32
:1036400075E0404601F0E6FE0090E16811B1C0F877
:10365000841002E0D0F88400E060684601F044FF86
:103660000EB0BDE8F087D7B34046B8475FE02146CB
:10367000404620F063FDF3E705A9404600F0A9FBB2
:10368000E0680699016007994160E9E7C4F80C9089
:10369000E6E7E0680228E3D1CDF83080E0680D90DD
:1036A00027200A900AA9A06817F020FAD8E7E06856
:1036B000012804D00021404600F0BBFAD0E7304694
:1036C00016F0A9F968B1304616F0EAFB304616F05C
:1036D00065F898B10121304615F0FEF80EE026E0BD
:1036E0002FE0484616F030FC0646404601F092FEB8
:1036F0000090C0F88060684601F0F6FE0121404667
:1037000000F097FA002EABD10020E060A8E75FEA56
:103710000A700CD4E068C06848B1007A38B14046FD
:1037200016F0BEFB03E02146404620F035F9214665
:10373000404615F03DF8002892D0204615F084FB55
:103740008EE7404601F066FE0090703001F0B8FD53
:10375000684673E7F0B587B0B0F908400DF10C0C7E
:103760000C9E876945688CE8F000448A0025CDE905
:1037700000150294B0F90C10B0F91050B0F90E40D9
:10378000B0F90A00194410442B46224600F002F812
:1037900007B0F0BD2DE9F04F8BB09846DDE9155626
:1037A00091468A468346149F1A9C03F0DFF83348FB
:1037B000603445F48055CDE90204CDE900754346F7
:1037C0004A465146584615F087FA04004FD001F09A
:1037D00021FE30220490179915F0A8F904982822A8
:1037E00027493430FDF733F804981999244F41667E
:1037F000A0F87C600026C0F88060C666083FC0F86C
:1038000088607968C16504A801F06EFE05A92046AC
:1038100000F0DFFA1B4841F2827103960094CDE973
:103820000110BDF91E00BDF91A10BDF91C20431A84
:10383000BDF918005B1C121A521C15F04DFA064611
:103840007868416820468847204601F0E3FD0490EF
:10385000866604A801F048FE42F20400054202D147
:10386000204615F0A1FB2046189900F005FA04F057
:10387000E9FC0BB02046BDE8F08F00009D35000844
:1038800078040220F93F00082DE9F041044694B085
:10389000006800F0B7F908B1D94D01E0D84D2C35DA
:1038A000606815281ED00CDC0B281FD004DC002813
:1038B0007ED005287DD12FE10E287BD01228F9D1AA
:1038C00041E1162806D0172808D0182808D01C284F
:1038D000F0D109E0E86914B0BDE8F081286AFAE7A0
:1038E000686AF8E7A86AF6E76869F4E720680B9069
:1038F0001C200C90206801F08DFD0390016D0BA839
:103900008847064603A801F0EFFD022E0FDB95E87D
:1039100007008DE80700D4E904023346A16905F0E9
:10392000F3F820698719A069A0EB06082CE0286845
:1039300003F0DBFE2169E8690A18521E606902F093
:10394000FFFCA269E869111A491C606902F0F8FCE1
:10395000D4E904077F1C394602F042FD3946A069CC
:1039600002F03EFD686803F0C0FE20693946401C45
:1039700002F036FDA0693946401E02F031FDA06913
:103980002769A0F10208BF1C286803F0AEFE42467A
:103990003946606902F0D4FC686803F0A6FE6069ED
:1039A00042463946401C02F0CBFC686A022802E01D
:1039B00015E1B0E000E10BDDA86803F096FE616957
:1039C0006A6A881C8B180146424638465B1E27E00F
:1039D000296AB14226DD6069022E074600F102081D
:1039E00001DB374401E007F10207206901DB3044C5
:1039F00001E000F1020022693B460A444146A2F17F
:103A0000010202F0CFFD022E02DBA069821B01E061
:103A1000A269921EA069E9693B46401A4146401CD2
:103A200002F0C0FD022E02DB6069064401E0666917
:103A3000B61CE76928687F1E03F057FE3A463146F8
:103A4000206902F065FD3A463146A06902F060FD4A
:103A5000E7696868BF1E03F048FE20693A463146B0
:103A6000401C02F055FDA0693A463146401E02F066
:103A70004FFDE869022802DC286A022823DDA86AD3
:103A8000022802DDE1690F1A01E0E769BF1EA8689C
:103A900003F02BFEE969022909DD20693B46421843
:103AA00000F1020C31466046521E02F07BFD286A8E
:103AB000022808DDA269E8693B46101A3146401C1D
:103AC000921E02F06FFD286803F00FFED4E9062075
:103AD000216902F035FC686803F007FED4E906208E
:103AE0002169401E491C521E02F02AFCA86A0228C5
:103AF00011DDA1692669E469A1F10208271AA41E53
:103B0000B61C7F1CA86803F0F0FD234642463946E8
:103B1000304602F047FD71E0208A00B2ADF8140093
:103B2000A18A09B2ADF81610228B12B2ADF8182096
:103B3000A38B1BB2ADF81A302C69ED68CDE90054A7
:103B400002F0C2FB5AE0208A298B0844ADF8140029
:103B5000A08AADF81600208B298B401AADF818000A
:103B6000A08BADF81A00206801F054FC0390006FA0
:103B7000F0B1022003F03AFF039890F87C10C1F3F3
:103B8000C00100EB8100006C03F0AFFD0398406BB7
:103B900003F0C8FD0398006F01F03CFC0399099005
:103BA000B1F95A2005A902F095F909A801F09CFC89
:103BB00003A801F099FC21E0208AADF81400A08A46
:103BC000ADF81600208BADF81800A08BADF81A00E8
:103BD000A86803F08AFD05A802F010FD0EE0206839
:103BE00001F018FC039030F85A1F41F00C010180DD
:103BF00003A801F079FC206816F0D8F900206AE6E5
:103C0000B404022038B505004FF000040FD002F0D4
:103C1000ADFE284601F0FEFB009090F87C00000706
:103C200000D50124684601F05FFC04F00BFB204640
:103C300038BD70B50D46040009D002F097FE294644
:103C4000204621F049FFBDE8704004F0FBBA70BD8A
:103C5000074A0649054B1160064A083BD16958607E
:103C60001B68C2E90630084670470000A80402201D
:103C700074040220780402207CB50D4604001DD097
:103C800002F074FE204601F0C5FB0090006F019029
:103C9000684601F029FC294601A805F08DFA58B1C3
:103CA000204601F0B7FB009001990167684601F0DA
:103CB0001BFC204615F046FE04F0C4FA7CBD38B566
:103CC0000C46050013D002F051FE284601F0A2FB7D
:103CD0000090B0F95A10A14204D0A0F85A402846EA
:103CE00015F030FE684601F0FFFB04F0ABFA38BD7A
:103CF00038B50C46050015D002F038FE284601F014
:103D000089FB0022CDF8000000EB8201521C0C64FC
:103D1000022AF9D3684601F0E7FB284615F012FEA7
:103D200004F090FA38BD2DE9FC470C465FEA000923
:103D30004DD002F01BFE484601F06CFB0090428E15
:103D4000114614B141F0200501E021F02005AA42FE
:103D500038D04586484600F018F9009EF4691FE007
:103D6000204601F057FB0190076AB0F90200B6F94E
:103D70000210A0EB010801A801F0B6FBB6F956103D
:103D800041450CD1B06EA04209D096F832008006B1
:103D9000204602D516F0A3F901E015F00FFD3C46D0
:103DA000002CDDD1009890F87C00400607D5A806CD
:103DB000484602D516F093F901E015F0FFFC48469D
:103DC00015F0C0FD684601F08FFB04F03BFABDE83A
:103DD000FC872DE9F34F85B000270C46B8460598BF
:103DE00001F018FB0090C06D0121856805982A68D4
:103DF000904782462A6803210598904704902A68D4
:103E000002210598904703902A6800210598904761
:103E10000646009816F0D8FA8346009816F0DBFAAA
:103E20008146009890F83210890601D5B0F9588083
:103E300000F036F805460098C06E10B115F0CBFAC8
:103E4000074625806780A4F804A0049AABEB020023
:103E500006EB0802401E2A4420813A44E280039B7C
:103E6000A9EB0302521E6281A4F80CA020827019F3
:103E7000E681401E6082684601F036FBB4F90C0012
:103E80000190B4F91000029002AA01A9059800F06F
:103E900039F80198A0810298208207B0BDE8F08F20
:103EA00010B50146002091F83220920607D5B1F9ED
:103EB0005400002803D1486B02F0E1FC801C10BDC7
:103EC00070B58AB00C46054601F0A4FA0990C06DA1
:103ED000866809A801F008FB009534B1012C06D0D2
:103EE000022C0BD0032C04D10AE0182000E016208D
:103EF00001907168684688470AB070BD1520F7E7E1
:103F00001720F5E72DE9FC4117468846044601F0E5
:103F100081FA0090C16D056868468E6801F0E4FA88
:103F200032680021204690470646204615F001F9E8
:103F300027E000BF01F06EFA0190B0F900102AB23C
:103F4000B0F90430891A9A1AB0F90230A3EB25436C
:103F5000B34210D190F82800000605D53868884291
:103F600009DB491E396006E0D8F80000904202DC07
:103F7000521CC8F8002001A801F0B6FA204615F03E
:103F80007DF90400D6D1BDE8FC8170B586B0064647
:103F900001F040FA0590D0E91A4505A801F0A4FA0D
:103FA00054EA050026D069463046FFF712FFACB14F
:103FB000BDF90620BDF90410204615F047FDBDF9F6
:103FC0000A00BDF90610421ABDF90800BDF9041037
:103FD000521C411A2046491C16F03DF8002D09D00C
:103FE000BDF90600BDF90210421ABDF904102846B9
:103FF00015F02CFD06B070BD2DE9F0430446406875
:1040000089B0054615F047F9814601F003FA0290A0
:10401000D0F84880D0F88070466E02A801F064FAAB
:104020002068172853D008DC0E283AD00F2811D06A
:1040300014284CD015283DD149E01E281ED01F2839
:104040002AD0222840D0312834D10020E06009B0A5
:10405000BDE8F0836FF070414046884503D009F019
:10406000A1FA01F0BDFC002EF1D0D4E902122068C3
:10407000CDE90405CDE9061204A81FE0E068002898
:10408000E5D02FB1AF4203D0384615F009FFDEE787
:10409000284615F059FFDAE72146484614F088FB18
:1040A000D5E7E0684168002904DD00680928EFD001
:1040B0000A2805D05EB12046C4F80490B047C6E790
:1040C000284615F050FFC2E7C4F80C80BFE7204631
:1040D00014F0BAFEBBE7000070B5384888B001683C
:1040E00041F080010160016801F0800106910168E2
:1040F00041F480710160006801A9002400F480701F
:1041000006908020012681E85100032004902C486D
:1041100005F08CFA3502CDE901562A4E01A9304648
:1041200005F084FAFEF734FA00222946304605F0FD
:1041300074FB142024F09CF801222946304605F037
:104140006CFB322024F094F80122694600208DF89F
:10415000004000F007F901226946A42000F002F9AE
:104160001620694601228DF80000802000F0FAF840
:104170000C20694601228DF80000882000F0F2F83A
:1041800002226946A12000F025F89DF80010302990
:1041900003D19DF80100032808D09DF801000128F3
:1041A00004D0022802D0012008B070BDC0B200EBDC
:1041B000012105A0FCF7F6F80020F5E730380240B1
:1041C000001C0240002002404354502049443A253C
:1041D000780D0A002DE9F04115460F460446FEF71A
:1041E000A5FA7020FEF766FAFEF7F2FAE0B2FEF7E3
:1041F00061FAFEF7EDFAFEF799FA7120FEF75AFA26
:10420000FEF7E6FA00246E1E09E0B44201D0012058
:1042100000E00020FEF716FA3855641CE4B2AC4208
:10422000F3D3BDE8F041FEF7ADBA00002DE9F1434C
:10423000484F00244FF00A09474D82B0A046387815
:10424000401CC0B23870B0FBF9F209FB120109B191
:104250000A2864D20122022002A9FFF7BBFF9DF8C1
:10426000080001075BD000F00F00062857D2FF219D
:104270004FF001088140C843002640F0C00085F897
:10428000200095F8201008FA04F001423AD0334893
:104290000422694630F81400FFF79CFF95F83000BF
:1042A0009DF80010C0079DF8010001F00F010ED02D
:1042B00000EB012105EB4400C1829DF802209DF82E
:1042C000031002F00F0201EB0221818110E000EBEC
:1042D000012023490988091A05EB440081819DF8D2
:1042E00002209DF8031002F00F0201EB0221C182AF
:1042F0009DF800000821B1EB101F03D005EB44002E
:10430000C6828681641CE4B2052CBAD3A9894FF019
:10431000010819B9E88A08B98DF808603E709DF85F
:104320000800C0060ED195F82000010602D520F045
:10433000800005E04FF6FF71A98100F0E000E982FE
:1043400085F820003878F02801D987F80090404699
:10435000BDE8FE83600002202C000220E0CF0208AE
:10436000982002202DE9F041002715460E4604460C
:10437000FEF7DCF97020FEF79DF9FEF729FAE0B2AE
:10438000FEF798F9FEF724FA002408E0305DFEF706
:1043900091F9FEF71DFA070003D1641CE4B2AC42A8
:1043A000F4D3FEF7EFF93846BDE8F0812DE9F0438C
:1043B0000446C56887B090468946002003F0A6F9F8
:1043C000064625B1287910B146F0020001E026F03A
:1043D000020003F09BF92069012558B1D4E90212CB
:1043E0008DE8260003956388228804684146484684
:1043F000A0471EE0124F134B214638681B68427CD1
:10440000E068984730B9E088012801D0002001E039
:104410003868806BA288E388A1680095CDE9041014
:10442000CDE902320195638822884146484608F06A
:104430003DF807B03046BDE8F04303F067B900002F
:10444000DC010220D40102201CB50024019401AC3F
:10445000009400F0E7F81CBD2DE9FF4F83B08146C2
:1044600006988A46A0EB0A08109E00200090A2EB56
:1044700009043568934654EA080018D02046FDF731
:104480007DFB07464046FDF779FB87420BDA204665
:10449000444680464846D14682465846DDF818B024
:1044A000069001200090002C07DD204606E007B0B2
:1044B0004846BDE8F04F00F03BB96042A0420AD048
:1044C0004846D9466442C8F1000883464FF0FF379A
:1044D000DDF818A000E001275148B8F1000F11D015
:1044E00004EBD4714FEA610B01DACBF1000B4C48BD
:1044F0000068807E88B3002F02DA30682044306084
:1045000000257BE000990029016821D0897E11B146
:104510000027804615E007B05A4649465046BDE898
:10452000F04F08F0FDB928466D1C21F0FFFB38B9AB
:10453000D8F8000009EB0701406E426850469047EA
:104540007F1CA742EFDD6D1E356007B0BDE8F08F20
:104550008A7E1AB10027804617E019E0486E5A4655
:104560005146036807B04846BDE8F04F1847284653
:104570006D1C21F0DBFB38B9D8F8001009EB0700FF
:10458000496E4A68514690477F1CA742EFDDDAE743
:1045900000250FE008FB05B090FBF4F101EB0A00E9
:1045A000009951B11E4A09EB05011268526E52681A
:1045B00090476D1CA542EDDDC7E7194909EB0503DE
:1045C0000968496E4A6801461846F1E708FB05B0DC
:1045D00090FBF4F101EB0A00019030683844306040
:1045E00021F0A4FB48B9009890B10D4809EB0501F2
:1045F0000068406E4268019890476D1CA542E5DD59
:104600003068002F01DA20443060C01B30609CE726
:10461000034909EB05000968496E4A680199EBE70F
:10462000DC0102202DE9FF470F464049164680462F
:1046300009680C981D460A7E012A1CD0A8EB0600CA
:10464000791B50EA01031CD0A2F1010923F0E0F923
:1046500000F58060824604F09EFE00FB09F450469F
:1046600004F09EFE00FB09F1002C0CDAC4F500708A
:10467000801240420AE00090324639464046FFF739
:10468000EBFEBDE8FF8704F50074A012002904DAF0
:10469000C1F5007189124C4202E001F500718C12E3
:1046A000002804DD411C01EBD171491003E000EB4F
:1046B000D0714910401E00EBD0704210002C04DD78
:1046C000601C00EBD070401003E004EBD47040108D
:1046D000641E04EBD47308EB0104ADF800403C18F1
:1046E000ADF80240A8EB02045B10B21AADF804402A
:1046F000ADF808203144FC1AEA1AADF80C10284431
:10470000ADF80A20ADF80E000023ADF806401A46B9
:104710000421684600F07AF8394640461BF0D8FC80
:10472000294630461BF0D4FCABE70000DC01022038
:10473000064A13681A7E012A05D0521E02EBD27275
:10474000521000F005B85A6E52681047DC01022082
:104750002DE9F05F0646884640F2C32002FB00F1D7
:104760004FF47A7091FBF0F702FB02F102EBD2708A
:1047700001EB600B1446B118234A301B7F1C1268F2
:10478000526E13680A4641469847012538E000BF3B
:1047900005FB05F004FB040159451CDDBC4219DD95
:1047A000194B06EB050AA6EB05091B68AAF10102E5
:1047B00008EB04015B6E09F101001B689847124B7E
:1047C000AAF10102A8EB04011B6809F101005B6E6C
:1047D0001B689847641E0C4B3219301B1B689246AD
:1047E00008EB05015B6E81461B689847064B5246F5
:1047F000A8EB05011B6848465B6E1B6898476D1C5B
:10480000BD42C5DDBDE8F09FDC0102202DE9FF4F70
:1048100043F6FF740F46664283B09B4681460021F3
:104820000BE000BF09EB8100B0F90200A04200DA02
:104830000446B04200DD0646491CB942F2DB674837
:104840000068406900280DD0B0F906101A46A1EBA7
:104850000B01B14200DA0E46B0F90200801AA04204
:1048600000DD0446B4E0DFF878A100200546CAF870
:10487000000088E0781E854201DA6B1C00E000230E
:1048800009EB850C09EB8302BCF90200B2F90210B6
:10489000A04244D1A14215D139F92330059A39F902
:1048A000251003EB020C4D4A05981268084404EBEE
:1048B0000B01526E6045136801DA62462AE0024637
:1048C000604627E02846A4464FF000087A1E0BE019
:1048D00008B1401E00E0781E09EB8003B3F90230F6
:1048E000634504D108F101089045F1DB2346A3425A
:1048F00048D01A1B39F92500A1EB040C059B92EA5C
:104900000C0F09D4354A184404EB0B011268526E9F
:1049100013680246984735E016F0DEF932E0A1420E
:1049200030D001DBA04203DDA0422BDBA14229DC19
:10493000E04688420ADC0346A04223DC0846A14246
:1049400020DBB8F900C0B2F9001008E00B46A14224
:1049500018DCA04216DBB2F900C0B8F90010E21A68
:10496000A1EB0C0151430029A0EB030202DD01EB96
:10497000620102E0A1EB6201491CC01A91FBF0F058
:104980006044C9E76D1CBD42FFF674AF0598009006
:1049900004EB0B00019000208046054613E011490E
:1049A000B8F1000F31F915A009D0009901EB0A0206
:1049B00008440A490968496E0B680199984788F0CC
:1049C000010850466D1C064909688D42E7DB641CEE
:1049D000B4427FF748AF07B0BDE8F08FDC0102209A
:1049E0006C0C022004AB052010B5002002F072FE12
:1049F0006FF07F4002F079FE012002F0D9FF002025
:104A000002F0E4FF002002F0F1FF002002F07EFE41
:104A10000448006802F086FEBDE81040002002F065
:104A2000D7BE0000D80102202DE9F043424889B0EA
:104A3000016841F080010160016801F08001079187
:104A4000016841F480710160006801AADFF8EC9010
:104A5000802500F4807007900024009501266946A7
:104A60000327484682E8D00004F0E0FD4FF4807848
:104A70006946CDE90086324E304604F0D7FDFDF799
:104A800087FD00224146304604F0C7FE0A2023F08D
:104A9000EFFB01224146304604F0BFFE0A2023F01E
:104AA000E7FBCDE90054CDE902476946484604F0EA
:104AB000BDFD642023F0DCFB042248F2401005A970
:104AC00000F056F805A98DF818401EA0FBF76AFC07
:104AD0001FA105A8FBF73EFF18B1012009B0BDE8F2
:104AE000F083022048F2400501228DF8140005A948
:104AF000284600F079F90122E81D05A900F038F8F0
:104B00009DF8141060290BD213A0FBF74BFC17483B
:104B10008088A0F5AA41103902D1012000F03EF9A9
:104B20000A2023F0A5FB0122284605A98DF8144090
:104B300000F05AF90020D1E730380240001C024052
:104B4000002002404354502049443A25730D0A0086
:104B5000393134370000000044656661756C74209B
:104B60005665723A25640D0A000000009820022064
:104B70002DE9F04115460F460446FDF7D7FD2820E4
:104B8000FDF798FDFDF724FE200AFDF793FDFDF7E4
:104B90001FFEE0B2FDF78EFDFDF71AFEFDF7C6FD24
:104BA0002920FDF787FDFDF713FE00246E1E09E0A6
:104BB000B44201D0012000E00020FDF743FD38554C
:104BC000641CE4B2AC42F3D3BDE8F041FDF7DABDBA
:104BD0002DE9F14F6D4E00244FF00A0B6C4D82B061
:104BE000A1463078401CC0B23070B0FBFBF20BFB2A
:104BF000120109B10A2873D248F24E170122384631
:104C000002A9FFF7B5FF9DF808004FF00008010664
:104C10000AD500F00F00062806D20122384601A965
:104C20008DF8048000F0E0F89DF80800010757D0E7
:104C300000F00F01062953D2FF20564F4FF0010913
:104C400088408DF80400C04395F820A040F0C000D3
:104C500085F82000A889A882E88AE88395F82010C2
:104C600009FA04F001424ED04B480422694630F85C
:104C70001400FFF77DFFB888A0F5AA41103904D0D1
:104C8000A0F58641423916D03DE095F83000C007C6
:104C900015D09DF801109DF8000000EB012105EBF7
:104CA0004400C1829DF803209DF8021001EB02210F
:104CB000C1F5487126E095F83000C00711D09DF885
:104CC00001109DF8000000EB012105EB44008181FB
:104CD0009DF803209DF8021001EB0221C18212E031
:104CE0002CE09DF801109DF8000000EB012105EB80
:104CF0004400C1829DF803209DF8021001EB0221BF
:104D0000C1F588718181641CE4B2052CA6D3A98900
:104D10004FF001093A882846914203D8C18A7A881F
:104D2000914209D99DF8081001F00F0101290CD911
:104D3000C1898181018BE98286F800809DF8080095
:104D400000F08F0080280AD018E0818A8181C18B11
:104D5000C18280218DF8081085F820A0EEE795F833
:104D60002000010602D520F0800005E04FF6FF711B
:104D7000A98100F0E000E98285F820003078F02871
:104D800001D986F800B04846BDE8FE8F61000220D8
:104D90002C00022098200220A2D0020808B5002191
:104DA0008DF800108DF801000E489DF80020435C3E
:104DB000491CC9B2B8291A448DF80020F5D3D0B2E5
:104DC0000849C043401C8DF80000B82248F2470053
:104DD00000F00AF80222694648F2FF0000F004F8E9
:104DE000002008BDEACF02082DE9F0410027154652
:104DF0000E460446FDF79AFC2820FDF75BFCFDF704
:104E0000E7FC200AFDF756FCFDF7E2FCE0B2FDF7F7
:104E100051FCFDF7DDFC002408E0305DFDF74AFCA5
:104E2000FDF7D6FC070003D1641CE4B2AC42F4D316
:104E3000FDF7A8FC3846BDE8F0810000014AC2E950
:104E40000001704788010220014AC2E90001704751
:104E500090010220014AC2E9000170479801022036
:104E6000014AC2E900017047840202202DE9F04F97
:104E7000DFF828B191B04FF0FF35DBF80030B3F91F
:104E800022100691DE69B3F92490F469A189814268
:104E900006D8E289824203D3471AD4F8008012E090
:104EA000D4E9018100296FD00A8882426CD84D88EC
:104EB000854269D3801A82B2486800EB8200B0F95B
:104EC0000070B0F90250781C5ED0307EA17C10FBDF
:104ED00001FA217CCDE90701B3F92A60304608F0D8
:104EE00043FCC0B20E90DBF8000007FB0A81A37CF4
:104EF000826B0127CDE90412CDE90273C069089ADB
:104F0000C17E807ECDE90001DDE90603494607F058
:104F1000CDFA681C18D046F0020008F025FCDBF83A
:104F20000000A37C05FB0A81826BCDE90273CDE909
:104F30000412C069089AC17E807ECDE90001DDE9D6
:104F40000603494607F0B2FADBF800005D46C06987
:104F5000417E007E814214D9022E12D086F00400D8
:104F600008F002FC2868C069027EC37E12FB039130
:104F7000437E857E089A06984B4412FB050207F093
:104F8000CFFD0E9808F0F0FBDBF80000627C418C4E
:104F90001144418411B0BDE8F08F0000DC01022013
:104FA00004480068C069C06909B1027C0A60407C9D
:104FB00070470000DC010220022008807047C069B1
:104FC00082898A4202D8C2898A4210D2806880B11E
:104FD00002888A420DD843888B420AD3406800EB8E
:104FE0008100A0EB8200B0F90000002801DB012065
:104FF00070470020704700002DE9F043304C034615
:1050000087B020681946B0F92A60C069C06900F00D
:1050100086F8002850D041680088181A01EBC005B6
:105020003046AF7808F0A0FB814620686A6801230B
:10503000816BCDE90237CDE90421C169CB7E8A7E3F
:10504000CDE900230B7EB0F924102A78B0F92200B4
:1050500007F02CFA2068C069417E027E91421FD978
:10506000C07E11FB00F812FB00F7022E18D001F0F1
:1050700060FB064601F026FB02F037FB21682A7828
:10508000CB69B1F92200DB7E12FB0302B1F92410D7
:1050900001EB0803394407F043FD304602F025FBDD
:1050A000484608F061FB20686A78C369B0F92210AD
:1050B0009B7E12FB0311418407B0BDE8F083000022
:1050C000DC01022030B50F4C05460B46206829460E
:1050D000C069C06900F023F8002812D04168008838
:1050E00024682A1A0120E46900EBC200085CA47E4F
:1050F00010FB04F0002B04D011F8321011FB04F166
:10510000196030BDDC01022001200880704700B525
:10511000C06900F004F8002800D0012000BD06E0BE
:1051200002888A4202D842888A4202D280680028D5
:10513000F6D1704770B50025124C19E0206912496C
:10514000C5EB051600EBC60070220968001DFBF7D1
:105150007EFB2069002140F8361000EBC60000F10C
:105160000C018161011D0A1DC0E90F126D1C416413
:10517000A0688542E2DB01F0F9FBBDE8704003F076
:1051800061B80000040A0220DC01022070B50F495A
:105190000D480860084604F007F80C4C143CA06861
:1051A000C0EB0010C500284600F0A6F82A460021F2
:1051B000206104F072F84FF0FF30206003F0A8F88F
:1051C000BDE870401DF004BDC93A0208180A02206B
:1051D000F8B50C0005460FD001F0C8FB204600F0E2
:1051E00017F8060010D000F015F9224600902DB1F6
:1051F0002946FBF7A5FA04E00020F8BD002104F0E1
:105200004CF8684600F070F903F01CF83046F8BD21
:1052100010B5040009D001F0A9FB204615F022FFCB
:10522000044603F00FF8204610BD002010BD38B52D
:10523000054601F09BFB2846FFF7EAFF040009D072
:1052400000F0E8F82A460021009004F026F86846AD
:1052500000F04AF902F0F6FF204638BD024A10601D
:1052600021F003005060704798A9052010B5040094
:1052700016D001F07BFB0B48406B10F8341059B18D
:10528000022909D2042101EBC4014158486815F0F4
:105290003FFD204620F0ECFABDE8104002F0D2BFFE
:1052A00010BD0000D8A80520002805D0034AD16B06
:1052B000016001B14860D06370470000D8A80520A4
:1052C00010B5044601F052FB2068FFF7CFFF002025
:1052D0002060BDE8104002F0B5BF000070B50D467B
:1052E0000646002405E000BF06EB8400FFF7E8FF58
:1052F000641CAC42F8DB70BD2DE9F04104461DF0A2
:1053000089FF2848E41C24F00305016C2D1DA942E7
:1053100000D90D46C46B13E054F8042CAA420ED1F8
:1053200084B1216809B162684A60616809B1226884
:105330000A60C26BA24231D12168C1632EE02468A9
:10534000002CE9D18046816BC0680F1857F8040C17
:105350003E1A306838B1002020F018FB57F8040CD2
:105360003E1A3068D0B97068A84217DB3044441B3D
:105370003046241D20F0C2FAD8F80C10491BC8F89A
:105380000C10D8F814102944C8F814107068401B89
:1053900002D0314615F0BCFC44F8045C2046BDE860
:1053A000F0810000D8A8052010B500241DF032FFC0
:1053B0000C490F2001EBC002526C1AB101EBC00086
:1053C000406C08E0401EF5D508E04168A14200D9D4
:1053D0000C46806810B180680028F6D1A4F10C005A
:1053E00010BD0000D8A80520002138B104490422CE
:1053F00002EBC000496B085841680C3908467047F9
:10540000D8A8052002488169491C816170470000C5
:10541000D8A805200549CA69521CCA61496B01EB2D
:10542000C0010A78521C0A7000F076B8D8A805208E
:105430007CB506460C460846FFF7EAFE050020D07C
:10544000FEB13046FFF7D0FFA04200DA044601F07B
:105450008DFA2846FFF7DEFF00903046FFF7DAFFAF
:105460000146019022460098FBF76AF9684600F071
:105470003BF801A800F038F83046FFF7F7FE02F0DD
:10548000E1FE28467CBD000010B501F06FFAFFF781
:105490008BFF64220849B0F5800F04D990FBF2F429
:1054A000086A444303E0096A4143B1FBF2F402F0A5
:1054B000C9FE204610BD0000D8A8052005491028C7
:1054C00005D94A68B0EB520F02D3500800E0102013
:1054D0008860704798A9052002488169491E81614A
:1054E00070470000D8A805200A4902684B6B52F8A3
:1054F000082C03EBC2021378022B03D3CB690BB148
:105500005B1ECB611178491E1170002101600846B5
:1055100070470000D8A80520002806D003490422BF
:1055200002EBC000496B085808307047D8A8052026
:105530002DE9FC414FF000060B465FEA00083446B7
:105540002BD032B111461846FFF742FE060000D1BB
:1055500001244046FFF75EFF0090078845686846D3
:10556000FFF7C2FFCCB9B9002846091DFFF760FF5D
:10557000050015D0FFF74EFF019040F8276001A805
:10558000FFF7B2FF4046FFF745FF009045600188F6
:10559000491C01806846FFF7A7FF2046BDE8FC8153
:1055A0003046FFF763FE0124F7E70820FFF73FBE10
:1055B0007CB5050023D0FFF72DFF00904068C0B1F7
:1055C000FFF728FF0024019005E0019800EB84001C
:1055D000FFF776FE641C00980088A042F5DC01A865
:1055E000FFF782FF0098001DFFF76AFE0099002078
:1055F00008806846FFF778FF2846FFF737FE7CBD36
:105600007CB50C46FFF706FF00900188A14220D927
:105610004568F5B101F0AAF92846FFF7FBFE0190B5
:1056200000EB8400FFF74CFE00990888401E80B212
:105630000880401E019905E001EB8402526841F8A0
:105640002420641C8442F7DD01A8FFF74DFF02F01F
:10565000F9FD6846FFF748FF7CBD38B5002430B13E
:10566000FFF7D8FE009004886846FFF73DFF20460C
:1056700038BD38B50D46002448B1FFF7CBFE2946AA
:10568000009000F04CF804466846FFF72DFF2046D6
:1056900038BD38B50D46002448B1FFF7BBFE29469A
:1056A000009000F04EF804466846FFF71DFF2046C4
:1056B00038BD2DE9FF4107460E4615460024104629
:1056C000FFF7B5FD009030B33846FFF7A3FE314633
:1056D000019000F036F802900098FFF79BFE2A46F2
:1056E00003900299FBF72CF802A8FFF7FDFE03A830
:1056F000FFF7FAFEDDE90020314600F02CF818B182
:105700006846FFF7DDFD03E00098FFF783FE0446DF
:1057100001A8FFF7E9FE04B02046BDE8F08138B5E6
:105720000D4601880024A94209D9406838B1FFF725
:1057300071FE009050F825406846FFF7D5FE2046E0
:1057400038BD10B50024FFF7EAFF10B1FFF762FE85
:105750000446204610BD38B50C46014615460A8859
:105760000120A24210D9496800290DD00846FFF750
:1057700051FE00EB840400902046FFF7A1FD68462F
:105780002560FFF7B1FE002038BD0000F0B52D27E1
:105790001C68B0F1004F08D0002600280DDA651C07
:1057A0001D6027704042012408E0651C01261D6031
:1057B0006FF000402770491E01E00024091BC9B2A8
:1057C0002AB3491EC9B222E00C46491EC9B294420E
:1057D00005D1124C27781C68651C1D602770104C81
:1057E00054F8215090FBF5F4E4B20A2C11D804FBD4
:1057F000150011B90EB1641CE4B20A2C02D10124C7
:10580000491CC9B21D686F1C30341F602C70002900
:10581000DAD1196800200870F0BD0000D001022024
:10582000E427030810B5002807DD0A682B24531C61
:105830000B601470096800220A7010BD10B5044690
:1058400001F094F8044904EB840001EB80004479F2
:1058500002F0F8FC204610BDDCAA05202DE9FC5F13
:105860008946044601F082F8484600F06FFF2C4E4E
:1058700009EB8907824656F82700019029484FF026
:105880000108016841B92749C0F80080091D264870
:105890000860084603F088FC214A09EB89015FEAA9
:1058A0000A0002EB81051BD001F0F8FE83464FF0A1
:1058B0007F4001F00FFF00F093F8002211462068AE
:1058C00000F006FC206842880188504601F062FF23
:1058D00046F8274085F80580584601F0DFFE17E0BE
:1058E00046F8274085F805802869464618B101F03A
:1058F00005FE0020286174B10096E868A1684B4657
:10590000421AA8686168411A206801F051FE2861B6
:10591000484620F095FF02F095FC0198BDE8FC9FF9
:10592000DCAA0520600C0220DD3A020870B514469E
:105930000D46064601F01AF8204600F007FF030066
:10594000174804EB840109D050F8210041688068B1
:10595000711A2A1A184601F00DFF1CE000EB8104B1
:10596000A268B24201D0012200E00022E368AB420B
:1059700001D0012300E000231A430CD0236943B176
:1059800050F82100816840686A1A311A184601F0FF
:10599000DAFDC4E90265BDE8704002F053BC0000C6
:1059A000DCAA052010B5C2B2CBB2D21A00D5524241
:1059B00093B25B43C0F30722C1F30724121B00D547
:1059C0005242000C92B2A0EB114002FB023200B234
:1059D000002801DA404200B280B200FB002010BD76
:1059E00010B50021084600F05FFF43F6FF725042F9
:1059F000BDE8104013460146AFF300802DE9FC419D
:105A00001C4615460E46074600F0B0FF042007F07E
:105A1000ABFE80461248C068C16C006D0F4406445E
:105A20000D440444ADF80070ADF80450ADF80260C8
:105A3000ADF80640684614F0D5FC07E023462A4638
:105A40003146384607F06CF814F080FC0028F5D198
:105A5000404607F089FE02F0F5FBBDE8FC8100003E
:105A6000D0010220B0F90630B0F90420B0F90210DC
:105A7000B0F90000FFF7C2BF2DE9F8431C00DDE9D3
:105A8000089816460F46054602D113F02BFB044634
:105A900000962E6843464A4621462846B0470600EF
:105AA00039D013F014FB8146698A304612F014FF96
:105AB000304614F014FB484614F011FB4FF0000878
:105AC0000CE000BFCDF8008055F81CCF00231A462B
:105AD00049462846E04700B314F001FB7F1E002F23
