:020000040800F2
:1000000058F30420ED020008D3E40008DBA7000841
:1000100015E4000845110008956A01080000000079
:10002000000000000000000000000000C72B0108D5
:10003000331B000800000000850B0008712C01082C
:1000400027030008270300082703000827030008E8
:10005000270300082703000847210008270300089A
:10006000552100085B21000827030008270300082A
:1000700027030008270300082703000827030008B8
:1000800027030008270300082703000827030008A8
:100090002703000827030008270300082703000898
:1000A0002703000835530108270300082703000829
:1000B0002703000827030008270300082703000878
:1000C0002703000827030008270300082703000868
:1000D00027030008F5690108456A0108270300089D
:1000E0004D21000827030008270300082703000804
:1000F0002703000827030008270300082703000838
:100100002703000827030008270300082703000827
:100110002703000827030008270300082703000817
:100120002703000827030008270300082703000807
:1001300027030008270300082703000827030008F7
:1001400027030008270300082703000827030008E7
:1001500027030008270300082703000827030008D7
:1001600027030008270300082703000827030008C7
:1001700027030008270300082703000800000000E9
:1001800027030008270300082703000827030008A7
:100190002703000827030008270300082703000897
:1001A0002703000827030008270300082703000887
:1001B0002703000827030008270300082703000877
:1001C0002703000827030008000000002703000899
:1001D0002703000827030008270300082703000857
:1001E0002703000827030008270300082703000847
:1001F000270300082703000800F002F800F067F862
:100200000AA090E8000C82448344AAF10107DA4571
:1002100001D100F05CF8AFF2090EBAE80F0013F05C
:10022000010F18BFFB1A43F00103184774EB0200DB
:1002300094EB02000A444FF0000C10F8013B13F05D
:10024000070408BF10F8014B1D1108BF10F8015B2F
:10025000641E05D010F8016B641E01F8016BF9D122
:1002600013F0080F1EBF10F8014BAD1C0C1B09D179
:100270006D1E58BF01F801CBFAD505E014F8016BEB
:1002800001F8016B6D1EF9D59142D6D3704700007D
:100290000023002400250026103A28BF78C1FBD88F
:1002A000520728BF30C148BF0B607047642900F077
:1002B000D780782900F01081732900F06183002035
:1002C00070471FB524F056F81FBD10B510BD00F0E3
:1002D000CFFB1146FFF7F5FF23F030FE00F0EDFBFA
:1002E00003B4FFF7F2FF03BC23F0CAFC11488047B8
:1002F000DFF84400016841F470010160BFF34F8FE3
:10030000DFF83800016821F040410160BFF36F8FD2
:100310000B480047FEE7FEE7FEE7FEE7FEE7FEE7E5
:10032000FEE7FEE7FEE7FEE706480749074A084BF7
:1003300070470000952C010888ED00E034EF00E0E4
:10034000F901000858E7042058F3042058E9042074
:1003500058E9042072B6704762B67047EFF3108018
:1003600072B6704780F31088704730BF704720BF67
:100370007047B0FA80F0704790FAA0F0B0FA80F0C1
:10038000704790FAA0F07047704700000FB404491E
:1003900010B503AA029800F0F7FA10BC5DF814FB40
:1003A000140002202DE9F0410E4604460020206290
:1003B0002046E168884730B3252805D0D4E90121DB
:1003C0009047206A401CF2E7E168204600278847F2
:1003D000050018D0A5F14100192802D820354FF4A6
:1003E00000673246294620462760FFF75FFF40B18D
:1003F000012804D0F61D26F007060836D8E7361D7A
:10040000D6E72846DAE7206ABDE8F08170B50C46E9
:100410000546012A05D02878800600D5EA69002320
:1004200002E0012305E05B1C934202D2E05C00285D
:10043000F9D1A869E618C01AA861286A1844286288
:100440002846AFF3008004E0D5E9012114F8010B40
:100450009047B442F8D32846AFF3008070BD000047
:100460002DE9F0410646002410687529314616A58D
:1004700010D0AFF30080002802DA404213A507E055
:1004800031688A0701D512A502E0490704D511A5F4
:10049000012401E0AFF3008000210A2206F12407C5
:1004A00009E0B0FBF2FCB0FBF2F302FB1C003030C1
:1004B00078541846491C0028F3D123462A46304672
:1004C000BDE8F04100F0F1B9000000002D0000008F
:1004D0002B0000002000000070B504460D462146A8
:1004E0001068AFF300802188090502D50F4A7A44CD
:1004F00002E00E4A7A440E32002104F1240305E0A2
:1005000000F00F060009965D5E54491C0028F7D1E3
:1005100020780023000704D5702D02D009B10223F2
:1005200011322046BDE8704000F0BFB982E70200FA
:1005300040EA010310B59B070FD1042A0DD310C860
:1005400008C9121F9C42F8D020BA19BA884201D9B2
:10055000012010BD4FF0FF3010BD1AB1D30703D0FA
:10056000521C07E0002010BD10F8013B11F8014BB0
:100570001B1B07D110F8013B11F8014B1B1B01D1CC
:10058000921EF1D1184610BD40EA0103024630B573
:100590009B0710D14FF0013400E008C208C91D1BB1
:1005A0009D4315EAC41FF8D013F0FF0102F8011BA8
:1005B0000DD01B0AF8E711F8013B002B02F8013BB4
:1005C00005D011F8013B002B02F8013BF3D130BDFF
:1005D00010B5431C02E010F8011B71B18107FAD17C
:1005E0004FF0013202C88C1A8C4314EAC211F9D0C0
:1005F000C01A0A0603D0C01E10BDC01A10BD0A04DE
:1006000001D0801E10BD0902FCD0401E10BD032A7F
:1006100040F2308010F0030C00F0158011F8013B1F
:10062000BCF1020F624498BF11F801CB00F8013B06
:1006300038BF11F8013BA2F1040298BF00F801CBCA
:1006400038BF00F8013B11F0030300F06780083A5F
:10065000C0F0088051F8043B083A51F804CBA0E8F8
:100660000810F5E7121D5CBF51F8043B40F8043B4D
:10067000AFF30080D20724BF11F8013B11F801CB82
:1006800048BF11F8012B24BF00F8013B00F801CB53
:1006900048BF00F8012B7047431A28BF9A427FF6E3
:1006A000B6AF032A1044114440F2268010F0030F25
:1006B0001EBF11F8013D521E00F8013D10F0030F5E
:1006C0007FF4F6AF11F0030300F08381083AC0F025
:1006D0000B8051F8043D083A51F804CD40F8043D30
:1006E00040F804CDFFF7F3BF121D5CBF51F8043D85
:1006F00040F8043DAFF30080D20724BF11F8013D5C
:1007000011F801CD48BF11F8012C24BF00F8013DBC
:1007100000F801CD48BF00F8012C704710B5203A11
:10072000C0F00B80B1E81850203AA0E81850B1E8AA
:100730001850A0E81850BFF4F5AF5FEA027C24BF60
:10074000B1E81850A0E8185044BF18C918C0BDE857
:1007500010405FEA827C24BF51F8043B40F8043B20
:1007600008BF7047D20728BF31F8023B48BF11F8D5
:10077000012B28BF20F8023B48BF00F8012B70472F
:1007800002F0FF0343EA032242EA024200F002B809
:100790004FF000020429C0F0128010F0030C00F0AA
:1007A0001B80CCF1040CBCF1020F18BF00F8012B28
:1007B000A8BF20F8022BA1EB0C0100F00DB85FEAF6
:1007C000C17C24BF00F8012B00F8012B48BF00F8C2
:1007D000012B70474FF0000200B513469446964631
:1007E000203922BFA0E80C50A0E80C50B1F1200144
:1007F000BFF4F7AF090728BFA0E80C5048BF0CC0F2
:100800005DF804EB890028BF40F8042B08BF70474F
:1008100048BF20F8022B11F0804F18BF00F8012BC1
:10082000704700004FF0013C50F8042B51F8043B96
:100830009A4215D1A2EB0C03934313EACC130BD1CC
:1008400050F8042B51F8043B9A4209D1A2EB0C0357
:10085000934313EACC13E7D04FF00000704700BF7A
:10086000D01A01BAB1FA81F101F0180122FA01F0AF
:10087000CB40C1F12001DBB2C0B2C01A2CFA01F3A7
:10088000D11A914311EAC311E6D1704770477047FE
:100890007047704710B500F0C7F8006810BD10B57C
:1008A000044600F0C1F8046010BD2DE9F0470D4684
:1008B00099469246044600F124080168880604D54A
:1008C000E06921F01001216000E00120A84201DD73
:1008D000471B00E00027A1697A1902EB0900081AFA
:1008E000A0612078C00602D42046AFF30080002625
:1008F00008E0D4E901211AF806009047206A401C5C
:10090000761C20624E45F4DB2078C0060AD52046CE
:10091000AFF3008006E0D4E9012130209047206A3F
:10092000401C2062381EA7F10107F4DC07E0D4E97F
:10093000012118F805009047206A401C2062281EFB
:10094000A5F10105F3DC2046AFF300802078000616
:1009500002D50220BDE8F0870120FBE710B543690E
:1009600013B1AFF3008001E0FFF750FD012010BD8F
:10097000127800F124010A7000224A700122EDE78A
:1009800011684FF0FF32E9E7074B70B50D467B4425
:1009900000F053F80446284600F062F810B14FF01A
:1009A000FF3070BD204670BD5B350200431A28BF82
:1009B0009A427FF6B3AE104410F0030F11441EBFED
:1009C00011F8013D521E00F8013D10F0030F7FF4B5
:1009D000F6AF103AC0F00A8010B531E91850103A5D
:1009E00020E91850BFF4F9AFBDE81040530724BF09
:1009F00031E9081020E9081044BF51F8043D40F8DF
:100A0000043D12F0030F08BF7047D20728BF31F82A
:100A1000023D48BF11F8012C28BF20F8023D48BF15
:100A200000F8012C7047000000487047F8E60420E9
:100A300001694A1C02610878704700B58FB0CDE9A2
:100A400001310021059105497944CDE90310114692
:100A50006846FFF7A7FC0FB000BD0000E5FFFFFFF1
:100A6000007B00F08000704700487047F8E60420E3
:100A70007546FFF7F9FFAE4605006946534620F07C
:100A80000700854618B020B5FFF74EFCBDE82040B2
:100A90004FF000064FF000074FF000084FF0000B3A
:100AA00021F00701AC46ACE8C009ACE8C009ACE8ED
:100AB000C009ACE8C0098D4670470446AFF300801A
:100AC0002046FFF70DFC0000EFF3098141B1F1EE84
:100AD000101A40F8041D20ED200A3E490A681060F3
:100AE0007047B0EC200A02C8E1EE101A3A490A68D1
:100AF0001060704772B64EF62250CEF2000040F2FF
:100B0000FF01C0F2000101704FF0000080F309887E
:100B10000EF0A6FE40F26810C2F20200016881F3F6
:100B2000088840F20210C2F2020040F20311C2F241
:100B300002010A78027040F26015C2F2020540F22A
:100B40006411C2F202010A682A60106880F3098801
:100B5000EFF3148040F0020080F31488BFF36F8F2E
:100B6000BDE8F00F0FBCBDE8005006BC62B60847F8
:100B70001A484FF080510160704718484FF080517B
:100B80000160704772B6EFF3098020E9F00F40F280
:100B90006015C2F202052E68306074460EF060FEE9
:100BA00040F20210C2F2020040F20311C2F202014E
:100BB0000A78027040F26411C2F202010A682A60E7
:100BC00044F0F40E1068B0E8F00F80F3098862B6C4
:100BD00070470000600102206401022004ED00E083
:100BE00009F024BE2DE9F0410D46014600204E19C2
:100BF000044608E00702301B401E80B200F007F8F0
:100C0000641C3844E4B2AC42F4D3BDE8F08110B5C2
:100C1000044609F0C5FE200AA02101EB4000C0B245
:100C200009F088FE09F00CFFE0B209F083FE09F03C
:100C300007FF09F0B5FEA12009F07CFE09F000FFD6
:100C4000002009F043FE044609F0D2FE204610BD04
:100C50002DE9F041002416460D46074609E0E00064
:100C600025FA00F0C1B2381980B200F006F8641C11
:100C7000E4B2B442F3D3BDE8F08170B50D4604464A
:100C800009F08EFE200AA02101EB4000C0B209F05D
:100C900051FE09F0D5FEE0B209F04CFE09F0D0FE9D
:100CA000284609F047FE09F0CBFE09F0A1FEBDE899
:100CB00070400A2023F018B8002800DC404270473A
:100CC00038B5456804460146284615F00BFF002854
:100CD0002BD02068304A11280DD006DC0B2825D0F7
:100CE0000E2833D00F2852D112E0282849D0B0F571
:100CF000107F4CD108E09268002A16D02146284681
:100D000001B0BDE830401047214628465268F7E759
:100D1000284603F0C7FA0090406E0468684603F066
:100D20002BFB002C01D02846A04738BD284603F0F5
:100D3000B9FA0090683003F00BFA009803216C3088
:100D400003F014FA684603F017FB20E0E1684868F6
:100D500009680D2902D0202913D105E0002810DDF3
:100D600028461EF052FD06E0002804DD2846BDE8B6
:100D700038401EF04ABD2846BDE8384002211EF02A
:100D80005ABDE06818B90021284600F0A5F92046B0
:100D9000BDE8384016F0F2B918020220F0B504465A
:100DA00085B08069B4F90850668A0027CDE90265EC
:100DB000CDE900170490B4F90C00B4F91060C11823
:100DC000B4F90A00B4F90E50104433462A4600F034
:100DD00007F80546616800F088F905B02846F0BDBF
:100DE0002DE9F04F85B01F46DDE911B4DDE90E565F
:100DF00090468946824604F005FD16484C34CDE9FC
:100E00000204CDE900563B4642464946504616F09C
:100E1000FDF8040018D003F045FA1022594604905A
:100E200016F01EF8049830220B493430FFF776FC98
:100E3000094D04990C3D2868486604A803F09CFA03
:100E4000286841682046884706F050F805B02046DB
:100E5000BDE8F08FC10C000824020220F0B5044662
:100E600080688B4989B051F82050606800287DD097
:100E7000052804D006287AD0122879D1AEE0E86996
:100E800000284FD095E80E008DE80F0004F1100106
:100E90000FC906F0C7FC002655F8260005F04DFBEB
:100EA000A169E8690A1A216901446069304404F0C3
:100EB0009FF9A169E8690A1A21690144E069801B68
:100EC00004F096F9E169E8690A1A61690144206948
:100ED000304404F075FAE169E8690A1A616901446D
:100EE000A069801B04F06CFA761C022ED4DBA86883
:100EF00005F023FBE069E9696669431A2069421835
:100F00003144801C521E04F0A5FAE169E869A26927
:100F10000B1A61690144101A401C921E04F09AFADF
:100F2000EE6913E05FF0000655F8260005F005FBBA
:100F3000E069831BA069821B6069811920693044C4
:100F400004F0CCF9761C022EEEDB0226D5E9030173
:100F5000CDE900016169E06908444310A069891C7A
:100F6000821B2069304404F007F902E089E012E0B6
:100F70008AE0D5E90501CDE90001E3696069012155
:100F8000184401EB6001A0699B1E821B206930445C
:100F900004F0F2F878E0206803F084F90490206807
:100FA00017F02EFD40B1A06808B1002008E00498B9
:100FB000006F28B1012003E00498406F00B10220C7
:100FC000049901EB8000C56E04A803F0D5F9002355
:100FD0001A462846216803F0AFFD55E0206803F06B
:100FE00061F90490866EEEB3B0F95C70A168D1B37C
:100FF000032942D05FF0000100EB8101406D0C6CD1
:1010000005F0B8FA204605F098FA05A804F0E4FACD
:10101000BDF81410A88B0144ADF81410BDF81810D9
:10102000081AADF81800BDF81600801CADF81600BF
:10103000BDF81A00801EADF81A000498B0F96020BF
:10104000B0F95E1005A805F0C7F804A803F094F9FC
:10105000022005F019FB304603F024F93A4605A9B1
:10106000079001E00BE006E003F08CFE0DF11C00A0
:1010700003F082F908E00121BEE70221BCE704A8E1
:10108000F6E7206817F02CF909B00020F0BD000049
:10109000A4D40208044A0349116004494A6A486218
:1010A0001046704754020220180202202402022037
:1010B00038B50D4604000ED004F0A4FB204603F022
:1010C000F1F800904565684603F056F9204616F0A1
:1010D000D3FD05F00BFF38BD4FF480720029114697
:1010E00001D015F093BD15F0D6BC2DE9FF410E4699
:1010F00005004FF0010421D004F084FB284603F0E2
:10110000D1F80190876E01A8009703F035F93146B8
:10111000684606F0A5FE78B100980024B84208D0D1
:10112000284603F0BFF801900099816601A803F0FA
:1011300023F9284616F0A0FD05F0D8FE04B020469D
:10114000BDE8F081FEE7F8B5446805460146204653
:1011500015F0C8FC002836D028680B2839D00E2896
:1011600005D00F2821D0B0F5107F3CD12CE02046CF
:1011700003F098F8009010F8746F4778684603F011
:10118000FBF8204617F03CFC10B3E86841680029E2
:1011900029DD0068202826D17F1CB7FBF6F006FB6E
:1011A0001071204600F05BF91DE02546204603F053
:1011B00079F80090006F0468684603F0DDF8002CB1
:1011C00001D02846A047F8BD294620461EF0CCFF96
:1011D00009E0204603F066F80090783002F0B8FF8E
:1011E000684603F0C9F82846BDE8F84015F0C6BFC8
:1011F000F0B585B0B0F90850468A84690296CDE909
:1012000003540027CDE90017B0F90C10B0F91050C5
:10121000B0F90E40B0F90A00194410442B4622469A
:1012200000F002F805B0F0BD2DE9F04F85B01D4685
:10123000DDE90E9716468A468346DDF8488004F0BD
:10124000E1FA254C0EB135B10AE0206880680068EB
:1012500080470646F7E720688068006880470546B3
:101260001D486FF07041001DC068884201D147F0F1
:10127000010708F15400194ACDE90220CDE9009791
:101280002B4632465146584615F0C0FE05001CD08C
:1012900003F008F810220490119915F0E1FD0E49B1
:1012A00004983C22091D3430FFF738FA049821686D
:1012B0000167022180F874100F21C16704A803F0B0
:1012C0005BF8206841682846884705F00FFE05B0A6
:1012D0002846BDE8F08F0000000A022047110008F0
:1012E0002DE9FF470446006810B117F089FB68B18B
:1012F0000022314850F8221060680A2841D007DCEB
:10130000F0B306280DD0072854D106E00122F0E7FB
:1013100012280AD019284DD137E0204618F036FFA0
:1013200048E020461AF032F944E0206802F0BAFFA3
:101330000290B0F9548090F85650476C466B02A862
:1013400003F01AF8206800F039F88146684616F074
:1013500035F8BDF8001009EB05000844ADF80000B1
:10136000246A304605F006F9022005F08DF938466A
:1013700005F0E3F842466946204603F003FD19E014
:1013800007E020461AF065FF14E0886904B0BDE864
:10139000F087206816F0A4FF206802F083FF039016
:1013A000B0F90610B0F90220891A491CC16703A8D8
:1013B00002F0E2FF0020E9E7B4D4020838B50446A1
:1013C00004F020FA204602F06DFF0090C46F6846DA
:1013D00002F0D2FF05F08AFD204638BD38B5050081
:1013E0004FF000040CD004F00DFA284602F05AFF2A
:1013F000009090F87540684602F0BEFF05F076FD5B
:10140000204638BD10B5FFF7E9FF012800D00020C5
:1014100010BD0000044A034911600449CA69C8614B
:1014200010467047E0020220000A0220040A02204F
:1014300038B50C46050011D004F0E4F9284602F056
:1014400031FF0090416BA14203D04463284616F05F
:1014500013FC684602F090FF05F048FD38BD38B532
:101460000C4605001BD004F0CDF9284602F01AFF07
:10147000009090F87410A1420CD980F8754068462D
:1014800002F07AFF284616F0F7FB0521284616F0F1
:10149000C2FC02E0684602F06FFF05F027FD38BD90
:1014A000FEB50D46040022D0002D20D004F0AAF98C
:1014B000204602F0F7FE0190866F01A8009602F028
:1014C0005BFF2946684606F0CBFC70B10098B0423D
:1014D00008D0204602F0E6FE01900099816701A83D
:1014E00002F04AFF204616F0C7FB05F0FFFCFEBDE8
:1014F00000B589B024216846FFF76CF919200190E6
:1015000003480068806841686846884709B000BDA4
:10151000000A02200549002010B5486000F0A6F836
:1015200000F006F8BDE8104000F086B890000220F8
:101530002DE9F041104F002635463E807E80BE608A
:10154000FE607E61BE613E61FEF708FF00248046BA
:101550007E6100F049F800F057F8641C78692404B3
:101560000544240CF4D0C7E904564046BE61BDE8EA
:10157000F041FEF7F7BE0000900002200349096920
:10158000884201D9401A704700207047900002201D
:1015900010B5FEF7E3FE04494C69FEF7E3FE204672
:1015A000BDE81040FFF7EABF9000022010B5FFF73A
:1015B000EFFF0446FEF7D2FE034A00215161FEF719
:1015C000D1FE204610BD00009000022010B5FEF7AD
:1015D000C5FE04498C69FEF7C5FE2046BDE81040F3
:1015E000FFF7CCBF9000022010B5064C2088401CAD
:1015F0002080608810B900F051F8A0606088401C1D
:10160000608010BD9000022010B50A4C6088401E1A
:101610000004000C60800CD100F040F8E060A1688C
:10162000401A6169814200D26061A169814200D2A1
:10163000A06110BD9000022010B5FEF78FFE044699
:10164000FFF7D2FF054810210CF020FFFFF7DCFF69
:101650002046BDE81040FEF785BE000080CB042088
:1016600001494860704700009000022010B507F063
:1016700033FD08490A6842F080720A600649002278
:101680004A600A6842F001020A60BDE81040FFF7B4
:10169000E7BF0000FCED00E0001000E001484068FA
:1016A00070470000001000E070B5144D002240218A
:1016B000284606F0AEFE124C206820F0C0002060E4
:1016C000206840F040002060022022F035FB00221C
:1016D0002046082106F09DFE022022F02DFB01226B
:1016E0002846402106F095FE022022F025FB2846E0
:1016F000BDE870400022402106F08BBE001C024075
:1017000000200240124800B587B0016841F0800116
:101710000160016801F080010591016841F4807168
:1017200001600068694600F48070059040200090D8
:1017300001200190029003200390064806F072FDFC
:10174000082000900448694606F06CFD07B000BD13
:1017500030380240001C02400020024070B5144D99
:1017600000224021284606F054FE124C206820F04A
:10177000C0002060206840F040002060022022F07D
:10178000DBFA01222046082106F043FE022022F067
:10179000D3FA01222846402106F03BFE022022F027
:1017A000CBFA2846BDE870400022402106F031BE49
:1017B000001C0240002002402DE9F041184E07466F
:1017C0000024306820F0C0003060306830601E2097
:1017D00022F0B2FAB046134E0025002230464021D6
:1017E00006F017FE022022F0A7FA0122304640211F
:1017F00006F00FFE60060821040E404606F000FECB
:1018000008B1641CE4B26D1CEDB2082DE5D327B11C
:10181000FFF74AFF2046BDE8F081FFF79FFFF9E799
:1018200000200240001C02402DE9F0411A4F0546FD
:10183000386820F0C0003860386840F040003860F8
:10184000164E00224021304606F0E3FD022022F031
:1018500073FA0024280601D5012200E00022384650
:10186000082106F0D6FD68060122050E304640210B
:1018700006F0CFFD022022F05FFA00223046402120
:1018800006F0C7FD022022F057FA641CE4B2082CCF
:10189000E0D3BDE8F081000000200240001C0240BF
:1018A00070B5134C206820F0C0002060206840F024
:1018B0004000206001222046082106F0AAFD0D4DBF
:1018C00001224021284606F0A4FD1E2022F034FA11
:1018D00000222046082106F09CFD022022F02CFA6E
:1018E0002846BDE870400022402106F092BD00006D
:1018F00000200240001C024010B5104C206820F06F
:10190000C0002060206840F0400020600C480122A8
:10191000402106F07EFD1E2022F00EFA0022204615
:10192000082106F076FD022022F006FA0122204668
:10193000BDE81040082106F06CBD00000020024008
:10194000001C024070B5164D00242846296821F07D
:10195000C0012960296829600122082106F059FD8B
:10196000104E01224021304606F053FD07E0641C72
:10197000E4B2FA2C03D9FFF7BFFF012070BD0220AB
:1019800022F0DAF90821284606F03AFD0028EED1C7
:1019900000223046402106F03CFD002070BD0000D2
:1019A00000200240001C0240F0B5BFF34F8FBFF390
:1019B0006F8F184900200860174C216841F40031EE
:1019C0002160BFF34F8FBFF36F8F134970310860F1
:1019D000BFF34F8F081F006843F6FF750D4E10369A
:1019E000C0F34E31C0F3C90305EA4112184642EA7A
:1019F00080773760401EFAD2491EF5D2BFF34F8F71
:101A0000206840F480302060BFF34F8FBFF36F8FAA
:101A1000F0BD000050EF00E014ED00E01CB515F043
:101A2000FBFC0346044A0020009001900F2103486C
:101A300002F06AFF1CBD00004D3802087C8C0208D1
:101A4000F8B50546006802F02DFC0090448ED0F8F1
:101A50008860684602F090FC06B1012604F001049B
:101A6000286816F0CDFF0EB1002006E00CB1012071
:101A700003E008B1022000E003201B4951F82010C8
:101A8000686858B302280CD0052802D0122828D143
:101A900003E0284618F0A6FB23E028461BF00CF9CB
:101AA0001FE06A69E8694FF0FF33801AA0F108026D
:101AB00003EB6204421CAB69001B4510A3EB6206FA
:101AC000C86904F03AFD06E03219311B284603F0DC
:101AD0008FFB641E6D1C002CF6DA02E0286816F0FD
:101AE000FFFB0020F8BD0000BCD40208044A0349F3
:101AF000116004490A6B0863104670472C030220EA
:101B0000400A0220440A022038B50D46002402F0A3
:101B1000C9FB0090C06B294602F0F3FC05466846FD
:101B200002F02AFC1DB1284602F0BCFB0446204608
:101B300038BD70472DE9FC470E465FEA00097FD0AB
:101B400003F060FE484602F0ADFB009090F8547040
:101B5000D0F85880456BC46C684602F00DFCB8F1B3
:101B6000000F04D0314648464246904761E0122EAD
:101B700018D006DC082E43D0102E3CD0112E06D1F2
:101B800012E0132E21D01D2E43D01E2E3DD0202E2C
:101B90004FDB17B1484618F082F9B1B248461DF044
:101BA0009FFB60B3611C27E04DB3284602F07AFB2F
:101BB00005462146019005F087F84419204605F0B6
:101BC00031F801462346012210E0C5B1284602F053
:101BD00069FB05462146019005F076F84419204638
:101BE00005F020F8014623464FF0FF32484617F033
:101BF000B7FD01A81BE0611E484600F07AFA18E024
:101C0000BCB1611E484600F074FA484618F047F926
:101C10000FE0484602F046FB0090012F12D0012150
:101C200080F854102146484600F063FA684602F0F6
:101C3000A3FB484616F020F800E001E005F056F955
:101C4000BDE8FC87002180F85410EFE7FEB544683A
:101C50000546204616F0D4FE06462946204614F0D6
:101C600041FF002837D028680F2830D004DC0B282B
:101C700032D00E2853D13AE0A0F58070133804D04A
:101C8000A0F580702D384AD110E0204616F0A4F956
:101C9000204600211FF0FFFB204602F003FB0190CD
:101CA000C06F002116F06FF901A81DE0E86860B16F
:101CB000017A29B10168204600F0DCF8012100E03A
:101CC0000221204616F0A7F829E00321F9E70121B7
:101CD00020461FF0E0FBFEBD204602F0E3FA009034
:101CE000343002F035FA684602F046FB17E0B6B130
:101CF000E8684168002912DD01681B290FD006DC65
:101D000009290CD00A290AD00D2904D107E021297C
:101D100005D0222903D02046FFF70CFFFEBD284640
:101D200015F02CFAFEBDF0B587B00DF1300E9EE82F
:101D3000F0104FF0000E8DE8F05000F003F807B0FF
:101D4000F0BD00002DE9F04F85B01F46DDE91254CB
:101D5000DDE90E6A90468946834603F053FD0DF196
:101D6000040C4AF480501F49583400968CE8130044
:101D70003B4642464946584615F048F904002AD0E9
:101D800002F090FA10220490119915F069F8049865
:101D90001C2215496030FEF7C1FC049A012082F82C
:101DA0005500681C00D0012082F88000002D00DC66
:101DB00008252DB2158700205087506304A86D1C9C
:101DC00002F0DAFA294620461DF04DF918B92046EE
:101DD00015F00CFA002405F089F805B02046BDE89E
:101DE000F08F00004D1C00087C0A0220014880682A
:101DF000704700007C0A022038B505004FF000044F
:101E00000BD003F0FFFC284602F04CFA0090846CE3
:101E1000684602F0B1FA05F069F8204638BDF8B519
:101E200015460C46060013D003F0ECFC304602F0D9
:101E300039FA009038B1022C05D200EB84004567D6
:101E4000304615F019FF684602F096FA05F04EF894
:101E5000F8BD70B50D46044603F0D4FC34B12946F4
:101E6000204600F046F9204615F006FFBDE8704018
:101E700005F03CB82DE9F04186B00C46060055D07F
:101E800003F0C0FC304602F00DFA0090406B98B3AE
:101E900002F008FA03900098806E04F06BFB804615
:101EA000304615F01BFC0746039803F005FC054679
:101EB000009890F8601001F00301012916D0022962
:101EC0000DD0416EC06A00680844241A641E03984D
:101ED00005F070FE0146002C0FDA002115E0781B9A
:101EE000401C00EBD070A4EB6004F0E7406E791B5F
:101EF000081A241A641CEAE713E0AC4205DC024627
:101F00002146039805F0F6FD0146304600F0F1F851
:101F100003A802F031FA404604F02CFB304615F0DD
:101F2000ABFE684602F028FA04F0E0FF06B0BDE818
:101F3000F08100002DE9F8431D46DDE90849164609
:101F40000F46804603F05EFC5FEA080040D002F0D6
:101F5000A9F92149009081652049C1650021C0E9A6
:101F60001271E0E90F650121047280F81A90017680
:101F700090F84470684602F0FFF987B128461CF0DB
:101F800031FC054630461CF02DFC0CB1401C6D1C8C
:101F9000854200DD28460146404600F03FF84046B5
:101FA00020F0B0FD404602F07DF9009000F08CF882
:101FB0000B490978884205D10098C16C4046491CFC
:101FC00000F097F8684602F0D7F9404615F054FE45
:101FD00004F08CFFBDE8F883C9910108052B0208C5
:101FE0009001022000294FF0100101D014F00EBE24
:101FF00014F051BD38B50D4604000ED003F002FCBC
:10200000204602F04FF900908566204615F034FE18
:10201000684602F0B1F904F069FF38BD7CB50C46A2
:10202000060033D003F0EEFB304602F03BF900909F
:10203000B0F93810458FA14223D012DD406B80B13A
:1020400002F030F9019005F0B5FDA04206DD214611
:10205000019804F039FE019A0021115401A802F000
:102060008BF9684602F088F9611B3046491C1CF068
:10207000FAFF304602F016F900900487304615F05A
:10208000FBFD684602F078F904F030FF7CBDF8B53E
:1020900015460C46060013D003F0B4FB304602F0A0
:1020A00001F9009038B1022C05D200EB8400C5661E
:1020B000304615F0E1FD684602F05EF904F016FFC7
:1020C000F8BD002220F0F1B938B50546406B002478
:1020D00068B102F0E7F800900446E96C04F0F4FD02
:1020E000204404F09FFD0446684602F045F920466E
:1020F00038BD1CB50C4602F0D5F80090406BF0B12D
:1021000002F0D0F8019005F055FD009991F85420A7
:1021100002B10122002C00DA0024844200DD0446D2
:10212000B1F93800801AA04200DA0446C86CA04217
:1021300000D0CC640020086501A802F01DF96846B3
:1021400002F01AF91CBD012006F060B84FF40050EF
:1021500006F05CB8042006F059B8082006F056B81E
:102160002A4810B586B0016841F00101016001689C
:1021700001F001010591016841F00401016001686D
:1021800001F004010591016841F0800101600068DF
:102190000124694600F0800005901D48CDE900400B
:1021A000022002901B4806F03DF8600300901A4898
:1021B0006946CDE90104194806F034F80C20009076
:1021C0001748694606F02EF800220221062006F084
:1021D00007FB062006F0F9FA01220221082006F08A
:1021E000FFFA082006F0F1FA02220920114606F053
:1021F000F7FA092006F0E9FA03220221282006F066
:10220000EFFA282006F0E1FA06B010BD303802409F
:1022100000001110000002400000211000080240E0
:10222000001C024070B5B3F5804F05D06FF07041CF
:1022300040F82210002070BD50F82230084C234096
:10224000D1E900458E8944EA05148D6889692D021B
:1022500045EA06452C430C431C4340F82240E9E77D
:102260000000F0CFF0B50C6850F824501A4A154021
:10227000D1E90123D1E903671A433E4332434E6952
:1022800032438E693243CE6932430E6A32434E6A1C
:1022900032438E6A3243CE6A32430E6B32438E6BC8
:1022A00032434E6B32432A43082B01D142F04002A5
:1022B00040F824200A6BB2F5801F05D10A684AB1A4
:1022C000026842F4801202600A681AB10268496B1F
:1022D0000A4302600020F0BD8004C0FF00EB8202D0
:1022E000F0B553688E8903F04044D1E9003543EAE4
:1022F00005138D682D0245EA06450E8A2B430D4DC8
:1023000005EB065633430E7D6F0107EB066633433C
:102310008E693343234353600268D20207D5426873
:10232000098A22F4700205EB01511143416000203B
:10233000F0BD00000000F0FF30B5D1E901230D68C9
:102340001A43D1E9033423431A434B691A438B6977
:102350001A43D1E90734496A012D056807D01A43A9
:1023600022430A436FF30E052A4302600AE025F474
:10237000F845234329430B43416803606FF30E0183
:102380000A434260002030BD426942EA4101416196
:1023900000207047F8B514460546D1E900026FF0F9
:1023A0001F0310438A68C96803EB421242EA4121C5
:1023B00008430090286106F031F8064609E0601CE9
:1023C00007D024B106F02AF8801BA04201D90320CF
:1023D000F8BDA8698006F2D40020F8BDF0B5D1E9B7
:1023E00000346FF00F055B1E2E0105EB0414234330
:1023F0008C682F034FEA054C0D8A06EB04248E8A65
:102400002343CC68097E4FF07F4E012A07EB054538
:102410000CEB06560EEB01610CD082683F1107EB06
:10242000043423432B4333430B4302F070421343E2
:1024300083600FE08768084A17402203C468A2F54A
:10244000805232433A4382602B430B4304F0704482
:102450002343C3600020F0BDFF0F0FFF2DE9F047BD
:10246000044640688EB00027804601F01BFF0090B4
:10247000B0F87CA0D0F86890D0F88060D0F8885090
:10248000C06D00B10768684601F076FF05E0696835
:1024900020468847002843D12D68002DF7D12068B9
:1024A000172853D00CDC0F283DD004DC0B2877D044
:1024B0000D2825D18BE0112810D0142820D13BE025
:1024C000262846D004DC1E2851D0202818D18AE0C6
:1024D0002A2816D0B0F5107F12D128E04046E568D2
:1024E00001F0E0FE0290697A39B9297A012904D114
:1024F00030F87C1F41F48071018002A801F03CFF9C
:1025000075E0404601F0CEFE0090E16811B1C0F8E0
:10251000841002E0D0F88400E060684601F02CFFEF
:102520000EB0BDE8F087D7B34046B8475FE021461C
:1025300040461DF099FDF3E705A9404600F0A9FBD0
:10254000E0680699016007994160E9E7C4F80C90DA
:10255000E6E7E0680228E3D1CDF83080E0680D902E
:1025600027200A900AA9A06816F05AFCD8E7E0686C
:10257000012804D00021404600F0BBFAD0E73046E5
:1025800015F0E3FB68B1304615F024FE304615F037
:102590009FFA98B10121304614F038FB0EE026E096
:1025A0002FE0484615F06AFE0646404601F07AFEE6
:1025B0000090C0F88060684601F0DEFE01214046D0
:1025C00000F097FA002EABD10020E060A8E75FEAA8
:1025D0000A700CD4E068C06848B1007A38B140464F
:1025E00015F0F8FD03E0214640461DF06BF9214649
:1025F000404614F077FA002892D0204614F0BEFD31
:102600008EE7404601F04EFE0090703001F0A0FDD4
:10261000684673E7F0B587B0B0F908400DF10C0CCF
:102620000C9E876945688CE8F000448A0025CDE956
:1026300000150294B0F90C10B0F91050B0F90E402A
:10264000B0F90A00194410442B46224600F002F863
:1026500007B0F0BD2DE9F04F8BB09846DDE9155677
:1026600091468A468346149F1A9C03F0CBF8334860
:10267000603445F48055CDE90204CDE90075434648
:102680004A465146584614F0C1FC04004FD001F0B0
:1026900009FE30220490179914F0E2FB04982822D6
:1026A00027493430FEF73AF804981999244F4166C7
:1026B000A0F87C600026C0F88060C666083FC0F8BD
:1026C00088607968C16504A801F056FE05A9204616
:1026D00000F0DFFA1B4841F2827103960094CDE9C5
:1026E0000110BDF91E00BDF91A10BDF91C20431AD6
:1026F000BDF918005B1C121A521C14F087FC064628
:102700007868416820468847204601F0CBFD049058
:10271000866604A801F030FE42F20400054202D1B0
:10272000204614F0DBFD2046189900F005FA04F06D
:10273000DDFB0BB02046BDE8F08F00005D240008F3
:10274000F0030220B92E00082DE9F041044694B0B0
:10275000006800F0B7F908B1D94D01E0D84D2C352B
:10276000606815281ED00CDC0B281FD004DC002864
:102770007ED005287DD12FE10E287BD01228F9D1FB
:1027800041E1162806D0172808D0182808D01C28A0
:10279000F0D109E0E86914B0BDE8F081286AFAE7F1
:1027A000686AF8E7A86AF6E76869F4E720680B90BA
:1027B0001C200C90206801F075FD0390016D0BA8A2
:1027C0008847064603A801F0D7FD022E0FDB95E8E7
:1027D00007008DE80700D4E904023346A16904F03C
:1027E000E7FF20698719A069A0EB06082CE028689C
:1027F00003F0A3FE2169E8690A18521E606902F01D
:10280000F7FCA269E869111A491C606902F0F0FC42
:10281000D4E904077F1C394602F03AFD3946A06925
:1028200002F036FD686803F088FE20693946401CD6
:1028300002F02EFDA0693946401E02F029FDA06974
:102840002769A0F10208BF1C286803F076FE424603
:102850003946606902F0CCFC686803F06EFE60697E
:1028600042463946401C02F0C3FC686A022802E076
:1028700015E1B0E000E10BDDA86803F05EFE6169E0
:102880006A6A881C8B180146424638465B1E27E060
:10289000296AB14226DD6069022E074600F102086E
:1028A00001DB374401E007F10207206901DB304416
:1028B00001E000F1020022693B460A444146A2F1D0
:1028C000010202F0C7FD022E02DBA069821B01E0BB
:1028D000A269921EA069E9693B46401A4146401C24
:1028E00002F0B8FD022E02DB6069064401E0666971
:1028F000B61CE76928687F1E03F01FFE3A46314682
:10290000206902F05DFD3A463146A06902F058FDAB
:10291000E7696868BF1E03F010FE20693A46314639
:10292000401C02F04DFDA0693A463146401E02F0BF
:1029300047FDE869022802DC286A022823DDA86A2C
:10294000022802DDE1690F1A01E0E769BF1EA868ED
:1029500003F0F3FDE969022909DD20693B464218CD
:1029600000F1020C31466046521E02F073FD286AE7
:10297000022808DDA269E8693B46101A3146401C6E
:10298000921E02F067FD286803F0D7FDD4E9062007
:10299000216902F02DFC686803F0CFFDD4E9062020
:1029A0002169401E491C521E02F022FCA86A02281E
:1029B00011DDA1692669E469A1F10208271AA41EA4
:1029C000B61C7F1CA86803F0B8FD23464246394672
:1029D000304602F03FFD71E0208A00B2ADF81400ED
:1029E000A18A09B2ADF81610228B12B2ADF81820E8
:1029F000A38B1BB2ADF81A302C69ED68CDE90054F9
:102A000002F0BAFB5AE0208A298B0844ADF8140082
:102A1000A08AADF81600208B298B401AADF818005B
:102A2000A08BADF81A00206801F03CFC0390006F09
:102A3000F0B1022003F028FE039890F87C10C1F357
:102A4000C00100EB8100006C03F077FD0398406B40
:102A500003F090FD0398006F01F024FC03990990A6
:102A6000B1F95A2005A902F08DF909A801F084FCFA
:102A700003A801F081FC21E0208AADF81400A08AAF
:102A8000ADF81600208BADF81800A08BADF81A0039
:102A9000A86803F052FD05A802F008FD0EE02068CA
:102AA00001F000FC039030F85A1F41F00C01018046
:102AB00003A801F061FC206815F012FC00206AE612
:102AC0002C04022038B505004FF000040FD002F0AE
:102AD00099FE284601F0E6FB009090F87C00000784
:102AE00000D50124684601F047FC04F0FFF92046B8
:102AF00038BD70B50D46040009D002F083FE2946AA
:102B000020461EF08BFFBDE8704004F0EFB970BDA9
:102B1000074A0649054B1160064A083BD1695860CF
:102B20001B68C2E9063008467047000020040220F6
:102B3000EC030220F00302207CB50D4604001DD0FA
:102B400002F060FE204601F0ADFB0090006F0190A6
:102B5000684601F011FC294601A805F081F958B139
:102B6000204601F09FFB009001990167684601F043
:102B700003FC204615F080F804F0B8F97CBD38B5A8
:102B80000C46050013D002F03DFE284601F08AFBFA
:102B90000090B0F95A10A14204D0A0F85A4028463B
:102BA00015F06AF8684601F0E7FB04F09FF938BDBC
:102BB00038B50C46050015D002F024FE284601F079
:102BC00071FB0022CDF8000000EB8201521C0C6466
:102BD000022AF9D3684601F0CFFB284615F04CF8DD
:102BE00004F084F938BD2DE9FC470C465FEA000982
:102BF0004DD002F007FE484601F054FB0090428E93
:102C0000114614B141F0200501E021F02005AA424F
:102C100038D04586484600F018F9009EF4691FE058
:102C2000204601F03FFB0190076AB0F90200B6F9B7
:102C30000210A0EB010801A801F09EFBB6F95610A6
:102C400041450CD1B06EA04209D096F83200800602
:102C5000204602D515F0DDFB01E014F049FF3C46AB
:102C6000002CDDD1009890F87C00400607D5A8061E
:102C7000484602D515F0CDFB01E014F039FF484677
:102C800014F0FAFF684601F077FB04F02FF9BDE875
:102C9000FC872DE9F34F85B000270C46B846059810
:102CA00001F000FB0090C06D0121856805982A683D
:102CB000904782462A6803210598904704902A6825
:102CC00002210598904703902A68002105989047B3
:102CD0000646009815F012FD8346009815F015FD84
:102CE0008146009890F83210890601D5B0F95880D5
:102CF00000F036F805460098C06E10B114F005FDDE
:102D0000074625806780A4F804A0049AABEB020074
:102D100006EB0802401E2A4420813A44E280039BCD
:102D2000A9EB0302521E6281A4F80CA02082701944
:102D3000E681401E6082684601F01EFBB4F90C007B
:102D40000190B4F91000029002AA01A9059800F0C0
:102D500039F80198A0810298208207B0BDE8F08F71
:102D600010B50146002091F83220920607D5B1F93E
:102D70005400002803D1486B02F0CDFC801C10BD2C
:102D800070B58AB00C46054601F08CFA0990C06D0A
:102D9000866809A801F0F0FA009534B1012C06D03C
:102DA000022C0BD0032C04D10AE0182000E01620DE
:102DB00001907168684688470AB070BD1520F7E732
:102DC0001720F5E72DE9FC4117468846044601F037
:102DD00069FA0090C16D056868468E6801F0CCFA0A
:102DE00032680021204690470646204614F03BFBFF
:102DF00027E000BF01F056FA0190B0F900102AB2A6
:102E0000B0F90430891A9A1AB0F90230A3EB2543BD
:102E1000B34210D190F82800000605D538688842E2
:102E200009DB491E396006E0D8F80000904202DC58
:102E3000521CC8F8002001A801F09EFA204614F0A8
:102E4000B7FB0400D6D1BDE8FC8170B586B006465C
:102E500001F028FA0590D0E91A4505A801F08CFA8E
:102E600054EA050026D069463046FFF712FFACB1A0
:102E7000BDF90620BDF90410204614F081FFBDF90C
:102E80000A00BDF90610421ABDF90800BDF9041088
:102E9000521C411A2046491C15F077FA002D09D022
:102EA000BDF90600BDF90210421ABDF9041028460A
:102EB00014F066FF06B070BD2DE9F043044640688B
:102EC00089B0054614F081FB814601F0EBF90290D0
:102ED000D0F84880D0F88070466E02A801F04CFA15
:102EE0002068172853D008DC0E283AD00F2811D0BC
:102EF00014284CD015283DD149E01E281ED01F288B
:102F00002AD0222840D0312834D10020E06009B0F6
:102F1000BDE8F0836FF070414046884503D008F06B
:102F2000F3FD01F0A5FC002EF1D0D4E902122068D7
:102F3000CDE90405CDE9061204A81FE0E0680028E9
:102F4000E5D02FB1AF4203D0384615F043F9DEE7A4
:102F5000284615F093F9DAE72146484613F0C2FDFA
:102F6000D5E7E0684168002904DD00680928EFD052
:102F70000A2805D05EB12046C4F80490B047C6E7E1
:102F8000284615F08AF9C2E7C4F80C80BFE720464E
:102F900014F0F4F8BBE7000070B5384888B0016859
:102FA00041F080010160016801F080010691016833
:102FB00041F480710160006801A9002400F4807070
:102FC00006908020012681E85100032004902C48BF
:102FD00005F028F93502CDE901562A4E01A93046FF
:102FE00005F020F9FEF78EFB00222946304605F059
:102FF00010FA142020F078FE01222946304605F010
:1030000008FA322020F070FE0122694600208DF877
:10301000004000F007F901226946A42000F002F9FF
:103020001620694601228DF80000802000F0FAF891
:103030000C20694601228DF80000882000F0F2F88B
:1030400002226946A12000F025F89DF800103029E1
:1030500003D19DF80100032808D09DF80100012844
:1030600004D0022802D0012008B070BDC0B200EB2D
:10307000012105A0FDF78AF90020F5E7303802406C
:10308000001C0240002002404354502049443A258D
:10309000780D0A002DE9F04115460F460446FEF76B
:1030A000FFFB7020FEF7C0FBFEF74CFCE0B2FEF722
:1030B000BBFBFEF747FCFEF7F3FB7120FEF7B4FB0A
:1030C000FEF740FC00246E1E09E0B44201D001204E
:1030D00000E00020FEF770FB3855641CE4B2AC42FF
:1030E000F3D3BDE8F041FEF707BC00002DE9F14342
:1030F000484F00244FF00A09474D82B0A046387867
:10310000401CC0B23870B0FBF9F209FB120109B1E2
:103110000A2864D20122022002A9FFF7BBFF9DF812
:10312000080001075BD000F00F00062857D2FF21EE
:103130004FF001088140C843002640F0C00085F8E8
:10314000200095F8201008FA04F001423AD03348E4
:103150000422694630F81400FFF79CFF95F8300010
:103160009DF80010C0079DF8010001F00F010ED07E
:1031700000EB012105EB4400C1829DF802209DF87F
:10318000031002F00F0201EB0221818110E000EB3D
:10319000012023490988091A05EB440081819DF823
:1031A00002209DF8031002F00F0201EB0221C18200
:1031B0009DF800000821B1EB101F03D005EB44007F
:1031C000C6828681641CE4B2052CBAD3A9894FF06B
:1031D000010819B9E88A08B98DF808603E709DF8B1
:1031E0000800C0060ED195F82000010602D520F097
:1031F000800005E04FF6FF71A98100F0E000E98250
:1032000085F820003878F02801D987F800904046EA
:10321000BDE8FE83600002202C000220DC8A020848
:10322000202002202DE9F041002715460E460446D5
:10323000FEF736FB7020FEF7F7FAFEF783FBE0B2ED
:10324000FEF7F2FAFEF77EFB002408E0305DFEF7A1
:10325000EBFAFEF777FB070003D1641CE4B2AC4243
:10326000F4D3FEF749FB3846BDE8F0812DE9F04381
:103270000446C56887B090468946002003F06EF981
:10328000064625B1287910B146F0020001E026F08B
:10329000020003F063F92069012558B1D4E9021254
:1032A0008DE82600039563882288046841464846D5
:1032B000A0471EE0124F134B214638681B68427C22
:1032C000E068984730B9E088012801D0002001E08B
:1032D0003868806BA288E388A1680095CDE9041066
:1032E000CDE902320195638822884146484607F0BD
:1032F000CBFC07B03046BDE8F04303F02FB9000027
:103300009C010220940102201CB50024019401AC10
:10331000009400F0E7F81CBD2DE9FF4F83B0814613
:1033200006988A46A0EB0A08109E00200090A2EBA7
:1033300009043568934654EA080018D02046FDF782
:10334000BBFC07464046FDF7B7FC87420BDA204638
:10335000444680464846D14682465846DDF818B075
:10336000069001200090002C07DD204606E007B003
:103370004846BDE8F04F00F03BB96042A0420AD099
:103380004846D9466442C8F1000883464FF0FF37EB
:10339000DDF818A000E001275148B8F1000F11D066
:1033A00004EBD4714FEA610B01DACBF1000B4C480E
:1033B0000068807E88B3002F02DA306820443060D5
:1033C00000257BE000990029016821D0897E11B198
:1033D0000027804615E007B05A4649465046BDE8EA
:1033E000F04F07F017BE28466D1C1EF001FC38B9DF
:1033F000D8F8000009EB0701406E4268504690473C
:103400007F1CA742EFDD6D1E356007B0BDE8F08F71
:103410008A7E1AB10027804617E019E0486E5A46A6
:103420005146036807B04846BDE8F04F18472846A4
:103430006D1C1EF0DDFB38B9D8F8001009EB070051
:10344000496E4A68514690477F1CA742EFDDDAE794
:1034500000250FE008FB05B090FBF4F101EB0A003A
:10346000009951B11E4A09EB05011268526E52686B
:1034700090476D1CA542EDDDC7E7194909EB05032F
:103480000968496E4A6801461846F1E708FB05B02D
:1034900090FBF4F101EB0A00019030683844306091
:1034A0001EF0A6FB48B9009890B10D4809EB050144
:1034B0000068406E4268019890476D1CA542E5DDAA
:1034C0003068002F01DA20443060C01B30609CE778
:1034D000034909EB05000968496E4A680199EBE761
:1034E0009C0102202DE9FF470F46404916468046C1
:1034F00009680C981D460A7E012A1CD0A8EB06001C
:10350000791B50EA01031CD0A2F1010920F034F923
:1035100000F58060824604F092FD00FB09F45046FD
:1035200004F092FD00FB09F1002C0CDAC4F50070E8
:10353000801240420AE00090324639464046FFF78A
:10354000EBFEBDE8FF8704F50074A012002904DA41
:10355000C1F5007189124C4202E001F500718C1234
:10356000002804DD411C01EBD171491003E000EBA0
:10357000D0714910401E00EBD0704210002C04DDC9
:10358000601C00EBD070401003E004EBD4704010DE
:10359000641E04EBD47308EB0104ADF800403C1842
:1035A000ADF80240A8EB02045B10B21AADF804407B
:1035B000ADF808203144FC1AEA1AADF80C10284482
:1035C000ADF80A20ADF80E000023ADF806401A460B
:1035D0000421684600F07AF83946404619F0F4F9BB
:1035E0002946304619F0F0F9ABE700009C010220B3
:1035F000064A13681A7E012A05D0521E02EBD272C7
:10360000521000F005B85A6E526810479C01022013
:103610002DE9F05F0646884640F2C32002FB00F128
:103620004FF47A7091FBF0F702FB02F102EBD270DB
:1036300001EB600B1446B118234A301B7F1C126843
:10364000526E13680A4641469847012538E000BF8C
:1036500005FB05F004FB040159451CDDBC4219DDE6
:10366000194B06EB050AA6EB05091B68AAF1010236
:1036700008EB04015B6E09F101001B689847124BCF
:10368000AAF10102A8EB04011B6809F101005B6EBD
:103690001B689847641E0C4B3219301B1B689246FE
:1036A00008EB05015B6E81461B689847064B524646
:1036B000A8EB05011B6848465B6E1B6898476D1CAC
:1036C000BD42C5DDBDE8F09F9C0102202DE9FF4F02
:1036D00043F6FF740F46664283B09B468146002145
:1036E0000BE000BF09EB8100B0F90200A04200DA54
:1036F0000446B04200DD0646491CB942F2DB674889
:103700000068406900280DD0B0F906101A46A1EBF8
:103710000B01B14200DA0E46B0F90200801AA04255
:1037200000DD0446B4E0DFF878A100200546CAF8C1
:10373000000088E0781E854201DA6B1C00E000235F
:1037400009EB850C09EB8302BCF90200B2F9021007
:10375000A04244D1A14215D139F92330059A39F953
:10376000251003EB020C4D4A05981268084404EB3F
:103770000B01526E6045136801DA62462AE0024688
:10378000604627E02846A4464FF000087A1E0BE06A
:1037900008B1401E00E0781E09EB8003B3F9023047
:1037A000634504D108F101089045F1DB2346A342AB
:1037B00048D01A1B39F92500A1EB040C059B92EAAD
:1037C0000C0F09D4354A184404EB0B011268526EF1
:1037D00013680246984735E015F018FC32E0A14224
:1037E00030D001DBA04203DDA0422BDBA14229DC6B
:1037F000E04688420ADC0346A04223DC0846A14298
:1038000020DBB8F900C0B2F9001008E00B46A14275
:1038100018DCA04216DBB2F900C0B8F90010E21AB9
:10382000A1EB0C0151430029A0EB030202DD01EBE7
:10383000620102E0A1EB6201491CC01A91FBF0F0A9
:103840006044C9E76D1CBD42FFF674AF0598009057
:1038500004EB0B00019000208046054613E011495F
:10386000B8F1000F31F915A009D0009901EB0A0257
:1038700008440A490968496E0B680199984788F01D
:10388000010850466D1C064909688D42E7DB641C3F
:10389000B4427FF748AF07B0BDE8F08F9C0102202B
:1038A0004C0C022068E6042010B5002002F03AFE1D
:1038B0006FF07F4002F041FE012002F0C7FE0020C1
:1038C00002F0D2FE002002F0DFFE002002F046FEF1
:1038D0000448006802F04EFEBDE81040002002F0EF
:1038E00087BE0000980102202DE9F043424889B0CC
:1038F000016841F080010160016801F080010791D9
:10390000016841F480710160006801AADFF8EC9061
:10391000802500F4807007900024009501266946F8
:103920000327484682E8D00004F07CFC4FF48078FE
:103930006946CDE90086324E304604F073FCFDF74F
:10394000E1FE00224146304604F063FD0A2020F0EB
:10395000CBF901224146304604F05BFD0A2020F0FD
:10396000C3F9CDE90054CDE902476946484604F061
:1039700059FC642020F0B8F9042248F2401005A94F
:1039800000F056F805A98DF818401EA0FCF7FEFCC3
:103990001FA105A8FCF746FF18B1012009B0BDE83A
:1039A000F083022048F2400501228DF8140005A999
:1039B000284600F079F90122E81D05A900F038F841
:1039C0009DF8141060290BD213A0FCF7DFFC1748F8
:1039D0008088A0F5AA41103902D1012000F03EF9FB
:1039E0000A2020F081F90122284605A98DF814400B
:1039F00000F05AF90020D1E730380240001C0240A4
:103A0000002002404354502049443A25730D0A00D7
:103A1000393134370000000044656661756C7420EC
:103A20005665723A25640D0A00000000202002202D
:103A30002DE9F04115460F460446FDF731FF2820D9
:103A4000FDF7F2FEFDF77EFF200AFDF7EDFEFDF724
:103A500079FFE0B2FDF7E8FEFDF774FFFDF720FF08
:103A60002920FDF7E1FEFDF76DFF00246E1E09E041
:103A7000B44201D0012000E00020FDF79DFE385542
:103A8000641CE4B2AC42F3D3BDE8F041FDF734BFAF
:103A90002DE9F14F6D4E00244FF00A0B6C4D82B0B2
:103AA000A1463078401CC0B23070B0FBFBF20BFB7B
:103AB000120109B10A2873D248F24E170122384682
:103AC00002A9FFF7B5FF9DF808004FF000080106B6
:103AD0000AD500F00F00062806D20122384601A9B7
:103AE0008DF8048000F0E0F89DF80800010757D039
:103AF00000F00F01062953D2FF20564F4FF0010965
:103B000088408DF80400C04395F820A040F0C00024
:103B100085F82000A889A882E88AE88395F8201013
:103B200009FA04F001424ED04B480422694630F8AD
:103B30001400FFF77DFFB888A0F5AA41103904D022
:103B4000A0F58641423916D03DE095F83000C00717
:103B500015D09DF801109DF8000000EB012105EB48
:103B60004400C1829DF803209DF8021001EB022160
:103B7000C1F5487126E095F83000C00711D09DF8D6
:103B800001109DF8000000EB012105EB440081814C
:103B90009DF803209DF8021001EB0221C18212E082
:103BA0002CE09DF801109DF8000000EB012105EBD1
:103BB0004400C1829DF803209DF8021001EB022110
:103BC000C1F588718181641CE4B2052CA6D3A98952
:103BD0004FF001093A882846914203D8C18A7A8871
:103BE000914209D99DF8081001F00F0101290CD963
:103BF000C1898181018BE98286F800809DF80800E7
:103C000000F08F0080280AD018E0818A8181C18B62
:103C1000C18280218DF8081085F820A0EEE795F884
:103C20002000010602D520F0800005E04FF6FF716C
:103C3000A98100F0E000E98285F820003078F028C2
:103C400001D986F800B04846BDE8FE8F6100022029
:103C50002C000220202002209E8B020808B50021A3
:103C60008DF800108DF801000E489DF80020435C8F
:103C7000491CC9B2B8291A448DF80020F5D3D0B236
:103C80000849C043401C8DF80000B82248F24700A4
:103C900000F00AF80222694648F2FF0000F004F83A
:103CA000002008BDE68A02082DE9F04100271546EC
:103CB0000E460446FDF7F4FD2820FDF7B5FDFDF79F
:103CC00041FE200AFDF7B0FDFDF73CFEE0B2FDF736
:103CD000ABFDFDF737FE002408E0305DFDF7A4FDE5
:103CE000FDF730FE070003D1641CE4B2AC42F4D30C
:103CF000FDF702FE3846BDE8F08100002DE9F04FE7
:103D0000DFF828B191B04FF0FF35DBF80030B3F9A0
:103D100022100691DE69B3F92490F469A1898142E9
:103D200006D8E289824203D3471AD4F8008012E011
:103D3000D4E9018100296FD00A8882426CD84D886D
:103D4000854269D3801A82B2486800EB8200B0F9DC
:103D50000070B0F90250781C5ED0307EA17C10FB60
:103D600001FA217CCDE90701B3F92A60304607F05A
:103D700097FFC0B20E90DBF8000007FB0A81A37C1E
:103D8000826B0127CDE90412CDE90273C069089A5C
:103D9000C17E807ECDE90001DDE90603494606F0DB
:103DA00073FF681C18D046F0020007F079FFDBF8BB
:103DB0000000A37C05FB0A81826BCDE90273CDE98B
:103DC0000412C069089AC17E807ECDE90001DDE958
:103DD0000603494606F058FFDBF800005D46C0695F
:103DE000417E007E814214D9022E12D086F004005A
:103DF00007F056FF2868C069027EC37E12FB03915C
:103E0000437E857E089A06984B4412FB050207F014
:103E10002FFA0E9807F044FFDBF80000627C418C1B
:103E20001144418411B0BDE8F08F00009C010220D4
:103E300004480068C069C06909B1027C0A60407C1E
:103E4000704700009C010220022008807047C06972
:103E500082898A4202D8C2898A4210D2806880B19F
:103E600002888A420DD843888B420AD3406800EB0F
:103E70008100A0EB8200B0F90000002801DB0120E6
:103E800070470020704700002DE9F043304C034696
:103E900087B020681946B0F92A60C069C06900F08F
:103EA00086F8002850D041680088181A01EBC00538
:103EB0003046AF7807F0F4FE814620686A68012337
:103EC000816BCDE90237CDE90421C169CB7E8A7EC1
:103ED000CDE900230B7EB0F924102A78B0F9220036
:103EE00006F0D2FE2068C069417E027E91421FD951
:103EF000C07E11FB00F812FB00F7022E18D001F073
:103F000070FB064601F036FB02F017FB21682A78A9
:103F1000CB69B1F92200DB7E12FB0302B1F9241058
:103F200001EB0803394407F0A3F9304602F005FB22
:103F3000484607F0B5FE20686A78C369B0F92210D8
:103F40009B7E12FB0311418407B0BDE8F0830000A3
:103F50009C01022030B50F4C05460B4620682946CF
:103F6000C069C06900F023F8002812D041680088B9
:103F700024682A1A0120E46900EBC200085CA47ED0
:103F800010FB04F0002B04D011F8321011FB04F1E7
:103F9000196030BD9C01022001200880704700B5E7
:103FA000C06900F004F8002800D0012000BD06E040
:103FB00002888A4202D842888A4202D28068002857
:103FC000F6D1704770B50025124C19E020691249EE
:103FD000C5EB051600EBC60070220968001DFCF752
:103FE0009DFB2069002140F8361000EBC60000F16F
:103FF0000C018161011D0A1DC0E90F126D1C416495
:10400000A0688542E2DB01F0FDFBBDE8704002F0F4
:104010006DBF0000A80902209C01022070B50F4965
:104020000D480860084603F013FF0C4C143CA068D0
:10403000C0EB0010C500284600F0A6F82A46002173
:10404000206103F07EFF4FF0FF30206002F0B4FFEC
:10405000BDE870401AF0B2BEB9F90108BC090220EF
:10406000F8B50C0005460FD001F0CCFB204600F05F
:1040700017F8060010D000F015F9224600902DB177
:104080002946FCF7C4FA04E00020F8BD002103F043
:1040900058FF684600F070F902F028FF3046F8BD7E
:1040A00010B5040009D001F0ADFB204615F074F9FD
:1040B000044602F01BFF204610BD002010BD38B59D
:1040C000054601F09FFB2846FFF7EAFF040009D0F0
:1040D00000F0E8F82A460021009003F032FF68461D
:1040E00000F04AF902F002FF204638BD024A106093
:1040F00021F0030050607047FCE4042010B5040078
:1041000016D001F07FFB0B48406B10F8341059B10A
:10411000022909D2042101EBC4014158486814F076
:1041200091FF20461DF03AFBBDE8104002F0DEBED4
:1041300010BD00003CE40420002805D0034AD16BE8
:10414000016001B14860D063704700003CE4042086
:1041500010B5044601F056FB2068FFF7CFFF0020A2
:104160002060BDE8104002F0C1BE000070B50D46F1
:104170000646002405E000BF06EB8400FFF7E8FFD9
:10418000641CAC42F8DB70BD2DE9F04104461BF025
:1041900053F82848E41C24F00305016C2D1DA942A6
:1041A00000D90D46C46B13E054F8042CAA420ED17A
:1041B00084B1216809B162684A60616809B1226806
:1041C0000A60C26BA24231D12168C1632EE024682B
:1041D000002CE9D18046816BC0680F1857F8040C99
:1041E0003E1A306838B100201DF04EFB57F8040C21
:1041F0003E1A3068D0B97068A84217DB3044441BBF
:104200003046241D1DF0F8FAD8F80C10491BC8F8E8
:104210000C10D8F814102944C8F814107068401B0A
:1042200002D0314614F00EFF44F8045C2046BDE88D
:10423000F08100003CE4042010B500241AF0FCFFDB
:104240000C490F2001EBC002526C1AB101EBC00007
:10425000406C08E0401EF5D508E04168A14200D955
:104260000C46806810B180680028F6D1A4F10C00DB
:1042700010BD00003CE40420002138B104490422B0
:1042800002EBC000496B085841680C39084670477A
:104290003CE4042002488169491C816170470000A8
:1042A0003CE404200549CA69521CCA61496B01EB10
:1042B000C0010A78521C0A7000F076B83CE4042071
:1042C0007CB506460C460846FFF7EAFE050020D0FE
:1042D000FEB13046FFF7D0FFA04200DA044601F0FD
:1042E00091FA2846FFF7DEFF00903046FFF7DAFF2D
:1042F0000146019022460098FCF789F9684600F0D3
:104300003BF801A800F038F83046FFF7F7FE02F05E
:10431000EDFD28467CBD000010B501F073FAFFF7F3
:104320008BFF64220849B0F5800F04D990FBF2F4AA
:10433000086A444303E0096A4143B1FBF2F402F026
:10434000D5FD204610BD00003CE40420054910289E
:1043500005D94A68B0EB520F02D3500800E0102094
:1043600088607047FCE4042002488169491E81612D
:10437000704700003CE404200A4902684B6B52F885
:10438000082C03EBC2021378022B03D3CB690BB1C9
:104390005B1ECB611178491E117000210160084637
:1043A000704700003CE40420002806D003490422A2
:1043B00002EBC000496B0858083070473CE4042009
:1043C0002DE9FC414FF000060B465FEA0008344639
:1043D0002BD032B111461846FFF742FE060000D13D
:1043E00001244046FFF75EFF009007884568684655
:1043F000FFF7C2FFCCB9B9002846091DFFF760FFDF
:10440000050015D0FFF74EFF019040F8276001A886
:10441000FFF7B2FF4046FFF745FF00904560018877
:10442000491C01806846FFF7A7FF2046BDE8FC81D4
:104430003046FFF763FE0124F7E70820FFF73FBE91
:104440007CB5050023D0FFF72DFF00904068C0B178
:10445000FFF728FF0024019005E0019800EB84009D
:10446000FFF776FE641C00980088A042F5DC01A8E6
:10447000FFF782FF0098001DFFF76AFE00990020F9
:1044800008806846FFF778FF2846FFF737FE7CBDB7
:104490007CB50C46FFF706FF00900188A14220D9A9
:1044A0004568F5B101F0AEF92846FFF7FBFE019033
:1044B00000EB8400FFF74CFE00990888401E80B294
:1044C0000880401E019905E001EB8402526841F822
:1044D0002420641C8442F7DD01A8FFF74DFF02F0A1
:1044E00005FD6846FFF748FF7CBD38B5002430B1B4
:1044F000FFF7D8FE009004886846FFF73DFF20468E
:1045000038BD38B50D46002448B1FFF7CBFE29462B
:10451000009000F04CF804466846FFF72DFF204657
:1045200038BD38B50D46002448B1FFF7BBFE29461B
:10453000009000F04EF804466846FFF71DFF204645
:1045400038BD2DE9FF4107460E46154600241046AA
:10455000FFF7B5FD009030B33846FFF7A3FE3146B4
:10456000019000F036F802900098FFF79BFE2A4673
:1045700003900299FCF74BF802A8FFF7FDFE03A891
:10458000FFF7FAFEDDE90020314600F02CF818B103
:104590006846FFF7DDFD03E00098FFF783FE044661
:1045A00001A8FFF7E9FE04B02046BDE8F08138B568
:1045B0000D4601880024A94209D9406838B1FFF7A7
:1045C00071FE009050F825406846FFF7D5FE204662
:1045D00038BD10B50024FFF7EAFF10B1FFF762FE07
:1045E0000446204610BD38B50C46014615460A88DB
:1045F0000120A24210D9496800290DD00846FFF7D2
:1046000051FE00EB840400902046FFF7A1FD6846B0
:104610002560FFF7B1FE002038BD0000F0B52D2762
:104620001C68B0F1004F08D0002600280DDA651C88
:104630001D6027704042012408E0651C01261D60B2
:104640006FF000402770491E01E00024091BC9B229
:104650002AB3491EC9B222E00C46491EC9B294428F
:1046600005D1124C27781C68651C1D602770104C02
:1046700054F8215090FBF5F4E4B20A2C11D804FB55
:10468000150011B90EB1641CE4B20A2C02D1012448
:10469000491CC9B21D686F1C30341F602C70002982
:1046A000DAD1196800200870F0BD000090010220E6
:1046B00058D7020810B5002807DD0A682B24531CC0
:1046C0000B601470096800220A7010BD10B5044612
:1046D00001F098F8044904EB840001EB8000447970
:1046E00002F004FC204610BD40E604202DE9FC5FEA
:1046F0008946044601F086F8484600F07FFF2C4EBC
:1047000009EB8907824656F82700019029484FF0A7
:104710000108016841B92749C0F80080091D2648F1
:104720000860084603F094FB214A09EB89015FEA1F
:104730000A0002EB81051BD001F0D8FE83464FF042
:104740007F4001F0EFFE00F093F800221146206850
:1047500000F016FC206842880188504601F02AFFCC
:1047600046F8274085F80580584601F0BFFE17E05F
:1047700046F8274085F805802869464618B101F0BB
:10478000E5FD0020286174B10096E868A1684B46F9
:10479000421AA8686168411A206801F031FE286158
:1047A00048461DF0B7FE02F0A1FB0198BDE8FC9F52
:1047B00040E60420400C022009FA010870B51446B6
:1047C0000D46064601F01EF8204600F017FF0300D4
:1047D000174804EB840109D050F821004168806833
:1047E000711A2A1A184601F0D5FE1CE000EB81046C
:1047F000A268B24201D0012200E00022E368AB428D
:1048000001D0012300E000231A430CD0236943B1F7
:1048100050F82100816840686A1A311A184601F080
:10482000BAFDC4E90265BDE8704002F05FBB00005C
:1048300040E6042010B5C2B2CBB2D21A00D5524223
:1048400093B25B43C0F30722C1F30724121B00D5C8
:104850005242000C92B2A0EB114002FB023200B2B5
:10486000002801DA404200B280B200FB002010BDF7
:1048700010B50021084600F063FF43F6FF72504276
:10488000BDE8104013460146AFF300802DE9FC411E
:104890001C4615460E46074600F0B4FF042007F0FC
:1048A000FFF980461248C068C16C006D0F44064491
:1048B0000D440444ADF80070ADF80450ADF802604A
:1048C000ADF80640684613F027FF07E023462A4666
:1048D0003146384606F0CCFC13F0D2FE0028F5D164
:1048E000404607F0DDF902F001FBBDE8FC81000065
:1048F00090010220B0F90630B0F90420B0F902109E
:10490000B0F90000FFF7C2BF2DE9F8431C00DDE954
:10491000089816460F46054602D112F07DFD044662
:1049200000962E6843464A4621462846B047060070
:1049300039D012F066FD8146698A304612F066F978
:10494000304613F066FD484613F063FD4FF0000853
:104950000CE000BFCDF8008055F81CCF00231A46AC
:1049600049462846E04700B313F053FD7F1E002F51
:10497000F0DC1D21484613F060FB601C12D000F0F3
:1049800041FF12F08DFD30B1FFF70EFD8469B44296
:1049900001D02000F8D1B44202D0304613F06EFCB2
:1049A00002F0A4FA3046BDE8F883304612F01EFC4F
:1049B0000020F8E72DE9F0411C4616460D46074653
:1049C000022B02DB0020BDE8F0811C20FFF7DCFB9E
:1049D0000028F8D00DB105610AE0094A52F8241008
:1049E00009B905E011460A68002AFBD1096901618D
:1049F00084618682002101604160C0E90217E2E71C
:104A0000B401022070B51D46FFF7D4FF040009D0A1
:104A100000F00EF8E068006820B90348006800EB79
:104A200085008465204670BD9C010220FFF784BB91
:104A300070B590B38269022A30DA1E4C54F8221005
:104A400019B944F8220032E019464B68002BFBD11B
:104A500006E0CB68C5681B682D68AB4203DD0968BA
:104A60000029F6D11AE0C1B1CB68C6681B68366868
:104A7000B3420CD1838A012B05D008E01946DB68CC
:104A80001B68AB4203DB0B68002BF7D129B14B68E5
:104A900033B118604A68426004E0FFE7012070BD4E
:104AA00044F822004860884200D1002101600020C3
:104AB00070BD0000B401022010B503E00468FFF7E8
:104AC000B7FF20460028F9D110BD1EF003B8000042
:104AD0002DE9F0410026DFF834800D4F354600BF48
:104AE00058F8254009E0E0680068385C20B12046AD
:104AF0001DF0F0FF266026462468002CF3D16D1CC3
:104B0000022DEDDB3046BDE8F0810000B40102204B
:104B1000288E0208022801DB00207047054951F861
:104B2000200004E0C16809680029F6D00068002868
:104B3000F8D17047B40102202DE9F8431D4616460E
:104B4000884604000CD0FFF7ADFB009000680768B2
:104B50006846FFF711FC2B46324641462046B847CF
:104B6000BDE8F88338B504004FF000000AD02046B5
:104B7000FFF798FB0090006845686846FFF7FCFB6C
:104B80002046A84738BD38B504004FF000000AD0D1
:104B90002046FFF787FB0090006885686846FFF7AE
:104BA000EBFB2046A84738BD2DE9F041044602F052
:104BB000EDF906191EE000BF00F02AFC052F00DD0C
:104BC000052700F01FFE11480568FFF763FB2C0066
:104BD00017D000BF02F08AF9641EFBD1384602F0FC
:104BE000B9F91DB100F00EFE6D1EFBD1FFF7BCFB45
:104BF00002F07CF902F0CAF9371A002FDCDCBDE8BC
:104C0000F081384602F0A6F9F0E70000B40902206E
:104C10001FB503ABCDF80CD0FFF700FD684600F0E0
:104C200019F81FBD7FB50C461546CDF80CD003A969
:104C3000FFF740FD002801DD641EE4B203AB2A4605
:104C40002146FFF7EBFC684600F004F87FBD012227
:104C500015F074B92DE9FC4706005FD000F0D2FDD5
:104C600000F0D6FC3C4C81462068B0F9228000F070
:104C70002FFD216807468A8CD01B888441E000BF45
:104C800047F6FF71304602F079FF82460146304612
:104C900002F04AFF2168054691F82C0000F003005D
:104CA000012841D002283BD000204A8C101A4884A9
:104CB000ADF800006A1E1044ADF80400888CADF811
:104CC0000200A9F101010844ADF806006A46514608
:104CD000304602F07DFB2168BDF802008884514611
:104CE000304601F0F1FF064430780A281ED00D2826
:104CF0001CD0BDF80000216828444884307818B1E1
:104D0000761C30780028BBD12068818C394481849E
:104D1000818D21F00301818502F0E8F8BDE8FC8770
:104D200005EBD5704010C0E72846BEE7206890F834
:104D30002C1001F0030101290BD0022909D0018CAC
:104D4000418431780A29D9D1828C02EB090181840E
:104D5000D4E7A0F82280F4E79C01022070B5144645
:104D60000D46064600F04EFD0548006845848484E3
:104D70003046FFF76FFFBDE8704002F0B7B80000A3
:104D80009C01022047F6FF7300F044B82DE9FF476D
:104D90001F460C9E90460D46814696B30024009413
:104DA000019400F02FFDADB1286800906868019073
:104DB00017480099016001994160284613F00AFBE9
:104DC000040007D00246294602A802F044FF02A8C8
:104DD00013F000FB30461DF057FA0546716868462F
:104DE00088473B4642466946484602F049FB204612
:104DF00013F0F0FA28461DF047FA02F077F8BDE804
:104E0000FF87FFE704B0BDE8F04700F003B80000FB
:104E1000640902202DE9FC411F4690460D4606001C
:104E20004FF000041AD000F0EDFC65B1284613F0F5
:104E3000D1FA040007D002462946684602F00BFF6B
:104E4000684613F0C7FA3B4642462946304602F010
:104E500017FB204613F0BEFA02F048F8BDE8FC81CB
:104E60002DE9FF4F87B09046894607007DD000F0BE
:104E7000C9FCD9F80040D9F8045021B228B2401A30
:104E8000401C029000F0C4FB064618F00C0F1ED028
:104E900038460A9A029902F033F808F00C01042906
:104EA00004D0082902D00C2911D104E0291400FBF8
:104EB0001610401C09E02114C1EB254200FB16200E
:104EC000401C00EBD07001EB600060F31F444846CB
:104ED00013F080FA5FEA000B09D00246494604A8A5
:104EE000CDE9044502F0B7FE04A813F073FAA6F169
:104EF000010A38460A9A029902F0F2FF03900AEB7F
:104F0000244060F31F45CDE900453846039902F07F
:104F10000BFE18F003010ED001292CD002290ED16E
:104F2000B9F90420B9F90010521A101A00EBD07028
:104F300001EB600001E0B9F80000ADF800006A463E
:104F40003846039902F044FA38460A9A029902F068
:104F5000BDFF074406EB244060F31F443878002867
:104F6000C7D1584613F036FA00E001E001F0BEFF69
:104F70000BB0BDE8F08FB9F80410081A401CDCE74C
:104F80007CB514460D46064600F03CFC114800680E
:104F9000C16C006D0D4404443188681E0844ADF8AE
:104FA0000400ADF800507188601E0844ADF806009A
:104FB000ADF80240684613F0AFFB06E022462946F2
:104FC0003046FEF753F913F05BFB0028F6D101F0F1
:104FD0008DFF7CBD9C0102201CB50A460146684637
:104FE00002F028FF00F00EFC2548BDF80010006814
:104FF00030F84C2F1144ADF80010BDF80210828833
:105000001144ADF80210BDF8041002881144ADF847
:105010000410BDF8061080880844ADF80600684604
:1050200013F07AFB27E000BFBDF900400BE000BFA2
:10503000BDF90210204605F0A1FFBDF9061020467B
:1050400005F09CFFA41CBDF90400A042F0DABDF9F4
:1050500002400AE0BDF90000214605F08FFFBDF9CE
:105060000400214605F08AFFA41CBDF90600A042F9
:10507000F0DA13F005FB0028D6D101F037FF1CBD94
:105080009C0102202DE9F04F87B09B46DDE9109886
:1050900092460C46054600F0B5FB16480168C86C00
:1050A000096D47190E1900EB0A0501EB0B04ADF869
:1050B0001070ADF81450ADF81260ADF8164004A8A9
:1050C00013F02AFB88B1DFF830B04FF0000ACDE9C9
:1050D0000098CDE902BA2B4622463946304617F0F1
:1050E000E5F913F0CDFA0028F1D101F0FFFE07B089
:1050F000BDE8F08F9C01022015B000082DE9FF4F9C
:1051000087B09346DDE915980C460546DDF850A0BA
:1051100000F078FB16480168C86C096D471900EB70
:105120000B050A980E190C18ADF81470ADF818504C
:10513000ADF81660ADF81A4005A813F0EDFA90B17D
:105140004FF0010B0B49CDE900A9CDE902812346BF
:105150002A46CDF810B03146384617F066FA13F0FB
:105160008FFA0028EED101F0C1FE0BB0BDE8F08F40
:105170009C0102208DAE00082DE9F04F87B09B46C0
:10518000DDE9109892460C46054600F03BFB1648B8
:105190000168C86C096D47190E1900EB0A0501EB8F
:1051A0000B04ADF81070ADF81450ADF81260ADF806
:1051B000164004A813F0B0FA88B1DFF830B04FF011
:1051C000010ACDE90098CDE902BA23462A463146C4
:1051D000384617F06BF913F053FA0028F1D101F0BB
:1051E00085FE07B0BDE8F08F9C0102208DAE00085F
:1051F0002DE9FC4114460D46064600F003FB114F15
:105200003968C86C096D054404440E44ADF800507B
:10521000ADF80440ADF80260ADF80660684613F0E2
:105220007BFA08E0386822463146406E036828461B
:10523000984713F025FA0028F4D101F057FEBDE895
:10524000FC8100009C0102202DE9F0411C4615461E
:105250000E46074600F0D6FA0C480168C86C096D86
:10526000074405440E440C44002013F055FA07E0AF
:1052700023462A4631463846FEF746F813F000FA30
:105280000028F5D1BDE8F04101F030BE9C010220BC
:105290007CB50C46064600F0B5FA0F4D2868C16C87
:1052A000006D0E440444ADF80460ADF80060ADF844
:1052B0000640ADF80240684613F02EFA07E0286871
:1052C0002146406E42683046904713F0D9F90028D5
:1052D000F5D101F00BFE7CBD9C0102202DE9FC41C3
:1052E0001C4616460D46074600F08CFA1A4801681F
:1052F000087ECA6C096D17440D440C44401E391ACF
:105300001644ADF800103118ADF80410291A2044E5
:10531000ADF80600ADF80210684613F0FDF915E08F
:1053200032462946384605F0B1FD32462146384618
:1053300005F0ACFD621E691C384605F06BFE621E6E
:10534000691C304605F066FE13F09AF90028E7D193
:1053500001F0CCFDBDE8FC819C0102202DE9FE435B
:10536000994614460D460646DDF8288000F04AFAB4
:1053700012480168C86C096D87194E19051901EBAF
:105380000904ADF80470ADF80850ADF80660ADF84A
:105390000A4001A813F0C0F909E023462A46314625
:1053A0003846CDF8008017F081FB13F069F900282A
:1053B000F3D101F09BFDBDE8FE8300009C010220BB
:1053C0007CB514460D46064600F01CFA0F480068EE
:1053D000C16C006D0E4405440444ADF80060ADF8A6
:1053E0000460ADF80250ADF80640684613F094F939
:1053F00006E022462946304605F00CFE13F040F93F
:105400000028F6D101F072FD7CBD00009C01022055
:1054100010B5002400E0012400F004F80028FAD1BF
:10542000204610BD094810B50068002410B180471F
:1054300000B1012411F064FF00B1012404480068A8
:1054400010B1804700B10124204610BDC0010220E8
:10545000BC0102202DE9FC411C4615460E460746BC
:1054600000F0D0F910480068C16C006D0F4406448C
:105470000D440444ADF80070ADF80450ADF802607E
:10548000ADF80640684613F047F907E023462A4680
:105490003146384605F0ECFE13F0F2F80028F5D15D
:1054A00001F024FDBDE8FC819C010220B0F906302A
:1054B000B0F90420B0F90210B0F90000FFF7CABF3C
:1054C00008B50B46002805D0009281888268C08804
:1054D00000F001F808BD10B50828029C30D008DCA7
:1054E00004FB01F401280AD0022813D0042804D1B7
:1054F0001CE0102828D020282CD0002010BD04EB60
:10550000D30003F00701105CC1F10701C84000F0AF
:10551000010010BD04EB93000621105C01EA430179
:10552000C1F10601C84000F0030010BD04EB5300B8
:10553000D907105C02D000F00F0010BD000910BDAB
:1055400004FB0130105C10BD481004FB003032F841
:10555000100010BD881004FB003052F8200010BD70
:10556000034951F82000C1688A6A082110470000E9
:10557000B401022010B500F045F905F0A9FE05F0D0
:1055800079FF044601F0B2FC204610BD10B5044678
:1055900000F038F9054800210068C06942682046DB
:1055A0009047044601F0A2FC204610BD9C01022059
:1055B00070B50C46054600F025F9064821460068FE
:1055C000C069426828469047044601F08FFC204697
:1055D00070BD00009C010220002801D011F0EEBE39
:1055E000704710B500F00EF905F07AFE05F042FFA5
:1055F000044601F07BFC204610BD0000002102287B
:1056000002D2024951F8201008467047A009022032
:1056100010B500F0F7F804480068C069447E01F056
:1056200065FC204610BD00009C01022070B50D46AF
:10563000044600F0E7F814B909480068C46929462F
:1056400094F82000A87094F82200287194F82100A2
:10565000E870A26820469047BDE8704001F046BC63
:105660009C01022010B500F0CDF802F053FA044678
:1056700001F03CFC204610BD70B514460D460646B0
:1056800000F0C0F822462946304605F095FE10B1DC
:10569000002028602060BDE8704001F027BC70B594
:1056A0000C46054600F0AEF82146284602F090FA76
:1056B000BDE8704001F01ABC10B5044602F07AFA59
:1056C00001462046BDE8104002F02EBA01F05EBC53
:1056D00010B5002400F096F80B48006890F82C10E4
:1056E00001F00C01042904D0082906D00C2907D1A7
:1056F00003E0C069047E641E02E0C069007E4408C5
:1057000001F0F4FB204610BD9C010220417EC07ECA
:1057100011FB00F07047017EC07E11FB00F0704766
:10572000024951F82000006900687047B401022066
:10573000024951F82000006940687047B401022016
:1057400070B50D46044600F05DF8204619F0EAFBFE
:105750000446284619F0EEFB044301F0C7FB20463F
:1057600070BD000010B501F063FD0A492E200870DD
:1057700001F012FC084819F011FD05F0A1FE0446E5
:105780000021084600F042FF12F0CCF9FEF71AFCA7
:10579000204610BD9001022008E504202DE9FC41BF
:1057A0001C4615460E46074600F02CF8012000F076
:1057B000D5FE804612480068C16C006D0F44064457
:1057C0000D440444ADF80070ADF80450ADF802602B
:1057D000ADF80640684612F09FFF07E023462A46D0
:1057E0003146384605F044FD12F04AFF0028F5D155
:1057F000404600F0B3FE01F079FBBDE8FC810000FB
:105800009C01022070B5184CE06820B101F0B6FB95
:105810006168884204D001F0EDFB01F0AFFB6060ED
:10582000E068401CE06001281CD119F0C7FA054669
:105830002068854216D0002813DBFFF749F901469E
:105840002068C0EB0012206900EBC2025167C5EB73
:105850000511064A00EBC100011D1160406FFFF702
:105860002BF9256070BD0000A80902209C010220D0
:105870001CB5040004D10E480068046E002C16D03C
:10588000FFF7C0FF2046FEF70DFD00904469684613
:10589000FEF772FD4CB12046FEF704FD01908168D1
:1058A0008968884701A8FEF767FD01F01FFB1CBD52
:1058B0009C01022001490A4600F002B801F0FFFFF6
:1058C0002DE9F04387B015460C465FEA000846D044
:1058D000FFF798FF002000F041FE81462148006854
:1058E000066E4046FEF7DEFC00900068806900F01E
:1058F000FDFD074640F6FF70C44204D10098B0F9A0
:105900000440B0F906500098611E0289ADF80440C9
:105910001144ADF808104189681E0844ADF80650DE
:10592000ADF80A0011F0C6FA6846FEF725FD01A899
:1059300012F0F2FE06E02A462146404600F082FBC5
:1059400012F09EFE0028F6D1384600F0CFFD30461A
:1059500000F08AF9484600F001FE01F0C7FA07B0EE
:10596000BDE8F0839C0102202DE9FE4F9846914648
:105970008A46834600270C9EFFF744FF18481949C2
:105980000068407C51F82040E1680968042903D090
:105990002468002CF8D100E01CB9FFF7BBF8040024
:1059A0001BD0E0680121C26A20469047050011D053
:1059B0002469A0688047401C02D10B4C46F00106C8
:1059C0000096CDE9015443464A465146584600F0F8
:1059D000DFF9074601F08AFA3846BDE8FE8F00007D
:1059E0009C010220B4010220DCE1020838B5040069
:1059F0001CD0FFF707FF0E480068006EA04201D1DF
:105A000000F066FD2046FEF74DFC0090406908B1AD
:105A100001F055FA00980068FFF708F86846FEF7AD
:105A2000ABFC2046FEF76AFB01F060FA38BD0000CF
:105A30009C0102202DE9FF4FDFF83891074683B023
:105A4000D9F800009A468B46447C4B480057012801
:105A5000204606DD05F0D8FC0546204605F0E0FCB2
:105A600005E005F0BFFC0546204605F0C1FC0446F4
:105A70001FB302A901A8FFF712FEB7F90000002822
:105A800000DA0020B7F902608046002E00DA002616
:105A900001984119B7F90400491E19F0D3FD0546D4
:105AA00002980119B7F90600491E19F0CBFDA5EBC4
:105AB0000802841B521C641C03E04FF00008464699
:105AC0002A46BAF1000F01D1C4F1000A002A4FDDC5
:105AD000002C4DDD10980090534631464046FFF7AC
